{"contracts/BasicDutchAuction.sol":{"BasicDutchAuction":{"abi":[{"inputs":[{"internalType":"uint256","name":"_reservePrice","type":"uint256"},{"internalType":"uint256","name":"_numBlocksAuctionOpen","type":"uint256"},{"internalType":"uint256","name":"_offerPriceDecrement","type":"uint256"}],"stateMutability":"nonpayable","type":"constructor"},{"anonymous":false,"inputs":[{"indexed":false,"internalType":"address","name":"winner","type":"address"},{"indexed":false,"internalType":"uint256","name":"amount","type":"uint256"}],"name":"AuctionEnded","type":"event"},{"inputs":[],"name":"auctionEndTime","outputs":[{"internalType":"uint256","name":"","type":"uint256"}],"stateMutability":"view","type":"function"},{"inputs":[],"name":"auctionEnded","outputs":[{"internalType":"bool","name":"","type":"bool"}],"stateMutability":"view","type":"function"},{"inputs":[{"internalType":"address","name":"account","type":"address"}],"name":"balanceOf","outputs":[{"internalType":"uint256","name":"","type":"uint256"}],"stateMutability":"view","type":"function"},{"inputs":[],"name":"bid","outputs":[{"internalType":"bool","name":"","type":"bool"}],"stateMutability":"payable","type":"function"},{"inputs":[{"internalType":"address","name":"","type":"address"}],"name":"bids","outputs":[{"internalType":"uint256","name":"","type":"uint256"}],"stateMutability":"view","type":"function"},{"inputs":[],"name":"claimRefund","outputs":[],"stateMutability":"nonpayable","type":"function"},{"inputs":[],"name":"firstBid","outputs":[{"internalType":"uint256","name":"","type":"uint256"}],"stateMutability":"view","type":"function"},{"inputs":[],"name":"firstBidder","outputs":[{"internalType":"address payable","name":"","type":"address"}],"stateMutability":"view","type":"function"},{"inputs":[],"name":"getCurrentPrice","outputs":[{"internalType":"uint256","name":"","type":"uint256"}],"stateMutability":"view","type":"function"},{"inputs":[],"name":"gotValidBid","outputs":[{"internalType":"bool","name":"","type":"bool"}],"stateMutability":"view","type":"function"},{"inputs":[],"name":"initialPrice","outputs":[{"internalType":"uint256","name":"","type":"uint256"}],"stateMutability":"view","type":"function"},{"inputs":[],"name":"numBlocksAuctionOpen","outputs":[{"internalType":"uint256","name":"","type":"uint256"}],"stateMutability":"view","type":"function"},{"inputs":[],"name":"offerPriceDecrement","outputs":[{"internalType":"uint256","name":"","type":"uint256"}],"stateMutability":"view","type":"function"},{"inputs":[],"name":"reservePrice","outputs":[{"internalType":"uint256","name":"","type":"uint256"}],"stateMutability":"view","type":"function"},{"inputs":[],"name":"seller","outputs":[{"internalType":"address payable","name":"","type":"address"}],"stateMutability":"view","type":"function"}],"evm":{"bytecode":{"linkReferences":{},"object":"60806040523480156200001157600080fd5b5060405162001517380380620015178339818101604052810190620000379190620002c9565b6200005367eaffab10148b565760c01b6200028660201b60201c565b6200006f67e1de6b143bb626cf60c01b6200028660201b60201c565b336000806101000a81548173ffffffffffffffffffffffffffffffffffffffff021916908373ffffffffffffffffffffffffffffffffffffffff160217905550620000cb67079f2c62d97002f160c01b6200028660201b60201c565b82600181905550620000ee67b6c62f507e68496260c01b6200028660201b60201c565b816002819055506200011167604806dc5efcbce560c01b6200028660201b60201c565b806003819055506200013467c38fd9656955b27a60c01b6200028660201b60201c565b60035460025462000146919062000354565b6001546200015591906200039f565b6004819055506200017767e3ffb6924ad0d09560c01b6200028660201b60201c565b600254436200018791906200039f565b600581905550620001a9673c33aa8adb8e7cb160c01b6200028660201b60201c565b6000600660006101000a81548160ff021916908315150217905550620001e0675db38216230bc4e560c01b6200028660201b60201c565b6000600860006101000a81548160ff02191690831515021790555062000217677a1b4e49786b501e60c01b6200028660201b60201c565b6000600660016101000a81548173ffffffffffffffffffffffffffffffffffffffff021916908373ffffffffffffffffffffffffffffffffffffffff1602179055506200027567e10a8830678b81f960c01b6200028660201b60201c565b6000600781905550505050620003da565b50565b600080fd5b6000819050919050565b620002a3816200028e565b8114620002af57600080fd5b50565b600081519050620002c38162000298565b92915050565b600080600060608486031215620002e557620002e462000289565b5b6000620002f586828701620002b2565b93505060206200030886828701620002b2565b92505060406200031b86828701620002b2565b9150509250925092565b7f4e487b7100000000000000000000000000000000000000000000000000000000600052601160045260246000fd5b600062000361826200028e565b91506200036e836200028e565b92508282026200037e816200028e565b9150828204841483151762000398576200039762000325565b5b5092915050565b6000620003ac826200028e565b9150620003b9836200028e565b9250828201905080821115620003d457620003d362000325565b5b92915050565b61112d80620003ea6000396000f3fe6080604052600436106100e85760003560e01c806362ea82db1161008a578063bdb3937311610059578063bdb39373146102c9578063d3642a88146102f4578063db2e1eed1461031f578063eb91d37e1461034a576100e8565b806362ea82db1461020d57806370a082311461024a5780638643337414610287578063b5545a3c146102b2576100e8565b80631d0806ae116100c65780631d0806ae1461016157806328e2f6961461018c5780633103ea62146101b75780634b449cba146101e2576100e8565b806308551a53146100ed578063100e4555146101185780631998aeef14610143575b600080fd5b3480156100f957600080fd5b50610102610375565b60405161010f9190610d1c565b60405180910390f35b34801561012457600080fd5b5061012d610399565b60405161013a9190610d52565b60405180910390f35b61014b6103ac565b6040516101589190610d52565b60405180910390f35b34801561016d57600080fd5b5061017661089d565b6040516101839190610d86565b60405180910390f35b34801561019857600080fd5b506101a16108a3565b6040516101ae9190610d86565b60405180910390f35b3480156101c357600080fd5b506101cc6108a9565b6040516101d99190610d86565b60405180910390f35b3480156101ee57600080fd5b506101f76108af565b6040516102049190610d86565b60405180910390f35b34801561021957600080fd5b50610234600480360381019061022f9190610de4565b6108b5565b6040516102419190610d86565b60405180910390f35b34801561025657600080fd5b50610271600480360381019061026c9190610de4565b6108cd565b60405161027e9190610d86565b60405180910390f35b34801561029357600080fd5b5061029c610952565b6040516102a99190610d52565b60405180910390f35b3480156102be57600080fd5b506102c7610965565b005b3480156102d557600080fd5b506102de610b82565b6040516102eb9190610d1c565b60405180910390f35b34801561030057600080fd5b50610309610ba8565b6040516103169190610d86565b60405180910390f35b34801561032b57600080fd5b50610334610bae565b6040516103419190610d86565b60405180910390f35b34801561035657600080fd5b5061035f610bb4565b60405161036c9190610d86565b60405180910390f35b60008054906101000a900473ffffffffffffffffffffffffffffffffffffffff1681565b600860009054906101000a900460ff1681565b60006103c26759c5258548b17ff560c01b610cd8565b6103d667b731f54bfecb0cda60c01b610cd8565b6103ea67ee0f4235035900ab60c01b610cd8565b60006103f4610bb4565b905061040a675730cd6ea262fadf60c01b610cd8565b61041e673edecc1498c5bc8d60c01b610cd8565b6104326775de84763838f7b360c01b610cd8565b60008111610475576040517f08c379a000000000000000000000000000000000000000000000000000000000815260040161046c90610e6e565b60405180910390fd5b61048967e4359f1e43af43ee60c01b610cd8565b61049d670b170ceb628e16e760c01b610cd8565b6104b167354b978e166c4d8f60c01b610cd8565b6104c56727c9e7fb31b43c0360c01b610cd8565b60003411610508576040517f08c379a00000000000000000000000000000000000000000000000000000000081526004016104ff90610f00565b60405180910390fd5b61051c67d5d3e242175f710e60c01b610cd8565b61053067f9bc390264aa87e360c01b610cd8565b610544675b400aa0df33efd360c01b610cd8565b61055867815b1ff516b115aa60c01b610cd8565b8034101561059b576040517f08c379a000000000000000000000000000000000000000000000000000000000815260040161059290610f92565b60405180910390fd5b6105af678319bc815088964f60c01b610cd8565b6105c367f1f90a13826b2a7d60c01b610cd8565b6105d7676d17549aa370a7c060c01b610cd8565b600860009054906101000a900460ff166107ee576105ff6784bb0a627b6c94bd60c01b610cd8565b61061367ccc6a8e4cdd4f4b960c01b610cd8565b33600660016101000a81548173ffffffffffffffffffffffffffffffffffffffff021916908373ffffffffffffffffffffffffffffffffffffffff1602179055506106686703714eb9b5c4f25360c01b610cd8565b3460078190555061068367fdf85dbb2594d35760c01b610cd8565b6001600860006101000a81548160ff0219169083151502179055506106b2675f69820ca83a01b760c01b610cd8565b600754600960008060009054906101000a900473ffffffffffffffffffffffffffffffffffffffff1673ffffffffffffffffffffffffffffffffffffffff1673ffffffffffffffffffffffffffffffffffffffff16815260200190815260200160002060008282546107249190610fe1565b9250508190555061073f67f4ef04060f626b6860c01b610cd8565b610753675a672369dfb4f1e060c01b610cd8565b60008054906101000a900473ffffffffffffffffffffffffffffffffffffffff1673ffffffffffffffffffffffffffffffffffffffff166108fc6007549081150290604051600060405180830381858888f193505050501580156107bb573d6000803e3d6000fd5b506107d0673cee6b8b55fb124160c01b610cd8565b6107e467e6077b45be8792a160c01b610cd8565b600191505061089a565b610802675e040bacf741173360c01b610cd8565b6108166762d8afb4ad80721c60c01b610cd8565b34600960003373ffffffffffffffffffffffffffffffffffffffff1673ffffffffffffffffffffffffffffffffffffffff16815260200190815260200160002060008282546108659190610fe1565b92505081905550610880671ec4c30b40980a6560c01b610cd8565b610894672a5d11356ae52de760c01b610cd8565b60009150505b90565b60045481565b60075481565b60025481565b60055481565b60096020528060005260406000206000915090505481565b60006108e367d7d47aebfba906ae60c01b610cd8565b6108f767234e96ba48e425e360c01b610cd8565b61090b672e022e7dbec37df260c01b610cd8565b600960008373ffffffffffffffffffffffffffffffffffffffff1673ffffffffffffffffffffffffffffffffffffffff168152602001908152602001600020549050919050565b600660009054906101000a900460ff1681565b6109796729036973cc59a78660c01b610cd8565b61098d67494db716027ac4b160c01b610cd8565b6109a16739c3527a0f7f489c60c01b610cd8565b6109b5677b7170c1438df80960c01b610cd8565b6000600960003373ffffffffffffffffffffffffffffffffffffffff1673ffffffffffffffffffffffffffffffffffffffff1681526020019081526020016000205411610a37576040517f08c379a0000000000000000000000000000000000000000000000000000000008152600401610a2e90611061565b60405180910390fd5b610a4b67fb03d548bcc068cc60c01b610cd8565b610a5f675e467107027c1e5f60c01b610cd8565b610a7367b4e5dc91fa61eac660c01b610cd8565b6000600960003373ffffffffffffffffffffffffffffffffffffffff1673ffffffffffffffffffffffffffffffffffffffff168152602001908152602001600020549050610acb67666f41707f9f516360c01b610cd8565b6000600960003373ffffffffffffffffffffffffffffffffffffffff1673ffffffffffffffffffffffffffffffffffffffff16815260200190815260200160002081905550610b24670f865aa36e3b78f960c01b610cd8565b610b38676d267115a1a6a2ab60c01b610cd8565b3373ffffffffffffffffffffffffffffffffffffffff166108fc829081150290604051600060405180830381858888f19350505050158015610b7e573d6000803e3d6000fd5b5050565b600660019054906101000a900473ffffffffffffffffffffffffffffffffffffffff1681565b60035481565b60015481565b6000610bca6777763b4b56986d0660c01b610cd8565b610bde67c54e0f75614a867660c01b610cd8565b610bf26787950364dc5a4cb160c01b610cd8565b6005544310610c4057610c0f67dedf3a806806a56860c01b610cd8565b610c236753ebeeed34fc106a60c01b610cd8565b610c3767953792c1b7298c3b60c01b610cd8565b60009050610cd5565b610c54674bbade36e749aabc60c01b610cd8565b610c6867c634cd65d2455ba460c01b610cd8565b610c7c6707288627b8a3c1fb60c01b610cd8565b600043600554610c8c9190611081565b9050610ca267a3f86e64f9ef93df60c01b610cd8565b610cb667fbde358329891e4e60c01b610cd8565b60035481610cc491906110b5565b600454610cd19190611081565b9150505b90565b50565b600073ffffffffffffffffffffffffffffffffffffffff82169050919050565b6000610d0682610cdb565b9050919050565b610d1681610cfb565b82525050565b6000602082019050610d316000830184610d0d565b92915050565b60008115159050919050565b610d4c81610d37565b82525050565b6000602082019050610d676000830184610d43565b92915050565b6000819050919050565b610d8081610d6d565b82525050565b6000602082019050610d9b6000830184610d77565b92915050565b600080fd5b6000610db182610cdb565b9050919050565b610dc181610da6565b8114610dcc57600080fd5b50565b600081359050610dde81610db8565b92915050565b600060208284031215610dfa57610df9610da1565b5b6000610e0884828501610dcf565b91505092915050565b600082825260208201905092915050565b7f41756374696f6e2068617320656e646564000000000000000000000000000000600082015250565b6000610e58601183610e11565b9150610e6382610e22565b602082019050919050565b60006020820190508181036000830152610e8781610e4b565b9050919050565b7f42696420616d6f756e74206d7573742062652067726561746572207468616e2060008201527f3000000000000000000000000000000000000000000000000000000000000000602082015250565b6000610eea602183610e11565b9150610ef582610e8e565b604082019050919050565b60006020820190508181036000830152610f1981610edd565b9050919050565b7f42696420616d6f756e74206973206c6f776572207468616e2063757272656e7460008201527f2070726963650000000000000000000000000000000000000000000000000000602082015250565b6000610f7c602683610e11565b9150610f8782610f20565b604082019050919050565b60006020820190508181036000830152610fab81610f6f565b9050919050565b7f4e487b7100000000000000000000000000000000000000000000000000000000600052601160045260246000fd5b6000610fec82610d6d565b9150610ff783610d6d565b925082820190508082111561100f5761100e610fb2565b5b92915050565b7f4e6f20726566756e6420617661696c61626c6500000000000000000000000000600082015250565b600061104b601383610e11565b915061105682611015565b602082019050919050565b6000602082019050818103600083015261107a8161103e565b9050919050565b600061108c82610d6d565b915061109783610d6d565b92508282039050818111156110af576110ae610fb2565b5b92915050565b60006110c082610d6d565b91506110cb83610d6d565b92508282026110d981610d6d565b915082820484148315176110f0576110ef610fb2565b5b509291505056fea2646970667358221220c5426b6e57cff71967a15e3d7816dcf757bb915fce25f3a19105dcf976f3cbdb64736f6c63430008120033","opcodes":"PUSH1 0x80 PUSH1 0x40 MSTORE CALLVALUE DUP1 ISZERO PUSH3 0x11 JUMPI PUSH1 0x0 DUP1 REVERT JUMPDEST POP PUSH1 0x40 MLOAD PUSH3 0x1517 CODESIZE SUB DUP1 PUSH3 0x1517 DUP4 CODECOPY DUP2 DUP2 ADD PUSH1 0x40 MSTORE DUP2 ADD SWAP1 PUSH3 0x37 SWAP2 SWAP1 PUSH3 0x2C9 JUMP JUMPDEST PUSH3 0x53 PUSH8 0xEAFFAB10148B5657 PUSH1 0xC0 SHL PUSH3 0x286 PUSH1 0x20 SHL PUSH1 0x20 SHR JUMP JUMPDEST PUSH3 0x6F PUSH8 0xE1DE6B143BB626CF PUSH1 0xC0 SHL PUSH3 0x286 PUSH1 0x20 SHL PUSH1 0x20 SHR JUMP JUMPDEST CALLER PUSH1 0x0 DUP1 PUSH2 0x100 EXP DUP2 SLOAD DUP2 PUSH20 0xFFFFFFFFFFFFFFFFFFFFFFFFFFFFFFFFFFFFFFFF MUL NOT AND SWAP1 DUP4 PUSH20 0xFFFFFFFFFFFFFFFFFFFFFFFFFFFFFFFFFFFFFFFF AND MUL OR SWAP1 SSTORE POP PUSH3 0xCB PUSH8 0x79F2C62D97002F1 PUSH1 0xC0 SHL PUSH3 0x286 PUSH1 0x20 SHL PUSH1 0x20 SHR JUMP JUMPDEST DUP3 PUSH1 0x1 DUP2 SWAP1 SSTORE POP PUSH3 0xEE PUSH8 0xB6C62F507E684962 PUSH1 0xC0 SHL PUSH3 0x286 PUSH1 0x20 SHL PUSH1 0x20 SHR JUMP JUMPDEST DUP2 PUSH1 0x2 DUP2 SWAP1 SSTORE POP PUSH3 0x111 PUSH8 0x604806DC5EFCBCE5 PUSH1 0xC0 SHL PUSH3 0x286 PUSH1 0x20 SHL PUSH1 0x20 SHR JUMP JUMPDEST DUP1 PUSH1 0x3 DUP2 SWAP1 SSTORE POP PUSH3 0x134 PUSH8 0xC38FD9656955B27A PUSH1 0xC0 SHL PUSH3 0x286 PUSH1 0x20 SHL PUSH1 0x20 SHR JUMP JUMPDEST PUSH1 0x3 SLOAD PUSH1 0x2 SLOAD PUSH3 0x146 SWAP2 SWAP1 PUSH3 0x354 JUMP JUMPDEST PUSH1 0x1 SLOAD PUSH3 0x155 SWAP2 SWAP1 PUSH3 0x39F JUMP JUMPDEST PUSH1 0x4 DUP2 SWAP1 SSTORE POP PUSH3 0x177 PUSH8 0xE3FFB6924AD0D095 PUSH1 0xC0 SHL PUSH3 0x286 PUSH1 0x20 SHL PUSH1 0x20 SHR JUMP JUMPDEST PUSH1 0x2 SLOAD NUMBER PUSH3 0x187 SWAP2 SWAP1 PUSH3 0x39F JUMP JUMPDEST PUSH1 0x5 DUP2 SWAP1 SSTORE POP PUSH3 0x1A9 PUSH8 0x3C33AA8ADB8E7CB1 PUSH1 0xC0 SHL PUSH3 0x286 PUSH1 0x20 SHL PUSH1 0x20 SHR JUMP JUMPDEST PUSH1 0x0 PUSH1 0x6 PUSH1 0x0 PUSH2 0x100 EXP DUP2 SLOAD DUP2 PUSH1 0xFF MUL NOT AND SWAP1 DUP4 ISZERO ISZERO MUL OR SWAP1 SSTORE POP PUSH3 0x1E0 PUSH8 0x5DB38216230BC4E5 PUSH1 0xC0 SHL PUSH3 0x286 PUSH1 0x20 SHL PUSH1 0x20 SHR JUMP JUMPDEST PUSH1 0x0 PUSH1 0x8 PUSH1 0x0 PUSH2 0x100 EXP DUP2 SLOAD DUP2 PUSH1 0xFF MUL NOT AND SWAP1 DUP4 ISZERO ISZERO MUL OR SWAP1 SSTORE POP PUSH3 0x217 PUSH8 0x7A1B4E49786B501E PUSH1 0xC0 SHL PUSH3 0x286 PUSH1 0x20 SHL PUSH1 0x20 SHR JUMP JUMPDEST PUSH1 0x0 PUSH1 0x6 PUSH1 0x1 PUSH2 0x100 EXP DUP2 SLOAD DUP2 PUSH20 0xFFFFFFFFFFFFFFFFFFFFFFFFFFFFFFFFFFFFFFFF MUL NOT AND SWAP1 DUP4 PUSH20 0xFFFFFFFFFFFFFFFFFFFFFFFFFFFFFFFFFFFFFFFF AND MUL OR SWAP1 SSTORE POP PUSH3 0x275 PUSH8 0xE10A8830678B81F9 PUSH1 0xC0 SHL PUSH3 0x286 PUSH1 0x20 SHL PUSH1 0x20 SHR JUMP JUMPDEST PUSH1 0x0 PUSH1 0x7 DUP2 SWAP1 SSTORE POP POP POP POP PUSH3 0x3DA JUMP JUMPDEST POP JUMP JUMPDEST PUSH1 0x0 DUP1 REVERT JUMPDEST PUSH1 0x0 DUP2 SWAP1 POP SWAP2 SWAP1 POP JUMP JUMPDEST PUSH3 0x2A3 DUP2 PUSH3 0x28E JUMP JUMPDEST DUP2 EQ PUSH3 0x2AF JUMPI PUSH1 0x0 DUP1 REVERT JUMPDEST POP JUMP JUMPDEST PUSH1 0x0 DUP2 MLOAD SWAP1 POP PUSH3 0x2C3 DUP2 PUSH3 0x298 JUMP JUMPDEST SWAP3 SWAP2 POP POP JUMP JUMPDEST PUSH1 0x0 DUP1 PUSH1 0x0 PUSH1 0x60 DUP5 DUP7 SUB SLT ISZERO PUSH3 0x2E5 JUMPI PUSH3 0x2E4 PUSH3 0x289 JUMP JUMPDEST JUMPDEST PUSH1 0x0 PUSH3 0x2F5 DUP7 DUP3 DUP8 ADD PUSH3 0x2B2 JUMP JUMPDEST SWAP4 POP POP PUSH1 0x20 PUSH3 0x308 DUP7 DUP3 DUP8 ADD PUSH3 0x2B2 JUMP JUMPDEST SWAP3 POP POP PUSH1 0x40 PUSH3 0x31B DUP7 DUP3 DUP8 ADD PUSH3 0x2B2 JUMP JUMPDEST SWAP2 POP POP SWAP3 POP SWAP3 POP SWAP3 JUMP JUMPDEST PUSH32 0x4E487B7100000000000000000000000000000000000000000000000000000000 PUSH1 0x0 MSTORE PUSH1 0x11 PUSH1 0x4 MSTORE PUSH1 0x24 PUSH1 0x0 REVERT JUMPDEST PUSH1 0x0 PUSH3 0x361 DUP3 PUSH3 0x28E JUMP JUMPDEST SWAP2 POP PUSH3 0x36E DUP4 PUSH3 0x28E JUMP JUMPDEST SWAP3 POP DUP3 DUP3 MUL PUSH3 0x37E DUP2 PUSH3 0x28E JUMP JUMPDEST SWAP2 POP DUP3 DUP3 DIV DUP5 EQ DUP4 ISZERO OR PUSH3 0x398 JUMPI PUSH3 0x397 PUSH3 0x325 JUMP JUMPDEST JUMPDEST POP SWAP3 SWAP2 POP POP JUMP JUMPDEST PUSH1 0x0 PUSH3 0x3AC DUP3 PUSH3 0x28E JUMP JUMPDEST SWAP2 POP PUSH3 0x3B9 DUP4 PUSH3 0x28E JUMP JUMPDEST SWAP3 POP DUP3 DUP3 ADD SWAP1 POP DUP1 DUP3 GT ISZERO PUSH3 0x3D4 JUMPI PUSH3 0x3D3 PUSH3 0x325 JUMP JUMPDEST JUMPDEST SWAP3 SWAP2 POP POP JUMP JUMPDEST PUSH2 0x112D DUP1 PUSH3 0x3EA PUSH1 0x0 CODECOPY PUSH1 0x0 RETURN INVALID PUSH1 0x80 PUSH1 0x40 MSTORE PUSH1 0x4 CALLDATASIZE LT PUSH2 0xE8 JUMPI PUSH1 0x0 CALLDATALOAD PUSH1 0xE0 SHR DUP1 PUSH4 0x62EA82DB GT PUSH2 0x8A JUMPI DUP1 PUSH4 0xBDB39373 GT PUSH2 0x59 JUMPI DUP1 PUSH4 0xBDB39373 EQ PUSH2 0x2C9 JUMPI DUP1 PUSH4 0xD3642A88 EQ PUSH2 0x2F4 JUMPI DUP1 PUSH4 0xDB2E1EED EQ PUSH2 0x31F JUMPI DUP1 PUSH4 0xEB91D37E EQ PUSH2 0x34A JUMPI PUSH2 0xE8 JUMP JUMPDEST DUP1 PUSH4 0x62EA82DB EQ PUSH2 0x20D JUMPI DUP1 PUSH4 0x70A08231 EQ PUSH2 0x24A JUMPI DUP1 PUSH4 0x86433374 EQ PUSH2 0x287 JUMPI DUP1 PUSH4 0xB5545A3C EQ PUSH2 0x2B2 JUMPI PUSH2 0xE8 JUMP JUMPDEST DUP1 PUSH4 0x1D0806AE GT PUSH2 0xC6 JUMPI DUP1 PUSH4 0x1D0806AE EQ PUSH2 0x161 JUMPI DUP1 PUSH4 0x28E2F696 EQ PUSH2 0x18C JUMPI DUP1 PUSH4 0x3103EA62 EQ PUSH2 0x1B7 JUMPI DUP1 PUSH4 0x4B449CBA EQ PUSH2 0x1E2 JUMPI PUSH2 0xE8 JUMP JUMPDEST DUP1 PUSH4 0x8551A53 EQ PUSH2 0xED JUMPI DUP1 PUSH4 0x100E4555 EQ PUSH2 0x118 JUMPI DUP1 PUSH4 0x1998AEEF EQ PUSH2 0x143 JUMPI JUMPDEST PUSH1 0x0 DUP1 REVERT JUMPDEST CALLVALUE DUP1 ISZERO PUSH2 0xF9 JUMPI PUSH1 0x0 DUP1 REVERT JUMPDEST POP PUSH2 0x102 PUSH2 0x375 JUMP JUMPDEST PUSH1 0x40 MLOAD PUSH2 0x10F SWAP2 SWAP1 PUSH2 0xD1C JUMP JUMPDEST PUSH1 0x40 MLOAD DUP1 SWAP2 SUB SWAP1 RETURN JUMPDEST CALLVALUE DUP1 ISZERO PUSH2 0x124 JUMPI PUSH1 0x0 DUP1 REVERT JUMPDEST POP PUSH2 0x12D PUSH2 0x399 JUMP JUMPDEST PUSH1 0x40 MLOAD PUSH2 0x13A SWAP2 SWAP1 PUSH2 0xD52 JUMP JUMPDEST PUSH1 0x40 MLOAD DUP1 SWAP2 SUB SWAP1 RETURN JUMPDEST PUSH2 0x14B PUSH2 0x3AC JUMP JUMPDEST PUSH1 0x40 MLOAD PUSH2 0x158 SWAP2 SWAP1 PUSH2 0xD52 JUMP JUMPDEST PUSH1 0x40 MLOAD DUP1 SWAP2 SUB SWAP1 RETURN JUMPDEST CALLVALUE DUP1 ISZERO PUSH2 0x16D JUMPI PUSH1 0x0 DUP1 REVERT JUMPDEST POP PUSH2 0x176 PUSH2 0x89D JUMP JUMPDEST PUSH1 0x40 MLOAD PUSH2 0x183 SWAP2 SWAP1 PUSH2 0xD86 JUMP JUMPDEST PUSH1 0x40 MLOAD DUP1 SWAP2 SUB SWAP1 RETURN JUMPDEST CALLVALUE DUP1 ISZERO PUSH2 0x198 JUMPI PUSH1 0x0 DUP1 REVERT JUMPDEST POP PUSH2 0x1A1 PUSH2 0x8A3 JUMP JUMPDEST PUSH1 0x40 MLOAD PUSH2 0x1AE SWAP2 SWAP1 PUSH2 0xD86 JUMP JUMPDEST PUSH1 0x40 MLOAD DUP1 SWAP2 SUB SWAP1 RETURN JUMPDEST CALLVALUE DUP1 ISZERO PUSH2 0x1C3 JUMPI PUSH1 0x0 DUP1 REVERT JUMPDEST POP PUSH2 0x1CC PUSH2 0x8A9 JUMP JUMPDEST PUSH1 0x40 MLOAD PUSH2 0x1D9 SWAP2 SWAP1 PUSH2 0xD86 JUMP JUMPDEST PUSH1 0x40 MLOAD DUP1 SWAP2 SUB SWAP1 RETURN JUMPDEST CALLVALUE DUP1 ISZERO PUSH2 0x1EE JUMPI PUSH1 0x0 DUP1 REVERT JUMPDEST POP PUSH2 0x1F7 PUSH2 0x8AF JUMP JUMPDEST PUSH1 0x40 MLOAD PUSH2 0x204 SWAP2 SWAP1 PUSH2 0xD86 JUMP JUMPDEST PUSH1 0x40 MLOAD DUP1 SWAP2 SUB SWAP1 RETURN JUMPDEST CALLVALUE DUP1 ISZERO PUSH2 0x219 JUMPI PUSH1 0x0 DUP1 REVERT JUMPDEST POP PUSH2 0x234 PUSH1 0x4 DUP1 CALLDATASIZE SUB DUP2 ADD SWAP1 PUSH2 0x22F SWAP2 SWAP1 PUSH2 0xDE4 JUMP JUMPDEST PUSH2 0x8B5 JUMP JUMPDEST PUSH1 0x40 MLOAD PUSH2 0x241 SWAP2 SWAP1 PUSH2 0xD86 JUMP JUMPDEST PUSH1 0x40 MLOAD DUP1 SWAP2 SUB SWAP1 RETURN JUMPDEST CALLVALUE DUP1 ISZERO PUSH2 0x256 JUMPI PUSH1 0x0 DUP1 REVERT JUMPDEST POP PUSH2 0x271 PUSH1 0x4 DUP1 CALLDATASIZE SUB DUP2 ADD SWAP1 PUSH2 0x26C SWAP2 SWAP1 PUSH2 0xDE4 JUMP JUMPDEST PUSH2 0x8CD JUMP JUMPDEST PUSH1 0x40 MLOAD PUSH2 0x27E SWAP2 SWAP1 PUSH2 0xD86 JUMP JUMPDEST PUSH1 0x40 MLOAD DUP1 SWAP2 SUB SWAP1 RETURN JUMPDEST CALLVALUE DUP1 ISZERO PUSH2 0x293 JUMPI PUSH1 0x0 DUP1 REVERT JUMPDEST POP PUSH2 0x29C PUSH2 0x952 JUMP JUMPDEST PUSH1 0x40 MLOAD PUSH2 0x2A9 SWAP2 SWAP1 PUSH2 0xD52 JUMP JUMPDEST PUSH1 0x40 MLOAD DUP1 SWAP2 SUB SWAP1 RETURN JUMPDEST CALLVALUE DUP1 ISZERO PUSH2 0x2BE JUMPI PUSH1 0x0 DUP1 REVERT JUMPDEST POP PUSH2 0x2C7 PUSH2 0x965 JUMP JUMPDEST STOP JUMPDEST CALLVALUE DUP1 ISZERO PUSH2 0x2D5 JUMPI PUSH1 0x0 DUP1 REVERT JUMPDEST POP PUSH2 0x2DE PUSH2 0xB82 JUMP JUMPDEST PUSH1 0x40 MLOAD PUSH2 0x2EB SWAP2 SWAP1 PUSH2 0xD1C JUMP JUMPDEST PUSH1 0x40 MLOAD DUP1 SWAP2 SUB SWAP1 RETURN JUMPDEST CALLVALUE DUP1 ISZERO PUSH2 0x300 JUMPI PUSH1 0x0 DUP1 REVERT JUMPDEST POP PUSH2 0x309 PUSH2 0xBA8 JUMP JUMPDEST PUSH1 0x40 MLOAD PUSH2 0x316 SWAP2 SWAP1 PUSH2 0xD86 JUMP JUMPDEST PUSH1 0x40 MLOAD DUP1 SWAP2 SUB SWAP1 RETURN JUMPDEST CALLVALUE DUP1 ISZERO PUSH2 0x32B JUMPI PUSH1 0x0 DUP1 REVERT JUMPDEST POP PUSH2 0x334 PUSH2 0xBAE JUMP JUMPDEST PUSH1 0x40 MLOAD PUSH2 0x341 SWAP2 SWAP1 PUSH2 0xD86 JUMP JUMPDEST PUSH1 0x40 MLOAD DUP1 SWAP2 SUB SWAP1 RETURN JUMPDEST CALLVALUE DUP1 ISZERO PUSH2 0x356 JUMPI PUSH1 0x0 DUP1 REVERT JUMPDEST POP PUSH2 0x35F PUSH2 0xBB4 JUMP JUMPDEST PUSH1 0x40 MLOAD PUSH2 0x36C SWAP2 SWAP1 PUSH2 0xD86 JUMP JUMPDEST PUSH1 0x40 MLOAD DUP1 SWAP2 SUB SWAP1 RETURN JUMPDEST PUSH1 0x0 DUP1 SLOAD SWAP1 PUSH2 0x100 EXP SWAP1 DIV PUSH20 0xFFFFFFFFFFFFFFFFFFFFFFFFFFFFFFFFFFFFFFFF AND DUP2 JUMP JUMPDEST PUSH1 0x8 PUSH1 0x0 SWAP1 SLOAD SWAP1 PUSH2 0x100 EXP SWAP1 DIV PUSH1 0xFF AND DUP2 JUMP JUMPDEST PUSH1 0x0 PUSH2 0x3C2 PUSH8 0x59C5258548B17FF5 PUSH1 0xC0 SHL PUSH2 0xCD8 JUMP JUMPDEST PUSH2 0x3D6 PUSH8 0xB731F54BFECB0CDA PUSH1 0xC0 SHL PUSH2 0xCD8 JUMP JUMPDEST PUSH2 0x3EA PUSH8 0xEE0F4235035900AB PUSH1 0xC0 SHL PUSH2 0xCD8 JUMP JUMPDEST PUSH1 0x0 PUSH2 0x3F4 PUSH2 0xBB4 JUMP JUMPDEST SWAP1 POP PUSH2 0x40A PUSH8 0x5730CD6EA262FADF PUSH1 0xC0 SHL PUSH2 0xCD8 JUMP JUMPDEST PUSH2 0x41E PUSH8 0x3EDECC1498C5BC8D PUSH1 0xC0 SHL PUSH2 0xCD8 JUMP JUMPDEST PUSH2 0x432 PUSH8 0x75DE84763838F7B3 PUSH1 0xC0 SHL PUSH2 0xCD8 JUMP JUMPDEST PUSH1 0x0 DUP2 GT PUSH2 0x475 JUMPI PUSH1 0x40 MLOAD PUSH32 0x8C379A000000000000000000000000000000000000000000000000000000000 DUP2 MSTORE PUSH1 0x4 ADD PUSH2 0x46C SWAP1 PUSH2 0xE6E JUMP JUMPDEST PUSH1 0x40 MLOAD DUP1 SWAP2 SUB SWAP1 REVERT JUMPDEST PUSH2 0x489 PUSH8 0xE4359F1E43AF43EE PUSH1 0xC0 SHL PUSH2 0xCD8 JUMP JUMPDEST PUSH2 0x49D PUSH8 0xB170CEB628E16E7 PUSH1 0xC0 SHL PUSH2 0xCD8 JUMP JUMPDEST PUSH2 0x4B1 PUSH8 0x354B978E166C4D8F PUSH1 0xC0 SHL PUSH2 0xCD8 JUMP JUMPDEST PUSH2 0x4C5 PUSH8 0x27C9E7FB31B43C03 PUSH1 0xC0 SHL PUSH2 0xCD8 JUMP JUMPDEST PUSH1 0x0 CALLVALUE GT PUSH2 0x508 JUMPI PUSH1 0x40 MLOAD PUSH32 0x8C379A000000000000000000000000000000000000000000000000000000000 DUP2 MSTORE PUSH1 0x4 ADD PUSH2 0x4FF SWAP1 PUSH2 0xF00 JUMP JUMPDEST PUSH1 0x40 MLOAD DUP1 SWAP2 SUB SWAP1 REVERT JUMPDEST PUSH2 0x51C PUSH8 0xD5D3E242175F710E PUSH1 0xC0 SHL PUSH2 0xCD8 JUMP JUMPDEST PUSH2 0x530 PUSH8 0xF9BC390264AA87E3 PUSH1 0xC0 SHL PUSH2 0xCD8 JUMP JUMPDEST PUSH2 0x544 PUSH8 0x5B400AA0DF33EFD3 PUSH1 0xC0 SHL PUSH2 0xCD8 JUMP JUMPDEST PUSH2 0x558 PUSH8 0x815B1FF516B115AA PUSH1 0xC0 SHL PUSH2 0xCD8 JUMP JUMPDEST DUP1 CALLVALUE LT ISZERO PUSH2 0x59B JUMPI PUSH1 0x40 MLOAD PUSH32 0x8C379A000000000000000000000000000000000000000000000000000000000 DUP2 MSTORE PUSH1 0x4 ADD PUSH2 0x592 SWAP1 PUSH2 0xF92 JUMP JUMPDEST PUSH1 0x40 MLOAD DUP1 SWAP2 SUB SWAP1 REVERT JUMPDEST PUSH2 0x5AF PUSH8 0x8319BC815088964F PUSH1 0xC0 SHL PUSH2 0xCD8 JUMP JUMPDEST PUSH2 0x5C3 PUSH8 0xF1F90A13826B2A7D PUSH1 0xC0 SHL PUSH2 0xCD8 JUMP JUMPDEST PUSH2 0x5D7 PUSH8 0x6D17549AA370A7C0 PUSH1 0xC0 SHL PUSH2 0xCD8 JUMP JUMPDEST PUSH1 0x8 PUSH1 0x0 SWAP1 SLOAD SWAP1 PUSH2 0x100 EXP SWAP1 DIV PUSH1 0xFF AND PUSH2 0x7EE JUMPI PUSH2 0x5FF PUSH8 0x84BB0A627B6C94BD PUSH1 0xC0 SHL PUSH2 0xCD8 JUMP JUMPDEST PUSH2 0x613 PUSH8 0xCCC6A8E4CDD4F4B9 PUSH1 0xC0 SHL PUSH2 0xCD8 JUMP JUMPDEST CALLER PUSH1 0x6 PUSH1 0x1 PUSH2 0x100 EXP DUP2 SLOAD DUP2 PUSH20 0xFFFFFFFFFFFFFFFFFFFFFFFFFFFFFFFFFFFFFFFF MUL NOT AND SWAP1 DUP4 PUSH20 0xFFFFFFFFFFFFFFFFFFFFFFFFFFFFFFFFFFFFFFFF AND MUL OR SWAP1 SSTORE POP PUSH2 0x668 PUSH8 0x3714EB9B5C4F253 PUSH1 0xC0 SHL PUSH2 0xCD8 JUMP JUMPDEST CALLVALUE PUSH1 0x7 DUP2 SWAP1 SSTORE POP PUSH2 0x683 PUSH8 0xFDF85DBB2594D357 PUSH1 0xC0 SHL PUSH2 0xCD8 JUMP JUMPDEST PUSH1 0x1 PUSH1 0x8 PUSH1 0x0 PUSH2 0x100 EXP DUP2 SLOAD DUP2 PUSH1 0xFF MUL NOT AND SWAP1 DUP4 ISZERO ISZERO MUL OR SWAP1 SSTORE POP PUSH2 0x6B2 PUSH8 0x5F69820CA83A01B7 PUSH1 0xC0 SHL PUSH2 0xCD8 JUMP JUMPDEST PUSH1 0x7 SLOAD PUSH1 0x9 PUSH1 0x0 DUP1 PUSH1 0x0 SWAP1 SLOAD SWAP1 PUSH2 0x100 EXP SWAP1 DIV PUSH20 0xFFFFFFFFFFFFFFFFFFFFFFFFFFFFFFFFFFFFFFFF AND PUSH20 0xFFFFFFFFFFFFFFFFFFFFFFFFFFFFFFFFFFFFFFFF AND PUSH20 0xFFFFFFFFFFFFFFFFFFFFFFFFFFFFFFFFFFFFFFFF AND DUP2 MSTORE PUSH1 0x20 ADD SWAP1 DUP2 MSTORE PUSH1 0x20 ADD PUSH1 0x0 KECCAK256 PUSH1 0x0 DUP3 DUP3 SLOAD PUSH2 0x724 SWAP2 SWAP1 PUSH2 0xFE1 JUMP JUMPDEST SWAP3 POP POP DUP2 SWAP1 SSTORE POP PUSH2 0x73F PUSH8 0xF4EF04060F626B68 PUSH1 0xC0 SHL PUSH2 0xCD8 JUMP JUMPDEST PUSH2 0x753 PUSH8 0x5A672369DFB4F1E0 PUSH1 0xC0 SHL PUSH2 0xCD8 JUMP JUMPDEST PUSH1 0x0 DUP1 SLOAD SWAP1 PUSH2 0x100 EXP SWAP1 DIV PUSH20 0xFFFFFFFFFFFFFFFFFFFFFFFFFFFFFFFFFFFFFFFF AND PUSH20 0xFFFFFFFFFFFFFFFFFFFFFFFFFFFFFFFFFFFFFFFF AND PUSH2 0x8FC PUSH1 0x7 SLOAD SWAP1 DUP2 ISZERO MUL SWAP1 PUSH1 0x40 MLOAD PUSH1 0x0 PUSH1 0x40 MLOAD DUP1 DUP4 SUB DUP2 DUP6 DUP9 DUP9 CALL SWAP4 POP POP POP POP ISZERO DUP1 ISZERO PUSH2 0x7BB JUMPI RETURNDATASIZE PUSH1 0x0 DUP1 RETURNDATACOPY RETURNDATASIZE PUSH1 0x0 REVERT JUMPDEST POP PUSH2 0x7D0 PUSH8 0x3CEE6B8B55FB1241 PUSH1 0xC0 SHL PUSH2 0xCD8 JUMP JUMPDEST PUSH2 0x7E4 PUSH8 0xE6077B45BE8792A1 PUSH1 0xC0 SHL PUSH2 0xCD8 JUMP JUMPDEST PUSH1 0x1 SWAP2 POP POP PUSH2 0x89A JUMP JUMPDEST PUSH2 0x802 PUSH8 0x5E040BACF7411733 PUSH1 0xC0 SHL PUSH2 0xCD8 JUMP JUMPDEST PUSH2 0x816 PUSH8 0x62D8AFB4AD80721C PUSH1 0xC0 SHL PUSH2 0xCD8 JUMP JUMPDEST CALLVALUE PUSH1 0x9 PUSH1 0x0 CALLER PUSH20 0xFFFFFFFFFFFFFFFFFFFFFFFFFFFFFFFFFFFFFFFF AND PUSH20 0xFFFFFFFFFFFFFFFFFFFFFFFFFFFFFFFFFFFFFFFF AND DUP2 MSTORE PUSH1 0x20 ADD SWAP1 DUP2 MSTORE PUSH1 0x20 ADD PUSH1 0x0 KECCAK256 PUSH1 0x0 DUP3 DUP3 SLOAD PUSH2 0x865 SWAP2 SWAP1 PUSH2 0xFE1 JUMP JUMPDEST SWAP3 POP POP DUP2 SWAP1 SSTORE POP PUSH2 0x880 PUSH8 0x1EC4C30B40980A65 PUSH1 0xC0 SHL PUSH2 0xCD8 JUMP JUMPDEST PUSH2 0x894 PUSH8 0x2A5D11356AE52DE7 PUSH1 0xC0 SHL PUSH2 0xCD8 JUMP JUMPDEST PUSH1 0x0 SWAP2 POP POP JUMPDEST SWAP1 JUMP JUMPDEST PUSH1 0x4 SLOAD DUP2 JUMP JUMPDEST PUSH1 0x7 SLOAD DUP2 JUMP JUMPDEST PUSH1 0x2 SLOAD DUP2 JUMP JUMPDEST PUSH1 0x5 SLOAD DUP2 JUMP JUMPDEST PUSH1 0x9 PUSH1 0x20 MSTORE DUP1 PUSH1 0x0 MSTORE PUSH1 0x40 PUSH1 0x0 KECCAK256 PUSH1 0x0 SWAP2 POP SWAP1 POP SLOAD DUP2 JUMP JUMPDEST PUSH1 0x0 PUSH2 0x8E3 PUSH8 0xD7D47AEBFBA906AE PUSH1 0xC0 SHL PUSH2 0xCD8 JUMP JUMPDEST PUSH2 0x8F7 PUSH8 0x234E96BA48E425E3 PUSH1 0xC0 SHL PUSH2 0xCD8 JUMP JUMPDEST PUSH2 0x90B PUSH8 0x2E022E7DBEC37DF2 PUSH1 0xC0 SHL PUSH2 0xCD8 JUMP JUMPDEST PUSH1 0x9 PUSH1 0x0 DUP4 PUSH20 0xFFFFFFFFFFFFFFFFFFFFFFFFFFFFFFFFFFFFFFFF AND PUSH20 0xFFFFFFFFFFFFFFFFFFFFFFFFFFFFFFFFFFFFFFFF AND DUP2 MSTORE PUSH1 0x20 ADD SWAP1 DUP2 MSTORE PUSH1 0x20 ADD PUSH1 0x0 KECCAK256 SLOAD SWAP1 POP SWAP2 SWAP1 POP JUMP JUMPDEST PUSH1 0x6 PUSH1 0x0 SWAP1 SLOAD SWAP1 PUSH2 0x100 EXP SWAP1 DIV PUSH1 0xFF AND DUP2 JUMP JUMPDEST PUSH2 0x979 PUSH8 0x29036973CC59A786 PUSH1 0xC0 SHL PUSH2 0xCD8 JUMP JUMPDEST PUSH2 0x98D PUSH8 0x494DB716027AC4B1 PUSH1 0xC0 SHL PUSH2 0xCD8 JUMP JUMPDEST PUSH2 0x9A1 PUSH8 0x39C3527A0F7F489C PUSH1 0xC0 SHL PUSH2 0xCD8 JUMP JUMPDEST PUSH2 0x9B5 PUSH8 0x7B7170C1438DF809 PUSH1 0xC0 SHL PUSH2 0xCD8 JUMP JUMPDEST PUSH1 0x0 PUSH1 0x9 PUSH1 0x0 CALLER PUSH20 0xFFFFFFFFFFFFFFFFFFFFFFFFFFFFFFFFFFFFFFFF AND PUSH20 0xFFFFFFFFFFFFFFFFFFFFFFFFFFFFFFFFFFFFFFFF AND DUP2 MSTORE PUSH1 0x20 ADD SWAP1 DUP2 MSTORE PUSH1 0x20 ADD PUSH1 0x0 KECCAK256 SLOAD GT PUSH2 0xA37 JUMPI PUSH1 0x40 MLOAD PUSH32 0x8C379A000000000000000000000000000000000000000000000000000000000 DUP2 MSTORE PUSH1 0x4 ADD PUSH2 0xA2E SWAP1 PUSH2 0x1061 JUMP JUMPDEST PUSH1 0x40 MLOAD DUP1 SWAP2 SUB SWAP1 REVERT JUMPDEST PUSH2 0xA4B PUSH8 0xFB03D548BCC068CC PUSH1 0xC0 SHL PUSH2 0xCD8 JUMP JUMPDEST PUSH2 0xA5F PUSH8 0x5E467107027C1E5F PUSH1 0xC0 SHL PUSH2 0xCD8 JUMP JUMPDEST PUSH2 0xA73 PUSH8 0xB4E5DC91FA61EAC6 PUSH1 0xC0 SHL PUSH2 0xCD8 JUMP JUMPDEST PUSH1 0x0 PUSH1 0x9 PUSH1 0x0 CALLER PUSH20 0xFFFFFFFFFFFFFFFFFFFFFFFFFFFFFFFFFFFFFFFF AND PUSH20 0xFFFFFFFFFFFFFFFFFFFFFFFFFFFFFFFFFFFFFFFF AND DUP2 MSTORE PUSH1 0x20 ADD SWAP1 DUP2 MSTORE PUSH1 0x20 ADD PUSH1 0x0 KECCAK256 SLOAD SWAP1 POP PUSH2 0xACB PUSH8 0x666F41707F9F5163 PUSH1 0xC0 SHL PUSH2 0xCD8 JUMP JUMPDEST PUSH1 0x0 PUSH1 0x9 PUSH1 0x0 CALLER PUSH20 0xFFFFFFFFFFFFFFFFFFFFFFFFFFFFFFFFFFFFFFFF AND PUSH20 0xFFFFFFFFFFFFFFFFFFFFFFFFFFFFFFFFFFFFFFFF AND DUP2 MSTORE PUSH1 0x20 ADD SWAP1 DUP2 MSTORE PUSH1 0x20 ADD PUSH1 0x0 KECCAK256 DUP2 SWAP1 SSTORE POP PUSH2 0xB24 PUSH8 0xF865AA36E3B78F9 PUSH1 0xC0 SHL PUSH2 0xCD8 JUMP JUMPDEST PUSH2 0xB38 PUSH8 0x6D267115A1A6A2AB PUSH1 0xC0 SHL PUSH2 0xCD8 JUMP JUMPDEST CALLER PUSH20 0xFFFFFFFFFFFFFFFFFFFFFFFFFFFFFFFFFFFFFFFF AND PUSH2 0x8FC DUP3 SWAP1 DUP2 ISZERO MUL SWAP1 PUSH1 0x40 MLOAD PUSH1 0x0 PUSH1 0x40 MLOAD DUP1 DUP4 SUB DUP2 DUP6 DUP9 DUP9 CALL SWAP4 POP POP POP POP ISZERO DUP1 ISZERO PUSH2 0xB7E JUMPI RETURNDATASIZE PUSH1 0x0 DUP1 RETURNDATACOPY RETURNDATASIZE PUSH1 0x0 REVERT JUMPDEST POP POP JUMP JUMPDEST PUSH1 0x6 PUSH1 0x1 SWAP1 SLOAD SWAP1 PUSH2 0x100 EXP SWAP1 DIV PUSH20 0xFFFFFFFFFFFFFFFFFFFFFFFFFFFFFFFFFFFFFFFF AND DUP2 JUMP JUMPDEST PUSH1 0x3 SLOAD DUP2 JUMP JUMPDEST PUSH1 0x1 SLOAD DUP2 JUMP JUMPDEST PUSH1 0x0 PUSH2 0xBCA PUSH8 0x77763B4B56986D06 PUSH1 0xC0 SHL PUSH2 0xCD8 JUMP JUMPDEST PUSH2 0xBDE PUSH8 0xC54E0F75614A8676 PUSH1 0xC0 SHL PUSH2 0xCD8 JUMP JUMPDEST PUSH2 0xBF2 PUSH8 0x87950364DC5A4CB1 PUSH1 0xC0 SHL PUSH2 0xCD8 JUMP JUMPDEST PUSH1 0x5 SLOAD NUMBER LT PUSH2 0xC40 JUMPI PUSH2 0xC0F PUSH8 0xDEDF3A806806A568 PUSH1 0xC0 SHL PUSH2 0xCD8 JUMP JUMPDEST PUSH2 0xC23 PUSH8 0x53EBEEED34FC106A PUSH1 0xC0 SHL PUSH2 0xCD8 JUMP JUMPDEST PUSH2 0xC37 PUSH8 0x953792C1B7298C3B PUSH1 0xC0 SHL PUSH2 0xCD8 JUMP JUMPDEST PUSH1 0x0 SWAP1 POP PUSH2 0xCD5 JUMP JUMPDEST PUSH2 0xC54 PUSH8 0x4BBADE36E749AABC PUSH1 0xC0 SHL PUSH2 0xCD8 JUMP JUMPDEST PUSH2 0xC68 PUSH8 0xC634CD65D2455BA4 PUSH1 0xC0 SHL PUSH2 0xCD8 JUMP JUMPDEST PUSH2 0xC7C PUSH8 0x7288627B8A3C1FB PUSH1 0xC0 SHL PUSH2 0xCD8 JUMP JUMPDEST PUSH1 0x0 NUMBER PUSH1 0x5 SLOAD PUSH2 0xC8C SWAP2 SWAP1 PUSH2 0x1081 JUMP JUMPDEST SWAP1 POP PUSH2 0xCA2 PUSH8 0xA3F86E64F9EF93DF PUSH1 0xC0 SHL PUSH2 0xCD8 JUMP JUMPDEST PUSH2 0xCB6 PUSH8 0xFBDE358329891E4E PUSH1 0xC0 SHL PUSH2 0xCD8 JUMP JUMPDEST PUSH1 0x3 SLOAD DUP2 PUSH2 0xCC4 SWAP2 SWAP1 PUSH2 0x10B5 JUMP JUMPDEST PUSH1 0x4 SLOAD PUSH2 0xCD1 SWAP2 SWAP1 PUSH2 0x1081 JUMP JUMPDEST SWAP2 POP POP JUMPDEST SWAP1 JUMP JUMPDEST POP JUMP JUMPDEST PUSH1 0x0 PUSH20 0xFFFFFFFFFFFFFFFFFFFFFFFFFFFFFFFFFFFFFFFF DUP3 AND SWAP1 POP SWAP2 SWAP1 POP JUMP JUMPDEST PUSH1 0x0 PUSH2 0xD06 DUP3 PUSH2 0xCDB JUMP JUMPDEST SWAP1 POP SWAP2 SWAP1 POP JUMP JUMPDEST PUSH2 0xD16 DUP2 PUSH2 0xCFB JUMP JUMPDEST DUP3 MSTORE POP POP JUMP JUMPDEST PUSH1 0x0 PUSH1 0x20 DUP3 ADD SWAP1 POP PUSH2 0xD31 PUSH1 0x0 DUP4 ADD DUP5 PUSH2 0xD0D JUMP JUMPDEST SWAP3 SWAP2 POP POP JUMP JUMPDEST PUSH1 0x0 DUP2 ISZERO ISZERO SWAP1 POP SWAP2 SWAP1 POP JUMP JUMPDEST PUSH2 0xD4C DUP2 PUSH2 0xD37 JUMP JUMPDEST DUP3 MSTORE POP POP JUMP JUMPDEST PUSH1 0x0 PUSH1 0x20 DUP3 ADD SWAP1 POP PUSH2 0xD67 PUSH1 0x0 DUP4 ADD DUP5 PUSH2 0xD43 JUMP JUMPDEST SWAP3 SWAP2 POP POP JUMP JUMPDEST PUSH1 0x0 DUP2 SWAP1 POP SWAP2 SWAP1 POP JUMP JUMPDEST PUSH2 0xD80 DUP2 PUSH2 0xD6D JUMP JUMPDEST DUP3 MSTORE POP POP JUMP JUMPDEST PUSH1 0x0 PUSH1 0x20 DUP3 ADD SWAP1 POP PUSH2 0xD9B PUSH1 0x0 DUP4 ADD DUP5 PUSH2 0xD77 JUMP JUMPDEST SWAP3 SWAP2 POP POP JUMP JUMPDEST PUSH1 0x0 DUP1 REVERT JUMPDEST PUSH1 0x0 PUSH2 0xDB1 DUP3 PUSH2 0xCDB JUMP JUMPDEST SWAP1 POP SWAP2 SWAP1 POP JUMP JUMPDEST PUSH2 0xDC1 DUP2 PUSH2 0xDA6 JUMP JUMPDEST DUP2 EQ PUSH2 0xDCC JUMPI PUSH1 0x0 DUP1 REVERT JUMPDEST POP JUMP JUMPDEST PUSH1 0x0 DUP2 CALLDATALOAD SWAP1 POP PUSH2 0xDDE DUP2 PUSH2 0xDB8 JUMP JUMPDEST SWAP3 SWAP2 POP POP JUMP JUMPDEST PUSH1 0x0 PUSH1 0x20 DUP3 DUP5 SUB SLT ISZERO PUSH2 0xDFA JUMPI PUSH2 0xDF9 PUSH2 0xDA1 JUMP JUMPDEST JUMPDEST PUSH1 0x0 PUSH2 0xE08 DUP5 DUP3 DUP6 ADD PUSH2 0xDCF JUMP JUMPDEST SWAP2 POP POP SWAP3 SWAP2 POP POP JUMP JUMPDEST PUSH1 0x0 DUP3 DUP3 MSTORE PUSH1 0x20 DUP3 ADD SWAP1 POP SWAP3 SWAP2 POP POP JUMP JUMPDEST PUSH32 0x41756374696F6E2068617320656E646564000000000000000000000000000000 PUSH1 0x0 DUP3 ADD MSTORE POP JUMP JUMPDEST PUSH1 0x0 PUSH2 0xE58 PUSH1 0x11 DUP4 PUSH2 0xE11 JUMP JUMPDEST SWAP2 POP PUSH2 0xE63 DUP3 PUSH2 0xE22 JUMP JUMPDEST PUSH1 0x20 DUP3 ADD SWAP1 POP SWAP2 SWAP1 POP JUMP JUMPDEST PUSH1 0x0 PUSH1 0x20 DUP3 ADD SWAP1 POP DUP2 DUP2 SUB PUSH1 0x0 DUP4 ADD MSTORE PUSH2 0xE87 DUP2 PUSH2 0xE4B JUMP JUMPDEST SWAP1 POP SWAP2 SWAP1 POP JUMP JUMPDEST PUSH32 0x42696420616D6F756E74206D7573742062652067726561746572207468616E20 PUSH1 0x0 DUP3 ADD MSTORE PUSH32 0x3000000000000000000000000000000000000000000000000000000000000000 PUSH1 0x20 DUP3 ADD MSTORE POP JUMP JUMPDEST PUSH1 0x0 PUSH2 0xEEA PUSH1 0x21 DUP4 PUSH2 0xE11 JUMP JUMPDEST SWAP2 POP PUSH2 0xEF5 DUP3 PUSH2 0xE8E JUMP JUMPDEST PUSH1 0x40 DUP3 ADD SWAP1 POP SWAP2 SWAP1 POP JUMP JUMPDEST PUSH1 0x0 PUSH1 0x20 DUP3 ADD SWAP1 POP DUP2 DUP2 SUB PUSH1 0x0 DUP4 ADD MSTORE PUSH2 0xF19 DUP2 PUSH2 0xEDD JUMP JUMPDEST SWAP1 POP SWAP2 SWAP1 POP JUMP JUMPDEST PUSH32 0x42696420616D6F756E74206973206C6F776572207468616E2063757272656E74 PUSH1 0x0 DUP3 ADD MSTORE PUSH32 0x2070726963650000000000000000000000000000000000000000000000000000 PUSH1 0x20 DUP3 ADD MSTORE POP JUMP JUMPDEST PUSH1 0x0 PUSH2 0xF7C PUSH1 0x26 DUP4 PUSH2 0xE11 JUMP JUMPDEST SWAP2 POP PUSH2 0xF87 DUP3 PUSH2 0xF20 JUMP JUMPDEST PUSH1 0x40 DUP3 ADD SWAP1 POP SWAP2 SWAP1 POP JUMP JUMPDEST PUSH1 0x0 PUSH1 0x20 DUP3 ADD SWAP1 POP DUP2 DUP2 SUB PUSH1 0x0 DUP4 ADD MSTORE PUSH2 0xFAB DUP2 PUSH2 0xF6F JUMP JUMPDEST SWAP1 POP SWAP2 SWAP1 POP JUMP JUMPDEST PUSH32 0x4E487B7100000000000000000000000000000000000000000000000000000000 PUSH1 0x0 MSTORE PUSH1 0x11 PUSH1 0x4 MSTORE PUSH1 0x24 PUSH1 0x0 REVERT JUMPDEST PUSH1 0x0 PUSH2 0xFEC DUP3 PUSH2 0xD6D JUMP JUMPDEST SWAP2 POP PUSH2 0xFF7 DUP4 PUSH2 0xD6D JUMP JUMPDEST SWAP3 POP DUP3 DUP3 ADD SWAP1 POP DUP1 DUP3 GT ISZERO PUSH2 0x100F JUMPI PUSH2 0x100E PUSH2 0xFB2 JUMP JUMPDEST JUMPDEST SWAP3 SWAP2 POP POP JUMP JUMPDEST PUSH32 0x4E6F20726566756E6420617661696C61626C6500000000000000000000000000 PUSH1 0x0 DUP3 ADD MSTORE POP JUMP JUMPDEST PUSH1 0x0 PUSH2 0x104B PUSH1 0x13 DUP4 PUSH2 0xE11 JUMP JUMPDEST SWAP2 POP PUSH2 0x1056 DUP3 PUSH2 0x1015 JUMP JUMPDEST PUSH1 0x20 DUP3 ADD SWAP1 POP SWAP2 SWAP1 POP JUMP JUMPDEST PUSH1 0x0 PUSH1 0x20 DUP3 ADD SWAP1 POP DUP2 DUP2 SUB PUSH1 0x0 DUP4 ADD MSTORE PUSH2 0x107A DUP2 PUSH2 0x103E JUMP JUMPDEST SWAP1 POP SWAP2 SWAP1 POP JUMP JUMPDEST PUSH1 0x0 PUSH2 0x108C DUP3 PUSH2 0xD6D JUMP JUMPDEST SWAP2 POP PUSH2 0x1097 DUP4 PUSH2 0xD6D JUMP JUMPDEST SWAP3 POP DUP3 DUP3 SUB SWAP1 POP DUP2 DUP2 GT ISZERO PUSH2 0x10AF JUMPI PUSH2 0x10AE PUSH2 0xFB2 JUMP JUMPDEST JUMPDEST SWAP3 SWAP2 POP POP JUMP JUMPDEST PUSH1 0x0 PUSH2 0x10C0 DUP3 PUSH2 0xD6D JUMP JUMPDEST SWAP2 POP PUSH2 0x10CB DUP4 PUSH2 0xD6D JUMP JUMPDEST SWAP3 POP DUP3 DUP3 MUL PUSH2 0x10D9 DUP2 PUSH2 0xD6D JUMP JUMPDEST SWAP2 POP DUP3 DUP3 DIV DUP5 EQ DUP4 ISZERO OR PUSH2 0x10F0 JUMPI PUSH2 0x10EF PUSH2 0xFB2 JUMP JUMPDEST JUMPDEST POP SWAP3 SWAP2 POP POP JUMP INVALID LOG2 PUSH5 0x6970667358 0x22 SLT KECCAK256 0xC5 TIMESTAMP PUSH12 0x6E57CFF71967A15E3D7816DC 0xF7 JUMPI 0xBB SWAP2 0x5F 0xCE 0x25 RETURN LOG1 SWAP2 SDIV 0xDC 0xF9 PUSH23 0xF3CBDB64736F6C63430008120033000000000000000000 "},"methodIdentifiers":{"auctionEndTime()":"4b449cba","auctionEnded()":"86433374","balanceOf(address)":"70a08231","bid()":"1998aeef","bids(address)":"62ea82db","claimRefund()":"b5545a3c","firstBid()":"28e2f696","firstBidder()":"bdb39373","getCurrentPrice()":"eb91d37e","gotValidBid()":"100e4555","initialPrice()":"1d0806ae","numBlocksAuctionOpen()":"3103ea62","offerPriceDecrement()":"d3642a88","reservePrice()":"db2e1eed","seller()":"08551a53"}}}}}