{
  "_format": "hh-sol-artifact-1",
  "contractName": "NFTDutchAuction_ERC20Bids",
  "sourceName": "contracts/NFTDutchAuction_ERC20Bids.sol",
  "abi": [
    {
      "inputs": [
        {
          "internalType": "address",
          "name": "_erc20TokenAddress",
          "type": "address"
        },
        {
          "internalType": "address",
          "name": "erc721TokenAddress",
          "type": "address"
        },
        {
          "internalType": "uint256",
          "name": "_nftTokenId",
          "type": "uint256"
        },
        {
          "internalType": "uint256",
          "name": "_reservePrice",
          "type": "uint256"
        },
        {
          "internalType": "uint256",
          "name": "_numBlocksAuctionOpen",
          "type": "uint256"
        },
        {
          "internalType": "uint256",
          "name": "_offerPriceDecrement",
          "type": "uint256"
        }
      ],
      "stateMutability": "nonpayable",
      "type": "constructor"
    },
    {
      "anonymous": false,
      "inputs": [
        {
          "indexed": true,
          "internalType": "address",
          "name": "owner",
          "type": "address"
        },
        {
          "indexed": true,
          "internalType": "address",
          "name": "approved",
          "type": "address"
        },
        {
          "indexed": true,
          "internalType": "uint256",
          "name": "tokenId",
          "type": "uint256"
        }
      ],
      "name": "Approval",
      "type": "event"
    },
    {
      "anonymous": false,
      "inputs": [
        {
          "indexed": true,
          "internalType": "address",
          "name": "owner",
          "type": "address"
        },
        {
          "indexed": true,
          "internalType": "address",
          "name": "operator",
          "type": "address"
        },
        {
          "indexed": false,
          "internalType": "bool",
          "name": "approved",
          "type": "bool"
        }
      ],
      "name": "ApprovalForAll",
      "type": "event"
    },
    {
      "anonymous": false,
      "inputs": [
        {
          "indexed": false,
          "internalType": "address",
          "name": "winner",
          "type": "address"
        },
        {
          "indexed": false,
          "internalType": "uint256",
          "name": "amount",
          "type": "uint256"
        }
      ],
      "name": "AuctionEnded",
      "type": "event"
    },
    {
      "anonymous": false,
      "inputs": [
        {
          "indexed": false,
          "internalType": "address",
          "name": "account",
          "type": "address"
        }
      ],
      "name": "Paused",
      "type": "event"
    },
    {
      "anonymous": false,
      "inputs": [
        {
          "indexed": true,
          "internalType": "bytes32",
          "name": "role",
          "type": "bytes32"
        },
        {
          "indexed": true,
          "internalType": "bytes32",
          "name": "previousAdminRole",
          "type": "bytes32"
        },
        {
          "indexed": true,
          "internalType": "bytes32",
          "name": "newAdminRole",
          "type": "bytes32"
        }
      ],
      "name": "RoleAdminChanged",
      "type": "event"
    },
    {
      "anonymous": false,
      "inputs": [
        {
          "indexed": true,
          "internalType": "bytes32",
          "name": "role",
          "type": "bytes32"
        },
        {
          "indexed": true,
          "internalType": "address",
          "name": "account",
          "type": "address"
        },
        {
          "indexed": true,
          "internalType": "address",
          "name": "sender",
          "type": "address"
        }
      ],
      "name": "RoleGranted",
      "type": "event"
    },
    {
      "anonymous": false,
      "inputs": [
        {
          "indexed": true,
          "internalType": "bytes32",
          "name": "role",
          "type": "bytes32"
        },
        {
          "indexed": true,
          "internalType": "address",
          "name": "account",
          "type": "address"
        },
        {
          "indexed": true,
          "internalType": "address",
          "name": "sender",
          "type": "address"
        }
      ],
      "name": "RoleRevoked",
      "type": "event"
    },
    {
      "anonymous": false,
      "inputs": [
        {
          "indexed": true,
          "internalType": "address",
          "name": "from",
          "type": "address"
        },
        {
          "indexed": true,
          "internalType": "address",
          "name": "to",
          "type": "address"
        },
        {
          "indexed": true,
          "internalType": "uint256",
          "name": "tokenId",
          "type": "uint256"
        }
      ],
      "name": "Transfer",
      "type": "event"
    },
    {
      "anonymous": false,
      "inputs": [
        {
          "indexed": false,
          "internalType": "address",
          "name": "account",
          "type": "address"
        }
      ],
      "name": "Unpaused",
      "type": "event"
    },
    {
      "inputs": [],
      "name": "DEFAULT_ADMIN_ROLE",
      "outputs": [
        {
          "internalType": "bytes32",
          "name": "",
          "type": "bytes32"
        }
      ],
      "stateMutability": "view",
      "type": "function"
    },
    {
      "inputs": [],
      "name": "MINTER_ROLE",
      "outputs": [
        {
          "internalType": "bytes32",
          "name": "",
          "type": "bytes32"
        }
      ],
      "stateMutability": "view",
      "type": "function"
    },
    {
      "inputs": [],
      "name": "PAUSER_ROLE",
      "outputs": [
        {
          "internalType": "bytes32",
          "name": "",
          "type": "bytes32"
        }
      ],
      "stateMutability": "view",
      "type": "function"
    },
    {
      "inputs": [
        {
          "internalType": "address",
          "name": "to",
          "type": "address"
        },
        {
          "internalType": "uint256",
          "name": "tokenId",
          "type": "uint256"
        }
      ],
      "name": "approve",
      "outputs": [],
      "stateMutability": "nonpayable",
      "type": "function"
    },
    {
      "inputs": [],
      "name": "auctionEndTime",
      "outputs": [
        {
          "internalType": "uint256",
          "name": "",
          "type": "uint256"
        }
      ],
      "stateMutability": "view",
      "type": "function"
    },
    {
      "inputs": [],
      "name": "auctionEnded",
      "outputs": [
        {
          "internalType": "bool",
          "name": "",
          "type": "bool"
        }
      ],
      "stateMutability": "view",
      "type": "function"
    },
    {
      "inputs": [
        {
          "internalType": "address",
          "name": "owner",
          "type": "address"
        }
      ],
      "name": "balanceOf",
      "outputs": [
        {
          "internalType": "uint256",
          "name": "",
          "type": "uint256"
        }
      ],
      "stateMutability": "view",
      "type": "function"
    },
    {
      "inputs": [
        {
          "internalType": "uint256",
          "name": "amount",
          "type": "uint256"
        }
      ],
      "name": "bid",
      "outputs": [
        {
          "internalType": "bool",
          "name": "",
          "type": "bool"
        }
      ],
      "stateMutability": "nonpayable",
      "type": "function"
    },
    {
      "inputs": [
        {
          "internalType": "address",
          "name": "",
          "type": "address"
        }
      ],
      "name": "bids",
      "outputs": [
        {
          "internalType": "uint256",
          "name": "",
          "type": "uint256"
        }
      ],
      "stateMutability": "view",
      "type": "function"
    },
    {
      "inputs": [
        {
          "internalType": "uint256",
          "name": "tokenId",
          "type": "uint256"
        }
      ],
      "name": "burn",
      "outputs": [],
      "stateMutability": "nonpayable",
      "type": "function"
    },
    {
      "inputs": [],
      "name": "claimRefund",
      "outputs": [],
      "stateMutability": "nonpayable",
      "type": "function"
    },
    {
      "inputs": [],
      "name": "erc20TokenAddress",
      "outputs": [
        {
          "internalType": "address",
          "name": "",
          "type": "address"
        }
      ],
      "stateMutability": "view",
      "type": "function"
    },
    {
      "inputs": [],
      "name": "firstBid",
      "outputs": [
        {
          "internalType": "uint256",
          "name": "",
          "type": "uint256"
        }
      ],
      "stateMutability": "view",
      "type": "function"
    },
    {
      "inputs": [],
      "name": "firstBidder",
      "outputs": [
        {
          "internalType": "address payable",
          "name": "",
          "type": "address"
        }
      ],
      "stateMutability": "view",
      "type": "function"
    },
    {
      "inputs": [
        {
          "internalType": "uint256",
          "name": "tokenId",
          "type": "uint256"
        }
      ],
      "name": "getApproved",
      "outputs": [
        {
          "internalType": "address",
          "name": "",
          "type": "address"
        }
      ],
      "stateMutability": "view",
      "type": "function"
    },
    {
      "inputs": [
        {
          "internalType": "address",
          "name": "account",
          "type": "address"
        }
      ],
      "name": "getBalanceOf",
      "outputs": [
        {
          "internalType": "uint256",
          "name": "",
          "type": "uint256"
        }
      ],
      "stateMutability": "view",
      "type": "function"
    },
    {
      "inputs": [],
      "name": "getCurrentPrice",
      "outputs": [
        {
          "internalType": "uint256",
          "name": "",
          "type": "uint256"
        }
      ],
      "stateMutability": "view",
      "type": "function"
    },
    {
      "inputs": [
        {
          "internalType": "bytes32",
          "name": "role",
          "type": "bytes32"
        }
      ],
      "name": "getRoleAdmin",
      "outputs": [
        {
          "internalType": "bytes32",
          "name": "",
          "type": "bytes32"
        }
      ],
      "stateMutability": "view",
      "type": "function"
    },
    {
      "inputs": [
        {
          "internalType": "bytes32",
          "name": "role",
          "type": "bytes32"
        },
        {
          "internalType": "uint256",
          "name": "index",
          "type": "uint256"
        }
      ],
      "name": "getRoleMember",
      "outputs": [
        {
          "internalType": "address",
          "name": "",
          "type": "address"
        }
      ],
      "stateMutability": "view",
      "type": "function"
    },
    {
      "inputs": [
        {
          "internalType": "bytes32",
          "name": "role",
          "type": "bytes32"
        }
      ],
      "name": "getRoleMemberCount",
      "outputs": [
        {
          "internalType": "uint256",
          "name": "",
          "type": "uint256"
        }
      ],
      "stateMutability": "view",
      "type": "function"
    },
    {
      "inputs": [],
      "name": "gotValidBid",
      "outputs": [
        {
          "internalType": "bool",
          "name": "",
          "type": "bool"
        }
      ],
      "stateMutability": "view",
      "type": "function"
    },
    {
      "inputs": [
        {
          "internalType": "bytes32",
          "name": "role",
          "type": "bytes32"
        },
        {
          "internalType": "address",
          "name": "account",
          "type": "address"
        }
      ],
      "name": "grantRole",
      "outputs": [],
      "stateMutability": "nonpayable",
      "type": "function"
    },
    {
      "inputs": [
        {
          "internalType": "bytes32",
          "name": "role",
          "type": "bytes32"
        },
        {
          "internalType": "address",
          "name": "account",
          "type": "address"
        }
      ],
      "name": "hasRole",
      "outputs": [
        {
          "internalType": "bool",
          "name": "",
          "type": "bool"
        }
      ],
      "stateMutability": "view",
      "type": "function"
    },
    {
      "inputs": [],
      "name": "initialPrice",
      "outputs": [
        {
          "internalType": "uint256",
          "name": "",
          "type": "uint256"
        }
      ],
      "stateMutability": "view",
      "type": "function"
    },
    {
      "inputs": [
        {
          "internalType": "address",
          "name": "owner",
          "type": "address"
        },
        {
          "internalType": "address",
          "name": "operator",
          "type": "address"
        }
      ],
      "name": "isApprovedForAll",
      "outputs": [
        {
          "internalType": "bool",
          "name": "",
          "type": "bool"
        }
      ],
      "stateMutability": "view",
      "type": "function"
    },
    {
      "inputs": [
        {
          "internalType": "address",
          "name": "to",
          "type": "address"
        }
      ],
      "name": "mint",
      "outputs": [],
      "stateMutability": "nonpayable",
      "type": "function"
    },
    {
      "inputs": [],
      "name": "name",
      "outputs": [
        {
          "internalType": "string",
          "name": "",
          "type": "string"
        }
      ],
      "stateMutability": "view",
      "type": "function"
    },
    {
      "inputs": [],
      "name": "nftTokenId",
      "outputs": [
        {
          "internalType": "uint256",
          "name": "",
          "type": "uint256"
        }
      ],
      "stateMutability": "view",
      "type": "function"
    },
    {
      "inputs": [],
      "name": "numBlocksAuctionOpen",
      "outputs": [
        {
          "internalType": "uint256",
          "name": "",
          "type": "uint256"
        }
      ],
      "stateMutability": "view",
      "type": "function"
    },
    {
      "inputs": [],
      "name": "offerPriceDecrement",
      "outputs": [
        {
          "internalType": "uint256",
          "name": "",
          "type": "uint256"
        }
      ],
      "stateMutability": "view",
      "type": "function"
    },
    {
      "inputs": [
        {
          "internalType": "uint256",
          "name": "tokenId",
          "type": "uint256"
        }
      ],
      "name": "ownerOf",
      "outputs": [
        {
          "internalType": "address",
          "name": "",
          "type": "address"
        }
      ],
      "stateMutability": "view",
      "type": "function"
    },
    {
      "inputs": [],
      "name": "pause",
      "outputs": [],
      "stateMutability": "nonpayable",
      "type": "function"
    },
    {
      "inputs": [],
      "name": "paused",
      "outputs": [
        {
          "internalType": "bool",
          "name": "",
          "type": "bool"
        }
      ],
      "stateMutability": "view",
      "type": "function"
    },
    {
      "inputs": [
        {
          "internalType": "bytes32",
          "name": "role",
          "type": "bytes32"
        },
        {
          "internalType": "address",
          "name": "account",
          "type": "address"
        }
      ],
      "name": "renounceRole",
      "outputs": [],
      "stateMutability": "nonpayable",
      "type": "function"
    },
    {
      "inputs": [],
      "name": "reservePrice",
      "outputs": [
        {
          "internalType": "uint256",
          "name": "",
          "type": "uint256"
        }
      ],
      "stateMutability": "view",
      "type": "function"
    },
    {
      "inputs": [
        {
          "internalType": "bytes32",
          "name": "role",
          "type": "bytes32"
        },
        {
          "internalType": "address",
          "name": "account",
          "type": "address"
        }
      ],
      "name": "revokeRole",
      "outputs": [],
      "stateMutability": "nonpayable",
      "type": "function"
    },
    {
      "inputs": [
        {
          "internalType": "address",
          "name": "from",
          "type": "address"
        },
        {
          "internalType": "address",
          "name": "to",
          "type": "address"
        },
        {
          "internalType": "uint256",
          "name": "tokenId",
          "type": "uint256"
        }
      ],
      "name": "safeTransferFrom",
      "outputs": [],
      "stateMutability": "nonpayable",
      "type": "function"
    },
    {
      "inputs": [
        {
          "internalType": "address",
          "name": "from",
          "type": "address"
        },
        {
          "internalType": "address",
          "name": "to",
          "type": "address"
        },
        {
          "internalType": "uint256",
          "name": "tokenId",
          "type": "uint256"
        },
        {
          "internalType": "bytes",
          "name": "data",
          "type": "bytes"
        }
      ],
      "name": "safeTransferFrom",
      "outputs": [],
      "stateMutability": "nonpayable",
      "type": "function"
    },
    {
      "inputs": [],
      "name": "seller",
      "outputs": [
        {
          "internalType": "address payable",
          "name": "",
          "type": "address"
        }
      ],
      "stateMutability": "view",
      "type": "function"
    },
    {
      "inputs": [
        {
          "internalType": "address",
          "name": "operator",
          "type": "address"
        },
        {
          "internalType": "bool",
          "name": "approved",
          "type": "bool"
        }
      ],
      "name": "setApprovalForAll",
      "outputs": [],
      "stateMutability": "nonpayable",
      "type": "function"
    },
    {
      "inputs": [
        {
          "internalType": "bytes4",
          "name": "interfaceId",
          "type": "bytes4"
        }
      ],
      "name": "supportsInterface",
      "outputs": [
        {
          "internalType": "bool",
          "name": "",
          "type": "bool"
        }
      ],
      "stateMutability": "view",
      "type": "function"
    },
    {
      "inputs": [],
      "name": "symbol",
      "outputs": [
        {
          "internalType": "string",
          "name": "",
          "type": "string"
        }
      ],
      "stateMutability": "view",
      "type": "function"
    },
    {
      "inputs": [],
      "name": "tokenAddress",
      "outputs": [
        {
          "internalType": "address",
          "name": "",
          "type": "address"
        }
      ],
      "stateMutability": "view",
      "type": "function"
    },
    {
      "inputs": [
        {
          "internalType": "uint256",
          "name": "index",
          "type": "uint256"
        }
      ],
      "name": "tokenByIndex",
      "outputs": [
        {
          "internalType": "uint256",
          "name": "",
          "type": "uint256"
        }
      ],
      "stateMutability": "view",
      "type": "function"
    },
    {
      "inputs": [
        {
          "internalType": "address",
          "name": "owner",
          "type": "address"
        },
        {
          "internalType": "uint256",
          "name": "index",
          "type": "uint256"
        }
      ],
      "name": "tokenOfOwnerByIndex",
      "outputs": [
        {
          "internalType": "uint256",
          "name": "",
          "type": "uint256"
        }
      ],
      "stateMutability": "view",
      "type": "function"
    },
    {
      "inputs": [
        {
          "internalType": "uint256",
          "name": "tokenId",
          "type": "uint256"
        }
      ],
      "name": "tokenURI",
      "outputs": [
        {
          "internalType": "string",
          "name": "",
          "type": "string"
        }
      ],
      "stateMutability": "view",
      "type": "function"
    },
    {
      "inputs": [],
      "name": "totalSupply",
      "outputs": [
        {
          "internalType": "uint256",
          "name": "",
          "type": "uint256"
        }
      ],
      "stateMutability": "view",
      "type": "function"
    },
    {
      "inputs": [
        {
          "internalType": "address",
          "name": "from",
          "type": "address"
        },
        {
          "internalType": "address",
          "name": "to",
          "type": "address"
        },
        {
          "internalType": "uint256",
          "name": "tokenId",
          "type": "uint256"
        }
      ],
      "name": "transferFrom",
      "outputs": [],
      "stateMutability": "nonpayable",
      "type": "function"
    },
    {
      "inputs": [],
      "name": "unpause",
      "outputs": [],
      "stateMutability": "nonpayable",
      "type": "function"
    }
  ],
  "bytecode": "0x60806040523480156200001157600080fd5b5060405162006162380380620061628339818101604052810190620000379190620006ba565b6040518060400160405280600581526020017f4d794e46540000000000000000000000000000000000000000000000000000008152506040518060400160405280600481526020017f4d4e4654000000000000000000000000000000000000000000000000000000008152506040518060400160405280601c81526020017f68747470733a2f2f6e6f7274686561737465726e2e6564752f6e66740000000081525082828160029081620000ec9190620009c6565b508060039081620000fe9190620009c6565b5050506000600c60006101000a81548160ff02191690831515021790555080600e90816200012d9190620009c6565b50620001526000801b620001466200037f60201b60201c565b6200038760201b60201c565b620001937f9f2df0fed2c77648de5860a4cc508cd0818c85b8b8a1ab4ceeef8d981c8956a6620001876200037f60201b60201c565b6200038760201b60201c565b620001d47f65d7a28e3265b37a6474929f336521b332c1681b933f6cb9f3376673440d862a620001c86200037f60201b60201c565b6200038760201b60201c565b50505033600f60006101000a81548173ffffffffffffffffffffffffffffffffffffffff021916908373ffffffffffffffffffffffffffffffffffffffff1602179055508260108190555081601181905550806012819055506012546011546200023f919062000adc565b6010546200024e919062000b27565b6013819055506011544362000264919062000b27565b6014819055506000601560006101000a81548160ff0219169083151502179055506000601760006101000a81548160ff0219169083151502179055506000601560016101000a81548173ffffffffffffffffffffffffffffffffffffffff021916908373ffffffffffffffffffffffffffffffffffffffff160217905550600060168190555084601760016101000a81548173ffffffffffffffffffffffffffffffffffffffff021916908373ffffffffffffffffffffffffffffffffffffffff1602179055508360188190555085601960006101000a81548173ffffffffffffffffffffffffffffffffffffffff021916908373ffffffffffffffffffffffffffffffffffffffff16021790555050505050505062000b62565b600033905090565b6200039982826200039d60201b60201c565b5050565b620003b48282620003e560201b62001b731760201c565b620003e08160016000858152602001908152602001600020620004d660201b62001c531790919060201c565b505050565b620003f782826200050e60201b60201c565b620004d257600160008084815260200190815260200160002060000160008373ffffffffffffffffffffffffffffffffffffffff1673ffffffffffffffffffffffffffffffffffffffff16815260200190815260200160002060006101000a81548160ff021916908315150217905550620004776200037f60201b60201c565b73ffffffffffffffffffffffffffffffffffffffff168173ffffffffffffffffffffffffffffffffffffffff16837f2f8788117e7eff1d82e926ec794901d17c78024a50270940304540a733656f0d60405160405180910390a45b5050565b600062000506836000018373ffffffffffffffffffffffffffffffffffffffff1660001b6200057860201b60201c565b905092915050565b600080600084815260200190815260200160002060000160008373ffffffffffffffffffffffffffffffffffffffff1673ffffffffffffffffffffffffffffffffffffffff16815260200190815260200160002060009054906101000a900460ff16905092915050565b60006200058c8383620005f260201b60201c565b620005e7578260000182908060018154018082558091505060019003906000526020600020016000909190919091505582600001805490508360010160008481526020019081526020016000208190555060019050620005ec565b600090505b92915050565b600080836001016000848152602001908152602001600020541415905092915050565b600080fd5b600073ffffffffffffffffffffffffffffffffffffffff82169050919050565b600062000647826200061a565b9050919050565b62000659816200063a565b81146200066557600080fd5b50565b60008151905062000679816200064e565b92915050565b6000819050919050565b62000694816200067f565b8114620006a057600080fd5b50565b600081519050620006b48162000689565b92915050565b60008060008060008060c08789031215620006da57620006d962000615565b5b6000620006ea89828a0162000668565b9650506020620006fd89828a0162000668565b95505060406200071089828a01620006a3565b94505060606200072389828a01620006a3565b93505060806200073689828a01620006a3565b92505060a06200074989828a01620006a3565b9150509295509295509295565b600081519050919050565b7f4e487b7100000000000000000000000000000000000000000000000000000000600052604160045260246000fd5b7f4e487b7100000000000000000000000000000000000000000000000000000000600052602260045260246000fd5b60006002820490506001821680620007d857607f821691505b602082108103620007ee57620007ed62000790565b5b50919050565b60008190508160005260206000209050919050565b60006020601f8301049050919050565b600082821b905092915050565b600060088302620008587fffffffffffffffffffffffffffffffffffffffffffffffffffffffffffffffff8262000819565b62000864868362000819565b95508019841693508086168417925050509392505050565b6000819050919050565b6000620008a7620008a16200089b846200067f565b6200087c565b6200067f565b9050919050565b6000819050919050565b620008c38362000886565b620008db620008d282620008ae565b84845462000826565b825550505050565b600090565b620008f2620008e3565b620008ff818484620008b8565b505050565b5b8181101562000927576200091b600082620008e8565b60018101905062000905565b5050565b601f82111562000976576200094081620007f4565b6200094b8462000809565b810160208510156200095b578190505b620009736200096a8562000809565b83018262000904565b50505b505050565b600082821c905092915050565b60006200099b600019846008026200097b565b1980831691505092915050565b6000620009b6838362000988565b9150826002028217905092915050565b620009d18262000756565b67ffffffffffffffff811115620009ed57620009ec62000761565b5b620009f98254620007bf565b62000a068282856200092b565b600060209050601f83116001811462000a3e576000841562000a29578287015190505b62000a358582620009a8565b86555062000aa5565b601f19841662000a4e86620007f4565b60005b8281101562000a785784890151825560018201915060208501945060208101905062000a51565b8683101562000a98578489015162000a94601f89168262000988565b8355505b6001600288020188555050505b505050505050565b7f4e487b7100000000000000000000000000000000000000000000000000000000600052601160045260246000fd5b600062000ae9826200067f565b915062000af6836200067f565b925082820262000b06816200067f565b9150828204841483151762000b205762000b1f62000aad565b5b5092915050565b600062000b34826200067f565b915062000b41836200067f565b925082820190508082111562000b5c5762000b5b62000aad565b5b92915050565b6155f08062000b726000396000f3fe608060405234801561001057600080fd5b50600436106102bb5760003560e01c80636a62784211610182578063b5545a3c116100e9578063d5391393116100a2578063e63ab1e91161007c578063e63ab1e9146108b2578063e985e9c5146108d0578063eb91d37e14610900578063f835cd3c1461091e576102bb565b8063d53913931461085a578063d547741f14610878578063db2e1eed14610894576102bb565b8063b5545a3c14610798578063b88d4fde146107a2578063bdb39373146107be578063c87b56dd146107dc578063ca15c8731461080c578063d3642a881461083c576102bb565b806391d148541161013b57806391d14854146106c257806395d89b41146106f25780639b96eece146107105780639d76ea5814610740578063a217fddf1461075e578063a22cb4651461077c576102bb565b80636a6278421461060057806370a082311461061c5780637e8305741461064c5780638456cb591461066a57806386433374146106745780639010d07c14610692576102bb565b80632f745c5911610226578063454a2ab3116101df578063454a2ab3146105045780634b449cba146105345780634f6ccce7146105525780635c975abb1461058257806362ea82db146105a05780636352211e146105d0576102bb565b80632f745c59146104585780633103ea621461048857806336568abe146104a65780633f4ba83a146104c257806342842e0e146104cc57806342966c68146104e8576102bb565b806318160ddd1161027857806318160ddd146103965780631d0806ae146103b457806323b872dd146103d2578063248a9ca3146103ee57806328e2f6961461041e5780632f2ff15d1461043c576102bb565b806301ffc9a7146102c057806306fdde03146102f0578063081812fc1461030e57806308551a531461033e578063095ea7b31461035c578063100e455514610378575b600080fd5b6102da60048036038101906102d59190613c92565b61093c565b6040516102e79190613cda565b60405180910390f35b6102f861094e565b6040516103059190613d85565b60405180910390f35b61032860048036038101906103239190613ddd565b6109e0565b6040516103359190613e4b565b60405180910390f35b610346610a26565b6040516103539190613e87565b60405180910390f35b61037660048036038101906103719190613ece565b610a4c565b005b610380610b63565b60405161038d9190613cda565b60405180910390f35b61039e610b76565b6040516103ab9190613f1d565b60405180910390f35b6103bc610b83565b6040516103c99190613f1d565b60405180910390f35b6103ec60048036038101906103e79190613f38565b610b89565b005b61040860048036038101906104039190613fc1565b610be9565b6040516104159190613ffd565b60405180910390f35b610426610c08565b6040516104339190613f1d565b60405180910390f35b61045660048036038101906104519190614018565b610c0e565b005b610472600480360381019061046d9190613ece565b610c2f565b60405161047f9190613f1d565b60405180910390f35b610490610cd4565b60405161049d9190613f1d565b60405180910390f35b6104c060048036038101906104bb9190614018565b610cda565b005b6104ca610d5d565b005b6104e660048036038101906104e19190613f38565b610dd7565b005b61050260048036038101906104fd9190613ddd565b610df7565b005b61051e60048036038101906105199190613ddd565b610e53565b60405161052b9190613cda565b60405180910390f35b61053c611211565b6040516105499190613f1d565b60405180910390f35b61056c60048036038101906105679190613ddd565b611217565b6040516105799190613f1d565b60405180910390f35b61058a611288565b6040516105979190613cda565b60405180910390f35b6105ba60048036038101906105b59190614058565b61129f565b6040516105c79190613f1d565b60405180910390f35b6105ea60048036038101906105e59190613ddd565b6112b7565b6040516105f79190613e4b565b60405180910390f35b61061a60048036038101906106159190614058565b61133d565b005b61063660048036038101906106319190614058565b6113cd565b6040516106439190613f1d565b60405180910390f35b610654611484565b6040516106619190613f1d565b60405180910390f35b61067261148a565b005b61067c611504565b6040516106899190613cda565b60405180910390f35b6106ac60048036038101906106a79190614085565b611517565b6040516106b99190613e4b565b60405180910390f35b6106dc60048036038101906106d79190614018565b611546565b6040516106e99190613cda565b60405180910390f35b6106fa6115b0565b6040516107079190613d85565b60405180910390f35b61072a60048036038101906107259190614058565b611642565b6040516107379190613f1d565b60405180910390f35b61074861168b565b6040516107559190613e4b565b60405180910390f35b6107666116b1565b6040516107739190613ffd565b60405180910390f35b610796600480360381019061079191906140f1565b6116b8565b005b6107a06116ce565b005b6107bc60048036038101906107b79190614266565b6118e8565b005b6107c661194a565b6040516107d39190613e87565b60405180910390f35b6107f660048036038101906107f19190613ddd565b611970565b6040516108039190613d85565b60405180910390f35b61082660048036038101906108219190613fc1565b6119d8565b6040516108339190613f1d565b60405180910390f35b6108446119fc565b6040516108519190613f1d565b60405180910390f35b610862611a02565b60405161086f9190613ffd565b60405180910390f35b610892600480360381019061088d9190614018565b611a26565b005b61089c611a47565b6040516108a99190613f1d565b60405180910390f35b6108ba611a4d565b6040516108c79190613ffd565b60405180910390f35b6108ea60048036038101906108e591906142e9565b611a71565b6040516108f79190613cda565b60405180910390f35b610908611b05565b6040516109159190613f1d565b60405180910390f35b610926611b4d565b6040516109339190613e4b565b60405180910390f35b600061094782611c83565b9050919050565b60606002805461095d90614358565b80601f016020809104026020016040519081016040528092919081815260200182805461098990614358565b80156109d65780601f106109ab576101008083540402835291602001916109d6565b820191906000526020600020905b8154815290600101906020018083116109b957829003601f168201915b5050505050905090565b60006109eb82611cfd565b6006600083815260200190815260200160002060009054906101000a900473ffffffffffffffffffffffffffffffffffffffff169050919050565b600f60009054906101000a900473ffffffffffffffffffffffffffffffffffffffff1681565b6000610a57826112b7565b90508073ffffffffffffffffffffffffffffffffffffffff168373ffffffffffffffffffffffffffffffffffffffff1603610ac7576040517f08c379a0000000000000000000000000000000000000000000000000000000008152600401610abe906143fb565b60405180910390fd5b8073ffffffffffffffffffffffffffffffffffffffff16610ae6611d48565b73ffffffffffffffffffffffffffffffffffffffff161480610b155750610b1481610b0f611d48565b611a71565b5b610b54576040517f08c379a0000000000000000000000000000000000000000000000000000000008152600401610b4b9061448d565b60405180910390fd5b610b5e8383611d50565b505050565b601760009054906101000a900460ff1681565b6000600a80549050905090565b60135481565b610b9a610b94611d48565b82611e09565b610bd9576040517f08c379a0000000000000000000000000000000000000000000000000000000008152600401610bd09061451f565b60405180910390fd5b610be4838383611e9e565b505050565b6000806000838152602001908152602001600020600101549050919050565b60165481565b610c1782610be9565b610c2081612197565b610c2a83836121ab565b505050565b6000610c3a836113cd565b8210610c7b576040517f08c379a0000000000000000000000000000000000000000000000000000000008152600401610c72906145b1565b60405180910390fd5b600860008473ffffffffffffffffffffffffffffffffffffffff1673ffffffffffffffffffffffffffffffffffffffff168152602001908152602001600020600083815260200190815260200160002054905092915050565b60115481565b610ce2611d48565b73ffffffffffffffffffffffffffffffffffffffff168173ffffffffffffffffffffffffffffffffffffffff1614610d4f576040517f08c379a0000000000000000000000000000000000000000000000000000000008152600401610d4690614643565b60405180910390fd5b610d5982826121df565b5050565b610d8e7f65d7a28e3265b37a6474929f336521b332c1681b933f6cb9f3376673440d862a610d89611d48565b611546565b610dcd576040517f08c379a0000000000000000000000000000000000000000000000000000000008152600401610dc4906146d5565b60405180910390fd5b610dd5612213565b565b610df2838383604051806020016040528060008152506118e8565b505050565b610e08610e02611d48565b82611e09565b610e47576040517f08c379a0000000000000000000000000000000000000000000000000000000008152600401610e3e9061451f565b60405180910390fd5b610e5081612276565b50565b600080610e5e611b05565b905060008111610ea3576040517f08c379a0000000000000000000000000000000000000000000000000000000008152600401610e9a90614741565b60405180910390fd5b60008311610ee6576040517f08c379a0000000000000000000000000000000000000000000000000000000008152600401610edd906147d3565b60405180910390fd5b80831015610f29576040517f08c379a0000000000000000000000000000000000000000000000000000000008152600401610f2090614865565b60405180910390fd5b601760009054906101000a900460ff166110eb5733601560016101000a81548173ffffffffffffffffffffffffffffffffffffffff021916908373ffffffffffffffffffffffffffffffffffffffff160217905550826016819055506001601760006101000a81548160ff021916908315150217905550601654601a6000600f60009054906101000a900473ffffffffffffffffffffffffffffffffffffffff1673ffffffffffffffffffffffffffffffffffffffff1673ffffffffffffffffffffffffffffffffffffffff168152602001908152602001600020600082825461101391906148b4565b92505081905550601960009054906101000a900473ffffffffffffffffffffffffffffffffffffffff1673ffffffffffffffffffffffffffffffffffffffff166323b872dd33600f60009054906101000a900473ffffffffffffffffffffffffffffffffffffffff166016546040518463ffffffff1660e01b815260040161109d93929190614947565b6020604051808303816000875af11580156110bc573d6000803e3d6000fd5b505050506040513d601f19601f820116820180604052508101906110e09190614993565b50600191505061120c565b82601a60003373ffffffffffffffffffffffffffffffffffffffff1673ffffffffffffffffffffffffffffffffffffffff168152602001908152602001600020600082825461113a91906148b4565b92505081905550601960009054906101000a900473ffffffffffffffffffffffffffffffffffffffff1673ffffffffffffffffffffffffffffffffffffffff166323b872dd33600f60009054906101000a900473ffffffffffffffffffffffffffffffffffffffff16866040518463ffffffff1660e01b81526004016111c293929190614947565b6020604051808303816000875af11580156111e1573d6000803e3d6000fd5b505050506040513d601f19601f820116820180604052508101906112059190614993565b5060009150505b919050565b60145481565b6000611221610b76565b8210611262576040517f08c379a000000000000000000000000000000000000000000000000000000000815260040161125990614a32565b60405180910390fd5b600a828154811061127657611275614a52565b5b90600052602060002001549050919050565b6000600c60009054906101000a900460ff16905090565b601a6020528060005260406000206000915090505481565b6000806112c3836123c4565b9050600073ffffffffffffffffffffffffffffffffffffffff168173ffffffffffffffffffffffffffffffffffffffff1603611334576040517f08c379a000000000000000000000000000000000000000000000000000000000815260040161132b90614acd565b60405180910390fd5b80915050919050565b61136e7f9f2df0fed2c77648de5860a4cc508cd0818c85b8b8a1ab4ceeef8d981c8956a6611369611d48565b611546565b6113ad576040517f08c379a00000000000000000000000000000000000000000000000000000000081526004016113a490614b5f565b60405180910390fd5b6113c0816113bb600d612401565b61240f565b6113ca600d61262c565b50565b60008073ffffffffffffffffffffffffffffffffffffffff168273ffffffffffffffffffffffffffffffffffffffff160361143d576040517f08c379a000000000000000000000000000000000000000000000000000000000815260040161143490614bf1565b60405180910390fd5b600560008373ffffffffffffffffffffffffffffffffffffffff1673ffffffffffffffffffffffffffffffffffffffff168152602001908152602001600020549050919050565b60185481565b6114bb7f65d7a28e3265b37a6474929f336521b332c1681b933f6cb9f3376673440d862a6114b6611d48565b611546565b6114fa576040517f08c379a00000000000000000000000000000000000000000000000000000000081526004016114f190614c83565b60405180910390fd5b611502612642565b565b601560009054906101000a900460ff1681565b600061153e82600160008681526020019081526020016000206126a590919063ffffffff16565b905092915050565b600080600084815260200190815260200160002060000160008373ffffffffffffffffffffffffffffffffffffffff1673ffffffffffffffffffffffffffffffffffffffff16815260200190815260200160002060009054906101000a900460ff16905092915050565b6060600380546115bf90614358565b80601f01602080910402602001604051908101604052809291908181526020018280546115eb90614358565b80156116385780601f1061160d57610100808354040283529160200191611638565b820191906000526020600020905b81548152906001019060200180831161161b57829003601f168201915b5050505050905090565b6000601a60008373ffffffffffffffffffffffffffffffffffffffff1673ffffffffffffffffffffffffffffffffffffffff168152602001908152602001600020549050919050565b601760019054906101000a900473ffffffffffffffffffffffffffffffffffffffff1681565b6000801b81565b6116ca6116c3611d48565b83836126bf565b5050565b6000601a60003373ffffffffffffffffffffffffffffffffffffffff1673ffffffffffffffffffffffffffffffffffffffff1681526020019081526020016000205411611750576040517f08c379a000000000000000000000000000000000000000000000000000000000815260040161174790614cef565b60405180910390fd5b6000601a60003373ffffffffffffffffffffffffffffffffffffffff1673ffffffffffffffffffffffffffffffffffffffff1681526020019081526020016000205490506000601a60003373ffffffffffffffffffffffffffffffffffffffff1673ffffffffffffffffffffffffffffffffffffffff168152602001908152602001600020819055506118176040518060400160405280600e81526020017f726566756e64416d6f756e743a2000000000000000000000000000000000000081525061282b565b611820816128c4565b601960009054906101000a900473ffffffffffffffffffffffffffffffffffffffff1673ffffffffffffffffffffffffffffffffffffffff166323b872dd600f60009054906101000a900473ffffffffffffffffffffffffffffffffffffffff1633846040518463ffffffff1660e01b81526004016118a193929190614d0f565b6020604051808303816000875af11580156118c0573d6000803e3d6000fd5b505050506040513d601f19601f820116820180604052508101906118e49190614993565b5050565b6118f96118f3611d48565b83611e09565b611938576040517f08c379a000000000000000000000000000000000000000000000000000000000815260040161192f9061451f565b60405180910390fd5b6119448484848461295d565b50505050565b601560019054906101000a900473ffffffffffffffffffffffffffffffffffffffff1681565b606061197b82611cfd565b60006119856129b9565b905060008151116119a557604051806020016040528060008152506119d0565b806119af84612a4b565b6040516020016119c0929190614d82565b6040516020818303038152906040525b915050919050565b60006119f560016000848152602001908152602001600020612b19565b9050919050565b60125481565b7f9f2df0fed2c77648de5860a4cc508cd0818c85b8b8a1ab4ceeef8d981c8956a681565b611a2f82610be9565b611a3881612197565b611a4283836121df565b505050565b60105481565b7f65d7a28e3265b37a6474929f336521b332c1681b933f6cb9f3376673440d862a81565b6000600760008473ffffffffffffffffffffffffffffffffffffffff1673ffffffffffffffffffffffffffffffffffffffff16815260200190815260200160002060008373ffffffffffffffffffffffffffffffffffffffff1673ffffffffffffffffffffffffffffffffffffffff16815260200190815260200160002060009054906101000a900460ff16905092915050565b60006014544310611b195760009050611b4a565b600043601454611b299190614da6565b905060125481611b399190614dda565b601354611b469190614da6565b9150505b90565b601960009054906101000a900473ffffffffffffffffffffffffffffffffffffffff1681565b611b7d8282611546565b611c4f57600160008084815260200190815260200160002060000160008373ffffffffffffffffffffffffffffffffffffffff1673ffffffffffffffffffffffffffffffffffffffff16815260200190815260200160002060006101000a81548160ff021916908315150217905550611bf4611d48565b73ffffffffffffffffffffffffffffffffffffffff168173ffffffffffffffffffffffffffffffffffffffff16837f2f8788117e7eff1d82e926ec794901d17c78024a50270940304540a733656f0d60405160405180910390a45b5050565b6000611c7b836000018373ffffffffffffffffffffffffffffffffffffffff1660001b612b2e565b905092915050565b60007f780e9d63000000000000000000000000000000000000000000000000000000007bffffffffffffffffffffffffffffffffffffffffffffffffffffffff1916827bffffffffffffffffffffffffffffffffffffffffffffffffffffffff19161480611cf65750611cf582612b9e565b5b9050919050565b611d0681612c80565b611d45576040517f08c379a0000000000000000000000000000000000000000000000000000000008152600401611d3c90614acd565b60405180910390fd5b50565b600033905090565b816006600083815260200190815260200160002060006101000a81548173ffffffffffffffffffffffffffffffffffffffff021916908373ffffffffffffffffffffffffffffffffffffffff160217905550808273ffffffffffffffffffffffffffffffffffffffff16611dc3836112b7565b73ffffffffffffffffffffffffffffffffffffffff167f8c5be1e5ebec7d5bd14f71427d1e84f3dd0314c0f7b2291e5b200ac8c7c3b92560405160405180910390a45050565b600080611e15836112b7565b90508073ffffffffffffffffffffffffffffffffffffffff168473ffffffffffffffffffffffffffffffffffffffff161480611e575750611e568185611a71565b5b80611e9557508373ffffffffffffffffffffffffffffffffffffffff16611e7d846109e0565b73ffffffffffffffffffffffffffffffffffffffff16145b91505092915050565b8273ffffffffffffffffffffffffffffffffffffffff16611ebe826112b7565b73ffffffffffffffffffffffffffffffffffffffff1614611f14576040517f08c379a0000000000000000000000000000000000000000000000000000000008152600401611f0b90614e8e565b60405180910390fd5b600073ffffffffffffffffffffffffffffffffffffffff168273ffffffffffffffffffffffffffffffffffffffff1603611f83576040517f08c379a0000000000000000000000000000000000000000000000000000000008152600401611f7a90614f20565b60405180910390fd5b611f908383836001612cc1565b8273ffffffffffffffffffffffffffffffffffffffff16611fb0826112b7565b73ffffffffffffffffffffffffffffffffffffffff1614612006576040517f08c379a0000000000000000000000000000000000000000000000000000000008152600401611ffd90614e8e565b60405180910390fd5b6006600082815260200190815260200160002060006101000a81549073ffffffffffffffffffffffffffffffffffffffff02191690556001600560008573ffffffffffffffffffffffffffffffffffffffff1673ffffffffffffffffffffffffffffffffffffffff168152602001908152602001600020600082825403925050819055506001600560008473ffffffffffffffffffffffffffffffffffffffff1673ffffffffffffffffffffffffffffffffffffffff16815260200190815260200160002060008282540192505081905550816004600083815260200190815260200160002060006101000a81548173ffffffffffffffffffffffffffffffffffffffff021916908373ffffffffffffffffffffffffffffffffffffffff160217905550808273ffffffffffffffffffffffffffffffffffffffff168473ffffffffffffffffffffffffffffffffffffffff167fddf252ad1be2c89b69c2b068fc378daa952ba7f163c4a11628f55a4df523b3ef60405160405180910390a46121928383836001612cd3565b505050565b6121a8816121a3611d48565b612cd9565b50565b6121b58282611b73565b6121da8160016000858152602001908152602001600020611c5390919063ffffffff16565b505050565b6121e98282612d5e565b61220e8160016000858152602001908152602001600020612e3f90919063ffffffff16565b505050565b61221b612e6f565b6000600c60006101000a81548160ff0219169083151502179055507f5db9ee0a495bf2e6ff9c91a7834c1ba4fdd244a5e8aa4e537bd38aeae4b073aa61225f611d48565b60405161226c9190613e4b565b60405180910390a1565b6000612281826112b7565b9050612291816000846001612cc1565b61229a826112b7565b90506006600083815260200190815260200160002060006101000a81549073ffffffffffffffffffffffffffffffffffffffff02191690556001600560008373ffffffffffffffffffffffffffffffffffffffff1673ffffffffffffffffffffffffffffffffffffffff168152602001908152602001600020600082825403925050819055506004600083815260200190815260200160002060006101000a81549073ffffffffffffffffffffffffffffffffffffffff021916905581600073ffffffffffffffffffffffffffffffffffffffff168273ffffffffffffffffffffffffffffffffffffffff167fddf252ad1be2c89b69c2b068fc378daa952ba7f163c4a11628f55a4df523b3ef60405160405180910390a46123c0816000846001612cd3565b5050565b60006004600083815260200190815260200160002060009054906101000a900473ffffffffffffffffffffffffffffffffffffffff169050919050565b600081600001549050919050565b600073ffffffffffffffffffffffffffffffffffffffff168273ffffffffffffffffffffffffffffffffffffffff160361247e576040517f08c379a000000000000000000000000000000000000000000000000000000000815260040161247590614f8c565b60405180910390fd5b61248781612c80565b156124c7576040517f08c379a00000000000000000000000000000000000000000000000000000000081526004016124be90614ff8565b60405180910390fd5b6124d5600083836001612cc1565b6124de81612c80565b1561251e576040517f08c379a000000000000000000000000000000000000000000000000000000000815260040161251590614ff8565b60405180910390fd5b6001600560008473ffffffffffffffffffffffffffffffffffffffff1673ffffffffffffffffffffffffffffffffffffffff16815260200190815260200160002060008282540192505081905550816004600083815260200190815260200160002060006101000a81548173ffffffffffffffffffffffffffffffffffffffff021916908373ffffffffffffffffffffffffffffffffffffffff160217905550808273ffffffffffffffffffffffffffffffffffffffff16600073ffffffffffffffffffffffffffffffffffffffff167fddf252ad1be2c89b69c2b068fc378daa952ba7f163c4a11628f55a4df523b3ef60405160405180910390a4612628600083836001612cd3565b5050565b6001816000016000828254019250508190555050565b61264a612eb8565b6001600c60006101000a81548160ff0219169083151502179055507f62e78cea01bee320cd4e420270b5ea74000d11b0c9f74754ebdbfc544b05a25861268e611d48565b60405161269b9190613e4b565b60405180910390a1565b60006126b48360000183612f02565b60001c905092915050565b8173ffffffffffffffffffffffffffffffffffffffff168373ffffffffffffffffffffffffffffffffffffffff160361272d576040517f08c379a000000000000000000000000000000000000000000000000000000000815260040161272490615064565b60405180910390fd5b80600760008573ffffffffffffffffffffffffffffffffffffffff1673ffffffffffffffffffffffffffffffffffffffff16815260200190815260200160002060008473ffffffffffffffffffffffffffffffffffffffff1673ffffffffffffffffffffffffffffffffffffffff16815260200190815260200160002060006101000a81548160ff0219169083151502179055508173ffffffffffffffffffffffffffffffffffffffff168373ffffffffffffffffffffffffffffffffffffffff167f17307eab39ab6107e8899845ad3d59bd9653f200f220920489ca2b5937696c318360405161281e9190613cda565b60405180910390a3505050565b6128c18160405160240161283f9190613d85565b6040516020818303038152906040527f41304fac000000000000000000000000000000000000000000000000000000007bffffffffffffffffffffffffffffffffffffffffffffffffffffffff19166020820180517bffffffffffffffffffffffffffffffffffffffffffffffffffffffff8381831617835250505050612f2d565b50565b61295a816040516024016128d89190613f1d565b6040516020818303038152906040527ff82c50f1000000000000000000000000000000000000000000000000000000007bffffffffffffffffffffffffffffffffffffffffffffffffffffffff19166020820180517bffffffffffffffffffffffffffffffffffffffffffffffffffffffff8381831617835250505050612f2d565b50565b612968848484611e9e565b61297484848484612f56565b6129b3576040517f08c379a00000000000000000000000000000000000000000000000000000000081526004016129aa906150f6565b60405180910390fd5b50505050565b6060600e80546129c890614358565b80601f01602080910402602001604051908101604052809291908181526020018280546129f490614358565b8015612a415780601f10612a1657610100808354040283529160200191612a41565b820191906000526020600020905b815481529060010190602001808311612a2457829003601f168201915b5050505050905090565b606060006001612a5a846130dd565b01905060008167ffffffffffffffff811115612a7957612a7861413b565b5b6040519080825280601f01601f191660200182016040528015612aab5781602001600182028036833780820191505090505b509050600082602001820190505b600115612b0e578080600190039150507f3031323334353637383961626364656600000000000000000000000000000000600a86061a8153600a8581612b0257612b01615116565b5b04945060008503612ab9575b819350505050919050565b6000612b2782600001613230565b9050919050565b6000612b3a8383613241565b612b93578260000182908060018154018082558091505060019003906000526020600020016000909190919091505582600001805490508360010160008481526020019081526020016000208190555060019050612b98565b600090505b92915050565b60007f80ac58cd000000000000000000000000000000000000000000000000000000007bffffffffffffffffffffffffffffffffffffffffffffffffffffffff1916827bffffffffffffffffffffffffffffffffffffffffffffffffffffffff19161480612c6957507f5b5e139f000000000000000000000000000000000000000000000000000000007bffffffffffffffffffffffffffffffffffffffffffffffffffffffff1916827bffffffffffffffffffffffffffffffffffffffffffffffffffffffff1916145b80612c795750612c7882613264565b5b9050919050565b60008073ffffffffffffffffffffffffffffffffffffffff16612ca2836123c4565b73ffffffffffffffffffffffffffffffffffffffff1614159050919050565b612ccd848484846132de565b50505050565b50505050565b612ce38282611546565b612d5a57612cf081613338565b612cfe8360001c6020613365565b604051602001612d0f9291906151dd565b6040516020818303038152906040526040517f08c379a0000000000000000000000000000000000000000000000000000000008152600401612d519190613d85565b60405180910390fd5b5050565b612d688282611546565b15612e3b57600080600084815260200190815260200160002060000160008373ffffffffffffffffffffffffffffffffffffffff1673ffffffffffffffffffffffffffffffffffffffff16815260200190815260200160002060006101000a81548160ff021916908315150217905550612de0611d48565b73ffffffffffffffffffffffffffffffffffffffff168173ffffffffffffffffffffffffffffffffffffffff16837ff6391f5c32d9c69d2a47ea670b442974b53935d1edc7fd64eb21e047a839171b60405160405180910390a45b5050565b6000612e67836000018373ffffffffffffffffffffffffffffffffffffffff1660001b6135a1565b905092915050565b612e77611288565b612eb6576040517f08c379a0000000000000000000000000000000000000000000000000000000008152600401612ead90615263565b60405180910390fd5b565b612ec0611288565b15612f00576040517f08c379a0000000000000000000000000000000000000000000000000000000008152600401612ef7906152cf565b60405180910390fd5b565b6000826000018281548110612f1a57612f19614a52565b5b9060005260206000200154905092915050565b60008151905060006a636f6e736f6c652e6c6f679050602083016000808483855afa5050505050565b6000612f778473ffffffffffffffffffffffffffffffffffffffff166136b5565b156130d0578373ffffffffffffffffffffffffffffffffffffffff1663150b7a02612fa0611d48565b8786866040518563ffffffff1660e01b8152600401612fc29493929190615344565b6020604051808303816000875af1925050508015612ffe57506040513d601f19601f82011682018060405250810190612ffb91906153a5565b60015b613080573d806000811461302e576040519150601f19603f3d011682016040523d82523d6000602084013e613033565b606091505b506000815103613078576040517f08c379a000000000000000000000000000000000000000000000000000000000815260040161306f906150f6565b60405180910390fd5b805181602001fd5b63150b7a0260e01b7bffffffffffffffffffffffffffffffffffffffffffffffffffffffff1916817bffffffffffffffffffffffffffffffffffffffffffffffffffffffff1916149150506130d5565b600190505b949350505050565b600080600090507a184f03e93ff9f4daa797ed6e38ed64bf6a1f010000000000000000831061313b577a184f03e93ff9f4daa797ed6e38ed64bf6a1f010000000000000000838161313157613130615116565b5b0492506040810190505b6d04ee2d6d415b85acef81000000008310613178576d04ee2d6d415b85acef8100000000838161316e5761316d615116565b5b0492506020810190505b662386f26fc1000083106131a757662386f26fc10000838161319d5761319c615116565b5b0492506010810190505b6305f5e10083106131d0576305f5e10083816131c6576131c5615116565b5b0492506008810190505b61271083106131f55761271083816131eb576131ea615116565b5b0492506004810190505b60648310613218576064838161320e5761320d615116565b5b0492506002810190505b600a8310613227576001810190505b80915050919050565b600081600001805490509050919050565b600080836001016000848152602001908152602001600020541415905092915050565b60007f5a05180f000000000000000000000000000000000000000000000000000000007bffffffffffffffffffffffffffffffffffffffffffffffffffffffff1916827bffffffffffffffffffffffffffffffffffffffffffffffffffffffff191614806132d757506132d6826136d8565b5b9050919050565b6132ea84848484613752565b6132f2611288565b15613332576040517f08c379a000000000000000000000000000000000000000000000000000000000815260040161332990615444565b60405180910390fd5b50505050565b606061335e8273ffffffffffffffffffffffffffffffffffffffff16601460ff16613365565b9050919050565b6060600060028360026133789190614dda565b61338291906148b4565b67ffffffffffffffff81111561339b5761339a61413b565b5b6040519080825280601f01601f1916602001820160405280156133cd5781602001600182028036833780820191505090505b5090507f30000000000000000000000000000000000000000000000000000000000000008160008151811061340557613404614a52565b5b60200101907effffffffffffffffffffffffffffffffffffffffffffffffffffffffffffff1916908160001a9053507f78000000000000000000000000000000000000000000000000000000000000008160018151811061346957613468614a52565b5b60200101907effffffffffffffffffffffffffffffffffffffffffffffffffffffffffffff1916908160001a905350600060018460026134a99190614dda565b6134b391906148b4565b90505b6001811115613553577f3031323334353637383961626364656600000000000000000000000000000000600f8616601081106134f5576134f4614a52565b5b1a60f81b82828151811061350c5761350b614a52565b5b60200101907effffffffffffffffffffffffffffffffffffffffffffffffffffffffffffff1916908160001a905350600485901c94508061354c90615464565b90506134b6565b5060008414613597576040517f08c379a000000000000000000000000000000000000000000000000000000000815260040161358e906154d9565b60405180910390fd5b8091505092915050565b600080836001016000848152602001908152602001600020549050600081146136a95760006001826135d39190614da6565b90506000600186600001805490506135eb9190614da6565b905081811461365a57600086600001828154811061360c5761360b614a52565b5b90600052602060002001549050808760000184815481106136305761362f614a52565b5b90600052602060002001819055508387600101600083815260200190815260200160002081905550505b8560000180548061366e5761366d6154f9565b5b6001900381819060005260206000200160009055905585600101600086815260200190815260200160002060009055600193505050506136af565b60009150505b92915050565b6000808273ffffffffffffffffffffffffffffffffffffffff163b119050919050565b60007f7965db0b000000000000000000000000000000000000000000000000000000007bffffffffffffffffffffffffffffffffffffffffffffffffffffffff1916827bffffffffffffffffffffffffffffffffffffffffffffffffffffffff1916148061374b575061374a826138b0565b5b9050919050565b61375e8484848461391a565b60018111156137a2576040517f08c379a00000000000000000000000000000000000000000000000000000000081526004016137999061559a565b60405180910390fd5b6000829050600073ffffffffffffffffffffffffffffffffffffffff168573ffffffffffffffffffffffffffffffffffffffff16036137e9576137e481613920565b613828565b8373ffffffffffffffffffffffffffffffffffffffff168573ffffffffffffffffffffffffffffffffffffffff1614613827576138268582613969565b5b5b600073ffffffffffffffffffffffffffffffffffffffff168473ffffffffffffffffffffffffffffffffffffffff160361386a5761386581613ad6565b6138a9565b8473ffffffffffffffffffffffffffffffffffffffff168473ffffffffffffffffffffffffffffffffffffffff16146138a8576138a78482613ba7565b5b5b5050505050565b60007f01ffc9a7000000000000000000000000000000000000000000000000000000007bffffffffffffffffffffffffffffffffffffffffffffffffffffffff1916827bffffffffffffffffffffffffffffffffffffffffffffffffffffffff1916149050919050565b50505050565b600a80549050600b600083815260200190815260200160002081905550600a81908060018154018082558091505060019003906000526020600020016000909190919091505550565b60006001613976846113cd565b6139809190614da6565b9050600060096000848152602001908152602001600020549050818114613a65576000600860008673ffffffffffffffffffffffffffffffffffffffff1673ffffffffffffffffffffffffffffffffffffffff168152602001908152602001600020600084815260200190815260200160002054905080600860008773ffffffffffffffffffffffffffffffffffffffff1673ffffffffffffffffffffffffffffffffffffffff168152602001908152602001600020600084815260200190815260200160002081905550816009600083815260200190815260200160002081905550505b6009600084815260200190815260200160002060009055600860008573ffffffffffffffffffffffffffffffffffffffff1673ffffffffffffffffffffffffffffffffffffffff16815260200190815260200160002060008381526020019081526020016000206000905550505050565b60006001600a80549050613aea9190614da6565b90506000600b60008481526020019081526020016000205490506000600a8381548110613b1a57613b19614a52565b5b9060005260206000200154905080600a8381548110613b3c57613b3b614a52565b5b906000526020600020018190555081600b600083815260200190815260200160002081905550600b600085815260200190815260200160002060009055600a805480613b8b57613b8a6154f9565b5b6001900381819060005260206000200160009055905550505050565b6000613bb2836113cd565b905081600860008573ffffffffffffffffffffffffffffffffffffffff1673ffffffffffffffffffffffffffffffffffffffff168152602001908152602001600020600083815260200190815260200160002081905550806009600084815260200190815260200160002081905550505050565b6000604051905090565b600080fd5b600080fd5b60007fffffffff0000000000000000000000000000000000000000000000000000000082169050919050565b613c6f81613c3a565b8114613c7a57600080fd5b50565b600081359050613c8c81613c66565b92915050565b600060208284031215613ca857613ca7613c30565b5b6000613cb684828501613c7d565b91505092915050565b60008115159050919050565b613cd481613cbf565b82525050565b6000602082019050613cef6000830184613ccb565b92915050565b600081519050919050565b600082825260208201905092915050565b60005b83811015613d2f578082015181840152602081019050613d14565b60008484015250505050565b6000601f19601f8301169050919050565b6000613d5782613cf5565b613d618185613d00565b9350613d71818560208601613d11565b613d7a81613d3b565b840191505092915050565b60006020820190508181036000830152613d9f8184613d4c565b905092915050565b6000819050919050565b613dba81613da7565b8114613dc557600080fd5b50565b600081359050613dd781613db1565b92915050565b600060208284031215613df357613df2613c30565b5b6000613e0184828501613dc8565b91505092915050565b600073ffffffffffffffffffffffffffffffffffffffff82169050919050565b6000613e3582613e0a565b9050919050565b613e4581613e2a565b82525050565b6000602082019050613e606000830184613e3c565b92915050565b6000613e7182613e0a565b9050919050565b613e8181613e66565b82525050565b6000602082019050613e9c6000830184613e78565b92915050565b613eab81613e2a565b8114613eb657600080fd5b50565b600081359050613ec881613ea2565b92915050565b60008060408385031215613ee557613ee4613c30565b5b6000613ef385828601613eb9565b9250506020613f0485828601613dc8565b9150509250929050565b613f1781613da7565b82525050565b6000602082019050613f326000830184613f0e565b92915050565b600080600060608486031215613f5157613f50613c30565b5b6000613f5f86828701613eb9565b9350506020613f7086828701613eb9565b9250506040613f8186828701613dc8565b9150509250925092565b6000819050919050565b613f9e81613f8b565b8114613fa957600080fd5b50565b600081359050613fbb81613f95565b92915050565b600060208284031215613fd757613fd6613c30565b5b6000613fe584828501613fac565b91505092915050565b613ff781613f8b565b82525050565b60006020820190506140126000830184613fee565b92915050565b6000806040838503121561402f5761402e613c30565b5b600061403d85828601613fac565b925050602061404e85828601613eb9565b9150509250929050565b60006020828403121561406e5761406d613c30565b5b600061407c84828501613eb9565b91505092915050565b6000806040838503121561409c5761409b613c30565b5b60006140aa85828601613fac565b92505060206140bb85828601613dc8565b9150509250929050565b6140ce81613cbf565b81146140d957600080fd5b50565b6000813590506140eb816140c5565b92915050565b6000806040838503121561410857614107613c30565b5b600061411685828601613eb9565b9250506020614127858286016140dc565b9150509250929050565b600080fd5b600080fd5b7f4e487b7100000000000000000000000000000000000000000000000000000000600052604160045260246000fd5b61417382613d3b565b810181811067ffffffffffffffff821117156141925761419161413b565b5b80604052505050565b60006141a5613c26565b90506141b1828261416a565b919050565b600067ffffffffffffffff8211156141d1576141d061413b565b5b6141da82613d3b565b9050602081019050919050565b82818337600083830152505050565b6000614209614204846141b6565b61419b565b90508281526020810184848401111561422557614224614136565b5b6142308482856141e7565b509392505050565b600082601f83011261424d5761424c614131565b5b813561425d8482602086016141f6565b91505092915050565b600080600080608085870312156142805761427f613c30565b5b600061428e87828801613eb9565b945050602061429f87828801613eb9565b93505060406142b087828801613dc8565b925050606085013567ffffffffffffffff8111156142d1576142d0613c35565b5b6142dd87828801614238565b91505092959194509250565b60008060408385031215614300576142ff613c30565b5b600061430e85828601613eb9565b925050602061431f85828601613eb9565b9150509250929050565b7f4e487b7100000000000000000000000000000000000000000000000000000000600052602260045260246000fd5b6000600282049050600182168061437057607f821691505b60208210810361438357614382614329565b5b50919050565b7f4552433732313a20617070726f76616c20746f2063757272656e74206f776e6560008201527f7200000000000000000000000000000000000000000000000000000000000000602082015250565b60006143e5602183613d00565b91506143f082614389565b604082019050919050565b60006020820190508181036000830152614414816143d8565b9050919050565b7f4552433732313a20617070726f76652063616c6c6572206973206e6f7420746f60008201527f6b656e206f776e6572206f7220617070726f76656420666f7220616c6c000000602082015250565b6000614477603d83613d00565b91506144828261441b565b604082019050919050565b600060208201905081810360008301526144a68161446a565b9050919050565b7f4552433732313a2063616c6c6572206973206e6f7420746f6b656e206f776e6560008201527f72206f7220617070726f76656400000000000000000000000000000000000000602082015250565b6000614509602d83613d00565b9150614514826144ad565b604082019050919050565b60006020820190508181036000830152614538816144fc565b9050919050565b7f455243373231456e756d657261626c653a206f776e657220696e646578206f7560008201527f74206f6620626f756e6473000000000000000000000000000000000000000000602082015250565b600061459b602b83613d00565b91506145a68261453f565b604082019050919050565b600060208201905081810360008301526145ca8161458e565b9050919050565b7f416363657373436f6e74726f6c3a2063616e206f6e6c792072656e6f756e636560008201527f20726f6c657320666f722073656c660000000000000000000000000000000000602082015250565b600061462d602f83613d00565b9150614638826145d1565b604082019050919050565b6000602082019050818103600083015261465c81614620565b9050919050565b7f4552433732315072657365744d696e7465725061757365724175746f49643a2060008201527f6d75737420686176652070617573657220726f6c6520746f20756e7061757365602082015250565b60006146bf604083613d00565b91506146ca82614663565b604082019050919050565b600060208201905081810360008301526146ee816146b2565b9050919050565b7f41756374696f6e2068617320656e646564000000000000000000000000000000600082015250565b600061472b601183613d00565b9150614736826146f5565b602082019050919050565b6000602082019050818103600083015261475a8161471e565b9050919050565b7f42696420616d6f756e74206d7573742062652067726561746572207468616e2060008201527f3000000000000000000000000000000000000000000000000000000000000000602082015250565b60006147bd602183613d00565b91506147c882614761565b604082019050919050565b600060208201905081810360008301526147ec816147b0565b9050919050565b7f42696420616d6f756e74206973206c6f776572207468616e2063757272656e7460008201527f2070726963650000000000000000000000000000000000000000000000000000602082015250565b600061484f602683613d00565b915061485a826147f3565b604082019050919050565b6000602082019050818103600083015261487e81614842565b9050919050565b7f4e487b7100000000000000000000000000000000000000000000000000000000600052601160045260246000fd5b60006148bf82613da7565b91506148ca83613da7565b92508282019050808211156148e2576148e1614885565b5b92915050565b6000819050919050565b600061490d61490861490384613e0a565b6148e8565b613e0a565b9050919050565b600061491f826148f2565b9050919050565b600061493182614914565b9050919050565b61494181614926565b82525050565b600060608201905061495c6000830186613e3c565b6149696020830185614938565b6149766040830184613f0e565b949350505050565b60008151905061498d816140c5565b92915050565b6000602082840312156149a9576149a8613c30565b5b60006149b78482850161497e565b91505092915050565b7f455243373231456e756d657261626c653a20676c6f62616c20696e646578206f60008201527f7574206f6620626f756e64730000000000000000000000000000000000000000602082015250565b6000614a1c602c83613d00565b9150614a27826149c0565b604082019050919050565b60006020820190508181036000830152614a4b81614a0f565b9050919050565b7f4e487b7100000000000000000000000000000000000000000000000000000000600052603260045260246000fd5b7f4552433732313a20696e76616c696420746f6b656e2049440000000000000000600082015250565b6000614ab7601883613d00565b9150614ac282614a81565b602082019050919050565b60006020820190508181036000830152614ae681614aaa565b9050919050565b7f4552433732315072657365744d696e7465725061757365724175746f49643a2060008201527f6d7573742068617665206d696e74657220726f6c6520746f206d696e74000000602082015250565b6000614b49603d83613d00565b9150614b5482614aed565b604082019050919050565b60006020820190508181036000830152614b7881614b3c565b9050919050565b7f4552433732313a2061646472657373207a65726f206973206e6f74206120766160008201527f6c6964206f776e65720000000000000000000000000000000000000000000000602082015250565b6000614bdb602983613d00565b9150614be682614b7f565b604082019050919050565b60006020820190508181036000830152614c0a81614bce565b9050919050565b7f4552433732315072657365744d696e7465725061757365724175746f49643a2060008201527f6d75737420686176652070617573657220726f6c6520746f2070617573650000602082015250565b6000614c6d603e83613d00565b9150614c7882614c11565b604082019050919050565b60006020820190508181036000830152614c9c81614c60565b9050919050565b7f4e6f20726566756e6420617661696c61626c6500000000000000000000000000600082015250565b6000614cd9601383613d00565b9150614ce482614ca3565b602082019050919050565b60006020820190508181036000830152614d0881614ccc565b9050919050565b6000606082019050614d246000830186614938565b614d316020830185613e3c565b614d3e6040830184613f0e565b949350505050565b600081905092915050565b6000614d5c82613cf5565b614d668185614d46565b9350614d76818560208601613d11565b80840191505092915050565b6000614d8e8285614d51565b9150614d9a8284614d51565b91508190509392505050565b6000614db182613da7565b9150614dbc83613da7565b9250828203905081811115614dd457614dd3614885565b5b92915050565b6000614de582613da7565b9150614df083613da7565b9250828202614dfe81613da7565b91508282048414831517614e1557614e14614885565b5b5092915050565b7f4552433732313a207472616e736665722066726f6d20696e636f72726563742060008201527f6f776e6572000000000000000000000000000000000000000000000000000000602082015250565b6000614e78602583613d00565b9150614e8382614e1c565b604082019050919050565b60006020820190508181036000830152614ea781614e6b565b9050919050565b7f4552433732313a207472616e7366657220746f20746865207a65726f2061646460008201527f7265737300000000000000000000000000000000000000000000000000000000602082015250565b6000614f0a602483613d00565b9150614f1582614eae565b604082019050919050565b60006020820190508181036000830152614f3981614efd565b9050919050565b7f4552433732313a206d696e7420746f20746865207a65726f2061646472657373600082015250565b6000614f76602083613d00565b9150614f8182614f40565b602082019050919050565b60006020820190508181036000830152614fa581614f69565b9050919050565b7f4552433732313a20746f6b656e20616c7265616479206d696e74656400000000600082015250565b6000614fe2601c83613d00565b9150614fed82614fac565b602082019050919050565b6000602082019050818103600083015261501181614fd5565b9050919050565b7f4552433732313a20617070726f766520746f2063616c6c657200000000000000600082015250565b600061504e601983613d00565b915061505982615018565b602082019050919050565b6000602082019050818103600083015261507d81615041565b9050919050565b7f4552433732313a207472616e7366657220746f206e6f6e20455243373231526560008201527f63656976657220696d706c656d656e7465720000000000000000000000000000602082015250565b60006150e0603283613d00565b91506150eb82615084565b604082019050919050565b6000602082019050818103600083015261510f816150d3565b9050919050565b7f4e487b7100000000000000000000000000000000000000000000000000000000600052601260045260246000fd5b7f416363657373436f6e74726f6c3a206163636f756e7420000000000000000000600082015250565b600061517b601783614d46565b915061518682615145565b601782019050919050565b7f206973206d697373696e6720726f6c6520000000000000000000000000000000600082015250565b60006151c7601183614d46565b91506151d282615191565b601182019050919050565b60006151e88261516e565b91506151f48285614d51565b91506151ff826151ba565b915061520b8284614d51565b91508190509392505050565b7f5061757361626c653a206e6f7420706175736564000000000000000000000000600082015250565b600061524d601483613d00565b915061525882615217565b602082019050919050565b6000602082019050818103600083015261527c81615240565b9050919050565b7f5061757361626c653a2070617573656400000000000000000000000000000000600082015250565b60006152b9601083613d00565b91506152c482615283565b602082019050919050565b600060208201905081810360008301526152e8816152ac565b9050919050565b600081519050919050565b600082825260208201905092915050565b6000615316826152ef565b61532081856152fa565b9350615330818560208601613d11565b61533981613d3b565b840191505092915050565b60006080820190506153596000830187613e3c565b6153666020830186613e3c565b6153736040830185613f0e565b8181036060830152615385818461530b565b905095945050505050565b60008151905061539f81613c66565b92915050565b6000602082840312156153bb576153ba613c30565b5b60006153c984828501615390565b91505092915050565b7f4552433732315061757361626c653a20746f6b656e207472616e73666572207760008201527f68696c6520706175736564000000000000000000000000000000000000000000602082015250565b600061542e602b83613d00565b9150615439826153d2565b604082019050919050565b6000602082019050818103600083015261545d81615421565b9050919050565b600061546f82613da7565b91506000820361548257615481614885565b5b600182039050919050565b7f537472696e67733a20686578206c656e67746820696e73756666696369656e74600082015250565b60006154c3602083613d00565b91506154ce8261548d565b602082019050919050565b600060208201905081810360008301526154f2816154b6565b9050919050565b7f4e487b7100000000000000000000000000000000000000000000000000000000600052603160045260246000fd5b7f455243373231456e756d657261626c653a20636f6e736563757469766520747260008201527f616e7366657273206e6f7420737570706f727465640000000000000000000000602082015250565b6000615584603583613d00565b915061558f82615528565b604082019050919050565b600060208201905081810360008301526155b381615577565b905091905056fea2646970667358221220a0c05e143deaa25b37b4ce848e5db1b1fe1afe0594a8221c7ff54d5f107992ce64736f6c63430008120033",
  "linkReferences": {},
  "deployedLinkReferences": {}
}