{
  "_format": "hh-sol-artifact-1",
  "contractName": "NFTDutchAuction_ERC20Bids",
  "sourceName": "contracts/NFTDutchAuction_ERC20Bids.sol",
  "abi": [
    {
      "inputs": [
        {
          "internalType": "address",
          "name": "_erc20TokenAddress",
          "type": "address"
        },
        {
          "internalType": "address",
          "name": "erc721TokenAddress",
          "type": "address"
        },
        {
          "internalType": "uint256",
          "name": "_nftTokenId",
          "type": "uint256"
        },
        {
          "internalType": "uint256",
          "name": "_reservePrice",
          "type": "uint256"
        },
        {
          "internalType": "uint256",
          "name": "_numBlocksAuctionOpen",
          "type": "uint256"
        },
        {
          "internalType": "uint256",
          "name": "_offerPriceDecrement",
          "type": "uint256"
        }
      ],
      "stateMutability": "nonpayable",
      "type": "constructor"
    },
    {
      "anonymous": false,
      "inputs": [
        {
          "indexed": true,
          "internalType": "address",
          "name": "owner",
          "type": "address"
        },
        {
          "indexed": true,
          "internalType": "address",
          "name": "approved",
          "type": "address"
        },
        {
          "indexed": true,
          "internalType": "uint256",
          "name": "tokenId",
          "type": "uint256"
        }
      ],
      "name": "Approval",
      "type": "event"
    },
    {
      "anonymous": false,
      "inputs": [
        {
          "indexed": true,
          "internalType": "address",
          "name": "owner",
          "type": "address"
        },
        {
          "indexed": true,
          "internalType": "address",
          "name": "operator",
          "type": "address"
        },
        {
          "indexed": false,
          "internalType": "bool",
          "name": "approved",
          "type": "bool"
        }
      ],
      "name": "ApprovalForAll",
      "type": "event"
    },
    {
      "anonymous": false,
      "inputs": [
        {
          "indexed": false,
          "internalType": "address",
          "name": "winner",
          "type": "address"
        },
        {
          "indexed": false,
          "internalType": "uint256",
          "name": "amount",
          "type": "uint256"
        }
      ],
      "name": "AuctionEnded",
      "type": "event"
    },
    {
      "anonymous": false,
      "inputs": [
        {
          "indexed": false,
          "internalType": "address",
          "name": "account",
          "type": "address"
        }
      ],
      "name": "Paused",
      "type": "event"
    },
    {
      "anonymous": false,
      "inputs": [
        {
          "indexed": true,
          "internalType": "bytes32",
          "name": "role",
          "type": "bytes32"
        },
        {
          "indexed": true,
          "internalType": "bytes32",
          "name": "previousAdminRole",
          "type": "bytes32"
        },
        {
          "indexed": true,
          "internalType": "bytes32",
          "name": "newAdminRole",
          "type": "bytes32"
        }
      ],
      "name": "RoleAdminChanged",
      "type": "event"
    },
    {
      "anonymous": false,
      "inputs": [
        {
          "indexed": true,
          "internalType": "bytes32",
          "name": "role",
          "type": "bytes32"
        },
        {
          "indexed": true,
          "internalType": "address",
          "name": "account",
          "type": "address"
        },
        {
          "indexed": true,
          "internalType": "address",
          "name": "sender",
          "type": "address"
        }
      ],
      "name": "RoleGranted",
      "type": "event"
    },
    {
      "anonymous": false,
      "inputs": [
        {
          "indexed": true,
          "internalType": "bytes32",
          "name": "role",
          "type": "bytes32"
        },
        {
          "indexed": true,
          "internalType": "address",
          "name": "account",
          "type": "address"
        },
        {
          "indexed": true,
          "internalType": "address",
          "name": "sender",
          "type": "address"
        }
      ],
      "name": "RoleRevoked",
      "type": "event"
    },
    {
      "anonymous": false,
      "inputs": [
        {
          "indexed": true,
          "internalType": "address",
          "name": "from",
          "type": "address"
        },
        {
          "indexed": true,
          "internalType": "address",
          "name": "to",
          "type": "address"
        },
        {
          "indexed": true,
          "internalType": "uint256",
          "name": "tokenId",
          "type": "uint256"
        }
      ],
      "name": "Transfer",
      "type": "event"
    },
    {
      "anonymous": false,
      "inputs": [
        {
          "indexed": false,
          "internalType": "address",
          "name": "account",
          "type": "address"
        }
      ],
      "name": "Unpaused",
      "type": "event"
    },
    {
      "inputs": [],
      "name": "DEFAULT_ADMIN_ROLE",
      "outputs": [
        {
          "internalType": "bytes32",
          "name": "",
          "type": "bytes32"
        }
      ],
      "stateMutability": "view",
      "type": "function"
    },
    {
      "inputs": [],
      "name": "MINTER_ROLE",
      "outputs": [
        {
          "internalType": "bytes32",
          "name": "",
          "type": "bytes32"
        }
      ],
      "stateMutability": "view",
      "type": "function"
    },
    {
      "inputs": [],
      "name": "PAUSER_ROLE",
      "outputs": [
        {
          "internalType": "bytes32",
          "name": "",
          "type": "bytes32"
        }
      ],
      "stateMutability": "view",
      "type": "function"
    },
    {
      "inputs": [
        {
          "internalType": "address",
          "name": "to",
          "type": "address"
        },
        {
          "internalType": "uint256",
          "name": "tokenId",
          "type": "uint256"
        }
      ],
      "name": "approve",
      "outputs": [],
      "stateMutability": "nonpayable",
      "type": "function"
    },
    {
      "inputs": [],
      "name": "auctionEndTime",
      "outputs": [
        {
          "internalType": "uint256",
          "name": "",
          "type": "uint256"
        }
      ],
      "stateMutability": "view",
      "type": "function"
    },
    {
      "inputs": [],
      "name": "auctionEnded",
      "outputs": [
        {
          "internalType": "bool",
          "name": "",
          "type": "bool"
        }
      ],
      "stateMutability": "view",
      "type": "function"
    },
    {
      "inputs": [
        {
          "internalType": "address",
          "name": "owner",
          "type": "address"
        }
      ],
      "name": "balanceOf",
      "outputs": [
        {
          "internalType": "uint256",
          "name": "",
          "type": "uint256"
        }
      ],
      "stateMutability": "view",
      "type": "function"
    },
    {
      "inputs": [
        {
          "internalType": "uint256",
          "name": "amount",
          "type": "uint256"
        }
      ],
      "name": "bid",
      "outputs": [
        {
          "internalType": "bool",
          "name": "",
          "type": "bool"
        }
      ],
      "stateMutability": "nonpayable",
      "type": "function"
    },
    {
      "inputs": [
        {
          "internalType": "address",
          "name": "",
          "type": "address"
        }
      ],
      "name": "bids",
      "outputs": [
        {
          "internalType": "uint256",
          "name": "",
          "type": "uint256"
        }
      ],
      "stateMutability": "view",
      "type": "function"
    },
    {
      "inputs": [
        {
          "internalType": "uint256",
          "name": "tokenId",
          "type": "uint256"
        }
      ],
      "name": "burn",
      "outputs": [],
      "stateMutability": "nonpayable",
      "type": "function"
    },
    {
      "inputs": [],
      "name": "claimRefund",
      "outputs": [],
      "stateMutability": "nonpayable",
      "type": "function"
    },
    {
      "inputs": [],
      "name": "erc20TokenAddress",
      "outputs": [
        {
          "internalType": "address",
          "name": "",
          "type": "address"
        }
      ],
      "stateMutability": "view",
      "type": "function"
    },
    {
      "inputs": [],
      "name": "firstBid",
      "outputs": [
        {
          "internalType": "uint256",
          "name": "",
          "type": "uint256"
        }
      ],
      "stateMutability": "view",
      "type": "function"
    },
    {
      "inputs": [],
      "name": "firstBidder",
      "outputs": [
        {
          "internalType": "address payable",
          "name": "",
          "type": "address"
        }
      ],
      "stateMutability": "view",
      "type": "function"
    },
    {
      "inputs": [
        {
          "internalType": "uint256",
          "name": "tokenId",
          "type": "uint256"
        }
      ],
      "name": "getApproved",
      "outputs": [
        {
          "internalType": "address",
          "name": "",
          "type": "address"
        }
      ],
      "stateMutability": "view",
      "type": "function"
    },
    {
      "inputs": [
        {
          "internalType": "address",
          "name": "account",
          "type": "address"
        }
      ],
      "name": "getBalanceOf",
      "outputs": [
        {
          "internalType": "uint256",
          "name": "",
          "type": "uint256"
        }
      ],
      "stateMutability": "view",
      "type": "function"
    },
    {
      "inputs": [],
      "name": "getCurrentPrice",
      "outputs": [
        {
          "internalType": "uint256",
          "name": "",
          "type": "uint256"
        }
      ],
      "stateMutability": "view",
      "type": "function"
    },
    {
      "inputs": [
        {
          "internalType": "bytes32",
          "name": "role",
          "type": "bytes32"
        }
      ],
      "name": "getRoleAdmin",
      "outputs": [
        {
          "internalType": "bytes32",
          "name": "",
          "type": "bytes32"
        }
      ],
      "stateMutability": "view",
      "type": "function"
    },
    {
      "inputs": [
        {
          "internalType": "bytes32",
          "name": "role",
          "type": "bytes32"
        },
        {
          "internalType": "uint256",
          "name": "index",
          "type": "uint256"
        }
      ],
      "name": "getRoleMember",
      "outputs": [
        {
          "internalType": "address",
          "name": "",
          "type": "address"
        }
      ],
      "stateMutability": "view",
      "type": "function"
    },
    {
      "inputs": [
        {
          "internalType": "bytes32",
          "name": "role",
          "type": "bytes32"
        }
      ],
      "name": "getRoleMemberCount",
      "outputs": [
        {
          "internalType": "uint256",
          "name": "",
          "type": "uint256"
        }
      ],
      "stateMutability": "view",
      "type": "function"
    },
    {
      "inputs": [],
      "name": "gotValidBid",
      "outputs": [
        {
          "internalType": "bool",
          "name": "",
          "type": "bool"
        }
      ],
      "stateMutability": "view",
      "type": "function"
    },
    {
      "inputs": [
        {
          "internalType": "bytes32",
          "name": "role",
          "type": "bytes32"
        },
        {
          "internalType": "address",
          "name": "account",
          "type": "address"
        }
      ],
      "name": "grantRole",
      "outputs": [],
      "stateMutability": "nonpayable",
      "type": "function"
    },
    {
      "inputs": [
        {
          "internalType": "bytes32",
          "name": "role",
          "type": "bytes32"
        },
        {
          "internalType": "address",
          "name": "account",
          "type": "address"
        }
      ],
      "name": "hasRole",
      "outputs": [
        {
          "internalType": "bool",
          "name": "",
          "type": "bool"
        }
      ],
      "stateMutability": "view",
      "type": "function"
    },
    {
      "inputs": [],
      "name": "initialPrice",
      "outputs": [
        {
          "internalType": "uint256",
          "name": "",
          "type": "uint256"
        }
      ],
      "stateMutability": "view",
      "type": "function"
    },
    {
      "inputs": [
        {
          "internalType": "address",
          "name": "owner",
          "type": "address"
        },
        {
          "internalType": "address",
          "name": "operator",
          "type": "address"
        }
      ],
      "name": "isApprovedForAll",
      "outputs": [
        {
          "internalType": "bool",
          "name": "",
          "type": "bool"
        }
      ],
      "stateMutability": "view",
      "type": "function"
    },
    {
      "inputs": [
        {
          "internalType": "address",
          "name": "to",
          "type": "address"
        }
      ],
      "name": "mint",
      "outputs": [],
      "stateMutability": "nonpayable",
      "type": "function"
    },
    {
      "inputs": [],
      "name": "name",
      "outputs": [
        {
          "internalType": "string",
          "name": "",
          "type": "string"
        }
      ],
      "stateMutability": "view",
      "type": "function"
    },
    {
      "inputs": [],
      "name": "nftTokenId",
      "outputs": [
        {
          "internalType": "uint256",
          "name": "",
          "type": "uint256"
        }
      ],
      "stateMutability": "view",
      "type": "function"
    },
    {
      "inputs": [],
      "name": "numBlocksAuctionOpen",
      "outputs": [
        {
          "internalType": "uint256",
          "name": "",
          "type": "uint256"
        }
      ],
      "stateMutability": "view",
      "type": "function"
    },
    {
      "inputs": [],
      "name": "offerPriceDecrement",
      "outputs": [
        {
          "internalType": "uint256",
          "name": "",
          "type": "uint256"
        }
      ],
      "stateMutability": "view",
      "type": "function"
    },
    {
      "inputs": [
        {
          "internalType": "uint256",
          "name": "tokenId",
          "type": "uint256"
        }
      ],
      "name": "ownerOf",
      "outputs": [
        {
          "internalType": "address",
          "name": "",
          "type": "address"
        }
      ],
      "stateMutability": "view",
      "type": "function"
    },
    {
      "inputs": [],
      "name": "pause",
      "outputs": [],
      "stateMutability": "nonpayable",
      "type": "function"
    },
    {
      "inputs": [],
      "name": "paused",
      "outputs": [
        {
          "internalType": "bool",
          "name": "",
          "type": "bool"
        }
      ],
      "stateMutability": "view",
      "type": "function"
    },
    {
      "inputs": [
        {
          "internalType": "bytes32",
          "name": "role",
          "type": "bytes32"
        },
        {
          "internalType": "address",
          "name": "account",
          "type": "address"
        }
      ],
      "name": "renounceRole",
      "outputs": [],
      "stateMutability": "nonpayable",
      "type": "function"
    },
    {
      "inputs": [],
      "name": "reservePrice",
      "outputs": [
        {
          "internalType": "uint256",
          "name": "",
          "type": "uint256"
        }
      ],
      "stateMutability": "view",
      "type": "function"
    },
    {
      "inputs": [
        {
          "internalType": "bytes32",
          "name": "role",
          "type": "bytes32"
        },
        {
          "internalType": "address",
          "name": "account",
          "type": "address"
        }
      ],
      "name": "revokeRole",
      "outputs": [],
      "stateMutability": "nonpayable",
      "type": "function"
    },
    {
      "inputs": [
        {
          "internalType": "address",
          "name": "from",
          "type": "address"
        },
        {
          "internalType": "address",
          "name": "to",
          "type": "address"
        },
        {
          "internalType": "uint256",
          "name": "tokenId",
          "type": "uint256"
        }
      ],
      "name": "safeTransferFrom",
      "outputs": [],
      "stateMutability": "nonpayable",
      "type": "function"
    },
    {
      "inputs": [
        {
          "internalType": "address",
          "name": "from",
          "type": "address"
        },
        {
          "internalType": "address",
          "name": "to",
          "type": "address"
        },
        {
          "internalType": "uint256",
          "name": "tokenId",
          "type": "uint256"
        },
        {
          "internalType": "bytes",
          "name": "data",
          "type": "bytes"
        }
      ],
      "name": "safeTransferFrom",
      "outputs": [],
      "stateMutability": "nonpayable",
      "type": "function"
    },
    {
      "inputs": [],
      "name": "seller",
      "outputs": [
        {
          "internalType": "address payable",
          "name": "",
          "type": "address"
        }
      ],
      "stateMutability": "view",
      "type": "function"
    },
    {
      "inputs": [
        {
          "internalType": "address",
          "name": "operator",
          "type": "address"
        },
        {
          "internalType": "bool",
          "name": "approved",
          "type": "bool"
        }
      ],
      "name": "setApprovalForAll",
      "outputs": [],
      "stateMutability": "nonpayable",
      "type": "function"
    },
    {
      "inputs": [
        {
          "internalType": "bytes4",
          "name": "interfaceId",
          "type": "bytes4"
        }
      ],
      "name": "supportsInterface",
      "outputs": [
        {
          "internalType": "bool",
          "name": "",
          "type": "bool"
        }
      ],
      "stateMutability": "view",
      "type": "function"
    },
    {
      "inputs": [],
      "name": "symbol",
      "outputs": [
        {
          "internalType": "string",
          "name": "",
          "type": "string"
        }
      ],
      "stateMutability": "view",
      "type": "function"
    },
    {
      "inputs": [],
      "name": "tokenAddress",
      "outputs": [
        {
          "internalType": "address",
          "name": "",
          "type": "address"
        }
      ],
      "stateMutability": "view",
      "type": "function"
    },
    {
      "inputs": [
        {
          "internalType": "uint256",
          "name": "index",
          "type": "uint256"
        }
      ],
      "name": "tokenByIndex",
      "outputs": [
        {
          "internalType": "uint256",
          "name": "",
          "type": "uint256"
        }
      ],
      "stateMutability": "view",
      "type": "function"
    },
    {
      "inputs": [
        {
          "internalType": "address",
          "name": "owner",
          "type": "address"
        },
        {
          "internalType": "uint256",
          "name": "index",
          "type": "uint256"
        }
      ],
      "name": "tokenOfOwnerByIndex",
      "outputs": [
        {
          "internalType": "uint256",
          "name": "",
          "type": "uint256"
        }
      ],
      "stateMutability": "view",
      "type": "function"
    },
    {
      "inputs": [
        {
          "internalType": "uint256",
          "name": "tokenId",
          "type": "uint256"
        }
      ],
      "name": "tokenURI",
      "outputs": [
        {
          "internalType": "string",
          "name": "",
          "type": "string"
        }
      ],
      "stateMutability": "view",
      "type": "function"
    },
    {
      "inputs": [],
      "name": "totalSupply",
      "outputs": [
        {
          "internalType": "uint256",
          "name": "",
          "type": "uint256"
        }
      ],
      "stateMutability": "view",
      "type": "function"
    },
    {
      "inputs": [
        {
          "internalType": "address",
          "name": "from",
          "type": "address"
        },
        {
          "internalType": "address",
          "name": "to",
          "type": "address"
        },
        {
          "internalType": "uint256",
          "name": "tokenId",
          "type": "uint256"
        }
      ],
      "name": "transferFrom",
      "outputs": [],
      "stateMutability": "nonpayable",
      "type": "function"
    },
    {
      "inputs": [],
      "name": "unpause",
      "outputs": [],
      "stateMutability": "nonpayable",
      "type": "function"
    }
  ],
  "bytecode": "0x60806040523480156200001157600080fd5b5060405162005f8e38038062005f8e8339818101604052810190620000379190620006ba565b6040518060400160405280600581526020017f4d794e46540000000000000000000000000000000000000000000000000000008152506040518060400160405280600481526020017f4d4e4654000000000000000000000000000000000000000000000000000000008152506040518060400160405280601c81526020017f68747470733a2f2f6e6f7274686561737465726e2e6564752f6e66740000000081525082828160029081620000ec9190620009c6565b508060039081620000fe9190620009c6565b5050506000600c60006101000a81548160ff02191690831515021790555080600e90816200012d9190620009c6565b50620001526000801b620001466200037f60201b60201c565b6200038760201b60201c565b620001937f9f2df0fed2c77648de5860a4cc508cd0818c85b8b8a1ab4ceeef8d981c8956a6620001876200037f60201b60201c565b6200038760201b60201c565b620001d47f65d7a28e3265b37a6474929f336521b332c1681b933f6cb9f3376673440d862a620001c86200037f60201b60201c565b6200038760201b60201c565b50505033600f60006101000a81548173ffffffffffffffffffffffffffffffffffffffff021916908373ffffffffffffffffffffffffffffffffffffffff1602179055508260108190555081601181905550806012819055506012546011546200023f919062000adc565b6010546200024e919062000b27565b6013819055506011544362000264919062000b27565b6014819055506000601560006101000a81548160ff0219169083151502179055506000601760006101000a81548160ff0219169083151502179055506000601560016101000a81548173ffffffffffffffffffffffffffffffffffffffff021916908373ffffffffffffffffffffffffffffffffffffffff160217905550600060168190555084601760016101000a81548173ffffffffffffffffffffffffffffffffffffffff021916908373ffffffffffffffffffffffffffffffffffffffff1602179055508360188190555085601960006101000a81548173ffffffffffffffffffffffffffffffffffffffff021916908373ffffffffffffffffffffffffffffffffffffffff16021790555050505050505062000b62565b600033905090565b6200039982826200039d60201b60201c565b5050565b620003b48282620003e560201b62001b081760201c565b620003e08160016000858152602001908152602001600020620004d660201b62001be81790919060201c565b505050565b620003f782826200050e60201b60201c565b620004d257600160008084815260200190815260200160002060000160008373ffffffffffffffffffffffffffffffffffffffff1673ffffffffffffffffffffffffffffffffffffffff16815260200190815260200160002060006101000a81548160ff021916908315150217905550620004776200037f60201b60201c565b73ffffffffffffffffffffffffffffffffffffffff168173ffffffffffffffffffffffffffffffffffffffff16837f2f8788117e7eff1d82e926ec794901d17c78024a50270940304540a733656f0d60405160405180910390a45b5050565b600062000506836000018373ffffffffffffffffffffffffffffffffffffffff1660001b6200057860201b60201c565b905092915050565b600080600084815260200190815260200160002060000160008373ffffffffffffffffffffffffffffffffffffffff1673ffffffffffffffffffffffffffffffffffffffff16815260200190815260200160002060009054906101000a900460ff16905092915050565b60006200058c8383620005f260201b60201c565b620005e7578260000182908060018154018082558091505060019003906000526020600020016000909190919091505582600001805490508360010160008481526020019081526020016000208190555060019050620005ec565b600090505b92915050565b600080836001016000848152602001908152602001600020541415905092915050565b600080fd5b600073ffffffffffffffffffffffffffffffffffffffff82169050919050565b600062000647826200061a565b9050919050565b62000659816200063a565b81146200066557600080fd5b50565b60008151905062000679816200064e565b92915050565b6000819050919050565b62000694816200067f565b8114620006a057600080fd5b50565b600081519050620006b48162000689565b92915050565b60008060008060008060c08789031215620006da57620006d962000615565b5b6000620006ea89828a0162000668565b9650506020620006fd89828a0162000668565b95505060406200071089828a01620006a3565b94505060606200072389828a01620006a3565b93505060806200073689828a01620006a3565b92505060a06200074989828a01620006a3565b9150509295509295509295565b600081519050919050565b7f4e487b7100000000000000000000000000000000000000000000000000000000600052604160045260246000fd5b7f4e487b7100000000000000000000000000000000000000000000000000000000600052602260045260246000fd5b60006002820490506001821680620007d857607f821691505b602082108103620007ee57620007ed62000790565b5b50919050565b60008190508160005260206000209050919050565b60006020601f8301049050919050565b600082821b905092915050565b600060088302620008587fffffffffffffffffffffffffffffffffffffffffffffffffffffffffffffffff8262000819565b62000864868362000819565b95508019841693508086168417925050509392505050565b6000819050919050565b6000620008a7620008a16200089b846200067f565b6200087c565b6200067f565b9050919050565b6000819050919050565b620008c38362000886565b620008db620008d282620008ae565b84845462000826565b825550505050565b600090565b620008f2620008e3565b620008ff818484620008b8565b505050565b5b8181101562000927576200091b600082620008e8565b60018101905062000905565b5050565b601f82111562000976576200094081620007f4565b6200094b8462000809565b810160208510156200095b578190505b620009736200096a8562000809565b83018262000904565b50505b505050565b600082821c905092915050565b60006200099b600019846008026200097b565b1980831691505092915050565b6000620009b6838362000988565b9150826002028217905092915050565b620009d18262000756565b67ffffffffffffffff811115620009ed57620009ec62000761565b5b620009f98254620007bf565b62000a068282856200092b565b600060209050601f83116001811462000a3e576000841562000a29578287015190505b62000a358582620009a8565b86555062000aa5565b601f19841662000a4e86620007f4565b60005b8281101562000a785784890151825560018201915060208501945060208101905062000a51565b8683101562000a98578489015162000a94601f89168262000988565b8355505b6001600288020188555050505b505050505050565b7f4e487b7100000000000000000000000000000000000000000000000000000000600052601160045260246000fd5b600062000ae9826200067f565b915062000af6836200067f565b925082820262000b06816200067f565b9150828204841483151762000b205762000b1f62000aad565b5b5092915050565b600062000b34826200067f565b915062000b41836200067f565b925082820190508082111562000b5c5762000b5b62000aad565b5b92915050565b61541c8062000b726000396000f3fe608060405234801561001057600080fd5b50600436106102bb5760003560e01c80636a62784211610182578063b5545a3c116100e9578063d5391393116100a2578063e63ab1e91161007c578063e63ab1e9146108b2578063e985e9c5146108d0578063eb91d37e14610900578063f835cd3c1461091e576102bb565b8063d53913931461085a578063d547741f14610878578063db2e1eed14610894576102bb565b8063b5545a3c14610798578063b88d4fde146107a2578063bdb39373146107be578063c87b56dd146107dc578063ca15c8731461080c578063d3642a881461083c576102bb565b806391d148541161013b57806391d14854146106c257806395d89b41146106f25780639b96eece146107105780639d76ea5814610740578063a217fddf1461075e578063a22cb4651461077c576102bb565b80636a6278421461060057806370a082311461061c5780637e8305741461064c5780638456cb591461066a57806386433374146106745780639010d07c14610692576102bb565b80632f745c5911610226578063454a2ab3116101df578063454a2ab3146105045780634b449cba146105345780634f6ccce7146105525780635c975abb1461058257806362ea82db146105a05780636352211e146105d0576102bb565b80632f745c59146104585780633103ea621461048857806336568abe146104a65780633f4ba83a146104c257806342842e0e146104cc57806342966c68146104e8576102bb565b806318160ddd1161027857806318160ddd146103965780631d0806ae146103b457806323b872dd146103d2578063248a9ca3146103ee57806328e2f6961461041e5780632f2ff15d1461043c576102bb565b806301ffc9a7146102c057806306fdde03146102f0578063081812fc1461030e57806308551a531461033e578063095ea7b31461035c578063100e455514610378575b600080fd5b6102da60048036038101906102d59190613acc565b61093c565b6040516102e79190613b14565b60405180910390f35b6102f861094e565b6040516103059190613bbf565b60405180910390f35b61032860048036038101906103239190613c17565b6109e0565b6040516103359190613c85565b60405180910390f35b610346610a26565b6040516103539190613cc1565b60405180910390f35b61037660048036038101906103719190613d08565b610a4c565b005b610380610b63565b60405161038d9190613b14565b60405180910390f35b61039e610b76565b6040516103ab9190613d57565b60405180910390f35b6103bc610b83565b6040516103c99190613d57565b60405180910390f35b6103ec60048036038101906103e79190613d72565b610b89565b005b61040860048036038101906104039190613dfb565b610be9565b6040516104159190613e37565b60405180910390f35b610426610c08565b6040516104339190613d57565b60405180910390f35b61045660048036038101906104519190613e52565b610c0e565b005b610472600480360381019061046d9190613d08565b610c2f565b60405161047f9190613d57565b60405180910390f35b610490610cd4565b60405161049d9190613d57565b60405180910390f35b6104c060048036038101906104bb9190613e52565b610cda565b005b6104ca610d5d565b005b6104e660048036038101906104e19190613d72565b610dd7565b005b61050260048036038101906104fd9190613c17565b610df7565b005b61051e60048036038101906105199190613c17565b610e53565b60405161052b9190613b14565b60405180910390f35b61053c611211565b6040516105499190613d57565b60405180910390f35b61056c60048036038101906105679190613c17565b611217565b6040516105799190613d57565b60405180910390f35b61058a611288565b6040516105979190613b14565b60405180910390f35b6105ba60048036038101906105b59190613e92565b61129f565b6040516105c79190613d57565b60405180910390f35b6105ea60048036038101906105e59190613c17565b6112b7565b6040516105f79190613c85565b60405180910390f35b61061a60048036038101906106159190613e92565b61133d565b005b61063660048036038101906106319190613e92565b6113cd565b6040516106439190613d57565b60405180910390f35b610654611484565b6040516106619190613d57565b60405180910390f35b61067261148a565b005b61067c611504565b6040516106899190613b14565b60405180910390f35b6106ac60048036038101906106a79190613ebf565b611517565b6040516106b99190613c85565b60405180910390f35b6106dc60048036038101906106d79190613e52565b611546565b6040516106e99190613b14565b60405180910390f35b6106fa6115b0565b6040516107079190613bbf565b60405180910390f35b61072a60048036038101906107259190613e92565b611642565b6040516107379190613d57565b60405180910390f35b61074861168b565b6040516107559190613c85565b60405180910390f35b6107666116b1565b6040516107739190613e37565b60405180910390f35b61079660048036038101906107919190613f2b565b6116b8565b005b6107a06116ce565b005b6107bc60048036038101906107b791906140a0565b61187d565b005b6107c66118df565b6040516107d39190613cc1565b60405180910390f35b6107f660048036038101906107f19190613c17565b611905565b6040516108039190613bbf565b60405180910390f35b61082660048036038101906108219190613dfb565b61196d565b6040516108339190613d57565b60405180910390f35b610844611991565b6040516108519190613d57565b60405180910390f35b610862611997565b60405161086f9190613e37565b60405180910390f35b610892600480360381019061088d9190613e52565b6119bb565b005b61089c6119dc565b6040516108a99190613d57565b60405180910390f35b6108ba6119e2565b6040516108c79190613e37565b60405180910390f35b6108ea60048036038101906108e59190614123565b611a06565b6040516108f79190613b14565b60405180910390f35b610908611a9a565b6040516109159190613d57565b60405180910390f35b610926611ae2565b6040516109339190613c85565b60405180910390f35b600061094782611c18565b9050919050565b60606002805461095d90614192565b80601f016020809104026020016040519081016040528092919081815260200182805461098990614192565b80156109d65780601f106109ab576101008083540402835291602001916109d6565b820191906000526020600020905b8154815290600101906020018083116109b957829003601f168201915b5050505050905090565b60006109eb82611c92565b6006600083815260200190815260200160002060009054906101000a900473ffffffffffffffffffffffffffffffffffffffff169050919050565b600f60009054906101000a900473ffffffffffffffffffffffffffffffffffffffff1681565b6000610a57826112b7565b90508073ffffffffffffffffffffffffffffffffffffffff168373ffffffffffffffffffffffffffffffffffffffff1603610ac7576040517f08c379a0000000000000000000000000000000000000000000000000000000008152600401610abe90614235565b60405180910390fd5b8073ffffffffffffffffffffffffffffffffffffffff16610ae6611cdd565b73ffffffffffffffffffffffffffffffffffffffff161480610b155750610b1481610b0f611cdd565b611a06565b5b610b54576040517f08c379a0000000000000000000000000000000000000000000000000000000008152600401610b4b906142c7565b60405180910390fd5b610b5e8383611ce5565b505050565b601760009054906101000a900460ff1681565b6000600a80549050905090565b60135481565b610b9a610b94611cdd565b82611d9e565b610bd9576040517f08c379a0000000000000000000000000000000000000000000000000000000008152600401610bd090614359565b60405180910390fd5b610be4838383611e33565b505050565b6000806000838152602001908152602001600020600101549050919050565b60165481565b610c1782610be9565b610c208161212c565b610c2a8383612140565b505050565b6000610c3a836113cd565b8210610c7b576040517f08c379a0000000000000000000000000000000000000000000000000000000008152600401610c72906143eb565b60405180910390fd5b600860008473ffffffffffffffffffffffffffffffffffffffff1673ffffffffffffffffffffffffffffffffffffffff168152602001908152602001600020600083815260200190815260200160002054905092915050565b60115481565b610ce2611cdd565b73ffffffffffffffffffffffffffffffffffffffff168173ffffffffffffffffffffffffffffffffffffffff1614610d4f576040517f08c379a0000000000000000000000000000000000000000000000000000000008152600401610d469061447d565b60405180910390fd5b610d598282612174565b5050565b610d8e7f65d7a28e3265b37a6474929f336521b332c1681b933f6cb9f3376673440d862a610d89611cdd565b611546565b610dcd576040517f08c379a0000000000000000000000000000000000000000000000000000000008152600401610dc49061450f565b60405180910390fd5b610dd56121a8565b565b610df28383836040518060200160405280600081525061187d565b505050565b610e08610e02611cdd565b82611d9e565b610e47576040517f08c379a0000000000000000000000000000000000000000000000000000000008152600401610e3e90614359565b60405180910390fd5b610e508161220b565b50565b600080610e5e611a9a565b905060008111610ea3576040517f08c379a0000000000000000000000000000000000000000000000000000000008152600401610e9a9061457b565b60405180910390fd5b60008311610ee6576040517f08c379a0000000000000000000000000000000000000000000000000000000008152600401610edd9061460d565b60405180910390fd5b80831015610f29576040517f08c379a0000000000000000000000000000000000000000000000000000000008152600401610f209061469f565b60405180910390fd5b601760009054906101000a900460ff166110eb5733601560016101000a81548173ffffffffffffffffffffffffffffffffffffffff021916908373ffffffffffffffffffffffffffffffffffffffff160217905550826016819055506001601760006101000a81548160ff021916908315150217905550601654601a6000600f60009054906101000a900473ffffffffffffffffffffffffffffffffffffffff1673ffffffffffffffffffffffffffffffffffffffff1673ffffffffffffffffffffffffffffffffffffffff168152602001908152602001600020600082825461101391906146ee565b92505081905550601960009054906101000a900473ffffffffffffffffffffffffffffffffffffffff1673ffffffffffffffffffffffffffffffffffffffff166323b872dd33600f60009054906101000a900473ffffffffffffffffffffffffffffffffffffffff166016546040518463ffffffff1660e01b815260040161109d93929190614781565b6020604051808303816000875af11580156110bc573d6000803e3d6000fd5b505050506040513d601f19601f820116820180604052508101906110e091906147cd565b50600191505061120c565b82601a60003373ffffffffffffffffffffffffffffffffffffffff1673ffffffffffffffffffffffffffffffffffffffff168152602001908152602001600020600082825461113a91906146ee565b92505081905550601960009054906101000a900473ffffffffffffffffffffffffffffffffffffffff1673ffffffffffffffffffffffffffffffffffffffff166323b872dd33600f60009054906101000a900473ffffffffffffffffffffffffffffffffffffffff16866040518463ffffffff1660e01b81526004016111c293929190614781565b6020604051808303816000875af11580156111e1573d6000803e3d6000fd5b505050506040513d601f19601f8201168201806040525081019061120591906147cd565b5060009150505b919050565b60145481565b6000611221610b76565b8210611262576040517f08c379a00000000000000000000000000000000000000000000000000000000081526004016112599061486c565b60405180910390fd5b600a82815481106112765761127561488c565b5b90600052602060002001549050919050565b6000600c60009054906101000a900460ff16905090565b601a6020528060005260406000206000915090505481565b6000806112c383612359565b9050600073ffffffffffffffffffffffffffffffffffffffff168173ffffffffffffffffffffffffffffffffffffffff1603611334576040517f08c379a000000000000000000000000000000000000000000000000000000000815260040161132b90614907565b60405180910390fd5b80915050919050565b61136e7f9f2df0fed2c77648de5860a4cc508cd0818c85b8b8a1ab4ceeef8d981c8956a6611369611cdd565b611546565b6113ad576040517f08c379a00000000000000000000000000000000000000000000000000000000081526004016113a490614999565b60405180910390fd5b6113c0816113bb600d612396565b6123a4565b6113ca600d6125c1565b50565b60008073ffffffffffffffffffffffffffffffffffffffff168273ffffffffffffffffffffffffffffffffffffffff160361143d576040517f08c379a000000000000000000000000000000000000000000000000000000000815260040161143490614a2b565b60405180910390fd5b600560008373ffffffffffffffffffffffffffffffffffffffff1673ffffffffffffffffffffffffffffffffffffffff168152602001908152602001600020549050919050565b60185481565b6114bb7f65d7a28e3265b37a6474929f336521b332c1681b933f6cb9f3376673440d862a6114b6611cdd565b611546565b6114fa576040517f08c379a00000000000000000000000000000000000000000000000000000000081526004016114f190614abd565b60405180910390fd5b6115026125d7565b565b601560009054906101000a900460ff1681565b600061153e826001600086815260200190815260200160002061263a90919063ffffffff16565b905092915050565b600080600084815260200190815260200160002060000160008373ffffffffffffffffffffffffffffffffffffffff1673ffffffffffffffffffffffffffffffffffffffff16815260200190815260200160002060009054906101000a900460ff16905092915050565b6060600380546115bf90614192565b80601f01602080910402602001604051908101604052809291908181526020018280546115eb90614192565b80156116385780601f1061160d57610100808354040283529160200191611638565b820191906000526020600020905b81548152906001019060200180831161161b57829003601f168201915b5050505050905090565b6000601a60008373ffffffffffffffffffffffffffffffffffffffff1673ffffffffffffffffffffffffffffffffffffffff168152602001908152602001600020549050919050565b601760019054906101000a900473ffffffffffffffffffffffffffffffffffffffff1681565b6000801b81565b6116ca6116c3611cdd565b8383612654565b5050565b6000601a60003373ffffffffffffffffffffffffffffffffffffffff1673ffffffffffffffffffffffffffffffffffffffff1681526020019081526020016000205411611750576040517f08c379a000000000000000000000000000000000000000000000000000000000815260040161174790614b29565b60405180910390fd5b6000601a60003373ffffffffffffffffffffffffffffffffffffffff1673ffffffffffffffffffffffffffffffffffffffff1681526020019081526020016000205490506000601a60003373ffffffffffffffffffffffffffffffffffffffff1673ffffffffffffffffffffffffffffffffffffffff16815260200190815260200160002081905550601960009054906101000a900473ffffffffffffffffffffffffffffffffffffffff1673ffffffffffffffffffffffffffffffffffffffff1663a9059cbb33836040518363ffffffff1660e01b8152600401611836929190614b49565b6020604051808303816000875af1158015611855573d6000803e3d6000fd5b505050506040513d601f19601f8201168201806040525081019061187991906147cd565b5050565b61188e611888611cdd565b83611d9e565b6118cd576040517f08c379a00000000000000000000000000000000000000000000000000000000081526004016118c490614359565b60405180910390fd5b6118d9848484846127c0565b50505050565b601560019054906101000a900473ffffffffffffffffffffffffffffffffffffffff1681565b606061191082611c92565b600061191a61281c565b9050600081511161193a5760405180602001604052806000815250611965565b80611944846128ae565b604051602001611955929190614bae565b6040516020818303038152906040525b915050919050565b600061198a6001600084815260200190815260200160002061297c565b9050919050565b60125481565b7f9f2df0fed2c77648de5860a4cc508cd0818c85b8b8a1ab4ceeef8d981c8956a681565b6119c482610be9565b6119cd8161212c565b6119d78383612174565b505050565b60105481565b7f65d7a28e3265b37a6474929f336521b332c1681b933f6cb9f3376673440d862a81565b6000600760008473ffffffffffffffffffffffffffffffffffffffff1673ffffffffffffffffffffffffffffffffffffffff16815260200190815260200160002060008373ffffffffffffffffffffffffffffffffffffffff1673ffffffffffffffffffffffffffffffffffffffff16815260200190815260200160002060009054906101000a900460ff16905092915050565b60006014544310611aae5760009050611adf565b600043601454611abe9190614bd2565b905060125481611ace9190614c06565b601354611adb9190614bd2565b9150505b90565b601960009054906101000a900473ffffffffffffffffffffffffffffffffffffffff1681565b611b128282611546565b611be457600160008084815260200190815260200160002060000160008373ffffffffffffffffffffffffffffffffffffffff1673ffffffffffffffffffffffffffffffffffffffff16815260200190815260200160002060006101000a81548160ff021916908315150217905550611b89611cdd565b73ffffffffffffffffffffffffffffffffffffffff168173ffffffffffffffffffffffffffffffffffffffff16837f2f8788117e7eff1d82e926ec794901d17c78024a50270940304540a733656f0d60405160405180910390a45b5050565b6000611c10836000018373ffffffffffffffffffffffffffffffffffffffff1660001b612991565b905092915050565b60007f780e9d63000000000000000000000000000000000000000000000000000000007bffffffffffffffffffffffffffffffffffffffffffffffffffffffff1916827bffffffffffffffffffffffffffffffffffffffffffffffffffffffff19161480611c8b5750611c8a82612a01565b5b9050919050565b611c9b81612ae3565b611cda576040517f08c379a0000000000000000000000000000000000000000000000000000000008152600401611cd190614907565b60405180910390fd5b50565b600033905090565b816006600083815260200190815260200160002060006101000a81548173ffffffffffffffffffffffffffffffffffffffff021916908373ffffffffffffffffffffffffffffffffffffffff160217905550808273ffffffffffffffffffffffffffffffffffffffff16611d58836112b7565b73ffffffffffffffffffffffffffffffffffffffff167f8c5be1e5ebec7d5bd14f71427d1e84f3dd0314c0f7b2291e5b200ac8c7c3b92560405160405180910390a45050565b600080611daa836112b7565b90508073ffffffffffffffffffffffffffffffffffffffff168473ffffffffffffffffffffffffffffffffffffffff161480611dec5750611deb8185611a06565b5b80611e2a57508373ffffffffffffffffffffffffffffffffffffffff16611e12846109e0565b73ffffffffffffffffffffffffffffffffffffffff16145b91505092915050565b8273ffffffffffffffffffffffffffffffffffffffff16611e53826112b7565b73ffffffffffffffffffffffffffffffffffffffff1614611ea9576040517f08c379a0000000000000000000000000000000000000000000000000000000008152600401611ea090614cba565b60405180910390fd5b600073ffffffffffffffffffffffffffffffffffffffff168273ffffffffffffffffffffffffffffffffffffffff1603611f18576040517f08c379a0000000000000000000000000000000000000000000000000000000008152600401611f0f90614d4c565b60405180910390fd5b611f258383836001612b24565b8273ffffffffffffffffffffffffffffffffffffffff16611f45826112b7565b73ffffffffffffffffffffffffffffffffffffffff1614611f9b576040517f08c379a0000000000000000000000000000000000000000000000000000000008152600401611f9290614cba565b60405180910390fd5b6006600082815260200190815260200160002060006101000a81549073ffffffffffffffffffffffffffffffffffffffff02191690556001600560008573ffffffffffffffffffffffffffffffffffffffff1673ffffffffffffffffffffffffffffffffffffffff168152602001908152602001600020600082825403925050819055506001600560008473ffffffffffffffffffffffffffffffffffffffff1673ffffffffffffffffffffffffffffffffffffffff16815260200190815260200160002060008282540192505081905550816004600083815260200190815260200160002060006101000a81548173ffffffffffffffffffffffffffffffffffffffff021916908373ffffffffffffffffffffffffffffffffffffffff160217905550808273ffffffffffffffffffffffffffffffffffffffff168473ffffffffffffffffffffffffffffffffffffffff167fddf252ad1be2c89b69c2b068fc378daa952ba7f163c4a11628f55a4df523b3ef60405160405180910390a46121278383836001612b36565b505050565b61213d81612138611cdd565b612b3c565b50565b61214a8282611b08565b61216f8160016000858152602001908152602001600020611be890919063ffffffff16565b505050565b61217e8282612bc1565b6121a38160016000858152602001908152602001600020612ca290919063ffffffff16565b505050565b6121b0612cd2565b6000600c60006101000a81548160ff0219169083151502179055507f5db9ee0a495bf2e6ff9c91a7834c1ba4fdd244a5e8aa4e537bd38aeae4b073aa6121f4611cdd565b6040516122019190613c85565b60405180910390a1565b6000612216826112b7565b9050612226816000846001612b24565b61222f826112b7565b90506006600083815260200190815260200160002060006101000a81549073ffffffffffffffffffffffffffffffffffffffff02191690556001600560008373ffffffffffffffffffffffffffffffffffffffff1673ffffffffffffffffffffffffffffffffffffffff168152602001908152602001600020600082825403925050819055506004600083815260200190815260200160002060006101000a81549073ffffffffffffffffffffffffffffffffffffffff021916905581600073ffffffffffffffffffffffffffffffffffffffff168273ffffffffffffffffffffffffffffffffffffffff167fddf252ad1be2c89b69c2b068fc378daa952ba7f163c4a11628f55a4df523b3ef60405160405180910390a4612355816000846001612b36565b5050565b60006004600083815260200190815260200160002060009054906101000a900473ffffffffffffffffffffffffffffffffffffffff169050919050565b600081600001549050919050565b600073ffffffffffffffffffffffffffffffffffffffff168273ffffffffffffffffffffffffffffffffffffffff1603612413576040517f08c379a000000000000000000000000000000000000000000000000000000000815260040161240a90614db8565b60405180910390fd5b61241c81612ae3565b1561245c576040517f08c379a000000000000000000000000000000000000000000000000000000000815260040161245390614e24565b60405180910390fd5b61246a600083836001612b24565b61247381612ae3565b156124b3576040517f08c379a00000000000000000000000000000000000000000000000000000000081526004016124aa90614e24565b60405180910390fd5b6001600560008473ffffffffffffffffffffffffffffffffffffffff1673ffffffffffffffffffffffffffffffffffffffff16815260200190815260200160002060008282540192505081905550816004600083815260200190815260200160002060006101000a81548173ffffffffffffffffffffffffffffffffffffffff021916908373ffffffffffffffffffffffffffffffffffffffff160217905550808273ffffffffffffffffffffffffffffffffffffffff16600073ffffffffffffffffffffffffffffffffffffffff167fddf252ad1be2c89b69c2b068fc378daa952ba7f163c4a11628f55a4df523b3ef60405160405180910390a46125bd600083836001612b36565b5050565b6001816000016000828254019250508190555050565b6125df612d1b565b6001600c60006101000a81548160ff0219169083151502179055507f62e78cea01bee320cd4e420270b5ea74000d11b0c9f74754ebdbfc544b05a258612623611cdd565b6040516126309190613c85565b60405180910390a1565b60006126498360000183612d65565b60001c905092915050565b8173ffffffffffffffffffffffffffffffffffffffff168373ffffffffffffffffffffffffffffffffffffffff16036126c2576040517f08c379a00000000000000000000000000000000000000000000000000000000081526004016126b990614e90565b60405180910390fd5b80600760008573ffffffffffffffffffffffffffffffffffffffff1673ffffffffffffffffffffffffffffffffffffffff16815260200190815260200160002060008473ffffffffffffffffffffffffffffffffffffffff1673ffffffffffffffffffffffffffffffffffffffff16815260200190815260200160002060006101000a81548160ff0219169083151502179055508173ffffffffffffffffffffffffffffffffffffffff168373ffffffffffffffffffffffffffffffffffffffff167f17307eab39ab6107e8899845ad3d59bd9653f200f220920489ca2b5937696c31836040516127b39190613b14565b60405180910390a3505050565b6127cb848484611e33565b6127d784848484612d90565b612816576040517f08c379a000000000000000000000000000000000000000000000000000000000815260040161280d90614f22565b60405180910390fd5b50505050565b6060600e805461282b90614192565b80601f016020809104026020016040519081016040528092919081815260200182805461285790614192565b80156128a45780601f10612879576101008083540402835291602001916128a4565b820191906000526020600020905b81548152906001019060200180831161288757829003601f168201915b5050505050905090565b6060600060016128bd84612f17565b01905060008167ffffffffffffffff8111156128dc576128db613f75565b5b6040519080825280601f01601f19166020018201604052801561290e5781602001600182028036833780820191505090505b509050600082602001820190505b600115612971578080600190039150507f3031323334353637383961626364656600000000000000000000000000000000600a86061a8153600a858161296557612964614f42565b5b0494506000850361291c575b819350505050919050565b600061298a8260000161306a565b9050919050565b600061299d838361307b565b6129f65782600001829080600181540180825580915050600190039060005260206000200160009091909190915055826000018054905083600101600084815260200190815260200160002081905550600190506129fb565b600090505b92915050565b60007f80ac58cd000000000000000000000000000000000000000000000000000000007bffffffffffffffffffffffffffffffffffffffffffffffffffffffff1916827bffffffffffffffffffffffffffffffffffffffffffffffffffffffff19161480612acc57507f5b5e139f000000000000000000000000000000000000000000000000000000007bffffffffffffffffffffffffffffffffffffffffffffffffffffffff1916827bffffffffffffffffffffffffffffffffffffffffffffffffffffffff1916145b80612adc5750612adb8261309e565b5b9050919050565b60008073ffffffffffffffffffffffffffffffffffffffff16612b0583612359565b73ffffffffffffffffffffffffffffffffffffffff1614159050919050565b612b3084848484613118565b50505050565b50505050565b612b468282611546565b612bbd57612b5381613172565b612b618360001c602061319f565b604051602001612b72929190615009565b6040516020818303038152906040526040517f08c379a0000000000000000000000000000000000000000000000000000000008152600401612bb49190613bbf565b60405180910390fd5b5050565b612bcb8282611546565b15612c9e57600080600084815260200190815260200160002060000160008373ffffffffffffffffffffffffffffffffffffffff1673ffffffffffffffffffffffffffffffffffffffff16815260200190815260200160002060006101000a81548160ff021916908315150217905550612c43611cdd565b73ffffffffffffffffffffffffffffffffffffffff168173ffffffffffffffffffffffffffffffffffffffff16837ff6391f5c32d9c69d2a47ea670b442974b53935d1edc7fd64eb21e047a839171b60405160405180910390a45b5050565b6000612cca836000018373ffffffffffffffffffffffffffffffffffffffff1660001b6133db565b905092915050565b612cda611288565b612d19576040517f08c379a0000000000000000000000000000000000000000000000000000000008152600401612d109061508f565b60405180910390fd5b565b612d23611288565b15612d63576040517f08c379a0000000000000000000000000000000000000000000000000000000008152600401612d5a906150fb565b60405180910390fd5b565b6000826000018281548110612d7d57612d7c61488c565b5b9060005260206000200154905092915050565b6000612db18473ffffffffffffffffffffffffffffffffffffffff166134ef565b15612f0a578373ffffffffffffffffffffffffffffffffffffffff1663150b7a02612dda611cdd565b8786866040518563ffffffff1660e01b8152600401612dfc9493929190615170565b6020604051808303816000875af1925050508015612e3857506040513d601f19601f82011682018060405250810190612e3591906151d1565b60015b612eba573d8060008114612e68576040519150601f19603f3d011682016040523d82523d6000602084013e612e6d565b606091505b506000815103612eb2576040517f08c379a0000000000000000000000000000000000000000000000000000000008152600401612ea990614f22565b60405180910390fd5b805181602001fd5b63150b7a0260e01b7bffffffffffffffffffffffffffffffffffffffffffffffffffffffff1916817bffffffffffffffffffffffffffffffffffffffffffffffffffffffff191614915050612f0f565b600190505b949350505050565b600080600090507a184f03e93ff9f4daa797ed6e38ed64bf6a1f0100000000000000008310612f75577a184f03e93ff9f4daa797ed6e38ed64bf6a1f0100000000000000008381612f6b57612f6a614f42565b5b0492506040810190505b6d04ee2d6d415b85acef81000000008310612fb2576d04ee2d6d415b85acef81000000008381612fa857612fa7614f42565b5b0492506020810190505b662386f26fc100008310612fe157662386f26fc100008381612fd757612fd6614f42565b5b0492506010810190505b6305f5e100831061300a576305f5e100838161300057612fff614f42565b5b0492506008810190505b612710831061302f57612710838161302557613024614f42565b5b0492506004810190505b60648310613052576064838161304857613047614f42565b5b0492506002810190505b600a8310613061576001810190505b80915050919050565b600081600001805490509050919050565b600080836001016000848152602001908152602001600020541415905092915050565b60007f5a05180f000000000000000000000000000000000000000000000000000000007bffffffffffffffffffffffffffffffffffffffffffffffffffffffff1916827bffffffffffffffffffffffffffffffffffffffffffffffffffffffff19161480613111575061311082613512565b5b9050919050565b6131248484848461358c565b61312c611288565b1561316c576040517f08c379a000000000000000000000000000000000000000000000000000000000815260040161316390615270565b60405180910390fd5b50505050565b60606131988273ffffffffffffffffffffffffffffffffffffffff16601460ff1661319f565b9050919050565b6060600060028360026131b29190614c06565b6131bc91906146ee565b67ffffffffffffffff8111156131d5576131d4613f75565b5b6040519080825280601f01601f1916602001820160405280156132075781602001600182028036833780820191505090505b5090507f30000000000000000000000000000000000000000000000000000000000000008160008151811061323f5761323e61488c565b5b60200101907effffffffffffffffffffffffffffffffffffffffffffffffffffffffffffff1916908160001a9053507f7800000000000000000000000000000000000000000000000000000000000000816001815181106132a3576132a261488c565b5b60200101907effffffffffffffffffffffffffffffffffffffffffffffffffffffffffffff1916908160001a905350600060018460026132e39190614c06565b6132ed91906146ee565b90505b600181111561338d577f3031323334353637383961626364656600000000000000000000000000000000600f86166010811061332f5761332e61488c565b5b1a60f81b8282815181106133465761334561488c565b5b60200101907effffffffffffffffffffffffffffffffffffffffffffffffffffffffffffff1916908160001a905350600485901c94508061338690615290565b90506132f0565b50600084146133d1576040517f08c379a00000000000000000000000000000000000000000000000000000000081526004016133c890615305565b60405180910390fd5b8091505092915050565b600080836001016000848152602001908152602001600020549050600081146134e357600060018261340d9190614bd2565b90506000600186600001805490506134259190614bd2565b90508181146134945760008660000182815481106134465761344561488c565b5b906000526020600020015490508087600001848154811061346a5761346961488c565b5b90600052602060002001819055508387600101600083815260200190815260200160002081905550505b856000018054806134a8576134a7615325565b5b6001900381819060005260206000200160009055905585600101600086815260200190815260200160002060009055600193505050506134e9565b60009150505b92915050565b6000808273ffffffffffffffffffffffffffffffffffffffff163b119050919050565b60007f7965db0b000000000000000000000000000000000000000000000000000000007bffffffffffffffffffffffffffffffffffffffffffffffffffffffff1916827bffffffffffffffffffffffffffffffffffffffffffffffffffffffff191614806135855750613584826136ea565b5b9050919050565b61359884848484613754565b60018111156135dc576040517f08c379a00000000000000000000000000000000000000000000000000000000081526004016135d3906153c6565b60405180910390fd5b6000829050600073ffffffffffffffffffffffffffffffffffffffff168573ffffffffffffffffffffffffffffffffffffffff16036136235761361e8161375a565b613662565b8373ffffffffffffffffffffffffffffffffffffffff168573ffffffffffffffffffffffffffffffffffffffff16146136615761366085826137a3565b5b5b600073ffffffffffffffffffffffffffffffffffffffff168473ffffffffffffffffffffffffffffffffffffffff16036136a45761369f81613910565b6136e3565b8473ffffffffffffffffffffffffffffffffffffffff168473ffffffffffffffffffffffffffffffffffffffff16146136e2576136e184826139e1565b5b5b5050505050565b60007f01ffc9a7000000000000000000000000000000000000000000000000000000007bffffffffffffffffffffffffffffffffffffffffffffffffffffffff1916827bffffffffffffffffffffffffffffffffffffffffffffffffffffffff1916149050919050565b50505050565b600a80549050600b600083815260200190815260200160002081905550600a81908060018154018082558091505060019003906000526020600020016000909190919091505550565b600060016137b0846113cd565b6137ba9190614bd2565b905060006009600084815260200190815260200160002054905081811461389f576000600860008673ffffffffffffffffffffffffffffffffffffffff1673ffffffffffffffffffffffffffffffffffffffff168152602001908152602001600020600084815260200190815260200160002054905080600860008773ffffffffffffffffffffffffffffffffffffffff1673ffffffffffffffffffffffffffffffffffffffff168152602001908152602001600020600084815260200190815260200160002081905550816009600083815260200190815260200160002081905550505b6009600084815260200190815260200160002060009055600860008573ffffffffffffffffffffffffffffffffffffffff1673ffffffffffffffffffffffffffffffffffffffff16815260200190815260200160002060008381526020019081526020016000206000905550505050565b60006001600a805490506139249190614bd2565b90506000600b60008481526020019081526020016000205490506000600a83815481106139545761395361488c565b5b9060005260206000200154905080600a83815481106139765761397561488c565b5b906000526020600020018190555081600b600083815260200190815260200160002081905550600b600085815260200190815260200160002060009055600a8054806139c5576139c4615325565b5b6001900381819060005260206000200160009055905550505050565b60006139ec836113cd565b905081600860008573ffffffffffffffffffffffffffffffffffffffff1673ffffffffffffffffffffffffffffffffffffffff168152602001908152602001600020600083815260200190815260200160002081905550806009600084815260200190815260200160002081905550505050565b6000604051905090565b600080fd5b600080fd5b60007fffffffff0000000000000000000000000000000000000000000000000000000082169050919050565b613aa981613a74565b8114613ab457600080fd5b50565b600081359050613ac681613aa0565b92915050565b600060208284031215613ae257613ae1613a6a565b5b6000613af084828501613ab7565b91505092915050565b60008115159050919050565b613b0e81613af9565b82525050565b6000602082019050613b296000830184613b05565b92915050565b600081519050919050565b600082825260208201905092915050565b60005b83811015613b69578082015181840152602081019050613b4e565b60008484015250505050565b6000601f19601f8301169050919050565b6000613b9182613b2f565b613b9b8185613b3a565b9350613bab818560208601613b4b565b613bb481613b75565b840191505092915050565b60006020820190508181036000830152613bd98184613b86565b905092915050565b6000819050919050565b613bf481613be1565b8114613bff57600080fd5b50565b600081359050613c1181613beb565b92915050565b600060208284031215613c2d57613c2c613a6a565b5b6000613c3b84828501613c02565b91505092915050565b600073ffffffffffffffffffffffffffffffffffffffff82169050919050565b6000613c6f82613c44565b9050919050565b613c7f81613c64565b82525050565b6000602082019050613c9a6000830184613c76565b92915050565b6000613cab82613c44565b9050919050565b613cbb81613ca0565b82525050565b6000602082019050613cd66000830184613cb2565b92915050565b613ce581613c64565b8114613cf057600080fd5b50565b600081359050613d0281613cdc565b92915050565b60008060408385031215613d1f57613d1e613a6a565b5b6000613d2d85828601613cf3565b9250506020613d3e85828601613c02565b9150509250929050565b613d5181613be1565b82525050565b6000602082019050613d6c6000830184613d48565b92915050565b600080600060608486031215613d8b57613d8a613a6a565b5b6000613d9986828701613cf3565b9350506020613daa86828701613cf3565b9250506040613dbb86828701613c02565b9150509250925092565b6000819050919050565b613dd881613dc5565b8114613de357600080fd5b50565b600081359050613df581613dcf565b92915050565b600060208284031215613e1157613e10613a6a565b5b6000613e1f84828501613de6565b91505092915050565b613e3181613dc5565b82525050565b6000602082019050613e4c6000830184613e28565b92915050565b60008060408385031215613e6957613e68613a6a565b5b6000613e7785828601613de6565b9250506020613e8885828601613cf3565b9150509250929050565b600060208284031215613ea857613ea7613a6a565b5b6000613eb684828501613cf3565b91505092915050565b60008060408385031215613ed657613ed5613a6a565b5b6000613ee485828601613de6565b9250506020613ef585828601613c02565b9150509250929050565b613f0881613af9565b8114613f1357600080fd5b50565b600081359050613f2581613eff565b92915050565b60008060408385031215613f4257613f41613a6a565b5b6000613f5085828601613cf3565b9250506020613f6185828601613f16565b9150509250929050565b600080fd5b600080fd5b7f4e487b7100000000000000000000000000000000000000000000000000000000600052604160045260246000fd5b613fad82613b75565b810181811067ffffffffffffffff82111715613fcc57613fcb613f75565b5b80604052505050565b6000613fdf613a60565b9050613feb8282613fa4565b919050565b600067ffffffffffffffff82111561400b5761400a613f75565b5b61401482613b75565b9050602081019050919050565b82818337600083830152505050565b600061404361403e84613ff0565b613fd5565b90508281526020810184848401111561405f5761405e613f70565b5b61406a848285614021565b509392505050565b600082601f83011261408757614086613f6b565b5b8135614097848260208601614030565b91505092915050565b600080600080608085870312156140ba576140b9613a6a565b5b60006140c887828801613cf3565b94505060206140d987828801613cf3565b93505060406140ea87828801613c02565b925050606085013567ffffffffffffffff81111561410b5761410a613a6f565b5b61411787828801614072565b91505092959194509250565b6000806040838503121561413a57614139613a6a565b5b600061414885828601613cf3565b925050602061415985828601613cf3565b9150509250929050565b7f4e487b7100000000000000000000000000000000000000000000000000000000600052602260045260246000fd5b600060028204905060018216806141aa57607f821691505b6020821081036141bd576141bc614163565b5b50919050565b7f4552433732313a20617070726f76616c20746f2063757272656e74206f776e6560008201527f7200000000000000000000000000000000000000000000000000000000000000602082015250565b600061421f602183613b3a565b915061422a826141c3565b604082019050919050565b6000602082019050818103600083015261424e81614212565b9050919050565b7f4552433732313a20617070726f76652063616c6c6572206973206e6f7420746f60008201527f6b656e206f776e6572206f7220617070726f76656420666f7220616c6c000000602082015250565b60006142b1603d83613b3a565b91506142bc82614255565b604082019050919050565b600060208201905081810360008301526142e0816142a4565b9050919050565b7f4552433732313a2063616c6c6572206973206e6f7420746f6b656e206f776e6560008201527f72206f7220617070726f76656400000000000000000000000000000000000000602082015250565b6000614343602d83613b3a565b915061434e826142e7565b604082019050919050565b6000602082019050818103600083015261437281614336565b9050919050565b7f455243373231456e756d657261626c653a206f776e657220696e646578206f7560008201527f74206f6620626f756e6473000000000000000000000000000000000000000000602082015250565b60006143d5602b83613b3a565b91506143e082614379565b604082019050919050565b60006020820190508181036000830152614404816143c8565b9050919050565b7f416363657373436f6e74726f6c3a2063616e206f6e6c792072656e6f756e636560008201527f20726f6c657320666f722073656c660000000000000000000000000000000000602082015250565b6000614467602f83613b3a565b91506144728261440b565b604082019050919050565b600060208201905081810360008301526144968161445a565b9050919050565b7f4552433732315072657365744d696e7465725061757365724175746f49643a2060008201527f6d75737420686176652070617573657220726f6c6520746f20756e7061757365602082015250565b60006144f9604083613b3a565b91506145048261449d565b604082019050919050565b60006020820190508181036000830152614528816144ec565b9050919050565b7f41756374696f6e2068617320656e646564000000000000000000000000000000600082015250565b6000614565601183613b3a565b91506145708261452f565b602082019050919050565b6000602082019050818103600083015261459481614558565b9050919050565b7f42696420616d6f756e74206d7573742062652067726561746572207468616e2060008201527f3000000000000000000000000000000000000000000000000000000000000000602082015250565b60006145f7602183613b3a565b91506146028261459b565b604082019050919050565b60006020820190508181036000830152614626816145ea565b9050919050565b7f42696420616d6f756e74206973206c6f776572207468616e2063757272656e7460008201527f2070726963650000000000000000000000000000000000000000000000000000602082015250565b6000614689602683613b3a565b91506146948261462d565b604082019050919050565b600060208201905081810360008301526146b88161467c565b9050919050565b7f4e487b7100000000000000000000000000000000000000000000000000000000600052601160045260246000fd5b60006146f982613be1565b915061470483613be1565b925082820190508082111561471c5761471b6146bf565b5b92915050565b6000819050919050565b600061474761474261473d84613c44565b614722565b613c44565b9050919050565b60006147598261472c565b9050919050565b600061476b8261474e565b9050919050565b61477b81614760565b82525050565b60006060820190506147966000830186613c76565b6147a36020830185614772565b6147b06040830184613d48565b949350505050565b6000815190506147c781613eff565b92915050565b6000602082840312156147e3576147e2613a6a565b5b60006147f1848285016147b8565b91505092915050565b7f455243373231456e756d657261626c653a20676c6f62616c20696e646578206f60008201527f7574206f6620626f756e64730000000000000000000000000000000000000000602082015250565b6000614856602c83613b3a565b9150614861826147fa565b604082019050919050565b6000602082019050818103600083015261488581614849565b9050919050565b7f4e487b7100000000000000000000000000000000000000000000000000000000600052603260045260246000fd5b7f4552433732313a20696e76616c696420746f6b656e2049440000000000000000600082015250565b60006148f1601883613b3a565b91506148fc826148bb565b602082019050919050565b60006020820190508181036000830152614920816148e4565b9050919050565b7f4552433732315072657365744d696e7465725061757365724175746f49643a2060008201527f6d7573742068617665206d696e74657220726f6c6520746f206d696e74000000602082015250565b6000614983603d83613b3a565b915061498e82614927565b604082019050919050565b600060208201905081810360008301526149b281614976565b9050919050565b7f4552433732313a2061646472657373207a65726f206973206e6f74206120766160008201527f6c6964206f776e65720000000000000000000000000000000000000000000000602082015250565b6000614a15602983613b3a565b9150614a20826149b9565b604082019050919050565b60006020820190508181036000830152614a4481614a08565b9050919050565b7f4552433732315072657365744d696e7465725061757365724175746f49643a2060008201527f6d75737420686176652070617573657220726f6c6520746f2070617573650000602082015250565b6000614aa7603e83613b3a565b9150614ab282614a4b565b604082019050919050565b60006020820190508181036000830152614ad681614a9a565b9050919050565b7f4e6f20726566756e6420617661696c61626c6500000000000000000000000000600082015250565b6000614b13601383613b3a565b9150614b1e82614add565b602082019050919050565b60006020820190508181036000830152614b4281614b06565b9050919050565b6000604082019050614b5e6000830185613c76565b614b6b6020830184613d48565b9392505050565b600081905092915050565b6000614b8882613b2f565b614b928185614b72565b9350614ba2818560208601613b4b565b80840191505092915050565b6000614bba8285614b7d565b9150614bc68284614b7d565b91508190509392505050565b6000614bdd82613be1565b9150614be883613be1565b9250828203905081811115614c0057614bff6146bf565b5b92915050565b6000614c1182613be1565b9150614c1c83613be1565b9250828202614c2a81613be1565b91508282048414831517614c4157614c406146bf565b5b5092915050565b7f4552433732313a207472616e736665722066726f6d20696e636f72726563742060008201527f6f776e6572000000000000000000000000000000000000000000000000000000602082015250565b6000614ca4602583613b3a565b9150614caf82614c48565b604082019050919050565b60006020820190508181036000830152614cd381614c97565b9050919050565b7f4552433732313a207472616e7366657220746f20746865207a65726f2061646460008201527f7265737300000000000000000000000000000000000000000000000000000000602082015250565b6000614d36602483613b3a565b9150614d4182614cda565b604082019050919050565b60006020820190508181036000830152614d6581614d29565b9050919050565b7f4552433732313a206d696e7420746f20746865207a65726f2061646472657373600082015250565b6000614da2602083613b3a565b9150614dad82614d6c565b602082019050919050565b60006020820190508181036000830152614dd181614d95565b9050919050565b7f4552433732313a20746f6b656e20616c7265616479206d696e74656400000000600082015250565b6000614e0e601c83613b3a565b9150614e1982614dd8565b602082019050919050565b60006020820190508181036000830152614e3d81614e01565b9050919050565b7f4552433732313a20617070726f766520746f2063616c6c657200000000000000600082015250565b6000614e7a601983613b3a565b9150614e8582614e44565b602082019050919050565b60006020820190508181036000830152614ea981614e6d565b9050919050565b7f4552433732313a207472616e7366657220746f206e6f6e20455243373231526560008201527f63656976657220696d706c656d656e7465720000000000000000000000000000602082015250565b6000614f0c603283613b3a565b9150614f1782614eb0565b604082019050919050565b60006020820190508181036000830152614f3b81614eff565b9050919050565b7f4e487b7100000000000000000000000000000000000000000000000000000000600052601260045260246000fd5b7f416363657373436f6e74726f6c3a206163636f756e7420000000000000000000600082015250565b6000614fa7601783614b72565b9150614fb282614f71565b601782019050919050565b7f206973206d697373696e6720726f6c6520000000000000000000000000000000600082015250565b6000614ff3601183614b72565b9150614ffe82614fbd565b601182019050919050565b600061501482614f9a565b91506150208285614b7d565b915061502b82614fe6565b91506150378284614b7d565b91508190509392505050565b7f5061757361626c653a206e6f7420706175736564000000000000000000000000600082015250565b6000615079601483613b3a565b915061508482615043565b602082019050919050565b600060208201905081810360008301526150a88161506c565b9050919050565b7f5061757361626c653a2070617573656400000000000000000000000000000000600082015250565b60006150e5601083613b3a565b91506150f0826150af565b602082019050919050565b60006020820190508181036000830152615114816150d8565b9050919050565b600081519050919050565b600082825260208201905092915050565b60006151428261511b565b61514c8185615126565b935061515c818560208601613b4b565b61516581613b75565b840191505092915050565b60006080820190506151856000830187613c76565b6151926020830186613c76565b61519f6040830185613d48565b81810360608301526151b18184615137565b905095945050505050565b6000815190506151cb81613aa0565b92915050565b6000602082840312156151e7576151e6613a6a565b5b60006151f5848285016151bc565b91505092915050565b7f4552433732315061757361626c653a20746f6b656e207472616e73666572207760008201527f68696c6520706175736564000000000000000000000000000000000000000000602082015250565b600061525a602b83613b3a565b9150615265826151fe565b604082019050919050565b600060208201905081810360008301526152898161524d565b9050919050565b600061529b82613be1565b9150600082036152ae576152ad6146bf565b5b600182039050919050565b7f537472696e67733a20686578206c656e67746820696e73756666696369656e74600082015250565b60006152ef602083613b3a565b91506152fa826152b9565b602082019050919050565b6000602082019050818103600083015261531e816152e2565b9050919050565b7f4e487b7100000000000000000000000000000000000000000000000000000000600052603160045260246000fd5b7f455243373231456e756d657261626c653a20636f6e736563757469766520747260008201527f616e7366657273206e6f7420737570706f727465640000000000000000000000602082015250565b60006153b0603583613b3a565b91506153bb82615354565b604082019050919050565b600060208201905081810360008301526153df816153a3565b905091905056fea2646970667358221220cc2a2a449981aa1a40624744e02502a3fd603636203c5c648c6afd8c314dea4464736f6c63430008120033",
  "linkReferences": {},
  "deployedLinkReferences": {}
}