{
  "_format": "hh-sol-artifact-1",
  "contractName": "NFTDutchAuction_ERC20Bids",
  "sourceName": "contracts/NFTDutchAuction_ERC20Bids.sol",
  "abi": [
    {
      "inputs": [
        {
          "internalType": "address",
          "name": "_erc20TokenAddress",
          "type": "address"
        },
        {
          "internalType": "address",
          "name": "erc721TokenAddress",
          "type": "address"
        },
        {
          "internalType": "uint256",
          "name": "_nftTokenId",
          "type": "uint256"
        },
        {
          "internalType": "uint256",
          "name": "_reservePrice",
          "type": "uint256"
        },
        {
          "internalType": "uint256",
          "name": "_numBlocksAuctionOpen",
          "type": "uint256"
        },
        {
          "internalType": "uint256",
          "name": "_offerPriceDecrement",
          "type": "uint256"
        }
      ],
      "stateMutability": "nonpayable",
      "type": "constructor"
    },
    {
      "anonymous": false,
      "inputs": [
        {
          "indexed": true,
          "internalType": "address",
          "name": "owner",
          "type": "address"
        },
        {
          "indexed": true,
          "internalType": "address",
          "name": "approved",
          "type": "address"
        },
        {
          "indexed": true,
          "internalType": "uint256",
          "name": "tokenId",
          "type": "uint256"
        }
      ],
      "name": "Approval",
      "type": "event"
    },
    {
      "anonymous": false,
      "inputs": [
        {
          "indexed": true,
          "internalType": "address",
          "name": "owner",
          "type": "address"
        },
        {
          "indexed": true,
          "internalType": "address",
          "name": "operator",
          "type": "address"
        },
        {
          "indexed": false,
          "internalType": "bool",
          "name": "approved",
          "type": "bool"
        }
      ],
      "name": "ApprovalForAll",
      "type": "event"
    },
    {
      "anonymous": false,
      "inputs": [
        {
          "indexed": false,
          "internalType": "address",
          "name": "winner",
          "type": "address"
        },
        {
          "indexed": false,
          "internalType": "uint256",
          "name": "amount",
          "type": "uint256"
        }
      ],
      "name": "AuctionEnded",
      "type": "event"
    },
    {
      "anonymous": false,
      "inputs": [
        {
          "indexed": false,
          "internalType": "address",
          "name": "account",
          "type": "address"
        }
      ],
      "name": "Paused",
      "type": "event"
    },
    {
      "anonymous": false,
      "inputs": [
        {
          "indexed": true,
          "internalType": "bytes32",
          "name": "role",
          "type": "bytes32"
        },
        {
          "indexed": true,
          "internalType": "bytes32",
          "name": "previousAdminRole",
          "type": "bytes32"
        },
        {
          "indexed": true,
          "internalType": "bytes32",
          "name": "newAdminRole",
          "type": "bytes32"
        }
      ],
      "name": "RoleAdminChanged",
      "type": "event"
    },
    {
      "anonymous": false,
      "inputs": [
        {
          "indexed": true,
          "internalType": "bytes32",
          "name": "role",
          "type": "bytes32"
        },
        {
          "indexed": true,
          "internalType": "address",
          "name": "account",
          "type": "address"
        },
        {
          "indexed": true,
          "internalType": "address",
          "name": "sender",
          "type": "address"
        }
      ],
      "name": "RoleGranted",
      "type": "event"
    },
    {
      "anonymous": false,
      "inputs": [
        {
          "indexed": true,
          "internalType": "bytes32",
          "name": "role",
          "type": "bytes32"
        },
        {
          "indexed": true,
          "internalType": "address",
          "name": "account",
          "type": "address"
        },
        {
          "indexed": true,
          "internalType": "address",
          "name": "sender",
          "type": "address"
        }
      ],
      "name": "RoleRevoked",
      "type": "event"
    },
    {
      "anonymous": false,
      "inputs": [
        {
          "indexed": true,
          "internalType": "address",
          "name": "from",
          "type": "address"
        },
        {
          "indexed": true,
          "internalType": "address",
          "name": "to",
          "type": "address"
        },
        {
          "indexed": true,
          "internalType": "uint256",
          "name": "tokenId",
          "type": "uint256"
        }
      ],
      "name": "Transfer",
      "type": "event"
    },
    {
      "anonymous": false,
      "inputs": [
        {
          "indexed": false,
          "internalType": "address",
          "name": "account",
          "type": "address"
        }
      ],
      "name": "Unpaused",
      "type": "event"
    },
    {
      "inputs": [],
      "name": "DEFAULT_ADMIN_ROLE",
      "outputs": [
        {
          "internalType": "bytes32",
          "name": "",
          "type": "bytes32"
        }
      ],
      "stateMutability": "view",
      "type": "function"
    },
    {
      "inputs": [],
      "name": "MINTER_ROLE",
      "outputs": [
        {
          "internalType": "bytes32",
          "name": "",
          "type": "bytes32"
        }
      ],
      "stateMutability": "view",
      "type": "function"
    },
    {
      "inputs": [],
      "name": "PAUSER_ROLE",
      "outputs": [
        {
          "internalType": "bytes32",
          "name": "",
          "type": "bytes32"
        }
      ],
      "stateMutability": "view",
      "type": "function"
    },
    {
      "inputs": [
        {
          "internalType": "address",
          "name": "to",
          "type": "address"
        },
        {
          "internalType": "uint256",
          "name": "tokenId",
          "type": "uint256"
        }
      ],
      "name": "approve",
      "outputs": [],
      "stateMutability": "nonpayable",
      "type": "function"
    },
    {
      "inputs": [],
      "name": "auctionEndTime",
      "outputs": [
        {
          "internalType": "uint256",
          "name": "",
          "type": "uint256"
        }
      ],
      "stateMutability": "view",
      "type": "function"
    },
    {
      "inputs": [],
      "name": "auctionEnded",
      "outputs": [
        {
          "internalType": "bool",
          "name": "",
          "type": "bool"
        }
      ],
      "stateMutability": "view",
      "type": "function"
    },
    {
      "inputs": [
        {
          "internalType": "address",
          "name": "owner",
          "type": "address"
        }
      ],
      "name": "balanceOf",
      "outputs": [
        {
          "internalType": "uint256",
          "name": "",
          "type": "uint256"
        }
      ],
      "stateMutability": "view",
      "type": "function"
    },
    {
      "inputs": [],
      "name": "bid",
      "outputs": [
        {
          "internalType": "bool",
          "name": "",
          "type": "bool"
        }
      ],
      "stateMutability": "payable",
      "type": "function"
    },
    {
      "inputs": [
        {
          "internalType": "address",
          "name": "",
          "type": "address"
        }
      ],
      "name": "bids",
      "outputs": [
        {
          "internalType": "uint256",
          "name": "",
          "type": "uint256"
        }
      ],
      "stateMutability": "view",
      "type": "function"
    },
    {
      "inputs": [
        {
          "internalType": "uint256",
          "name": "tokenId",
          "type": "uint256"
        }
      ],
      "name": "burn",
      "outputs": [],
      "stateMutability": "nonpayable",
      "type": "function"
    },
    {
      "inputs": [],
      "name": "claimRefund",
      "outputs": [],
      "stateMutability": "nonpayable",
      "type": "function"
    },
    {
      "inputs": [],
      "name": "erc20TokenAddress",
      "outputs": [
        {
          "internalType": "address",
          "name": "",
          "type": "address"
        }
      ],
      "stateMutability": "view",
      "type": "function"
    },
    {
      "inputs": [],
      "name": "firstBid",
      "outputs": [
        {
          "internalType": "uint256",
          "name": "",
          "type": "uint256"
        }
      ],
      "stateMutability": "view",
      "type": "function"
    },
    {
      "inputs": [],
      "name": "firstBidder",
      "outputs": [
        {
          "internalType": "address payable",
          "name": "",
          "type": "address"
        }
      ],
      "stateMutability": "view",
      "type": "function"
    },
    {
      "inputs": [
        {
          "internalType": "uint256",
          "name": "tokenId",
          "type": "uint256"
        }
      ],
      "name": "getApproved",
      "outputs": [
        {
          "internalType": "address",
          "name": "",
          "type": "address"
        }
      ],
      "stateMutability": "view",
      "type": "function"
    },
    {
      "inputs": [
        {
          "internalType": "address",
          "name": "account",
          "type": "address"
        }
      ],
      "name": "getBalanceOf",
      "outputs": [
        {
          "internalType": "uint256",
          "name": "",
          "type": "uint256"
        }
      ],
      "stateMutability": "view",
      "type": "function"
    },
    {
      "inputs": [],
      "name": "getCurrentPrice",
      "outputs": [
        {
          "internalType": "uint256",
          "name": "",
          "type": "uint256"
        }
      ],
      "stateMutability": "view",
      "type": "function"
    },
    {
      "inputs": [
        {
          "internalType": "bytes32",
          "name": "role",
          "type": "bytes32"
        }
      ],
      "name": "getRoleAdmin",
      "outputs": [
        {
          "internalType": "bytes32",
          "name": "",
          "type": "bytes32"
        }
      ],
      "stateMutability": "view",
      "type": "function"
    },
    {
      "inputs": [
        {
          "internalType": "bytes32",
          "name": "role",
          "type": "bytes32"
        },
        {
          "internalType": "uint256",
          "name": "index",
          "type": "uint256"
        }
      ],
      "name": "getRoleMember",
      "outputs": [
        {
          "internalType": "address",
          "name": "",
          "type": "address"
        }
      ],
      "stateMutability": "view",
      "type": "function"
    },
    {
      "inputs": [
        {
          "internalType": "bytes32",
          "name": "role",
          "type": "bytes32"
        }
      ],
      "name": "getRoleMemberCount",
      "outputs": [
        {
          "internalType": "uint256",
          "name": "",
          "type": "uint256"
        }
      ],
      "stateMutability": "view",
      "type": "function"
    },
    {
      "inputs": [],
      "name": "gotValidBid",
      "outputs": [
        {
          "internalType": "bool",
          "name": "",
          "type": "bool"
        }
      ],
      "stateMutability": "view",
      "type": "function"
    },
    {
      "inputs": [
        {
          "internalType": "bytes32",
          "name": "role",
          "type": "bytes32"
        },
        {
          "internalType": "address",
          "name": "account",
          "type": "address"
        }
      ],
      "name": "grantRole",
      "outputs": [],
      "stateMutability": "nonpayable",
      "type": "function"
    },
    {
      "inputs": [
        {
          "internalType": "bytes32",
          "name": "role",
          "type": "bytes32"
        },
        {
          "internalType": "address",
          "name": "account",
          "type": "address"
        }
      ],
      "name": "hasRole",
      "outputs": [
        {
          "internalType": "bool",
          "name": "",
          "type": "bool"
        }
      ],
      "stateMutability": "view",
      "type": "function"
    },
    {
      "inputs": [],
      "name": "initialPrice",
      "outputs": [
        {
          "internalType": "uint256",
          "name": "",
          "type": "uint256"
        }
      ],
      "stateMutability": "view",
      "type": "function"
    },
    {
      "inputs": [
        {
          "internalType": "address",
          "name": "owner",
          "type": "address"
        },
        {
          "internalType": "address",
          "name": "operator",
          "type": "address"
        }
      ],
      "name": "isApprovedForAll",
      "outputs": [
        {
          "internalType": "bool",
          "name": "",
          "type": "bool"
        }
      ],
      "stateMutability": "view",
      "type": "function"
    },
    {
      "inputs": [
        {
          "internalType": "address",
          "name": "to",
          "type": "address"
        }
      ],
      "name": "mint",
      "outputs": [],
      "stateMutability": "nonpayable",
      "type": "function"
    },
    {
      "inputs": [],
      "name": "name",
      "outputs": [
        {
          "internalType": "string",
          "name": "",
          "type": "string"
        }
      ],
      "stateMutability": "view",
      "type": "function"
    },
    {
      "inputs": [],
      "name": "nftTokenId",
      "outputs": [
        {
          "internalType": "uint256",
          "name": "",
          "type": "uint256"
        }
      ],
      "stateMutability": "view",
      "type": "function"
    },
    {
      "inputs": [],
      "name": "numBlocksAuctionOpen",
      "outputs": [
        {
          "internalType": "uint256",
          "name": "",
          "type": "uint256"
        }
      ],
      "stateMutability": "view",
      "type": "function"
    },
    {
      "inputs": [],
      "name": "offerPriceDecrement",
      "outputs": [
        {
          "internalType": "uint256",
          "name": "",
          "type": "uint256"
        }
      ],
      "stateMutability": "view",
      "type": "function"
    },
    {
      "inputs": [
        {
          "internalType": "uint256",
          "name": "tokenId",
          "type": "uint256"
        }
      ],
      "name": "ownerOf",
      "outputs": [
        {
          "internalType": "address",
          "name": "",
          "type": "address"
        }
      ],
      "stateMutability": "view",
      "type": "function"
    },
    {
      "inputs": [],
      "name": "pause",
      "outputs": [],
      "stateMutability": "nonpayable",
      "type": "function"
    },
    {
      "inputs": [],
      "name": "paused",
      "outputs": [
        {
          "internalType": "bool",
          "name": "",
          "type": "bool"
        }
      ],
      "stateMutability": "view",
      "type": "function"
    },
    {
      "inputs": [
        {
          "internalType": "bytes32",
          "name": "role",
          "type": "bytes32"
        },
        {
          "internalType": "address",
          "name": "account",
          "type": "address"
        }
      ],
      "name": "renounceRole",
      "outputs": [],
      "stateMutability": "nonpayable",
      "type": "function"
    },
    {
      "inputs": [],
      "name": "reservePrice",
      "outputs": [
        {
          "internalType": "uint256",
          "name": "",
          "type": "uint256"
        }
      ],
      "stateMutability": "view",
      "type": "function"
    },
    {
      "inputs": [
        {
          "internalType": "bytes32",
          "name": "role",
          "type": "bytes32"
        },
        {
          "internalType": "address",
          "name": "account",
          "type": "address"
        }
      ],
      "name": "revokeRole",
      "outputs": [],
      "stateMutability": "nonpayable",
      "type": "function"
    },
    {
      "inputs": [
        {
          "internalType": "address",
          "name": "from",
          "type": "address"
        },
        {
          "internalType": "address",
          "name": "to",
          "type": "address"
        },
        {
          "internalType": "uint256",
          "name": "tokenId",
          "type": "uint256"
        }
      ],
      "name": "safeTransferFrom",
      "outputs": [],
      "stateMutability": "nonpayable",
      "type": "function"
    },
    {
      "inputs": [
        {
          "internalType": "address",
          "name": "from",
          "type": "address"
        },
        {
          "internalType": "address",
          "name": "to",
          "type": "address"
        },
        {
          "internalType": "uint256",
          "name": "tokenId",
          "type": "uint256"
        },
        {
          "internalType": "bytes",
          "name": "data",
          "type": "bytes"
        }
      ],
      "name": "safeTransferFrom",
      "outputs": [],
      "stateMutability": "nonpayable",
      "type": "function"
    },
    {
      "inputs": [],
      "name": "seller",
      "outputs": [
        {
          "internalType": "address payable",
          "name": "",
          "type": "address"
        }
      ],
      "stateMutability": "view",
      "type": "function"
    },
    {
      "inputs": [
        {
          "internalType": "address",
          "name": "operator",
          "type": "address"
        },
        {
          "internalType": "bool",
          "name": "approved",
          "type": "bool"
        }
      ],
      "name": "setApprovalForAll",
      "outputs": [],
      "stateMutability": "nonpayable",
      "type": "function"
    },
    {
      "inputs": [
        {
          "internalType": "bytes4",
          "name": "interfaceId",
          "type": "bytes4"
        }
      ],
      "name": "supportsInterface",
      "outputs": [
        {
          "internalType": "bool",
          "name": "",
          "type": "bool"
        }
      ],
      "stateMutability": "view",
      "type": "function"
    },
    {
      "inputs": [],
      "name": "symbol",
      "outputs": [
        {
          "internalType": "string",
          "name": "",
          "type": "string"
        }
      ],
      "stateMutability": "view",
      "type": "function"
    },
    {
      "inputs": [],
      "name": "tokenAddress",
      "outputs": [
        {
          "internalType": "address",
          "name": "",
          "type": "address"
        }
      ],
      "stateMutability": "view",
      "type": "function"
    },
    {
      "inputs": [
        {
          "internalType": "uint256",
          "name": "index",
          "type": "uint256"
        }
      ],
      "name": "tokenByIndex",
      "outputs": [
        {
          "internalType": "uint256",
          "name": "",
          "type": "uint256"
        }
      ],
      "stateMutability": "view",
      "type": "function"
    },
    {
      "inputs": [
        {
          "internalType": "address",
          "name": "owner",
          "type": "address"
        },
        {
          "internalType": "uint256",
          "name": "index",
          "type": "uint256"
        }
      ],
      "name": "tokenOfOwnerByIndex",
      "outputs": [
        {
          "internalType": "uint256",
          "name": "",
          "type": "uint256"
        }
      ],
      "stateMutability": "view",
      "type": "function"
    },
    {
      "inputs": [
        {
          "internalType": "uint256",
          "name": "tokenId",
          "type": "uint256"
        }
      ],
      "name": "tokenURI",
      "outputs": [
        {
          "internalType": "string",
          "name": "",
          "type": "string"
        }
      ],
      "stateMutability": "view",
      "type": "function"
    },
    {
      "inputs": [],
      "name": "totalSupply",
      "outputs": [
        {
          "internalType": "uint256",
          "name": "",
          "type": "uint256"
        }
      ],
      "stateMutability": "view",
      "type": "function"
    },
    {
      "inputs": [
        {
          "internalType": "address",
          "name": "from",
          "type": "address"
        },
        {
          "internalType": "address",
          "name": "to",
          "type": "address"
        },
        {
          "internalType": "uint256",
          "name": "tokenId",
          "type": "uint256"
        }
      ],
      "name": "transferFrom",
      "outputs": [],
      "stateMutability": "nonpayable",
      "type": "function"
    },
    {
      "inputs": [],
      "name": "unpause",
      "outputs": [],
      "stateMutability": "nonpayable",
      "type": "function"
    }
  ],
  "bytecode": "0x60806040523480156200001157600080fd5b5060405162005f6138038062005f618339818101604052810190620000379190620006ba565b6040518060400160405280600581526020017f4d794e46540000000000000000000000000000000000000000000000000000008152506040518060400160405280600481526020017f4d4e4654000000000000000000000000000000000000000000000000000000008152506040518060400160405280601c81526020017f68747470733a2f2f6e6f7274686561737465726e2e6564752f6e66740000000081525082828160029081620000ec9190620009c6565b508060039081620000fe9190620009c6565b5050506000600c60006101000a81548160ff02191690831515021790555080600e90816200012d9190620009c6565b50620001526000801b620001466200037f60201b60201c565b6200038760201b60201c565b620001937f9f2df0fed2c77648de5860a4cc508cd0818c85b8b8a1ab4ceeef8d981c8956a6620001876200037f60201b60201c565b6200038760201b60201c565b620001d47f65d7a28e3265b37a6474929f336521b332c1681b933f6cb9f3376673440d862a620001c86200037f60201b60201c565b6200038760201b60201c565b50505033600f60006101000a81548173ffffffffffffffffffffffffffffffffffffffff021916908373ffffffffffffffffffffffffffffffffffffffff1602179055508260108190555081601181905550806012819055506012546011546200023f919062000adc565b6010546200024e919062000b27565b6013819055506011544362000264919062000b27565b6014819055506000601560006101000a81548160ff0219169083151502179055506000601760006101000a81548160ff0219169083151502179055506000601560016101000a81548173ffffffffffffffffffffffffffffffffffffffff021916908373ffffffffffffffffffffffffffffffffffffffff160217905550600060168190555084601760016101000a81548173ffffffffffffffffffffffffffffffffffffffff021916908373ffffffffffffffffffffffffffffffffffffffff1602179055508360188190555085601960006101000a81548173ffffffffffffffffffffffffffffffffffffffff021916908373ffffffffffffffffffffffffffffffffffffffff16021790555050505050505062000b62565b600033905090565b6200039982826200039d60201b60201c565b5050565b620003b48282620003e560201b62001bdc1760201c565b620003e08160016000858152602001908152602001600020620004d660201b62001cbc1790919060201c565b505050565b620003f782826200050e60201b60201c565b620004d257600160008084815260200190815260200160002060000160008373ffffffffffffffffffffffffffffffffffffffff1673ffffffffffffffffffffffffffffffffffffffff16815260200190815260200160002060006101000a81548160ff021916908315150217905550620004776200037f60201b60201c565b73ffffffffffffffffffffffffffffffffffffffff168173ffffffffffffffffffffffffffffffffffffffff16837f2f8788117e7eff1d82e926ec794901d17c78024a50270940304540a733656f0d60405160405180910390a45b5050565b600062000506836000018373ffffffffffffffffffffffffffffffffffffffff1660001b6200057860201b60201c565b905092915050565b600080600084815260200190815260200160002060000160008373ffffffffffffffffffffffffffffffffffffffff1673ffffffffffffffffffffffffffffffffffffffff16815260200190815260200160002060009054906101000a900460ff16905092915050565b60006200058c8383620005f260201b60201c565b620005e7578260000182908060018154018082558091505060019003906000526020600020016000909190919091505582600001805490508360010160008481526020019081526020016000208190555060019050620005ec565b600090505b92915050565b600080836001016000848152602001908152602001600020541415905092915050565b600080fd5b600073ffffffffffffffffffffffffffffffffffffffff82169050919050565b600062000647826200061a565b9050919050565b62000659816200063a565b81146200066557600080fd5b50565b60008151905062000679816200064e565b92915050565b6000819050919050565b62000694816200067f565b8114620006a057600080fd5b50565b600081519050620006b48162000689565b92915050565b60008060008060008060c08789031215620006da57620006d962000615565b5b6000620006ea89828a0162000668565b9650506020620006fd89828a0162000668565b95505060406200071089828a01620006a3565b94505060606200072389828a01620006a3565b93505060806200073689828a01620006a3565b92505060a06200074989828a01620006a3565b9150509295509295509295565b600081519050919050565b7f4e487b7100000000000000000000000000000000000000000000000000000000600052604160045260246000fd5b7f4e487b7100000000000000000000000000000000000000000000000000000000600052602260045260246000fd5b60006002820490506001821680620007d857607f821691505b602082108103620007ee57620007ed62000790565b5b50919050565b60008190508160005260206000209050919050565b60006020601f8301049050919050565b600082821b905092915050565b600060088302620008587fffffffffffffffffffffffffffffffffffffffffffffffffffffffffffffffff8262000819565b62000864868362000819565b95508019841693508086168417925050509392505050565b6000819050919050565b6000620008a7620008a16200089b846200067f565b6200087c565b6200067f565b9050919050565b6000819050919050565b620008c38362000886565b620008db620008d282620008ae565b84845462000826565b825550505050565b600090565b620008f2620008e3565b620008ff818484620008b8565b505050565b5b8181101562000927576200091b600082620008e8565b60018101905062000905565b5050565b601f82111562000976576200094081620007f4565b6200094b8462000809565b810160208510156200095b578190505b620009736200096a8562000809565b83018262000904565b50505b505050565b600082821c905092915050565b60006200099b600019846008026200097b565b1980831691505092915050565b6000620009b6838362000988565b9150826002028217905092915050565b620009d18262000756565b67ffffffffffffffff811115620009ed57620009ec62000761565b5b620009f98254620007bf565b62000a068282856200092b565b600060209050601f83116001811462000a3e576000841562000a29578287015190505b62000a358582620009a8565b86555062000aa5565b601f19841662000a4e86620007f4565b60005b8281101562000a785784890151825560018201915060208501945060208101905062000a51565b8683101562000a98578489015162000a94601f89168262000988565b8355505b6001600288020188555050505b505050505050565b7f4e487b7100000000000000000000000000000000000000000000000000000000600052601160045260246000fd5b600062000ae9826200067f565b915062000af6836200067f565b925082820262000b06816200067f565b9150828204841483151762000b205762000b1f62000aad565b5b5092915050565b600062000b34826200067f565b915062000b41836200067f565b925082820190508082111562000b5c5762000b5b62000aad565b5b92915050565b6153ef8062000b726000396000f3fe6080604052600436106102ae5760003560e01c80636a62784211610175578063b5545a3c116100dc578063d539139311610095578063e63ab1e91161006f578063e63ab1e914610acf578063e985e9c514610afa578063eb91d37e14610b37578063f835cd3c14610b62576102ae565b8063d539139314610a50578063d547741f14610a7b578063db2e1eed14610aa4576102ae565b8063b5545a3c14610940578063b88d4fde14610957578063bdb3937314610980578063c87b56dd146109ab578063ca15c873146109e8578063d3642a8814610a25576102ae565b806391d148541161012e57806391d148541461081c57806395d89b41146108595780639b96eece146108845780639d76ea58146108c1578063a217fddf146108ec578063a22cb46514610917576102ae565b80636a6278421461070c57806370a08231146107355780637e830574146107725780638456cb591461079d57806386433374146107b45780639010d07c146107df576102ae565b80632f2ff15d1161021957806342966c68116101d257806342966c68146105d65780634b449cba146105ff5780634f6ccce71461062a5780635c975abb1461066757806362ea82db146106925780636352211e146106cf576102ae565b80632f2ff15d146104dc5780632f745c59146105055780633103ea621461054257806336568abe1461056d5780633f4ba83a1461059657806342842e0e146105ad576102ae565b806318160ddd1161026b57806318160ddd146103d75780631998aeef146104025780631d0806ae1461042057806323b872dd1461044b578063248a9ca31461047457806328e2f696146104b1576102ae565b806301ffc9a7146102b357806306fdde03146102f0578063081812fc1461031b57806308551a5314610358578063095ea7b314610383578063100e4555146103ac575b600080fd5b3480156102bf57600080fd5b506102da60048036038101906102d59190613ba0565b610b8d565b6040516102e79190613be8565b60405180910390f35b3480156102fc57600080fd5b50610305610b9f565b6040516103129190613c93565b60405180910390f35b34801561032757600080fd5b50610342600480360381019061033d9190613ceb565b610c31565b60405161034f9190613d59565b60405180910390f35b34801561036457600080fd5b5061036d610c77565b60405161037a9190613d95565b60405180910390f35b34801561038f57600080fd5b506103aa60048036038101906103a59190613ddc565b610c9d565b005b3480156103b857600080fd5b506103c1610db4565b6040516103ce9190613be8565b60405180910390f35b3480156103e357600080fd5b506103ec610dc7565b6040516103f99190613e2b565b60405180910390f35b61040a610dd4565b6040516104179190613be8565b60405180910390f35b34801561042c57600080fd5b5061043561106f565b6040516104429190613e2b565b60405180910390f35b34801561045757600080fd5b50610472600480360381019061046d9190613e46565b611075565b005b34801561048057600080fd5b5061049b60048036038101906104969190613ecf565b6110d5565b6040516104a89190613f0b565b60405180910390f35b3480156104bd57600080fd5b506104c66110f4565b6040516104d39190613e2b565b60405180910390f35b3480156104e857600080fd5b5061050360048036038101906104fe9190613f26565b6110fa565b005b34801561051157600080fd5b5061052c60048036038101906105279190613ddc565b61111b565b6040516105399190613e2b565b60405180910390f35b34801561054e57600080fd5b506105576111c0565b6040516105649190613e2b565b60405180910390f35b34801561057957600080fd5b50610594600480360381019061058f9190613f26565b6111c6565b005b3480156105a257600080fd5b506105ab611249565b005b3480156105b957600080fd5b506105d460048036038101906105cf9190613e46565b6112c3565b005b3480156105e257600080fd5b506105fd60048036038101906105f89190613ceb565b6112e3565b005b34801561060b57600080fd5b5061061461133f565b6040516106219190613e2b565b60405180910390f35b34801561063657600080fd5b50610651600480360381019061064c9190613ceb565b611345565b60405161065e9190613e2b565b60405180910390f35b34801561067357600080fd5b5061067c6113b6565b6040516106899190613be8565b60405180910390f35b34801561069e57600080fd5b506106b960048036038101906106b49190613f66565b6113cd565b6040516106c69190613e2b565b60405180910390f35b3480156106db57600080fd5b506106f660048036038101906106f19190613ceb565b6113e5565b6040516107039190613d59565b60405180910390f35b34801561071857600080fd5b50610733600480360381019061072e9190613f66565b61146b565b005b34801561074157600080fd5b5061075c60048036038101906107579190613f66565b6114fb565b6040516107699190613e2b565b60405180910390f35b34801561077e57600080fd5b506107876115b2565b6040516107949190613e2b565b60405180910390f35b3480156107a957600080fd5b506107b26115b8565b005b3480156107c057600080fd5b506107c9611632565b6040516107d69190613be8565b60405180910390f35b3480156107eb57600080fd5b5061080660048036038101906108019190613f93565b611645565b6040516108139190613d59565b60405180910390f35b34801561082857600080fd5b50610843600480360381019061083e9190613f26565b611674565b6040516108509190613be8565b60405180910390f35b34801561086557600080fd5b5061086e6116de565b60405161087b9190613c93565b60405180910390f35b34801561089057600080fd5b506108ab60048036038101906108a69190613f66565b611770565b6040516108b89190613e2b565b60405180910390f35b3480156108cd57600080fd5b506108d66117b9565b6040516108e39190613d59565b60405180910390f35b3480156108f857600080fd5b506109016117df565b60405161090e9190613f0b565b60405180910390f35b34801561092357600080fd5b5061093e60048036038101906109399190613fff565b6117e6565b005b34801561094c57600080fd5b506109556117fc565b005b34801561096357600080fd5b5061097e60048036038101906109799190614174565b611951565b005b34801561098c57600080fd5b506109956119b3565b6040516109a29190613d95565b60405180910390f35b3480156109b757600080fd5b506109d260048036038101906109cd9190613ceb565b6119d9565b6040516109df9190613c93565b60405180910390f35b3480156109f457600080fd5b50610a0f6004803603810190610a0a9190613ecf565b611a41565b604051610a1c9190613e2b565b60405180910390f35b348015610a3157600080fd5b50610a3a611a65565b604051610a479190613e2b565b60405180910390f35b348015610a5c57600080fd5b50610a65611a6b565b604051610a729190613f0b565b60405180910390f35b348015610a8757600080fd5b50610aa26004803603810190610a9d9190613f26565b611a8f565b005b348015610ab057600080fd5b50610ab9611ab0565b604051610ac69190613e2b565b60405180910390f35b348015610adb57600080fd5b50610ae4611ab6565b604051610af19190613f0b565b60405180910390f35b348015610b0657600080fd5b50610b216004803603810190610b1c91906141f7565b611ada565b604051610b2e9190613be8565b60405180910390f35b348015610b4357600080fd5b50610b4c611b6e565b604051610b599190613e2b565b60405180910390f35b348015610b6e57600080fd5b50610b77611bb6565b604051610b849190613d59565b60405180910390f35b6000610b9882611cec565b9050919050565b606060028054610bae90614266565b80601f0160208091040260200160405190810160405280929190818152602001828054610bda90614266565b8015610c275780601f10610bfc57610100808354040283529160200191610c27565b820191906000526020600020905b815481529060010190602001808311610c0a57829003601f168201915b5050505050905090565b6000610c3c82611d66565b6006600083815260200190815260200160002060009054906101000a900473ffffffffffffffffffffffffffffffffffffffff169050919050565b600f60009054906101000a900473ffffffffffffffffffffffffffffffffffffffff1681565b6000610ca8826113e5565b90508073ffffffffffffffffffffffffffffffffffffffff168373ffffffffffffffffffffffffffffffffffffffff1603610d18576040517f08c379a0000000000000000000000000000000000000000000000000000000008152600401610d0f90614309565b60405180910390fd5b8073ffffffffffffffffffffffffffffffffffffffff16610d37611db1565b73ffffffffffffffffffffffffffffffffffffffff161480610d665750610d6581610d60611db1565b611ada565b5b610da5576040517f08c379a0000000000000000000000000000000000000000000000000000000008152600401610d9c9061439b565b60405180910390fd5b610daf8383611db9565b505050565b601760009054906101000a900460ff1681565b6000600a80549050905090565b600080610ddf611b6e565b905060008111610e24576040517f08c379a0000000000000000000000000000000000000000000000000000000008152600401610e1b90614407565b60405180910390fd5b60003411610e67576040517f08c379a0000000000000000000000000000000000000000000000000000000008152600401610e5e90614499565b60405180910390fd5b80341015610eaa576040517f08c379a0000000000000000000000000000000000000000000000000000000008152600401610ea19061452b565b60405180910390fd5b601760009054906101000a900460ff166110105733601560016101000a81548173ffffffffffffffffffffffffffffffffffffffff021916908373ffffffffffffffffffffffffffffffffffffffff160217905550346016819055506001601760006101000a81548160ff021916908315150217905550601654601a6000600f60009054906101000a900473ffffffffffffffffffffffffffffffffffffffff1673ffffffffffffffffffffffffffffffffffffffff1673ffffffffffffffffffffffffffffffffffffffff1681526020019081526020016000206000828254610f94919061457a565b92505081905550600f60009054906101000a900473ffffffffffffffffffffffffffffffffffffffff1673ffffffffffffffffffffffffffffffffffffffff166108fc6016549081150290604051600060405180830381858888f19350505050158015611005573d6000803e3d6000fd5b50600191505061106c565b34601a60003373ffffffffffffffffffffffffffffffffffffffff1673ffffffffffffffffffffffffffffffffffffffff168152602001908152602001600020600082825461105f919061457a565b9250508190555060009150505b90565b60135481565b611086611080611db1565b82611e72565b6110c5576040517f08c379a00000000000000000000000000000000000000000000000000000000081526004016110bc90614620565b60405180910390fd5b6110d0838383611f07565b505050565b6000806000838152602001908152602001600020600101549050919050565b60165481565b611103826110d5565b61110c81612200565b6111168383612214565b505050565b6000611126836114fb565b8210611167576040517f08c379a000000000000000000000000000000000000000000000000000000000815260040161115e906146b2565b60405180910390fd5b600860008473ffffffffffffffffffffffffffffffffffffffff1673ffffffffffffffffffffffffffffffffffffffff168152602001908152602001600020600083815260200190815260200160002054905092915050565b60115481565b6111ce611db1565b73ffffffffffffffffffffffffffffffffffffffff168173ffffffffffffffffffffffffffffffffffffffff161461123b576040517f08c379a000000000000000000000000000000000000000000000000000000000815260040161123290614744565b60405180910390fd5b6112458282612248565b5050565b61127a7f65d7a28e3265b37a6474929f336521b332c1681b933f6cb9f3376673440d862a611275611db1565b611674565b6112b9576040517f08c379a00000000000000000000000000000000000000000000000000000000081526004016112b0906147d6565b60405180910390fd5b6112c161227c565b565b6112de83838360405180602001604052806000815250611951565b505050565b6112f46112ee611db1565b82611e72565b611333576040517f08c379a000000000000000000000000000000000000000000000000000000000815260040161132a90614620565b60405180910390fd5b61133c816122df565b50565b60145481565b600061134f610dc7565b8210611390576040517f08c379a000000000000000000000000000000000000000000000000000000000815260040161138790614868565b60405180910390fd5b600a82815481106113a4576113a3614888565b5b90600052602060002001549050919050565b6000600c60009054906101000a900460ff16905090565b601a6020528060005260406000206000915090505481565b6000806113f18361242d565b9050600073ffffffffffffffffffffffffffffffffffffffff168173ffffffffffffffffffffffffffffffffffffffff1603611462576040517f08c379a000000000000000000000000000000000000000000000000000000000815260040161145990614903565b60405180910390fd5b80915050919050565b61149c7f9f2df0fed2c77648de5860a4cc508cd0818c85b8b8a1ab4ceeef8d981c8956a6611497611db1565b611674565b6114db576040517f08c379a00000000000000000000000000000000000000000000000000000000081526004016114d290614995565b60405180910390fd5b6114ee816114e9600d61246a565b612478565b6114f8600d612695565b50565b60008073ffffffffffffffffffffffffffffffffffffffff168273ffffffffffffffffffffffffffffffffffffffff160361156b576040517f08c379a000000000000000000000000000000000000000000000000000000000815260040161156290614a27565b60405180910390fd5b600560008373ffffffffffffffffffffffffffffffffffffffff1673ffffffffffffffffffffffffffffffffffffffff168152602001908152602001600020549050919050565b60185481565b6115e97f65d7a28e3265b37a6474929f336521b332c1681b933f6cb9f3376673440d862a6115e4611db1565b611674565b611628576040517f08c379a000000000000000000000000000000000000000000000000000000000815260040161161f90614ab9565b60405180910390fd5b6116306126ab565b565b601560009054906101000a900460ff1681565b600061166c826001600086815260200190815260200160002061270e90919063ffffffff16565b905092915050565b600080600084815260200190815260200160002060000160008373ffffffffffffffffffffffffffffffffffffffff1673ffffffffffffffffffffffffffffffffffffffff16815260200190815260200160002060009054906101000a900460ff16905092915050565b6060600380546116ed90614266565b80601f016020809104026020016040519081016040528092919081815260200182805461171990614266565b80156117665780601f1061173b57610100808354040283529160200191611766565b820191906000526020600020905b81548152906001019060200180831161174957829003601f168201915b5050505050905090565b6000601a60008373ffffffffffffffffffffffffffffffffffffffff1673ffffffffffffffffffffffffffffffffffffffff168152602001908152602001600020549050919050565b601760019054906101000a900473ffffffffffffffffffffffffffffffffffffffff1681565b6000801b81565b6117f86117f1611db1565b8383612728565b5050565b6000601a60003373ffffffffffffffffffffffffffffffffffffffff1673ffffffffffffffffffffffffffffffffffffffff168152602001908152602001600020541161187e576040517f08c379a000000000000000000000000000000000000000000000000000000000815260040161187590614b25565b60405180910390fd5b6000601a60003373ffffffffffffffffffffffffffffffffffffffff1673ffffffffffffffffffffffffffffffffffffffff1681526020019081526020016000205490506000601a60003373ffffffffffffffffffffffffffffffffffffffff1673ffffffffffffffffffffffffffffffffffffffff168152602001908152602001600020819055503373ffffffffffffffffffffffffffffffffffffffff166108fc829081150290604051600060405180830381858888f1935050505015801561194d573d6000803e3d6000fd5b5050565b61196261195c611db1565b83611e72565b6119a1576040517f08c379a000000000000000000000000000000000000000000000000000000000815260040161199890614620565b60405180910390fd5b6119ad84848484612894565b50505050565b601560019054906101000a900473ffffffffffffffffffffffffffffffffffffffff1681565b60606119e482611d66565b60006119ee6128f0565b90506000815111611a0e5760405180602001604052806000815250611a39565b80611a1884612982565b604051602001611a29929190614b81565b6040516020818303038152906040525b915050919050565b6000611a5e60016000848152602001908152602001600020612a50565b9050919050565b60125481565b7f9f2df0fed2c77648de5860a4cc508cd0818c85b8b8a1ab4ceeef8d981c8956a681565b611a98826110d5565b611aa181612200565b611aab8383612248565b505050565b60105481565b7f65d7a28e3265b37a6474929f336521b332c1681b933f6cb9f3376673440d862a81565b6000600760008473ffffffffffffffffffffffffffffffffffffffff1673ffffffffffffffffffffffffffffffffffffffff16815260200190815260200160002060008373ffffffffffffffffffffffffffffffffffffffff1673ffffffffffffffffffffffffffffffffffffffff16815260200190815260200160002060009054906101000a900460ff16905092915050565b60006014544310611b825760009050611bb3565b600043601454611b929190614ba5565b905060125481611ba29190614bd9565b601354611baf9190614ba5565b9150505b90565b601960009054906101000a900473ffffffffffffffffffffffffffffffffffffffff1681565b611be68282611674565b611cb857600160008084815260200190815260200160002060000160008373ffffffffffffffffffffffffffffffffffffffff1673ffffffffffffffffffffffffffffffffffffffff16815260200190815260200160002060006101000a81548160ff021916908315150217905550611c5d611db1565b73ffffffffffffffffffffffffffffffffffffffff168173ffffffffffffffffffffffffffffffffffffffff16837f2f8788117e7eff1d82e926ec794901d17c78024a50270940304540a733656f0d60405160405180910390a45b5050565b6000611ce4836000018373ffffffffffffffffffffffffffffffffffffffff1660001b612a65565b905092915050565b60007f780e9d63000000000000000000000000000000000000000000000000000000007bffffffffffffffffffffffffffffffffffffffffffffffffffffffff1916827bffffffffffffffffffffffffffffffffffffffffffffffffffffffff19161480611d5f5750611d5e82612ad5565b5b9050919050565b611d6f81612bb7565b611dae576040517f08c379a0000000000000000000000000000000000000000000000000000000008152600401611da590614903565b60405180910390fd5b50565b600033905090565b816006600083815260200190815260200160002060006101000a81548173ffffffffffffffffffffffffffffffffffffffff021916908373ffffffffffffffffffffffffffffffffffffffff160217905550808273ffffffffffffffffffffffffffffffffffffffff16611e2c836113e5565b73ffffffffffffffffffffffffffffffffffffffff167f8c5be1e5ebec7d5bd14f71427d1e84f3dd0314c0f7b2291e5b200ac8c7c3b92560405160405180910390a45050565b600080611e7e836113e5565b90508073ffffffffffffffffffffffffffffffffffffffff168473ffffffffffffffffffffffffffffffffffffffff161480611ec05750611ebf8185611ada565b5b80611efe57508373ffffffffffffffffffffffffffffffffffffffff16611ee684610c31565b73ffffffffffffffffffffffffffffffffffffffff16145b91505092915050565b8273ffffffffffffffffffffffffffffffffffffffff16611f27826113e5565b73ffffffffffffffffffffffffffffffffffffffff1614611f7d576040517f08c379a0000000000000000000000000000000000000000000000000000000008152600401611f7490614c8d565b60405180910390fd5b600073ffffffffffffffffffffffffffffffffffffffff168273ffffffffffffffffffffffffffffffffffffffff1603611fec576040517f08c379a0000000000000000000000000000000000000000000000000000000008152600401611fe390614d1f565b60405180910390fd5b611ff98383836001612bf8565b8273ffffffffffffffffffffffffffffffffffffffff16612019826113e5565b73ffffffffffffffffffffffffffffffffffffffff161461206f576040517f08c379a000000000000000000000000000000000000000000000000000000000815260040161206690614c8d565b60405180910390fd5b6006600082815260200190815260200160002060006101000a81549073ffffffffffffffffffffffffffffffffffffffff02191690556001600560008573ffffffffffffffffffffffffffffffffffffffff1673ffffffffffffffffffffffffffffffffffffffff168152602001908152602001600020600082825403925050819055506001600560008473ffffffffffffffffffffffffffffffffffffffff1673ffffffffffffffffffffffffffffffffffffffff16815260200190815260200160002060008282540192505081905550816004600083815260200190815260200160002060006101000a81548173ffffffffffffffffffffffffffffffffffffffff021916908373ffffffffffffffffffffffffffffffffffffffff160217905550808273ffffffffffffffffffffffffffffffffffffffff168473ffffffffffffffffffffffffffffffffffffffff167fddf252ad1be2c89b69c2b068fc378daa952ba7f163c4a11628f55a4df523b3ef60405160405180910390a46121fb8383836001612c0a565b505050565b6122118161220c611db1565b612c10565b50565b61221e8282611bdc565b6122438160016000858152602001908152602001600020611cbc90919063ffffffff16565b505050565b6122528282612c95565b6122778160016000858152602001908152602001600020612d7690919063ffffffff16565b505050565b612284612da6565b6000600c60006101000a81548160ff0219169083151502179055507f5db9ee0a495bf2e6ff9c91a7834c1ba4fdd244a5e8aa4e537bd38aeae4b073aa6122c8611db1565b6040516122d59190613d59565b60405180910390a1565b60006122ea826113e5565b90506122fa816000846001612bf8565b612303826113e5565b90506006600083815260200190815260200160002060006101000a81549073ffffffffffffffffffffffffffffffffffffffff02191690556001600560008373ffffffffffffffffffffffffffffffffffffffff1673ffffffffffffffffffffffffffffffffffffffff168152602001908152602001600020600082825403925050819055506004600083815260200190815260200160002060006101000a81549073ffffffffffffffffffffffffffffffffffffffff021916905581600073ffffffffffffffffffffffffffffffffffffffff168273ffffffffffffffffffffffffffffffffffffffff167fddf252ad1be2c89b69c2b068fc378daa952ba7f163c4a11628f55a4df523b3ef60405160405180910390a4612429816000846001612c0a565b5050565b60006004600083815260200190815260200160002060009054906101000a900473ffffffffffffffffffffffffffffffffffffffff169050919050565b600081600001549050919050565b600073ffffffffffffffffffffffffffffffffffffffff168273ffffffffffffffffffffffffffffffffffffffff16036124e7576040517f08c379a00000000000000000000000000000000000000000000000000000000081526004016124de90614d8b565b60405180910390fd5b6124f081612bb7565b15612530576040517f08c379a000000000000000000000000000000000000000000000000000000000815260040161252790614df7565b60405180910390fd5b61253e600083836001612bf8565b61254781612bb7565b15612587576040517f08c379a000000000000000000000000000000000000000000000000000000000815260040161257e90614df7565b60405180910390fd5b6001600560008473ffffffffffffffffffffffffffffffffffffffff1673ffffffffffffffffffffffffffffffffffffffff16815260200190815260200160002060008282540192505081905550816004600083815260200190815260200160002060006101000a81548173ffffffffffffffffffffffffffffffffffffffff021916908373ffffffffffffffffffffffffffffffffffffffff160217905550808273ffffffffffffffffffffffffffffffffffffffff16600073ffffffffffffffffffffffffffffffffffffffff167fddf252ad1be2c89b69c2b068fc378daa952ba7f163c4a11628f55a4df523b3ef60405160405180910390a4612691600083836001612c0a565b5050565b6001816000016000828254019250508190555050565b6126b3612def565b6001600c60006101000a81548160ff0219169083151502179055507f62e78cea01bee320cd4e420270b5ea74000d11b0c9f74754ebdbfc544b05a2586126f7611db1565b6040516127049190613d59565b60405180910390a1565b600061271d8360000183612e39565b60001c905092915050565b8173ffffffffffffffffffffffffffffffffffffffff168373ffffffffffffffffffffffffffffffffffffffff1603612796576040517f08c379a000000000000000000000000000000000000000000000000000000000815260040161278d90614e63565b60405180910390fd5b80600760008573ffffffffffffffffffffffffffffffffffffffff1673ffffffffffffffffffffffffffffffffffffffff16815260200190815260200160002060008473ffffffffffffffffffffffffffffffffffffffff1673ffffffffffffffffffffffffffffffffffffffff16815260200190815260200160002060006101000a81548160ff0219169083151502179055508173ffffffffffffffffffffffffffffffffffffffff168373ffffffffffffffffffffffffffffffffffffffff167f17307eab39ab6107e8899845ad3d59bd9653f200f220920489ca2b5937696c31836040516128879190613be8565b60405180910390a3505050565b61289f848484611f07565b6128ab84848484612e64565b6128ea576040517f08c379a00000000000000000000000000000000000000000000000000000000081526004016128e190614ef5565b60405180910390fd5b50505050565b6060600e80546128ff90614266565b80601f016020809104026020016040519081016040528092919081815260200182805461292b90614266565b80156129785780601f1061294d57610100808354040283529160200191612978565b820191906000526020600020905b81548152906001019060200180831161295b57829003601f168201915b5050505050905090565b60606000600161299184612feb565b01905060008167ffffffffffffffff8111156129b0576129af614049565b5b6040519080825280601f01601f1916602001820160405280156129e25781602001600182028036833780820191505090505b509050600082602001820190505b600115612a45578080600190039150507f3031323334353637383961626364656600000000000000000000000000000000600a86061a8153600a8581612a3957612a38614f15565b5b049450600085036129f0575b819350505050919050565b6000612a5e8260000161313e565b9050919050565b6000612a71838361314f565b612aca578260000182908060018154018082558091505060019003906000526020600020016000909190919091505582600001805490508360010160008481526020019081526020016000208190555060019050612acf565b600090505b92915050565b60007f80ac58cd000000000000000000000000000000000000000000000000000000007bffffffffffffffffffffffffffffffffffffffffffffffffffffffff1916827bffffffffffffffffffffffffffffffffffffffffffffffffffffffff19161480612ba057507f5b5e139f000000000000000000000000000000000000000000000000000000007bffffffffffffffffffffffffffffffffffffffffffffffffffffffff1916827bffffffffffffffffffffffffffffffffffffffffffffffffffffffff1916145b80612bb05750612baf82613172565b5b9050919050565b60008073ffffffffffffffffffffffffffffffffffffffff16612bd98361242d565b73ffffffffffffffffffffffffffffffffffffffff1614159050919050565b612c04848484846131ec565b50505050565b50505050565b612c1a8282611674565b612c9157612c2781613246565b612c358360001c6020613273565b604051602001612c46929190614fdc565b6040516020818303038152906040526040517f08c379a0000000000000000000000000000000000000000000000000000000008152600401612c889190613c93565b60405180910390fd5b5050565b612c9f8282611674565b15612d7257600080600084815260200190815260200160002060000160008373ffffffffffffffffffffffffffffffffffffffff1673ffffffffffffffffffffffffffffffffffffffff16815260200190815260200160002060006101000a81548160ff021916908315150217905550612d17611db1565b73ffffffffffffffffffffffffffffffffffffffff168173ffffffffffffffffffffffffffffffffffffffff16837ff6391f5c32d9c69d2a47ea670b442974b53935d1edc7fd64eb21e047a839171b60405160405180910390a45b5050565b6000612d9e836000018373ffffffffffffffffffffffffffffffffffffffff1660001b6134af565b905092915050565b612dae6113b6565b612ded576040517f08c379a0000000000000000000000000000000000000000000000000000000008152600401612de490615062565b60405180910390fd5b565b612df76113b6565b15612e37576040517f08c379a0000000000000000000000000000000000000000000000000000000008152600401612e2e906150ce565b60405180910390fd5b565b6000826000018281548110612e5157612e50614888565b5b9060005260206000200154905092915050565b6000612e858473ffffffffffffffffffffffffffffffffffffffff166135c3565b15612fde578373ffffffffffffffffffffffffffffffffffffffff1663150b7a02612eae611db1565b8786866040518563ffffffff1660e01b8152600401612ed09493929190615143565b6020604051808303816000875af1925050508015612f0c57506040513d601f19601f82011682018060405250810190612f0991906151a4565b60015b612f8e573d8060008114612f3c576040519150601f19603f3d011682016040523d82523d6000602084013e612f41565b606091505b506000815103612f86576040517f08c379a0000000000000000000000000000000000000000000000000000000008152600401612f7d90614ef5565b60405180910390fd5b805181602001fd5b63150b7a0260e01b7bffffffffffffffffffffffffffffffffffffffffffffffffffffffff1916817bffffffffffffffffffffffffffffffffffffffffffffffffffffffff191614915050612fe3565b600190505b949350505050565b600080600090507a184f03e93ff9f4daa797ed6e38ed64bf6a1f0100000000000000008310613049577a184f03e93ff9f4daa797ed6e38ed64bf6a1f010000000000000000838161303f5761303e614f15565b5b0492506040810190505b6d04ee2d6d415b85acef81000000008310613086576d04ee2d6d415b85acef8100000000838161307c5761307b614f15565b5b0492506020810190505b662386f26fc1000083106130b557662386f26fc1000083816130ab576130aa614f15565b5b0492506010810190505b6305f5e10083106130de576305f5e10083816130d4576130d3614f15565b5b0492506008810190505b61271083106131035761271083816130f9576130f8614f15565b5b0492506004810190505b60648310613126576064838161311c5761311b614f15565b5b0492506002810190505b600a8310613135576001810190505b80915050919050565b600081600001805490509050919050565b600080836001016000848152602001908152602001600020541415905092915050565b60007f5a05180f000000000000000000000000000000000000000000000000000000007bffffffffffffffffffffffffffffffffffffffffffffffffffffffff1916827bffffffffffffffffffffffffffffffffffffffffffffffffffffffff191614806131e557506131e4826135e6565b5b9050919050565b6131f884848484613660565b6132006113b6565b15613240576040517f08c379a000000000000000000000000000000000000000000000000000000000815260040161323790615243565b60405180910390fd5b50505050565b606061326c8273ffffffffffffffffffffffffffffffffffffffff16601460ff16613273565b9050919050565b6060600060028360026132869190614bd9565b613290919061457a565b67ffffffffffffffff8111156132a9576132a8614049565b5b6040519080825280601f01601f1916602001820160405280156132db5781602001600182028036833780820191505090505b5090507f30000000000000000000000000000000000000000000000000000000000000008160008151811061331357613312614888565b5b60200101907effffffffffffffffffffffffffffffffffffffffffffffffffffffffffffff1916908160001a9053507f78000000000000000000000000000000000000000000000000000000000000008160018151811061337757613376614888565b5b60200101907effffffffffffffffffffffffffffffffffffffffffffffffffffffffffffff1916908160001a905350600060018460026133b79190614bd9565b6133c1919061457a565b90505b6001811115613461577f3031323334353637383961626364656600000000000000000000000000000000600f86166010811061340357613402614888565b5b1a60f81b82828151811061341a57613419614888565b5b60200101907effffffffffffffffffffffffffffffffffffffffffffffffffffffffffffff1916908160001a905350600485901c94508061345a90615263565b90506133c4565b50600084146134a5576040517f08c379a000000000000000000000000000000000000000000000000000000000815260040161349c906152d8565b60405180910390fd5b8091505092915050565b600080836001016000848152602001908152602001600020549050600081146135b75760006001826134e19190614ba5565b90506000600186600001805490506134f99190614ba5565b905081811461356857600086600001828154811061351a57613519614888565b5b906000526020600020015490508087600001848154811061353e5761353d614888565b5b90600052602060002001819055508387600101600083815260200190815260200160002081905550505b8560000180548061357c5761357b6152f8565b5b6001900381819060005260206000200160009055905585600101600086815260200190815260200160002060009055600193505050506135bd565b60009150505b92915050565b6000808273ffffffffffffffffffffffffffffffffffffffff163b119050919050565b60007f7965db0b000000000000000000000000000000000000000000000000000000007bffffffffffffffffffffffffffffffffffffffffffffffffffffffff1916827bffffffffffffffffffffffffffffffffffffffffffffffffffffffff191614806136595750613658826137be565b5b9050919050565b61366c84848484613828565b60018111156136b0576040517f08c379a00000000000000000000000000000000000000000000000000000000081526004016136a790615399565b60405180910390fd5b6000829050600073ffffffffffffffffffffffffffffffffffffffff168573ffffffffffffffffffffffffffffffffffffffff16036136f7576136f28161382e565b613736565b8373ffffffffffffffffffffffffffffffffffffffff168573ffffffffffffffffffffffffffffffffffffffff1614613735576137348582613877565b5b5b600073ffffffffffffffffffffffffffffffffffffffff168473ffffffffffffffffffffffffffffffffffffffff160361377857613773816139e4565b6137b7565b8473ffffffffffffffffffffffffffffffffffffffff168473ffffffffffffffffffffffffffffffffffffffff16146137b6576137b58482613ab5565b5b5b5050505050565b60007f01ffc9a7000000000000000000000000000000000000000000000000000000007bffffffffffffffffffffffffffffffffffffffffffffffffffffffff1916827bffffffffffffffffffffffffffffffffffffffffffffffffffffffff1916149050919050565b50505050565b600a80549050600b600083815260200190815260200160002081905550600a81908060018154018082558091505060019003906000526020600020016000909190919091505550565b60006001613884846114fb565b61388e9190614ba5565b9050600060096000848152602001908152602001600020549050818114613973576000600860008673ffffffffffffffffffffffffffffffffffffffff1673ffffffffffffffffffffffffffffffffffffffff168152602001908152602001600020600084815260200190815260200160002054905080600860008773ffffffffffffffffffffffffffffffffffffffff1673ffffffffffffffffffffffffffffffffffffffff168152602001908152602001600020600084815260200190815260200160002081905550816009600083815260200190815260200160002081905550505b6009600084815260200190815260200160002060009055600860008573ffffffffffffffffffffffffffffffffffffffff1673ffffffffffffffffffffffffffffffffffffffff16815260200190815260200160002060008381526020019081526020016000206000905550505050565b60006001600a805490506139f89190614ba5565b90506000600b60008481526020019081526020016000205490506000600a8381548110613a2857613a27614888565b5b9060005260206000200154905080600a8381548110613a4a57613a49614888565b5b906000526020600020018190555081600b600083815260200190815260200160002081905550600b600085815260200190815260200160002060009055600a805480613a9957613a986152f8565b5b6001900381819060005260206000200160009055905550505050565b6000613ac0836114fb565b905081600860008573ffffffffffffffffffffffffffffffffffffffff1673ffffffffffffffffffffffffffffffffffffffff168152602001908152602001600020600083815260200190815260200160002081905550806009600084815260200190815260200160002081905550505050565b6000604051905090565b600080fd5b600080fd5b60007fffffffff0000000000000000000000000000000000000000000000000000000082169050919050565b613b7d81613b48565b8114613b8857600080fd5b50565b600081359050613b9a81613b74565b92915050565b600060208284031215613bb657613bb5613b3e565b5b6000613bc484828501613b8b565b91505092915050565b60008115159050919050565b613be281613bcd565b82525050565b6000602082019050613bfd6000830184613bd9565b92915050565b600081519050919050565b600082825260208201905092915050565b60005b83811015613c3d578082015181840152602081019050613c22565b60008484015250505050565b6000601f19601f8301169050919050565b6000613c6582613c03565b613c6f8185613c0e565b9350613c7f818560208601613c1f565b613c8881613c49565b840191505092915050565b60006020820190508181036000830152613cad8184613c5a565b905092915050565b6000819050919050565b613cc881613cb5565b8114613cd357600080fd5b50565b600081359050613ce581613cbf565b92915050565b600060208284031215613d0157613d00613b3e565b5b6000613d0f84828501613cd6565b91505092915050565b600073ffffffffffffffffffffffffffffffffffffffff82169050919050565b6000613d4382613d18565b9050919050565b613d5381613d38565b82525050565b6000602082019050613d6e6000830184613d4a565b92915050565b6000613d7f82613d18565b9050919050565b613d8f81613d74565b82525050565b6000602082019050613daa6000830184613d86565b92915050565b613db981613d38565b8114613dc457600080fd5b50565b600081359050613dd681613db0565b92915050565b60008060408385031215613df357613df2613b3e565b5b6000613e0185828601613dc7565b9250506020613e1285828601613cd6565b9150509250929050565b613e2581613cb5565b82525050565b6000602082019050613e406000830184613e1c565b92915050565b600080600060608486031215613e5f57613e5e613b3e565b5b6000613e6d86828701613dc7565b9350506020613e7e86828701613dc7565b9250506040613e8f86828701613cd6565b9150509250925092565b6000819050919050565b613eac81613e99565b8114613eb757600080fd5b50565b600081359050613ec981613ea3565b92915050565b600060208284031215613ee557613ee4613b3e565b5b6000613ef384828501613eba565b91505092915050565b613f0581613e99565b82525050565b6000602082019050613f206000830184613efc565b92915050565b60008060408385031215613f3d57613f3c613b3e565b5b6000613f4b85828601613eba565b9250506020613f5c85828601613dc7565b9150509250929050565b600060208284031215613f7c57613f7b613b3e565b5b6000613f8a84828501613dc7565b91505092915050565b60008060408385031215613faa57613fa9613b3e565b5b6000613fb885828601613eba565b9250506020613fc985828601613cd6565b9150509250929050565b613fdc81613bcd565b8114613fe757600080fd5b50565b600081359050613ff981613fd3565b92915050565b6000806040838503121561401657614015613b3e565b5b600061402485828601613dc7565b925050602061403585828601613fea565b9150509250929050565b600080fd5b600080fd5b7f4e487b7100000000000000000000000000000000000000000000000000000000600052604160045260246000fd5b61408182613c49565b810181811067ffffffffffffffff821117156140a05761409f614049565b5b80604052505050565b60006140b3613b34565b90506140bf8282614078565b919050565b600067ffffffffffffffff8211156140df576140de614049565b5b6140e882613c49565b9050602081019050919050565b82818337600083830152505050565b6000614117614112846140c4565b6140a9565b90508281526020810184848401111561413357614132614044565b5b61413e8482856140f5565b509392505050565b600082601f83011261415b5761415a61403f565b5b813561416b848260208601614104565b91505092915050565b6000806000806080858703121561418e5761418d613b3e565b5b600061419c87828801613dc7565b94505060206141ad87828801613dc7565b93505060406141be87828801613cd6565b925050606085013567ffffffffffffffff8111156141df576141de613b43565b5b6141eb87828801614146565b91505092959194509250565b6000806040838503121561420e5761420d613b3e565b5b600061421c85828601613dc7565b925050602061422d85828601613dc7565b9150509250929050565b7f4e487b7100000000000000000000000000000000000000000000000000000000600052602260045260246000fd5b6000600282049050600182168061427e57607f821691505b60208210810361429157614290614237565b5b50919050565b7f4552433732313a20617070726f76616c20746f2063757272656e74206f776e6560008201527f7200000000000000000000000000000000000000000000000000000000000000602082015250565b60006142f3602183613c0e565b91506142fe82614297565b604082019050919050565b60006020820190508181036000830152614322816142e6565b9050919050565b7f4552433732313a20617070726f76652063616c6c6572206973206e6f7420746f60008201527f6b656e206f776e6572206f7220617070726f76656420666f7220616c6c000000602082015250565b6000614385603d83613c0e565b915061439082614329565b604082019050919050565b600060208201905081810360008301526143b481614378565b9050919050565b7f41756374696f6e2068617320656e646564000000000000000000000000000000600082015250565b60006143f1601183613c0e565b91506143fc826143bb565b602082019050919050565b60006020820190508181036000830152614420816143e4565b9050919050565b7f42696420616d6f756e74206d7573742062652067726561746572207468616e2060008201527f3000000000000000000000000000000000000000000000000000000000000000602082015250565b6000614483602183613c0e565b915061448e82614427565b604082019050919050565b600060208201905081810360008301526144b281614476565b9050919050565b7f42696420616d6f756e74206973206c6f776572207468616e2063757272656e7460008201527f2070726963650000000000000000000000000000000000000000000000000000602082015250565b6000614515602683613c0e565b9150614520826144b9565b604082019050919050565b6000602082019050818103600083015261454481614508565b9050919050565b7f4e487b7100000000000000000000000000000000000000000000000000000000600052601160045260246000fd5b600061458582613cb5565b915061459083613cb5565b92508282019050808211156145a8576145a761454b565b5b92915050565b7f4552433732313a2063616c6c6572206973206e6f7420746f6b656e206f776e6560008201527f72206f7220617070726f76656400000000000000000000000000000000000000602082015250565b600061460a602d83613c0e565b9150614615826145ae565b604082019050919050565b60006020820190508181036000830152614639816145fd565b9050919050565b7f455243373231456e756d657261626c653a206f776e657220696e646578206f7560008201527f74206f6620626f756e6473000000000000000000000000000000000000000000602082015250565b600061469c602b83613c0e565b91506146a782614640565b604082019050919050565b600060208201905081810360008301526146cb8161468f565b9050919050565b7f416363657373436f6e74726f6c3a2063616e206f6e6c792072656e6f756e636560008201527f20726f6c657320666f722073656c660000000000000000000000000000000000602082015250565b600061472e602f83613c0e565b9150614739826146d2565b604082019050919050565b6000602082019050818103600083015261475d81614721565b9050919050565b7f4552433732315072657365744d696e7465725061757365724175746f49643a2060008201527f6d75737420686176652070617573657220726f6c6520746f20756e7061757365602082015250565b60006147c0604083613c0e565b91506147cb82614764565b604082019050919050565b600060208201905081810360008301526147ef816147b3565b9050919050565b7f455243373231456e756d657261626c653a20676c6f62616c20696e646578206f60008201527f7574206f6620626f756e64730000000000000000000000000000000000000000602082015250565b6000614852602c83613c0e565b915061485d826147f6565b604082019050919050565b6000602082019050818103600083015261488181614845565b9050919050565b7f4e487b7100000000000000000000000000000000000000000000000000000000600052603260045260246000fd5b7f4552433732313a20696e76616c696420746f6b656e2049440000000000000000600082015250565b60006148ed601883613c0e565b91506148f8826148b7565b602082019050919050565b6000602082019050818103600083015261491c816148e0565b9050919050565b7f4552433732315072657365744d696e7465725061757365724175746f49643a2060008201527f6d7573742068617665206d696e74657220726f6c6520746f206d696e74000000602082015250565b600061497f603d83613c0e565b915061498a82614923565b604082019050919050565b600060208201905081810360008301526149ae81614972565b9050919050565b7f4552433732313a2061646472657373207a65726f206973206e6f74206120766160008201527f6c6964206f776e65720000000000000000000000000000000000000000000000602082015250565b6000614a11602983613c0e565b9150614a1c826149b5565b604082019050919050565b60006020820190508181036000830152614a4081614a04565b9050919050565b7f4552433732315072657365744d696e7465725061757365724175746f49643a2060008201527f6d75737420686176652070617573657220726f6c6520746f2070617573650000602082015250565b6000614aa3603e83613c0e565b9150614aae82614a47565b604082019050919050565b60006020820190508181036000830152614ad281614a96565b9050919050565b7f4e6f20726566756e6420617661696c61626c6500000000000000000000000000600082015250565b6000614b0f601383613c0e565b9150614b1a82614ad9565b602082019050919050565b60006020820190508181036000830152614b3e81614b02565b9050919050565b600081905092915050565b6000614b5b82613c03565b614b658185614b45565b9350614b75818560208601613c1f565b80840191505092915050565b6000614b8d8285614b50565b9150614b998284614b50565b91508190509392505050565b6000614bb082613cb5565b9150614bbb83613cb5565b9250828203905081811115614bd357614bd261454b565b5b92915050565b6000614be482613cb5565b9150614bef83613cb5565b9250828202614bfd81613cb5565b91508282048414831517614c1457614c1361454b565b5b5092915050565b7f4552433732313a207472616e736665722066726f6d20696e636f72726563742060008201527f6f776e6572000000000000000000000000000000000000000000000000000000602082015250565b6000614c77602583613c0e565b9150614c8282614c1b565b604082019050919050565b60006020820190508181036000830152614ca681614c6a565b9050919050565b7f4552433732313a207472616e7366657220746f20746865207a65726f2061646460008201527f7265737300000000000000000000000000000000000000000000000000000000602082015250565b6000614d09602483613c0e565b9150614d1482614cad565b604082019050919050565b60006020820190508181036000830152614d3881614cfc565b9050919050565b7f4552433732313a206d696e7420746f20746865207a65726f2061646472657373600082015250565b6000614d75602083613c0e565b9150614d8082614d3f565b602082019050919050565b60006020820190508181036000830152614da481614d68565b9050919050565b7f4552433732313a20746f6b656e20616c7265616479206d696e74656400000000600082015250565b6000614de1601c83613c0e565b9150614dec82614dab565b602082019050919050565b60006020820190508181036000830152614e1081614dd4565b9050919050565b7f4552433732313a20617070726f766520746f2063616c6c657200000000000000600082015250565b6000614e4d601983613c0e565b9150614e5882614e17565b602082019050919050565b60006020820190508181036000830152614e7c81614e40565b9050919050565b7f4552433732313a207472616e7366657220746f206e6f6e20455243373231526560008201527f63656976657220696d706c656d656e7465720000000000000000000000000000602082015250565b6000614edf603283613c0e565b9150614eea82614e83565b604082019050919050565b60006020820190508181036000830152614f0e81614ed2565b9050919050565b7f4e487b7100000000000000000000000000000000000000000000000000000000600052601260045260246000fd5b7f416363657373436f6e74726f6c3a206163636f756e7420000000000000000000600082015250565b6000614f7a601783614b45565b9150614f8582614f44565b601782019050919050565b7f206973206d697373696e6720726f6c6520000000000000000000000000000000600082015250565b6000614fc6601183614b45565b9150614fd182614f90565b601182019050919050565b6000614fe782614f6d565b9150614ff38285614b50565b9150614ffe82614fb9565b915061500a8284614b50565b91508190509392505050565b7f5061757361626c653a206e6f7420706175736564000000000000000000000000600082015250565b600061504c601483613c0e565b915061505782615016565b602082019050919050565b6000602082019050818103600083015261507b8161503f565b9050919050565b7f5061757361626c653a2070617573656400000000000000000000000000000000600082015250565b60006150b8601083613c0e565b91506150c382615082565b602082019050919050565b600060208201905081810360008301526150e7816150ab565b9050919050565b600081519050919050565b600082825260208201905092915050565b6000615115826150ee565b61511f81856150f9565b935061512f818560208601613c1f565b61513881613c49565b840191505092915050565b60006080820190506151586000830187613d4a565b6151656020830186613d4a565b6151726040830185613e1c565b8181036060830152615184818461510a565b905095945050505050565b60008151905061519e81613b74565b92915050565b6000602082840312156151ba576151b9613b3e565b5b60006151c88482850161518f565b91505092915050565b7f4552433732315061757361626c653a20746f6b656e207472616e73666572207760008201527f68696c6520706175736564000000000000000000000000000000000000000000602082015250565b600061522d602b83613c0e565b9150615238826151d1565b604082019050919050565b6000602082019050818103600083015261525c81615220565b9050919050565b600061526e82613cb5565b9150600082036152815761528061454b565b5b600182039050919050565b7f537472696e67733a20686578206c656e67746820696e73756666696369656e74600082015250565b60006152c2602083613c0e565b91506152cd8261528c565b602082019050919050565b600060208201905081810360008301526152f1816152b5565b9050919050565b7f4e487b7100000000000000000000000000000000000000000000000000000000600052603160045260246000fd5b7f455243373231456e756d657261626c653a20636f6e736563757469766520747260008201527f616e7366657273206e6f7420737570706f727465640000000000000000000000602082015250565b6000615383603583613c0e565b915061538e82615327565b604082019050919050565b600060208201905081810360008301526153b281615376565b905091905056fea2646970667358221220f59ee4a432bdc324b8d1654b6671549b41a9d095b5d81c873d207727383413be64736f6c63430008120033",
  "linkReferences": {},
  "deployedLinkReferences": {}
}