{
  "_format": "hh-sol-artifact-1",
  "contractName": "YYToken",
  "sourceName": "contracts/YYToken.sol",
  "abi": [
    {
      "inputs": [
        {
          "internalType": "uint256",
          "name": "initialSupply",
          "type": "uint256"
        }
      ],
      "stateMutability": "nonpayable",
      "type": "constructor"
    },
    {
      "inputs": [],
      "name": "InvalidShortString",
      "type": "error"
    },
    {
      "inputs": [
        {
          "internalType": "string",
          "name": "str",
          "type": "string"
        }
      ],
      "name": "StringTooLong",
      "type": "error"
    },
    {
      "anonymous": false,
      "inputs": [
        {
          "indexed": true,
          "internalType": "address",
          "name": "owner",
          "type": "address"
        },
        {
          "indexed": true,
          "internalType": "address",
          "name": "spender",
          "type": "address"
        },
        {
          "indexed": false,
          "internalType": "uint256",
          "name": "value",
          "type": "uint256"
        }
      ],
      "name": "Approval",
      "type": "event"
    },
    {
      "anonymous": false,
      "inputs": [],
      "name": "EIP712DomainChanged",
      "type": "event"
    },
    {
      "anonymous": false,
      "inputs": [
        {
          "indexed": true,
          "internalType": "address",
          "name": "from",
          "type": "address"
        },
        {
          "indexed": true,
          "internalType": "address",
          "name": "to",
          "type": "address"
        },
        {
          "indexed": false,
          "internalType": "uint256",
          "name": "value",
          "type": "uint256"
        }
      ],
      "name": "Transfer",
      "type": "event"
    },
    {
      "inputs": [],
      "name": "DOMAIN_SEPARATOR",
      "outputs": [
        {
          "internalType": "bytes32",
          "name": "",
          "type": "bytes32"
        }
      ],
      "stateMutability": "view",
      "type": "function"
    },
    {
      "inputs": [
        {
          "internalType": "address",
          "name": "owner",
          "type": "address"
        },
        {
          "internalType": "address",
          "name": "spender",
          "type": "address"
        }
      ],
      "name": "allowance",
      "outputs": [
        {
          "internalType": "uint256",
          "name": "",
          "type": "uint256"
        }
      ],
      "stateMutability": "view",
      "type": "function"
    },
    {
      "inputs": [
        {
          "internalType": "address",
          "name": "spender",
          "type": "address"
        },
        {
          "internalType": "uint256",
          "name": "amount",
          "type": "uint256"
        }
      ],
      "name": "approve",
      "outputs": [
        {
          "internalType": "bool",
          "name": "",
          "type": "bool"
        }
      ],
      "stateMutability": "nonpayable",
      "type": "function"
    },
    {
      "inputs": [
        {
          "internalType": "address",
          "name": "account",
          "type": "address"
        }
      ],
      "name": "balanceOf",
      "outputs": [
        {
          "internalType": "uint256",
          "name": "",
          "type": "uint256"
        }
      ],
      "stateMutability": "view",
      "type": "function"
    },
    {
      "inputs": [],
      "name": "decimals",
      "outputs": [
        {
          "internalType": "uint8",
          "name": "",
          "type": "uint8"
        }
      ],
      "stateMutability": "view",
      "type": "function"
    },
    {
      "inputs": [
        {
          "internalType": "address",
          "name": "spender",
          "type": "address"
        },
        {
          "internalType": "uint256",
          "name": "subtractedValue",
          "type": "uint256"
        }
      ],
      "name": "decreaseAllowance",
      "outputs": [
        {
          "internalType": "bool",
          "name": "",
          "type": "bool"
        }
      ],
      "stateMutability": "nonpayable",
      "type": "function"
    },
    {
      "inputs": [],
      "name": "eip712Domain",
      "outputs": [
        {
          "internalType": "bytes1",
          "name": "fields",
          "type": "bytes1"
        },
        {
          "internalType": "string",
          "name": "name",
          "type": "string"
        },
        {
          "internalType": "string",
          "name": "version",
          "type": "string"
        },
        {
          "internalType": "uint256",
          "name": "chainId",
          "type": "uint256"
        },
        {
          "internalType": "address",
          "name": "verifyingContract",
          "type": "address"
        },
        {
          "internalType": "bytes32",
          "name": "salt",
          "type": "bytes32"
        },
        {
          "internalType": "uint256[]",
          "name": "extensions",
          "type": "uint256[]"
        }
      ],
      "stateMutability": "view",
      "type": "function"
    },
    {
      "inputs": [
        {
          "internalType": "address",
          "name": "spender",
          "type": "address"
        },
        {
          "internalType": "uint256",
          "name": "addedValue",
          "type": "uint256"
        }
      ],
      "name": "increaseAllowance",
      "outputs": [
        {
          "internalType": "bool",
          "name": "",
          "type": "bool"
        }
      ],
      "stateMutability": "nonpayable",
      "type": "function"
    },
    {
      "inputs": [],
      "name": "name",
      "outputs": [
        {
          "internalType": "string",
          "name": "",
          "type": "string"
        }
      ],
      "stateMutability": "view",
      "type": "function"
    },
    {
      "inputs": [
        {
          "internalType": "address",
          "name": "owner",
          "type": "address"
        }
      ],
      "name": "nonces",
      "outputs": [
        {
          "internalType": "uint256",
          "name": "",
          "type": "uint256"
        }
      ],
      "stateMutability": "view",
      "type": "function"
    },
    {
      "inputs": [
        {
          "internalType": "address",
          "name": "owner",
          "type": "address"
        },
        {
          "internalType": "address",
          "name": "spender",
          "type": "address"
        },
        {
          "internalType": "uint256",
          "name": "value",
          "type": "uint256"
        },
        {
          "internalType": "uint256",
          "name": "deadline",
          "type": "uint256"
        },
        {
          "internalType": "uint8",
          "name": "v",
          "type": "uint8"
        },
        {
          "internalType": "bytes32",
          "name": "r",
          "type": "bytes32"
        },
        {
          "internalType": "bytes32",
          "name": "s",
          "type": "bytes32"
        }
      ],
      "name": "permit",
      "outputs": [],
      "stateMutability": "nonpayable",
      "type": "function"
    },
    {
      "inputs": [],
      "name": "symbol",
      "outputs": [
        {
          "internalType": "string",
          "name": "",
          "type": "string"
        }
      ],
      "stateMutability": "view",
      "type": "function"
    },
    {
      "inputs": [],
      "name": "totalSupply",
      "outputs": [
        {
          "internalType": "uint256",
          "name": "",
          "type": "uint256"
        }
      ],
      "stateMutability": "view",
      "type": "function"
    },
    {
      "inputs": [
        {
          "internalType": "address",
          "name": "to",
          "type": "address"
        },
        {
          "internalType": "uint256",
          "name": "amount",
          "type": "uint256"
        }
      ],
      "name": "transfer",
      "outputs": [
        {
          "internalType": "bool",
          "name": "",
          "type": "bool"
        }
      ],
      "stateMutability": "nonpayable",
      "type": "function"
    },
    {
      "inputs": [
        {
          "internalType": "address",
          "name": "from",
          "type": "address"
        },
        {
          "internalType": "address",
          "name": "to",
          "type": "address"
        },
        {
          "internalType": "uint256",
          "name": "amount",
          "type": "uint256"
        }
      ],
      "name": "transferFrom",
      "outputs": [
        {
          "internalType": "bool",
          "name": "",
          "type": "bool"
        }
      ],
      "stateMutability": "nonpayable",
      "type": "function"
    }
  ],
  "bytecode": "0x6101606040523480156200001257600080fd5b50604051620032253803806200322583398181016040528101906200003891906200054a565b6040518060400160405280601181526020017f447574636841756374696f6e546f6b656e000000000000000000000000000000815250806040518060400160405280600181526020017f31000000000000000000000000000000000000000000000000000000000000008152506040518060400160405280600581526020017f59616f59650000000000000000000000000000000000000000000000000000008152506040518060400160405280600281526020017f59590000000000000000000000000000000000000000000000000000000000008152508160039081620001229190620007ec565b508060049081620001349190620007ec565b505050620001526005836200025f60201b6200091c1790919060201c565b6101208181525050620001756006826200025f60201b6200091c1790919060201c565b6101408181525050818051906020012060e08181525050808051906020012061010081815250504660a08181525050620001b4620002bc60201b60201c565b608081815250503073ffffffffffffffffffffffffffffffffffffffff1660c08173ffffffffffffffffffffffffffffffffffffffff16815250505050506200020e67b165835875ac174360c01b6200031960201b60201c565b6200022a677b39ec03a5b9b06060c01b6200031960201b60201c565b620002466773d4388452b29e1260c01b6200031960201b60201c565b6200025833826200031c60201b60201c565b5062000bef565b600060208351101562000285576200027d836200048960201b60201c565b9050620002b6565b826200029c83620004f660201b620009601760201c565b6000019081620002ad9190620007ec565b5060ff60001b90505b92915050565b60007f8b73c3c69bb8fe3d512ecc4cf759cc79239f7b179b0ffacaa9a75d522b39400f60e051610100514630604051602001620002fe95949392919062000944565b60405160208183030381529060405280519060200120905090565b50565b600073ffffffffffffffffffffffffffffffffffffffff168273ffffffffffffffffffffffffffffffffffffffff16036200038e576040517f08c379a0000000000000000000000000000000000000000000000000000000008152600401620003859062000a02565b60405180910390fd5b620003a2600083836200050060201b60201c565b8060026000828254620003b6919062000a53565b92505081905550806000808473ffffffffffffffffffffffffffffffffffffffff1673ffffffffffffffffffffffffffffffffffffffff168152602001908152602001600020600082825401925050819055508173ffffffffffffffffffffffffffffffffffffffff16600073ffffffffffffffffffffffffffffffffffffffff167fddf252ad1be2c89b69c2b068fc378daa952ba7f163c4a11628f55a4df523b3ef8360405162000469919062000a8e565b60405180910390a362000485600083836200050560201b60201c565b5050565b600080829050601f81511115620004d957826040517f305a27a9000000000000000000000000000000000000000000000000000000008152600401620004d0919062000b29565b60405180910390fd5b805181620004e79062000b7f565b60001c1760001b915050919050565b6000819050919050565b505050565b505050565b600080fd5b6000819050919050565b62000524816200050f565b81146200053057600080fd5b50565b600081519050620005448162000519565b92915050565b6000602082840312156200056357620005626200050a565b5b6000620005738482850162000533565b91505092915050565b600081519050919050565b7f4e487b7100000000000000000000000000000000000000000000000000000000600052604160045260246000fd5b7f4e487b7100000000000000000000000000000000000000000000000000000000600052602260045260246000fd5b60006002820490506001821680620005fe57607f821691505b602082108103620006145762000613620005b6565b5b50919050565b60008190508160005260206000209050919050565b60006020601f8301049050919050565b600082821b905092915050565b6000600883026200067e7fffffffffffffffffffffffffffffffffffffffffffffffffffffffffffffffff826200063f565b6200068a86836200063f565b95508019841693508086168417925050509392505050565b6000819050919050565b6000620006cd620006c7620006c1846200050f565b620006a2565b6200050f565b9050919050565b6000819050919050565b620006e983620006ac565b62000701620006f882620006d4565b8484546200064c565b825550505050565b600090565b6200071862000709565b62000725818484620006de565b505050565b5b818110156200074d57620007416000826200070e565b6001810190506200072b565b5050565b601f8211156200079c5762000766816200061a565b62000771846200062f565b8101602085101562000781578190505b6200079962000790856200062f565b8301826200072a565b50505b505050565b600082821c905092915050565b6000620007c160001984600802620007a1565b1980831691505092915050565b6000620007dc8383620007ae565b9150826002028217905092915050565b620007f7826200057c565b67ffffffffffffffff81111562000813576200081262000587565b5b6200081f8254620005e5565b6200082c82828562000751565b600060209050601f8311600181146200086457600084156200084f578287015190505b6200085b8582620007ce565b865550620008cb565b601f19841662000874866200061a565b60005b828110156200089e5784890151825560018201915060208501945060208101905062000877565b86831015620008be5784890151620008ba601f891682620007ae565b8355505b6001600288020188555050505b505050505050565b6000819050919050565b620008e881620008d3565b82525050565b620008f9816200050f565b82525050565b600073ffffffffffffffffffffffffffffffffffffffff82169050919050565b60006200092c82620008ff565b9050919050565b6200093e816200091f565b82525050565b600060a0820190506200095b6000830188620008dd565b6200096a6020830187620008dd565b620009796040830186620008dd565b620009886060830185620008ee565b62000997608083018462000933565b9695505050505050565b600082825260208201905092915050565b7f45524332303a206d696e7420746f20746865207a65726f206164647265737300600082015250565b6000620009ea601f83620009a1565b9150620009f782620009b2565b602082019050919050565b6000602082019050818103600083015262000a1d81620009db565b9050919050565b7f4e487b7100000000000000000000000000000000000000000000000000000000600052601160045260246000fd5b600062000a60826200050f565b915062000a6d836200050f565b925082820190508082111562000a885762000a8762000a24565b5b92915050565b600060208201905062000aa56000830184620008ee565b92915050565b60005b8381101562000acb57808201518184015260208101905062000aae565b60008484015250505050565b6000601f19601f8301169050919050565b600062000af5826200057c565b62000b018185620009a1565b935062000b1381856020860162000aab565b62000b1e8162000ad7565b840191505092915050565b6000602082019050818103600083015262000b45818462000ae8565b905092915050565b600081519050919050565b6000819050602082019050919050565b600062000b768251620008d3565b80915050919050565b600062000b8c8262000b4d565b8262000b988462000b58565b905062000ba58162000b68565b9250602082101562000be85762000be37fffffffffffffffffffffffffffffffffffffffffffffffffffffffffffffffff836020036008026200063f565b831692505b5050919050565b60805160a05160c05160e0516101005161012051610140516125db62000c4a600039600061056c015260006105380152600061110d015260006110ec01526000610e4101526000610e9701526000610ec001526125db6000f3fe608060405234801561001057600080fd5b50600436106100f55760003560e01c806370a0823111610097578063a457c2d711610066578063a457c2d7146102a4578063a9059cbb146102d4578063d505accf14610304578063dd62ed3e14610320576100f5565b806370a08231146102025780637ecebe001461023257806384b0196e1461026257806395d89b4114610286576100f5565b806323b872dd116100d357806323b872dd14610166578063313ce567146101965780633644e515146101b457806339509351146101d2576100f5565b806306fdde03146100fa578063095ea7b31461011857806318160ddd14610148575b600080fd5b610102610350565b60405161010f9190611550565b60405180910390f35b610132600480360381019061012d919061160b565b6103e2565b60405161013f9190611666565b60405180910390f35b610150610405565b60405161015d9190611690565b60405180910390f35b610180600480360381019061017b91906116ab565b61040f565b60405161018d9190611666565b60405180910390f35b61019e61043e565b6040516101ab919061171a565b60405180910390f35b6101bc610447565b6040516101c9919061174e565b60405180910390f35b6101ec60048036038101906101e7919061160b565b610456565b6040516101f99190611666565b60405180910390f35b61021c60048036038101906102179190611769565b61048d565b6040516102299190611690565b60405180910390f35b61024c60048036038101906102479190611769565b6104d5565b6040516102599190611690565b60405180910390f35b61026a610525565b60405161027d979695949392919061189e565b60405180910390f35b61028e610627565b60405161029b9190611550565b60405180910390f35b6102be60048036038101906102b9919061160b565b6106b9565b6040516102cb9190611666565b60405180910390f35b6102ee60048036038101906102e9919061160b565b610730565b6040516102fb9190611666565b60405180910390f35b61031e6004803603810190610319919061197a565b610753565b005b61033a60048036038101906103359190611a1c565b610895565b6040516103479190611690565b60405180910390f35b60606003805461035f90611a8b565b80601f016020809104026020016040519081016040528092919081815260200182805461038b90611a8b565b80156103d85780601f106103ad576101008083540402835291602001916103d8565b820191906000526020600020905b8154815290600101906020018083116103bb57829003601f168201915b5050505050905090565b6000806103ed61096a565b90506103fa818585610972565b600191505092915050565b6000600254905090565b60008061041a61096a565b9050610427858285610b3b565b610432858585610bc7565b60019150509392505050565b60006012905090565b6000610451610e3d565b905090565b60008061046161096a565b90506104828185856104738589610895565b61047d9190611aeb565b610972565b600191505092915050565b60008060008373ffffffffffffffffffffffffffffffffffffffff1673ffffffffffffffffffffffffffffffffffffffff168152602001908152602001600020549050919050565b600061051e600760008473ffffffffffffffffffffffffffffffffffffffff1673ffffffffffffffffffffffffffffffffffffffff168152602001908152602001600020610ef4565b9050919050565b60006060806000806000606061056560057f0000000000000000000000000000000000000000000000000000000000000000610f0290919063ffffffff16565b61059960067f0000000000000000000000000000000000000000000000000000000000000000610f0290919063ffffffff16565b46306000801b600067ffffffffffffffff8111156105ba576105b9611b1f565b5b6040519080825280602002602001820160405280156105e85781602001602082028036833780820191505090505b507f0f00000000000000000000000000000000000000000000000000000000000000959493929190965096509650965096509650965090919293949596565b60606004805461063690611a8b565b80601f016020809104026020016040519081016040528092919081815260200182805461066290611a8b565b80156106af5780601f10610684576101008083540402835291602001916106af565b820191906000526020600020905b81548152906001019060200180831161069257829003601f168201915b5050505050905090565b6000806106c461096a565b905060006106d28286610895565b905083811015610717576040517f08c379a000000000000000000000000000000000000000000000000000000000815260040161070e90611bc0565b60405180910390fd5b6107248286868403610972565b60019250505092915050565b60008061073b61096a565b9050610748818585610bc7565b600191505092915050565b83421115610796576040517f08c379a000000000000000000000000000000000000000000000000000000000815260040161078d90611c2c565b60405180910390fd5b60007f6e71edae12b1b97f4d1f60370fef10105fa2faae0126114a169c64845d6126c98888886107c58c610fb2565b896040516020016107db96959493929190611c4c565b60405160208183030381529060405280519060200120905060006107fe82611010565b9050600061080e8287878761102a565b90508973ffffffffffffffffffffffffffffffffffffffff168173ffffffffffffffffffffffffffffffffffffffff161461087e576040517f08c379a000000000000000000000000000000000000000000000000000000000815260040161087590611cf9565b60405180910390fd5b6108898a8a8a610972565b50505050505050505050565b6000600160008473ffffffffffffffffffffffffffffffffffffffff1673ffffffffffffffffffffffffffffffffffffffff16815260200190815260200160002060008373ffffffffffffffffffffffffffffffffffffffff1673ffffffffffffffffffffffffffffffffffffffff16815260200190815260200160002054905092915050565b60006020835110156109385761093183611055565b905061095a565b8261094283610960565b60000190816109519190611ec5565b5060ff60001b90505b92915050565b6000819050919050565b600033905090565b600073ffffffffffffffffffffffffffffffffffffffff168373ffffffffffffffffffffffffffffffffffffffff16036109e1576040517f08c379a00000000000000000000000000000000000000000000000000000000081526004016109d890612009565b60405180910390fd5b600073ffffffffffffffffffffffffffffffffffffffff168273ffffffffffffffffffffffffffffffffffffffff1603610a50576040517f08c379a0000000000000000000000000000000000000000000000000000000008152600401610a479061209b565b60405180910390fd5b80600160008573ffffffffffffffffffffffffffffffffffffffff1673ffffffffffffffffffffffffffffffffffffffff16815260200190815260200160002060008473ffffffffffffffffffffffffffffffffffffffff1673ffffffffffffffffffffffffffffffffffffffff168152602001908152602001600020819055508173ffffffffffffffffffffffffffffffffffffffff168373ffffffffffffffffffffffffffffffffffffffff167f8c5be1e5ebec7d5bd14f71427d1e84f3dd0314c0f7b2291e5b200ac8c7c3b92583604051610b2e9190611690565b60405180910390a3505050565b6000610b478484610895565b90507fffffffffffffffffffffffffffffffffffffffffffffffffffffffffffffffff8114610bc15781811015610bb3576040517f08c379a0000000000000000000000000000000000000000000000000000000008152600401610baa90612107565b60405180910390fd5b610bc08484848403610972565b5b50505050565b600073ffffffffffffffffffffffffffffffffffffffff168373ffffffffffffffffffffffffffffffffffffffff1603610c36576040517f08c379a0000000000000000000000000000000000000000000000000000000008152600401610c2d90612199565b60405180910390fd5b600073ffffffffffffffffffffffffffffffffffffffff168273ffffffffffffffffffffffffffffffffffffffff1603610ca5576040517f08c379a0000000000000000000000000000000000000000000000000000000008152600401610c9c9061222b565b60405180910390fd5b610cb08383836110bd565b60008060008573ffffffffffffffffffffffffffffffffffffffff1673ffffffffffffffffffffffffffffffffffffffff16815260200190815260200160002054905081811015610d36576040517f08c379a0000000000000000000000000000000000000000000000000000000008152600401610d2d906122bd565b60405180910390fd5b8181036000808673ffffffffffffffffffffffffffffffffffffffff1673ffffffffffffffffffffffffffffffffffffffff16815260200190815260200160002081905550816000808573ffffffffffffffffffffffffffffffffffffffff1673ffffffffffffffffffffffffffffffffffffffff168152602001908152602001600020600082825401925050819055508273ffffffffffffffffffffffffffffffffffffffff168473ffffffffffffffffffffffffffffffffffffffff167fddf252ad1be2c89b69c2b068fc378daa952ba7f163c4a11628f55a4df523b3ef84604051610e249190611690565b60405180910390a3610e378484846110c2565b50505050565b60007f000000000000000000000000000000000000000000000000000000000000000073ffffffffffffffffffffffffffffffffffffffff163073ffffffffffffffffffffffffffffffffffffffff16148015610eb957507f000000000000000000000000000000000000000000000000000000000000000046145b15610ee6577f00000000000000000000000000000000000000000000000000000000000000009050610ef1565b610eee6110c7565b90505b90565b600081600001549050919050565b606060ff60001b8314610f1f57610f188361115d565b9050610fac565b818054610f2b90611a8b565b80601f0160208091040260200160405190810160405280929190818152602001828054610f5790611a8b565b8015610fa45780601f10610f7957610100808354040283529160200191610fa4565b820191906000526020600020905b815481529060010190602001808311610f8757829003601f168201915b505050505090505b92915050565b600080600760008473ffffffffffffffffffffffffffffffffffffffff1673ffffffffffffffffffffffffffffffffffffffff1681526020019081526020016000209050610fff81610ef4565b915061100a816111d1565b50919050565b600061102361101d610e3d565b836111e7565b9050919050565b600080600061103b87878787611228565b915091506110488161130a565b8192505050949350505050565b600080829050601f815111156110a257826040517f305a27a90000000000000000000000000000000000000000000000000000000081526004016110999190611550565b60405180910390fd5b8051816110ae9061230d565b60001c1760001b915050919050565b505050565b505050565b60007f8b73c3c69bb8fe3d512ecc4cf759cc79239f7b179b0ffacaa9a75d522b39400f7f00000000000000000000000000000000000000000000000000000000000000007f00000000000000000000000000000000000000000000000000000000000000004630604051602001611142959493929190612374565b60405160208183030381529060405280519060200120905090565b6060600061116a83611470565b90506000602067ffffffffffffffff81111561118957611188611b1f565b5b6040519080825280601f01601f1916602001820160405280156111bb5781602001600182028036833780820191505090505b5090508181528360208201528092505050919050565b6001816000016000828254019250508190555050565b60006040517f190100000000000000000000000000000000000000000000000000000000000081528360028201528260228201526042812091505092915050565b6000807f7fffffffffffffffffffffffffffffff5d576e7357a4501ddfe92f46681b20a08360001c1115611263576000600391509150611301565b60006001878787876040516000815260200160405260405161128894939291906123c7565b6020604051602081039080840390855afa1580156112aa573d6000803e3d6000fd5b505050602060405103519050600073ffffffffffffffffffffffffffffffffffffffff168173ffffffffffffffffffffffffffffffffffffffff16036112f857600060019250925050611301565b80600092509250505b94509492505050565b6000600481111561131e5761131d61240c565b5b8160048111156113315761133061240c565b5b031561146d576001600481111561134b5761134a61240c565b5b81600481111561135e5761135d61240c565b5b0361139e576040517f08c379a000000000000000000000000000000000000000000000000000000000815260040161139590612487565b60405180910390fd5b600260048111156113b2576113b161240c565b5b8160048111156113c5576113c461240c565b5b03611405576040517f08c379a00000000000000000000000000000000000000000000000000000000081526004016113fc906124f3565b60405180910390fd5b600360048111156114195761141861240c565b5b81600481111561142c5761142b61240c565b5b0361146c576040517f08c379a000000000000000000000000000000000000000000000000000000000815260040161146390612585565b60405180910390fd5b5b50565b60008060ff8360001c169050601f8111156114b7576040517fb3512b0c00000000000000000000000000000000000000000000000000000000815260040160405180910390fd5b80915050919050565b600081519050919050565b600082825260208201905092915050565b60005b838110156114fa5780820151818401526020810190506114df565b60008484015250505050565b6000601f19601f8301169050919050565b6000611522826114c0565b61152c81856114cb565b935061153c8185602086016114dc565b61154581611506565b840191505092915050565b6000602082019050818103600083015261156a8184611517565b905092915050565b600080fd5b600073ffffffffffffffffffffffffffffffffffffffff82169050919050565b60006115a282611577565b9050919050565b6115b281611597565b81146115bd57600080fd5b50565b6000813590506115cf816115a9565b92915050565b6000819050919050565b6115e8816115d5565b81146115f357600080fd5b50565b600081359050611605816115df565b92915050565b6000806040838503121561162257611621611572565b5b6000611630858286016115c0565b9250506020611641858286016115f6565b9150509250929050565b60008115159050919050565b6116608161164b565b82525050565b600060208201905061167b6000830184611657565b92915050565b61168a816115d5565b82525050565b60006020820190506116a56000830184611681565b92915050565b6000806000606084860312156116c4576116c3611572565b5b60006116d2868287016115c0565b93505060206116e3868287016115c0565b92505060406116f4868287016115f6565b9150509250925092565b600060ff82169050919050565b611714816116fe565b82525050565b600060208201905061172f600083018461170b565b92915050565b6000819050919050565b61174881611735565b82525050565b6000602082019050611763600083018461173f565b92915050565b60006020828403121561177f5761177e611572565b5b600061178d848285016115c0565b91505092915050565b60007fff0000000000000000000000000000000000000000000000000000000000000082169050919050565b6117cb81611796565b82525050565b6117da81611597565b82525050565b600081519050919050565b600082825260208201905092915050565b6000819050602082019050919050565b611815816115d5565b82525050565b6000611827838361180c565b60208301905092915050565b6000602082019050919050565b600061184b826117e0565b61185581856117eb565b9350611860836117fc565b8060005b83811015611891578151611878888261181b565b975061188383611833565b925050600181019050611864565b5085935050505092915050565b600060e0820190506118b3600083018a6117c2565b81810360208301526118c58189611517565b905081810360408301526118d98188611517565b90506118e86060830187611681565b6118f560808301866117d1565b61190260a083018561173f565b81810360c08301526119148184611840565b905098975050505050505050565b61192b816116fe565b811461193657600080fd5b50565b60008135905061194881611922565b92915050565b61195781611735565b811461196257600080fd5b50565b6000813590506119748161194e565b92915050565b600080600080600080600060e0888a03121561199957611998611572565b5b60006119a78a828b016115c0565b97505060206119b88a828b016115c0565b96505060406119c98a828b016115f6565b95505060606119da8a828b016115f6565b94505060806119eb8a828b01611939565b93505060a06119fc8a828b01611965565b92505060c0611a0d8a828b01611965565b91505092959891949750929550565b60008060408385031215611a3357611a32611572565b5b6000611a41858286016115c0565b9250506020611a52858286016115c0565b9150509250929050565b7f4e487b7100000000000000000000000000000000000000000000000000000000600052602260045260246000fd5b60006002820490506001821680611aa357607f821691505b602082108103611ab657611ab5611a5c565b5b50919050565b7f4e487b7100000000000000000000000000000000000000000000000000000000600052601160045260246000fd5b6000611af6826115d5565b9150611b01836115d5565b9250828201905080821115611b1957611b18611abc565b5b92915050565b7f4e487b7100000000000000000000000000000000000000000000000000000000600052604160045260246000fd5b7f45524332303a2064656372656173656420616c6c6f77616e63652062656c6f7760008201527f207a65726f000000000000000000000000000000000000000000000000000000602082015250565b6000611baa6025836114cb565b9150611bb582611b4e565b604082019050919050565b60006020820190508181036000830152611bd981611b9d565b9050919050565b7f45524332305065726d69743a206578706972656420646561646c696e65000000600082015250565b6000611c16601d836114cb565b9150611c2182611be0565b602082019050919050565b60006020820190508181036000830152611c4581611c09565b9050919050565b600060c082019050611c61600083018961173f565b611c6e60208301886117d1565b611c7b60408301876117d1565b611c886060830186611681565b611c956080830185611681565b611ca260a0830184611681565b979650505050505050565b7f45524332305065726d69743a20696e76616c6964207369676e61747572650000600082015250565b6000611ce3601e836114cb565b9150611cee82611cad565b602082019050919050565b60006020820190508181036000830152611d1281611cd6565b9050919050565b60008190508160005260206000209050919050565b60006020601f8301049050919050565b600082821b905092915050565b600060088302611d7b7fffffffffffffffffffffffffffffffffffffffffffffffffffffffffffffffff82611d3e565b611d858683611d3e565b95508019841693508086168417925050509392505050565b6000819050919050565b6000611dc2611dbd611db8846115d5565b611d9d565b6115d5565b9050919050565b6000819050919050565b611ddc83611da7565b611df0611de882611dc9565b848454611d4b565b825550505050565b600090565b611e05611df8565b611e10818484611dd3565b505050565b5b81811015611e3457611e29600082611dfd565b600181019050611e16565b5050565b601f821115611e7957611e4a81611d19565b611e5384611d2e565b81016020851015611e62578190505b611e76611e6e85611d2e565b830182611e15565b50505b505050565b600082821c905092915050565b6000611e9c60001984600802611e7e565b1980831691505092915050565b6000611eb58383611e8b565b9150826002028217905092915050565b611ece826114c0565b67ffffffffffffffff811115611ee757611ee6611b1f565b5b611ef18254611a8b565b611efc828285611e38565b600060209050601f831160018114611f2f5760008415611f1d578287015190505b611f278582611ea9565b865550611f8f565b601f198416611f3d86611d19565b60005b82811015611f6557848901518255600182019150602085019450602081019050611f40565b86831015611f825784890151611f7e601f891682611e8b565b8355505b6001600288020188555050505b505050505050565b7f45524332303a20617070726f76652066726f6d20746865207a65726f2061646460008201527f7265737300000000000000000000000000000000000000000000000000000000602082015250565b6000611ff36024836114cb565b9150611ffe82611f97565b604082019050919050565b6000602082019050818103600083015261202281611fe6565b9050919050565b7f45524332303a20617070726f766520746f20746865207a65726f20616464726560008201527f7373000000000000000000000000000000000000000000000000000000000000602082015250565b60006120856022836114cb565b915061209082612029565b604082019050919050565b600060208201905081810360008301526120b481612078565b9050919050565b7f45524332303a20696e73756666696369656e7420616c6c6f77616e6365000000600082015250565b60006120f1601d836114cb565b91506120fc826120bb565b602082019050919050565b60006020820190508181036000830152612120816120e4565b9050919050565b7f45524332303a207472616e736665722066726f6d20746865207a65726f20616460008201527f6472657373000000000000000000000000000000000000000000000000000000602082015250565b60006121836025836114cb565b915061218e82612127565b604082019050919050565b600060208201905081810360008301526121b281612176565b9050919050565b7f45524332303a207472616e7366657220746f20746865207a65726f206164647260008201527f6573730000000000000000000000000000000000000000000000000000000000602082015250565b60006122156023836114cb565b9150612220826121b9565b604082019050919050565b6000602082019050818103600083015261224481612208565b9050919050565b7f45524332303a207472616e7366657220616d6f756e742065786365656473206260008201527f616c616e63650000000000000000000000000000000000000000000000000000602082015250565b60006122a76026836114cb565b91506122b28261224b565b604082019050919050565b600060208201905081810360008301526122d68161229a565b9050919050565b600081519050919050565b6000819050602082019050919050565b60006123048251611735565b80915050919050565b6000612318826122dd565b82612322846122e8565b905061232d816122f8565b9250602082101561236d576123687fffffffffffffffffffffffffffffffffffffffffffffffffffffffffffffffff83602003600802611d3e565b831692505b5050919050565b600060a082019050612389600083018861173f565b612396602083018761173f565b6123a3604083018661173f565b6123b06060830185611681565b6123bd60808301846117d1565b9695505050505050565b60006080820190506123dc600083018761173f565b6123e9602083018661170b565b6123f6604083018561173f565b612403606083018461173f565b95945050505050565b7f4e487b7100000000000000000000000000000000000000000000000000000000600052602160045260246000fd5b7f45434453413a20696e76616c6964207369676e61747572650000000000000000600082015250565b60006124716018836114cb565b915061247c8261243b565b602082019050919050565b600060208201905081810360008301526124a081612464565b9050919050565b7f45434453413a20696e76616c6964207369676e6174757265206c656e67746800600082015250565b60006124dd601f836114cb565b91506124e8826124a7565b602082019050919050565b6000602082019050818103600083015261250c816124d0565b9050919050565b7f45434453413a20696e76616c6964207369676e6174757265202773272076616c60008201527f7565000000000000000000000000000000000000000000000000000000000000602082015250565b600061256f6022836114cb565b915061257a82612513565b604082019050919050565b6000602082019050818103600083015261259e81612562565b905091905056fea26469706673582212204b85a215e7cf338442780e6826d0f165dcd8d175bf7ab2fc9591b02c0b47a9fd64736f6c63430008120033",
  "linkReferences": {},
  "deployedLinkReferences": {}
}