{
  "_format": "hh-sol-artifact-1",
  "contractName": "NFTDutchAuction_ERC20Bids",
  "sourceName": "contracts/NFTDutchAuction_ERC20Bids.sol",
  "abi": [
    {
      "anonymous": false,
      "inputs": [
        {
          "indexed": false,
          "internalType": "address",
          "name": "previousAdmin",
          "type": "address"
        },
        {
          "indexed": false,
          "internalType": "address",
          "name": "newAdmin",
          "type": "address"
        }
      ],
      "name": "AdminChanged",
      "type": "event"
    },
    {
      "anonymous": false,
      "inputs": [
        {
          "indexed": false,
          "internalType": "address",
          "name": "winner",
          "type": "address"
        },
        {
          "indexed": false,
          "internalType": "uint256",
          "name": "amount",
          "type": "uint256"
        }
      ],
      "name": "AuctionEnded",
      "type": "event"
    },
    {
      "anonymous": false,
      "inputs": [
        {
          "indexed": true,
          "internalType": "address",
          "name": "beacon",
          "type": "address"
        }
      ],
      "name": "BeaconUpgraded",
      "type": "event"
    },
    {
      "anonymous": false,
      "inputs": [
        {
          "indexed": false,
          "internalType": "uint8",
          "name": "version",
          "type": "uint8"
        }
      ],
      "name": "Initialized",
      "type": "event"
    },
    {
      "anonymous": false,
      "inputs": [
        {
          "indexed": true,
          "internalType": "address",
          "name": "previousOwner",
          "type": "address"
        },
        {
          "indexed": true,
          "internalType": "address",
          "name": "newOwner",
          "type": "address"
        }
      ],
      "name": "OwnershipTransferred",
      "type": "event"
    },
    {
      "anonymous": false,
      "inputs": [
        {
          "indexed": true,
          "internalType": "address",
          "name": "implementation",
          "type": "address"
        }
      ],
      "name": "Upgraded",
      "type": "event"
    },
    {
      "inputs": [],
      "name": "auctionEndTime",
      "outputs": [
        {
          "internalType": "uint256",
          "name": "",
          "type": "uint256"
        }
      ],
      "stateMutability": "view",
      "type": "function"
    },
    {
      "inputs": [],
      "name": "auctionEnded",
      "outputs": [
        {
          "internalType": "bool",
          "name": "",
          "type": "bool"
        }
      ],
      "stateMutability": "view",
      "type": "function"
    },
    {
      "inputs": [
        {
          "internalType": "uint256",
          "name": "amount",
          "type": "uint256"
        }
      ],
      "name": "bid",
      "outputs": [
        {
          "internalType": "bool",
          "name": "",
          "type": "bool"
        }
      ],
      "stateMutability": "nonpayable",
      "type": "function"
    },
    {
      "inputs": [
        {
          "internalType": "address",
          "name": "",
          "type": "address"
        }
      ],
      "name": "bids",
      "outputs": [
        {
          "internalType": "uint256",
          "name": "",
          "type": "uint256"
        }
      ],
      "stateMutability": "view",
      "type": "function"
    },
    {
      "inputs": [],
      "name": "claimRefund",
      "outputs": [],
      "stateMutability": "nonpayable",
      "type": "function"
    },
    {
      "inputs": [],
      "name": "erc20TokenAddress",
      "outputs": [
        {
          "internalType": "address",
          "name": "",
          "type": "address"
        }
      ],
      "stateMutability": "view",
      "type": "function"
    },
    {
      "inputs": [],
      "name": "firstBid",
      "outputs": [
        {
          "internalType": "uint256",
          "name": "",
          "type": "uint256"
        }
      ],
      "stateMutability": "view",
      "type": "function"
    },
    {
      "inputs": [],
      "name": "firstBidder",
      "outputs": [
        {
          "internalType": "address payable",
          "name": "",
          "type": "address"
        }
      ],
      "stateMutability": "view",
      "type": "function"
    },
    {
      "inputs": [
        {
          "internalType": "address",
          "name": "account",
          "type": "address"
        }
      ],
      "name": "getBalanceOf",
      "outputs": [
        {
          "internalType": "uint256",
          "name": "",
          "type": "uint256"
        }
      ],
      "stateMutability": "view",
      "type": "function"
    },
    {
      "inputs": [],
      "name": "getCurrentPrice",
      "outputs": [
        {
          "internalType": "uint256",
          "name": "",
          "type": "uint256"
        }
      ],
      "stateMutability": "view",
      "type": "function"
    },
    {
      "inputs": [],
      "name": "gotValidBid",
      "outputs": [
        {
          "internalType": "bool",
          "name": "",
          "type": "bool"
        }
      ],
      "stateMutability": "view",
      "type": "function"
    },
    {
      "inputs": [],
      "name": "initialPrice",
      "outputs": [
        {
          "internalType": "uint256",
          "name": "",
          "type": "uint256"
        }
      ],
      "stateMutability": "view",
      "type": "function"
    },
    {
      "inputs": [
        {
          "internalType": "address",
          "name": "_erc20TokenAddress",
          "type": "address"
        },
        {
          "internalType": "address",
          "name": "erc721TokenAddress",
          "type": "address"
        },
        {
          "internalType": "uint256",
          "name": "_nftTokenId",
          "type": "uint256"
        },
        {
          "internalType": "uint256",
          "name": "_reservePrice",
          "type": "uint256"
        },
        {
          "internalType": "uint256",
          "name": "_numBlocksAuctionOpen",
          "type": "uint256"
        },
        {
          "internalType": "uint256",
          "name": "_offerPriceDecrement",
          "type": "uint256"
        }
      ],
      "name": "initialize",
      "outputs": [],
      "stateMutability": "nonpayable",
      "type": "function"
    },
    {
      "inputs": [],
      "name": "nftTokenId",
      "outputs": [
        {
          "internalType": "uint256",
          "name": "",
          "type": "uint256"
        }
      ],
      "stateMutability": "view",
      "type": "function"
    },
    {
      "inputs": [],
      "name": "numBlocksAuctionOpen",
      "outputs": [
        {
          "internalType": "uint256",
          "name": "",
          "type": "uint256"
        }
      ],
      "stateMutability": "view",
      "type": "function"
    },
    {
      "inputs": [],
      "name": "offerPriceDecrement",
      "outputs": [
        {
          "internalType": "uint256",
          "name": "",
          "type": "uint256"
        }
      ],
      "stateMutability": "view",
      "type": "function"
    },
    {
      "inputs": [],
      "name": "owner",
      "outputs": [
        {
          "internalType": "address",
          "name": "",
          "type": "address"
        }
      ],
      "stateMutability": "view",
      "type": "function"
    },
    {
      "inputs": [],
      "name": "proxiableUUID",
      "outputs": [
        {
          "internalType": "bytes32",
          "name": "",
          "type": "bytes32"
        }
      ],
      "stateMutability": "view",
      "type": "function"
    },
    {
      "inputs": [],
      "name": "renounceOwnership",
      "outputs": [],
      "stateMutability": "nonpayable",
      "type": "function"
    },
    {
      "inputs": [],
      "name": "reservePrice",
      "outputs": [
        {
          "internalType": "uint256",
          "name": "",
          "type": "uint256"
        }
      ],
      "stateMutability": "view",
      "type": "function"
    },
    {
      "inputs": [],
      "name": "seller",
      "outputs": [
        {
          "internalType": "address payable",
          "name": "",
          "type": "address"
        }
      ],
      "stateMutability": "view",
      "type": "function"
    },
    {
      "inputs": [],
      "name": "tokenAddress",
      "outputs": [
        {
          "internalType": "address",
          "name": "",
          "type": "address"
        }
      ],
      "stateMutability": "view",
      "type": "function"
    },
    {
      "inputs": [
        {
          "internalType": "address",
          "name": "newOwner",
          "type": "address"
        }
      ],
      "name": "transferOwnership",
      "outputs": [],
      "stateMutability": "nonpayable",
      "type": "function"
    },
    {
      "inputs": [
        {
          "internalType": "address",
          "name": "newImplementation",
          "type": "address"
        }
      ],
      "name": "upgradeTo",
      "outputs": [],
      "stateMutability": "nonpayable",
      "type": "function"
    },
    {
      "inputs": [
        {
          "internalType": "address",
          "name": "newImplementation",
          "type": "address"
        },
        {
          "internalType": "bytes",
          "name": "data",
          "type": "bytes"
        }
      ],
      "name": "upgradeToAndCall",
      "outputs": [],
      "stateMutability": "payable",
      "type": "function"
    }
  ],
  "bytecode": "0x60a06040523073ffffffffffffffffffffffffffffffffffffffff1660809073ffffffffffffffffffffffffffffffffffffffff1681525034801561004357600080fd5b5060805161314a61007b600039600081816105e40152818161067201528181610db101528181610e3f0152610eef015261314a6000f3fe6080604052600436106101665760003560e01c80637e830574116100d1578063b5545a3c1161008a578063db2e1eed11610064578063db2e1eed146104ed578063eb91d37e14610518578063f2fde38b14610543578063f835cd3c1461056c57610166565b8063b5545a3c14610480578063bdb3937314610497578063d3642a88146104c257610166565b80637e8305741461036e578063864333741461039957806386489ba9146103c45780638da5cb5b146103ed5780639b96eece146104185780639d76ea581461045557610166565b8063454a2ab311610123578063454a2ab31461026b5780634b449cba146102a85780634f1ef286146102d357806352d1902d146102ef57806362ea82db1461031a578063715018a61461035757610166565b806308551a531461016b578063100e4555146101965780631d0806ae146101c157806328e2f696146101ec5780633103ea62146102175780633659cfe614610242575b600080fd5b34801561017757600080fd5b50610180610597565b60405161018d9190612153565b60405180910390f35b3480156101a257600080fd5b506101ab6105bd565b6040516101b89190612189565b60405180910390f35b3480156101cd57600080fd5b506101d66105d0565b6040516101e391906121bd565b60405180910390f35b3480156101f857600080fd5b506102016105d6565b60405161020e91906121bd565b60405180910390f35b34801561022357600080fd5b5061022c6105dc565b60405161023991906121bd565b60405180910390f35b34801561024e57600080fd5b506102696004803603810190610264919061222a565b6105e2565b005b34801561027757600080fd5b50610292600480360381019061028d9190612283565b61076a565b60405161029f9190612189565b60405180910390f35b3480156102b457600080fd5b506102bd610da9565b6040516102ca91906121bd565b60405180910390f35b6102ed60048036038101906102e891906123f6565b610daf565b005b3480156102fb57600080fd5b50610304610eeb565b604051610311919061246b565b60405180910390f35b34801561032657600080fd5b50610341600480360381019061033c919061222a565b610fa4565b60405161034e91906121bd565b60405180910390f35b34801561036357600080fd5b5061036c610fbc565b005b34801561037a57600080fd5b50610383610fd0565b60405161039091906121bd565b60405180910390f35b3480156103a557600080fd5b506103ae610fd6565b6040516103bb9190612189565b60405180910390f35b3480156103d057600080fd5b506103eb60048036038101906103e69190612486565b610fe9565b005b3480156103f957600080fd5b5061040261145a565b60405161040f9190612522565b60405180910390f35b34801561042457600080fd5b5061043f600480360381019061043a919061222a565b611484565b60405161044c91906121bd565b60405180910390f35b34801561046157600080fd5b5061046a611509565b6040516104779190612522565b60405180910390f35b34801561048c57600080fd5b5061049561152f565b005b3480156104a357600080fd5b506104ac6117ca565b6040516104b99190612153565b60405180910390f35b3480156104ce57600080fd5b506104d76117f0565b6040516104e491906121bd565b60405180910390f35b3480156104f957600080fd5b506105026117f6565b60405161050f91906121bd565b60405180910390f35b34801561052457600080fd5b5061052d6117fc565b60405161053a91906121bd565b60405180910390f35b34801561054f57600080fd5b5061056a6004803603810190610565919061222a565b611920565b005b34801561057857600080fd5b506105816119a3565b60405161058e9190612522565b60405180910390f35b60c960009054906101000a900473ffffffffffffffffffffffffffffffffffffffff1681565b60d160009054906101000a900460ff1681565b60cd5481565b60d05481565b60cb5481565b7f000000000000000000000000000000000000000000000000000000000000000073ffffffffffffffffffffffffffffffffffffffff163073ffffffffffffffffffffffffffffffffffffffff1603610670576040517f08c379a0000000000000000000000000000000000000000000000000000000008152600401610667906125c0565b60405180910390fd5b7f000000000000000000000000000000000000000000000000000000000000000073ffffffffffffffffffffffffffffffffffffffff166106af6119c9565b73ffffffffffffffffffffffffffffffffffffffff1614610705576040517f08c379a00000000000000000000000000000000000000000000000000000000081526004016106fc90612652565b60405180910390fd5b61070e81611a20565b61076781600067ffffffffffffffff81111561072d5761072c6122cb565b5b6040519080825280601f01601f19166020018201604052801561075f5781602001600182028036833780820191505090505b506000611a67565b50565b60006107806763f19bdb4e9c6aba60c01b611bd5565b61079467edae722cba66bbc460c01b611bd5565b6107a867eebcb52a90dccdf060c01b611bd5565b60006107b26117fc565b90506107c867060e95839a5b384360c01b611bd5565b6107dc67262f2fe8c7e47a1760c01b611bd5565b6107f06746dfd8796bf8b2cb60c01b611bd5565b60008111610833576040517f08c379a000000000000000000000000000000000000000000000000000000000815260040161082a906126be565b60405180910390fd5b61084767014e3cfe364b00fa60c01b611bd5565b61085b67801c5b91b99b25a560c01b611bd5565b61086f6756aa5a569e69636560c01b611bd5565b61088367d616862951d3601f60c01b611bd5565b600083116108c6576040517f08c379a00000000000000000000000000000000000000000000000000000000081526004016108bd90612750565b60405180910390fd5b6108da674278c7a493912da360c01b611bd5565b6108ee67ff17244389198e5760c01b611bd5565b61090267025ad19f00d025a460c01b611bd5565b610916678cf5f6e2b6ea851f60c01b611bd5565b80831015610959576040517f08c379a0000000000000000000000000000000000000000000000000000000008152600401610950906127e2565b60405180910390fd5b61096d673a6f9d4c0e6e2d4260c01b611bd5565b6109816756eca047e7ebbb3760c01b611bd5565b61099567900317e0c4d630c060c01b611bd5565b60d160009054906101000a900460ff16610c0b576109bd67bfa6d03fe479eefa60c01b611bd5565b6109d1678c805ceaa54caa6960c01b611bd5565b3360cf60016101000a81548173ffffffffffffffffffffffffffffffffffffffff021916908373ffffffffffffffffffffffffffffffffffffffff160217905550610a2667ee1c8fe99de043e460c01b611bd5565b8260d081905550610a416745b7ed38fea511e560c01b611bd5565b600160d160006101000a81548160ff021916908315150217905550610a7067ebc4b0e1fc1eb67160c01b611bd5565b60d05460d4600060c960009054906101000a900473ffffffffffffffffffffffffffffffffffffffff1673ffffffffffffffffffffffffffffffffffffffff1673ffffffffffffffffffffffffffffffffffffffff1681526020019081526020016000206000828254610ae39190612831565b92505081905550610afe6712f25991649a68e860c01b611bd5565b610b1267f6365c5af97d6f4c60c01b611bd5565b60d360009054906101000a900473ffffffffffffffffffffffffffffffffffffffff1673ffffffffffffffffffffffffffffffffffffffff166323b872dd3360c960009054906101000a900473ffffffffffffffffffffffffffffffffffffffff1660d0546040518463ffffffff1660e01b8152600401610b95939291906128c4565b6020604051808303816000875af1158015610bb4573d6000803e3d6000fd5b505050506040513d601f19601f82011682018060405250810190610bd89190612927565b50610bed67df4ba358304ad1d860c01b611bd5565b610c0167bec6c6baf209509a60c01b611bd5565b6001915050610da4565b610c1f6780d1ffddcd9836d160c01b611bd5565b610c3367e0f5611290047a5f60c01b611bd5565b8260d460003373ffffffffffffffffffffffffffffffffffffffff1673ffffffffffffffffffffffffffffffffffffffff1681526020019081526020016000206000828254610c829190612831565b92505081905550610c9d67e6b31fb84e3a92e960c01b611bd5565b610cb167b2b551e943cca5d960c01b611bd5565b60d360009054906101000a900473ffffffffffffffffffffffffffffffffffffffff1673ffffffffffffffffffffffffffffffffffffffff166323b872dd3360c960009054906101000a900473ffffffffffffffffffffffffffffffffffffffff16866040518463ffffffff1660e01b8152600401610d32939291906128c4565b6020604051808303816000875af1158015610d51573d6000803e3d6000fd5b505050506040513d601f19601f82011682018060405250810190610d759190612927565b50610d8a673e0b06eb70f4c68260c01b611bd5565b610d9e674d2651428e6a7aa360c01b611bd5565b60009150505b919050565b60ce5481565b7f000000000000000000000000000000000000000000000000000000000000000073ffffffffffffffffffffffffffffffffffffffff163073ffffffffffffffffffffffffffffffffffffffff1603610e3d576040517f08c379a0000000000000000000000000000000000000000000000000000000008152600401610e34906125c0565b60405180910390fd5b7f000000000000000000000000000000000000000000000000000000000000000073ffffffffffffffffffffffffffffffffffffffff16610e7c6119c9565b73ffffffffffffffffffffffffffffffffffffffff1614610ed2576040517f08c379a0000000000000000000000000000000000000000000000000000000008152600401610ec990612652565b60405180910390fd5b610edb82611a20565b610ee782826001611a67565b5050565b60007f000000000000000000000000000000000000000000000000000000000000000073ffffffffffffffffffffffffffffffffffffffff163073ffffffffffffffffffffffffffffffffffffffff1614610f7b576040517f08c379a0000000000000000000000000000000000000000000000000000000008152600401610f72906129c6565b60405180910390fd5b7f360894a13ba1a3210667c828492db98dca3e2076cc3735a920a3ca505d382bbc60001b905090565b60d46020528060005260406000206000915090505481565b610fc4611bd8565b610fce6000611c56565b565b60d25481565b60cf60009054906101000a900460ff1681565b610ffd675b3cf75795793d0260c01b611bd5565b60008060019054906101000a900460ff1615905080801561102e5750600160008054906101000a900460ff1660ff16105b8061105b575061103d30611d1c565b15801561105a5750600160008054906101000a900460ff1660ff16145b5b61109a576040517f08c379a000000000000000000000000000000000000000000000000000000000815260040161109190612a58565b60405180910390fd5b60016000806101000a81548160ff021916908360ff16021790555080156110d7576001600060016101000a81548160ff0219169083151502179055505b6110eb6767bb4b37cfbbed8460c01b611bd5565b6110ff67701666f63b6c971c60c01b611bd5565b61111367e3c7ae6b7b14307460c01b611bd5565b611127674a55711ed1069e9160c01b611bd5565b61112f611d3f565b611143676aa5e44b1a27ea2260c01b611bd5565b611157678a3876205d636a6e60c01b611bd5565b61115f611d98565b61117367d47913e5581cb2f360c01b611bd5565b3360c960006101000a81548173ffffffffffffffffffffffffffffffffffffffff021916908373ffffffffffffffffffffffffffffffffffffffff1602179055506111c867a862ecab621f91e860c01b611bd5565b8360ca819055506111e367c5c38ea912635de660c01b611bd5565b8260cb819055506111fe670c30aec5e13f696260c01b611bd5565b8160cc81905550611219673b1981fbb391243260c01b611bd5565b60cc5460cb546112299190612a78565b60ca546112369190612831565b60cd8190555061125067956719cd8b56f39a60c01b611bd5565b60cb544361125e9190612831565b60ce81905550611278675825a9c87db704f360c01b611bd5565b600060cf60006101000a81548160ff0219169083151502179055506112a6662de656ce05164560c01b611bd5565b600060d160006101000a81548160ff0219169083151502179055506112d567b76817a36a0e897360c01b611bd5565b600060cf60016101000a81548173ffffffffffffffffffffffffffffffffffffffff021916908373ffffffffffffffffffffffffffffffffffffffff16021790555061132b67c783ec83c2b6d64260c01b611bd5565b600060d08190555061134767bc726d72d544c1dd60c01b611bd5565b8560d160016101000a81548173ffffffffffffffffffffffffffffffffffffffff021916908373ffffffffffffffffffffffffffffffffffffffff16021790555061139c67707b2d49347cc37260c01b611bd5565b8460d2819055506113b7676b6643e74086372860c01b611bd5565b8660d360006101000a81548173ffffffffffffffffffffffffffffffffffffffff021916908373ffffffffffffffffffffffffffffffffffffffff16021790555080156114515760008060016101000a81548160ff0219169083151502179055507f7f26b83ff96e1f2b6a682f133852f6798a09c465da95921460cefb384740249860016040516114489190612b02565b60405180910390a15b50505050505050565b6000603360009054906101000a900473ffffffffffffffffffffffffffffffffffffffff16905090565b600061149a6702ff3a9cf754d85c60c01b611bd5565b6114ae67ecd0aed74d03d5c360c01b611bd5565b6114c2675606a926d44c34cb60c01b611bd5565b60d460008373ffffffffffffffffffffffffffffffffffffffff1673ffffffffffffffffffffffffffffffffffffffff168152602001908152602001600020549050919050565b60d160019054906101000a900473ffffffffffffffffffffffffffffffffffffffff1681565b611543677a3d8a65ac3c164560c01b611bd5565b61155767322500312efa03d560c01b611bd5565b61156b67c1732a3dc72c6c9760c01b611bd5565b61157f678c6c82c0b681b81160c01b611bd5565b600060d460003373ffffffffffffffffffffffffffffffffffffffff1673ffffffffffffffffffffffffffffffffffffffff1681526020019081526020016000205411611601576040517f08c379a00000000000000000000000000000000000000000000000000000000081526004016115f890612b69565b60405180910390fd5b6116156775e045b8e6b0192460c01b611bd5565b61162967f109225ca7f1d24f60c01b611bd5565b61163d67c3a086772e0077c560c01b611bd5565b600060d460003373ffffffffffffffffffffffffffffffffffffffff1673ffffffffffffffffffffffffffffffffffffffff16815260200190815260200160002054905061169567045a4d9a7e11a27a60c01b611bd5565b600060d460003373ffffffffffffffffffffffffffffffffffffffff1673ffffffffffffffffffffffffffffffffffffffff168152602001908152602001600020819055506116ee67ce0a5ee9e01138a060c01b611bd5565b611702673c98bcf35603c0c960c01b611bd5565b60d360009054906101000a900473ffffffffffffffffffffffffffffffffffffffff1673ffffffffffffffffffffffffffffffffffffffff166323b872dd60c960009054906101000a900473ffffffffffffffffffffffffffffffffffffffff1633846040518463ffffffff1660e01b815260040161178393929190612b89565b6020604051808303816000875af11580156117a2573d6000803e3d6000fd5b505050506040513d601f19601f820116820180604052508101906117c69190612927565b5050565b60cf60019054906101000a900473ffffffffffffffffffffffffffffffffffffffff1681565b60cc5481565b60ca5481565b600061181267bdce46640491ce3660c01b611bd5565b6118266793bb76c18b9c7bea60c01b611bd5565b61183a6766b6ab2187b1c90e60c01b611bd5565b60ce54431061188857611857675459a3d6c4d0ccf160c01b611bd5565b61186b6797417d9899fd6c7e60c01b611bd5565b61187f679dcd3b8caf3cf7be60c01b611bd5565b6000905061191d565b61189c677cc5d4e3c833b5b260c01b611bd5565b6118b067a39ea3a5db0c07ae60c01b611bd5565b6118c4671eb9a4bebaf3519e60c01b611bd5565b60004360ce546118d49190612bc0565b90506118ea6724c9fbb8acbd54fe60c01b611bd5565b6118fe67bb9b5c2544dc1d8e60c01b611bd5565b60cc548161190c9190612a78565b60cd546119199190612bc0565b9150505b90565b611928611bd8565b600073ffffffffffffffffffffffffffffffffffffffff168173ffffffffffffffffffffffffffffffffffffffff1603611997576040517f08c379a000000000000000000000000000000000000000000000000000000000815260040161198e90612c66565b60405180910390fd5b6119a081611c56565b50565b60d360009054906101000a900473ffffffffffffffffffffffffffffffffffffffff1681565b60006119f77f360894a13ba1a3210667c828492db98dca3e2076cc3735a920a3ca505d382bbc60001b611de9565b60000160009054906101000a900473ffffffffffffffffffffffffffffffffffffffff16905090565b611a34674aebf75bfb8756e160c01b611bd5565b611a3c611bd8565b611a5067523aab18bae4a1e260c01b611bd5565b611a64678b283d7d4db08bb160c01b611bd5565b50565b611a937f4910fdfa16fed3260ed0e7147f7cc6da11a60208b5b9406d12a635614ffd914360001b611df3565b60000160009054906101000a900460ff1615611ab757611ab283611dfd565b611bd0565b8273ffffffffffffffffffffffffffffffffffffffff166352d1902d6040518163ffffffff1660e01b8152600401602060405180830381865afa925050508015611b1f57506040513d601f19601f82011682018060405250810190611b1c9190612cb2565b60015b611b5e576040517f08c379a0000000000000000000000000000000000000000000000000000000008152600401611b5590612d51565b60405180910390fd5b7f360894a13ba1a3210667c828492db98dca3e2076cc3735a920a3ca505d382bbc60001b8114611bc3576040517f08c379a0000000000000000000000000000000000000000000000000000000008152600401611bba90612de3565b60405180910390fd5b50611bcf838383611eb6565b5b505050565b50565b611be0611ee2565b73ffffffffffffffffffffffffffffffffffffffff16611bfe61145a565b73ffffffffffffffffffffffffffffffffffffffff1614611c54576040517f08c379a0000000000000000000000000000000000000000000000000000000008152600401611c4b90612e4f565b60405180910390fd5b565b6000603360009054906101000a900473ffffffffffffffffffffffffffffffffffffffff16905081603360006101000a81548173ffffffffffffffffffffffffffffffffffffffff021916908373ffffffffffffffffffffffffffffffffffffffff1602179055508173ffffffffffffffffffffffffffffffffffffffff168173ffffffffffffffffffffffffffffffffffffffff167f8be0079c531659141344cd1fd0a4f28419497f9722a3daafe3b4186f6b6457e060405160405180910390a35050565b6000808273ffffffffffffffffffffffffffffffffffffffff163b119050919050565b600060019054906101000a900460ff16611d8e576040517f08c379a0000000000000000000000000000000000000000000000000000000008152600401611d8590612ee1565b60405180910390fd5b611d96611eea565b565b600060019054906101000a900460ff16611de7576040517f08c379a0000000000000000000000000000000000000000000000000000000008152600401611dde90612ee1565b60405180910390fd5b565b6000819050919050565b6000819050919050565b611e0681611d1c565b611e45576040517f08c379a0000000000000000000000000000000000000000000000000000000008152600401611e3c90612f73565b60405180910390fd5b80611e727f360894a13ba1a3210667c828492db98dca3e2076cc3735a920a3ca505d382bbc60001b611de9565b60000160006101000a81548173ffffffffffffffffffffffffffffffffffffffff021916908373ffffffffffffffffffffffffffffffffffffffff16021790555050565b611ebf83611f4b565b600082511180611ecc5750805b15611edd57611edb8383611f9a565b505b505050565b600033905090565b600060019054906101000a900460ff16611f39576040517f08c379a0000000000000000000000000000000000000000000000000000000008152600401611f3090612ee1565b60405180910390fd5b611f49611f44611ee2565b611c56565b565b611f5481611dfd565b8073ffffffffffffffffffffffffffffffffffffffff167fbc7cd75a20ee27fd9adebab32041f755214dbc6bffa90cc0225b39da2e5c2d3b60405160405180910390a250565b6060611fbf83836040518060600160405280602781526020016130ee60279139611fc7565b905092915050565b60606000808573ffffffffffffffffffffffffffffffffffffffff1685604051611ff19190613004565b600060405180830381855af49150503d806000811461202c576040519150601f19603f3d011682016040523d82523d6000602084013e612031565b606091505b50915091506120428683838761204d565b925050509392505050565b606083156120af5760008351036120a75761206785611d1c565b6120a6576040517f08c379a000000000000000000000000000000000000000000000000000000000815260040161209d90613067565b60405180910390fd5b5b8290506120ba565b6120b983836120c2565b5b949350505050565b6000825111156120d55781518083602001fd5b806040517f08c379a000000000000000000000000000000000000000000000000000000000815260040161210991906130cb565b60405180910390fd5b600073ffffffffffffffffffffffffffffffffffffffff82169050919050565b600061213d82612112565b9050919050565b61214d81612132565b82525050565b60006020820190506121686000830184612144565b92915050565b60008115159050919050565b6121838161216e565b82525050565b600060208201905061219e600083018461217a565b92915050565b6000819050919050565b6121b7816121a4565b82525050565b60006020820190506121d260008301846121ae565b92915050565b6000604051905090565b600080fd5b600080fd5b60006121f782612112565b9050919050565b612207816121ec565b811461221257600080fd5b50565b600081359050612224816121fe565b92915050565b6000602082840312156122405761223f6121e2565b5b600061224e84828501612215565b91505092915050565b612260816121a4565b811461226b57600080fd5b50565b60008135905061227d81612257565b92915050565b600060208284031215612299576122986121e2565b5b60006122a78482850161226e565b91505092915050565b600080fd5b600080fd5b6000601f19601f8301169050919050565b7f4e487b7100000000000000000000000000000000000000000000000000000000600052604160045260246000fd5b612303826122ba565b810181811067ffffffffffffffff82111715612322576123216122cb565b5b80604052505050565b60006123356121d8565b905061234182826122fa565b919050565b600067ffffffffffffffff821115612361576123606122cb565b5b61236a826122ba565b9050602081019050919050565b82818337600083830152505050565b600061239961239484612346565b61232b565b9050828152602081018484840111156123b5576123b46122b5565b5b6123c0848285612377565b509392505050565b600082601f8301126123dd576123dc6122b0565b5b81356123ed848260208601612386565b91505092915050565b6000806040838503121561240d5761240c6121e2565b5b600061241b85828601612215565b925050602083013567ffffffffffffffff81111561243c5761243b6121e7565b5b612448858286016123c8565b9150509250929050565b6000819050919050565b61246581612452565b82525050565b6000602082019050612480600083018461245c565b92915050565b60008060008060008060c087890312156124a3576124a26121e2565b5b60006124b189828a01612215565b96505060206124c289828a01612215565b95505060406124d389828a0161226e565b94505060606124e489828a0161226e565b93505060806124f589828a0161226e565b92505060a061250689828a0161226e565b9150509295509295509295565b61251c816121ec565b82525050565b60006020820190506125376000830184612513565b92915050565b600082825260208201905092915050565b7f46756e6374696f6e206d7573742062652063616c6c6564207468726f7567682060008201527f64656c656761746563616c6c0000000000000000000000000000000000000000602082015250565b60006125aa602c8361253d565b91506125b58261254e565b604082019050919050565b600060208201905081810360008301526125d98161259d565b9050919050565b7f46756e6374696f6e206d7573742062652063616c6c6564207468726f7567682060008201527f6163746976652070726f78790000000000000000000000000000000000000000602082015250565b600061263c602c8361253d565b9150612647826125e0565b604082019050919050565b6000602082019050818103600083015261266b8161262f565b9050919050565b7f41756374696f6e2068617320656e646564000000000000000000000000000000600082015250565b60006126a860118361253d565b91506126b382612672565b602082019050919050565b600060208201905081810360008301526126d78161269b565b9050919050565b7f42696420616d6f756e74206d7573742062652067726561746572207468616e2060008201527f3000000000000000000000000000000000000000000000000000000000000000602082015250565b600061273a60218361253d565b9150612745826126de565b604082019050919050565b600060208201905081810360008301526127698161272d565b9050919050565b7f42696420616d6f756e74206973206c6f776572207468616e2063757272656e7460008201527f2070726963650000000000000000000000000000000000000000000000000000602082015250565b60006127cc60268361253d565b91506127d782612770565b604082019050919050565b600060208201905081810360008301526127fb816127bf565b9050919050565b7f4e487b7100000000000000000000000000000000000000000000000000000000600052601160045260246000fd5b600061283c826121a4565b9150612847836121a4565b925082820190508082111561285f5761285e612802565b5b92915050565b6000819050919050565b600061288a61288561288084612112565b612865565b612112565b9050919050565b600061289c8261286f565b9050919050565b60006128ae82612891565b9050919050565b6128be816128a3565b82525050565b60006060820190506128d96000830186612513565b6128e660208301856128b5565b6128f360408301846121ae565b949350505050565b6129048161216e565b811461290f57600080fd5b50565b600081519050612921816128fb565b92915050565b60006020828403121561293d5761293c6121e2565b5b600061294b84828501612912565b91505092915050565b7f555550535570677261646561626c653a206d757374206e6f742062652063616c60008201527f6c6564207468726f7567682064656c656761746563616c6c0000000000000000602082015250565b60006129b060388361253d565b91506129bb82612954565b604082019050919050565b600060208201905081810360008301526129df816129a3565b9050919050565b7f496e697469616c697a61626c653a20636f6e747261637420697320616c72656160008201527f647920696e697469616c697a6564000000000000000000000000000000000000602082015250565b6000612a42602e8361253d565b9150612a4d826129e6565b604082019050919050565b60006020820190508181036000830152612a7181612a35565b9050919050565b6000612a83826121a4565b9150612a8e836121a4565b9250828202612a9c816121a4565b91508282048414831517612ab357612ab2612802565b5b5092915050565b6000819050919050565b600060ff82169050919050565b6000612aec612ae7612ae284612aba565b612865565b612ac4565b9050919050565b612afc81612ad1565b82525050565b6000602082019050612b176000830184612af3565b92915050565b7f4e6f20726566756e6420617661696c61626c6500000000000000000000000000600082015250565b6000612b5360138361253d565b9150612b5e82612b1d565b602082019050919050565b60006020820190508181036000830152612b8281612b46565b9050919050565b6000606082019050612b9e60008301866128b5565b612bab6020830185612513565b612bb860408301846121ae565b949350505050565b6000612bcb826121a4565b9150612bd6836121a4565b9250828203905081811115612bee57612bed612802565b5b92915050565b7f4f776e61626c653a206e6577206f776e657220697320746865207a65726f206160008201527f6464726573730000000000000000000000000000000000000000000000000000602082015250565b6000612c5060268361253d565b9150612c5b82612bf4565b604082019050919050565b60006020820190508181036000830152612c7f81612c43565b9050919050565b612c8f81612452565b8114612c9a57600080fd5b50565b600081519050612cac81612c86565b92915050565b600060208284031215612cc857612cc76121e2565b5b6000612cd684828501612c9d565b91505092915050565b7f45524331393637557067726164653a206e657720696d706c656d656e7461746960008201527f6f6e206973206e6f742055555053000000000000000000000000000000000000602082015250565b6000612d3b602e8361253d565b9150612d4682612cdf565b604082019050919050565b60006020820190508181036000830152612d6a81612d2e565b9050919050565b7f45524331393637557067726164653a20756e737570706f727465642070726f7860008201527f6961626c65555549440000000000000000000000000000000000000000000000602082015250565b6000612dcd60298361253d565b9150612dd882612d71565b604082019050919050565b60006020820190508181036000830152612dfc81612dc0565b9050919050565b7f4f776e61626c653a2063616c6c6572206973206e6f7420746865206f776e6572600082015250565b6000612e3960208361253d565b9150612e4482612e03565b602082019050919050565b60006020820190508181036000830152612e6881612e2c565b9050919050565b7f496e697469616c697a61626c653a20636f6e7472616374206973206e6f74206960008201527f6e697469616c697a696e67000000000000000000000000000000000000000000602082015250565b6000612ecb602b8361253d565b9150612ed682612e6f565b604082019050919050565b60006020820190508181036000830152612efa81612ebe565b9050919050565b7f455243313936373a206e657720696d706c656d656e746174696f6e206973206e60008201527f6f74206120636f6e747261637400000000000000000000000000000000000000602082015250565b6000612f5d602d8361253d565b9150612f6882612f01565b604082019050919050565b60006020820190508181036000830152612f8c81612f50565b9050919050565b600081519050919050565b600081905092915050565b60005b83811015612fc7578082015181840152602081019050612fac565b60008484015250505050565b6000612fde82612f93565b612fe88185612f9e565b9350612ff8818560208601612fa9565b80840191505092915050565b60006130108284612fd3565b915081905092915050565b7f416464726573733a2063616c6c20746f206e6f6e2d636f6e7472616374000000600082015250565b6000613051601d8361253d565b915061305c8261301b565b602082019050919050565b6000602082019050818103600083015261308081613044565b9050919050565b600081519050919050565b600061309d82613087565b6130a7818561253d565b93506130b7818560208601612fa9565b6130c0816122ba565b840191505092915050565b600060208201905081810360008301526130e58184613092565b90509291505056fe416464726573733a206c6f772d6c6576656c2064656c65676174652063616c6c206661696c6564a2646970667358221220c79c682e4d947f6b1a322a7c97ab73a3fc610d9f7f1da298b95b98bde43d105964736f6c63430008120033",
  "linkReferences": {},
  "deployedLinkReferences": {}
}