{
  "_format": "hh-sol-artifact-1",
  "contractName": "NFTDutchAuction_ERC20Bids",
  "sourceName": "contracts/NFTDutchAuction_ERC20Bids.sol",
  "abi": [
    {
      "inputs": [
        {
          "internalType": "address",
          "name": "erc721TokenAddress",
          "type": "address"
        },
        {
          "internalType": "uint256",
          "name": "_nftTokenId",
          "type": "uint256"
        },
        {
          "internalType": "uint256",
          "name": "_reservePrice",
          "type": "uint256"
        },
        {
          "internalType": "uint256",
          "name": "_numBlocksAuctionOpen",
          "type": "uint256"
        },
        {
          "internalType": "uint256",
          "name": "_offerPriceDecrement",
          "type": "uint256"
        }
      ],
      "stateMutability": "nonpayable",
      "type": "constructor"
    },
    {
      "anonymous": false,
      "inputs": [
        {
          "indexed": true,
          "internalType": "address",
          "name": "owner",
          "type": "address"
        },
        {
          "indexed": true,
          "internalType": "address",
          "name": "approved",
          "type": "address"
        },
        {
          "indexed": true,
          "internalType": "uint256",
          "name": "tokenId",
          "type": "uint256"
        }
      ],
      "name": "Approval",
      "type": "event"
    },
    {
      "anonymous": false,
      "inputs": [
        {
          "indexed": true,
          "internalType": "address",
          "name": "owner",
          "type": "address"
        },
        {
          "indexed": true,
          "internalType": "address",
          "name": "operator",
          "type": "address"
        },
        {
          "indexed": false,
          "internalType": "bool",
          "name": "approved",
          "type": "bool"
        }
      ],
      "name": "ApprovalForAll",
      "type": "event"
    },
    {
      "anonymous": false,
      "inputs": [
        {
          "indexed": false,
          "internalType": "address",
          "name": "winner",
          "type": "address"
        },
        {
          "indexed": false,
          "internalType": "uint256",
          "name": "amount",
          "type": "uint256"
        }
      ],
      "name": "AuctionEnded",
      "type": "event"
    },
    {
      "anonymous": false,
      "inputs": [
        {
          "indexed": false,
          "internalType": "address",
          "name": "account",
          "type": "address"
        }
      ],
      "name": "Paused",
      "type": "event"
    },
    {
      "anonymous": false,
      "inputs": [
        {
          "indexed": true,
          "internalType": "bytes32",
          "name": "role",
          "type": "bytes32"
        },
        {
          "indexed": true,
          "internalType": "bytes32",
          "name": "previousAdminRole",
          "type": "bytes32"
        },
        {
          "indexed": true,
          "internalType": "bytes32",
          "name": "newAdminRole",
          "type": "bytes32"
        }
      ],
      "name": "RoleAdminChanged",
      "type": "event"
    },
    {
      "anonymous": false,
      "inputs": [
        {
          "indexed": true,
          "internalType": "bytes32",
          "name": "role",
          "type": "bytes32"
        },
        {
          "indexed": true,
          "internalType": "address",
          "name": "account",
          "type": "address"
        },
        {
          "indexed": true,
          "internalType": "address",
          "name": "sender",
          "type": "address"
        }
      ],
      "name": "RoleGranted",
      "type": "event"
    },
    {
      "anonymous": false,
      "inputs": [
        {
          "indexed": true,
          "internalType": "bytes32",
          "name": "role",
          "type": "bytes32"
        },
        {
          "indexed": true,
          "internalType": "address",
          "name": "account",
          "type": "address"
        },
        {
          "indexed": true,
          "internalType": "address",
          "name": "sender",
          "type": "address"
        }
      ],
      "name": "RoleRevoked",
      "type": "event"
    },
    {
      "anonymous": false,
      "inputs": [
        {
          "indexed": true,
          "internalType": "address",
          "name": "from",
          "type": "address"
        },
        {
          "indexed": true,
          "internalType": "address",
          "name": "to",
          "type": "address"
        },
        {
          "indexed": true,
          "internalType": "uint256",
          "name": "tokenId",
          "type": "uint256"
        }
      ],
      "name": "Transfer",
      "type": "event"
    },
    {
      "anonymous": false,
      "inputs": [
        {
          "indexed": false,
          "internalType": "address",
          "name": "account",
          "type": "address"
        }
      ],
      "name": "Unpaused",
      "type": "event"
    },
    {
      "inputs": [],
      "name": "DEFAULT_ADMIN_ROLE",
      "outputs": [
        {
          "internalType": "bytes32",
          "name": "",
          "type": "bytes32"
        }
      ],
      "stateMutability": "view",
      "type": "function"
    },
    {
      "inputs": [],
      "name": "MINTER_ROLE",
      "outputs": [
        {
          "internalType": "bytes32",
          "name": "",
          "type": "bytes32"
        }
      ],
      "stateMutability": "view",
      "type": "function"
    },
    {
      "inputs": [],
      "name": "PAUSER_ROLE",
      "outputs": [
        {
          "internalType": "bytes32",
          "name": "",
          "type": "bytes32"
        }
      ],
      "stateMutability": "view",
      "type": "function"
    },
    {
      "inputs": [
        {
          "internalType": "address",
          "name": "to",
          "type": "address"
        },
        {
          "internalType": "uint256",
          "name": "tokenId",
          "type": "uint256"
        }
      ],
      "name": "approve",
      "outputs": [],
      "stateMutability": "nonpayable",
      "type": "function"
    },
    {
      "inputs": [],
      "name": "auctionEndTime",
      "outputs": [
        {
          "internalType": "uint256",
          "name": "",
          "type": "uint256"
        }
      ],
      "stateMutability": "view",
      "type": "function"
    },
    {
      "inputs": [],
      "name": "auctionEnded",
      "outputs": [
        {
          "internalType": "bool",
          "name": "",
          "type": "bool"
        }
      ],
      "stateMutability": "view",
      "type": "function"
    },
    {
      "inputs": [
        {
          "internalType": "address",
          "name": "owner",
          "type": "address"
        }
      ],
      "name": "balanceOf",
      "outputs": [
        {
          "internalType": "uint256",
          "name": "",
          "type": "uint256"
        }
      ],
      "stateMutability": "view",
      "type": "function"
    },
    {
      "inputs": [],
      "name": "bid",
      "outputs": [
        {
          "internalType": "bool",
          "name": "",
          "type": "bool"
        }
      ],
      "stateMutability": "payable",
      "type": "function"
    },
    {
      "inputs": [
        {
          "internalType": "address",
          "name": "",
          "type": "address"
        }
      ],
      "name": "bids",
      "outputs": [
        {
          "internalType": "uint256",
          "name": "",
          "type": "uint256"
        }
      ],
      "stateMutability": "view",
      "type": "function"
    },
    {
      "inputs": [
        {
          "internalType": "uint256",
          "name": "tokenId",
          "type": "uint256"
        }
      ],
      "name": "burn",
      "outputs": [],
      "stateMutability": "nonpayable",
      "type": "function"
    },
    {
      "inputs": [],
      "name": "claimRefund",
      "outputs": [],
      "stateMutability": "nonpayable",
      "type": "function"
    },
    {
      "inputs": [],
      "name": "firstBid",
      "outputs": [
        {
          "internalType": "uint256",
          "name": "",
          "type": "uint256"
        }
      ],
      "stateMutability": "view",
      "type": "function"
    },
    {
      "inputs": [],
      "name": "firstBidder",
      "outputs": [
        {
          "internalType": "address payable",
          "name": "",
          "type": "address"
        }
      ],
      "stateMutability": "view",
      "type": "function"
    },
    {
      "inputs": [
        {
          "internalType": "uint256",
          "name": "tokenId",
          "type": "uint256"
        }
      ],
      "name": "getApproved",
      "outputs": [
        {
          "internalType": "address",
          "name": "",
          "type": "address"
        }
      ],
      "stateMutability": "view",
      "type": "function"
    },
    {
      "inputs": [
        {
          "internalType": "address",
          "name": "account",
          "type": "address"
        }
      ],
      "name": "getBalanceOf",
      "outputs": [
        {
          "internalType": "uint256",
          "name": "",
          "type": "uint256"
        }
      ],
      "stateMutability": "view",
      "type": "function"
    },
    {
      "inputs": [],
      "name": "getCurrentPrice",
      "outputs": [
        {
          "internalType": "uint256",
          "name": "",
          "type": "uint256"
        }
      ],
      "stateMutability": "view",
      "type": "function"
    },
    {
      "inputs": [
        {
          "internalType": "bytes32",
          "name": "role",
          "type": "bytes32"
        }
      ],
      "name": "getRoleAdmin",
      "outputs": [
        {
          "internalType": "bytes32",
          "name": "",
          "type": "bytes32"
        }
      ],
      "stateMutability": "view",
      "type": "function"
    },
    {
      "inputs": [
        {
          "internalType": "bytes32",
          "name": "role",
          "type": "bytes32"
        },
        {
          "internalType": "uint256",
          "name": "index",
          "type": "uint256"
        }
      ],
      "name": "getRoleMember",
      "outputs": [
        {
          "internalType": "address",
          "name": "",
          "type": "address"
        }
      ],
      "stateMutability": "view",
      "type": "function"
    },
    {
      "inputs": [
        {
          "internalType": "bytes32",
          "name": "role",
          "type": "bytes32"
        }
      ],
      "name": "getRoleMemberCount",
      "outputs": [
        {
          "internalType": "uint256",
          "name": "",
          "type": "uint256"
        }
      ],
      "stateMutability": "view",
      "type": "function"
    },
    {
      "inputs": [],
      "name": "gotValidBid",
      "outputs": [
        {
          "internalType": "bool",
          "name": "",
          "type": "bool"
        }
      ],
      "stateMutability": "view",
      "type": "function"
    },
    {
      "inputs": [
        {
          "internalType": "bytes32",
          "name": "role",
          "type": "bytes32"
        },
        {
          "internalType": "address",
          "name": "account",
          "type": "address"
        }
      ],
      "name": "grantRole",
      "outputs": [],
      "stateMutability": "nonpayable",
      "type": "function"
    },
    {
      "inputs": [
        {
          "internalType": "bytes32",
          "name": "role",
          "type": "bytes32"
        },
        {
          "internalType": "address",
          "name": "account",
          "type": "address"
        }
      ],
      "name": "hasRole",
      "outputs": [
        {
          "internalType": "bool",
          "name": "",
          "type": "bool"
        }
      ],
      "stateMutability": "view",
      "type": "function"
    },
    {
      "inputs": [],
      "name": "initialPrice",
      "outputs": [
        {
          "internalType": "uint256",
          "name": "",
          "type": "uint256"
        }
      ],
      "stateMutability": "view",
      "type": "function"
    },
    {
      "inputs": [
        {
          "internalType": "address",
          "name": "owner",
          "type": "address"
        },
        {
          "internalType": "address",
          "name": "operator",
          "type": "address"
        }
      ],
      "name": "isApprovedForAll",
      "outputs": [
        {
          "internalType": "bool",
          "name": "",
          "type": "bool"
        }
      ],
      "stateMutability": "view",
      "type": "function"
    },
    {
      "inputs": [
        {
          "internalType": "address",
          "name": "to",
          "type": "address"
        }
      ],
      "name": "mint",
      "outputs": [],
      "stateMutability": "nonpayable",
      "type": "function"
    },
    {
      "inputs": [],
      "name": "name",
      "outputs": [
        {
          "internalType": "string",
          "name": "",
          "type": "string"
        }
      ],
      "stateMutability": "view",
      "type": "function"
    },
    {
      "inputs": [],
      "name": "nftTokenId",
      "outputs": [
        {
          "internalType": "uint256",
          "name": "",
          "type": "uint256"
        }
      ],
      "stateMutability": "view",
      "type": "function"
    },
    {
      "inputs": [],
      "name": "numBlocksAuctionOpen",
      "outputs": [
        {
          "internalType": "uint256",
          "name": "",
          "type": "uint256"
        }
      ],
      "stateMutability": "view",
      "type": "function"
    },
    {
      "inputs": [],
      "name": "offerPriceDecrement",
      "outputs": [
        {
          "internalType": "uint256",
          "name": "",
          "type": "uint256"
        }
      ],
      "stateMutability": "view",
      "type": "function"
    },
    {
      "inputs": [
        {
          "internalType": "uint256",
          "name": "tokenId",
          "type": "uint256"
        }
      ],
      "name": "ownerOf",
      "outputs": [
        {
          "internalType": "address",
          "name": "",
          "type": "address"
        }
      ],
      "stateMutability": "view",
      "type": "function"
    },
    {
      "inputs": [],
      "name": "pause",
      "outputs": [],
      "stateMutability": "nonpayable",
      "type": "function"
    },
    {
      "inputs": [],
      "name": "paused",
      "outputs": [
        {
          "internalType": "bool",
          "name": "",
          "type": "bool"
        }
      ],
      "stateMutability": "view",
      "type": "function"
    },
    {
      "inputs": [
        {
          "internalType": "bytes32",
          "name": "role",
          "type": "bytes32"
        },
        {
          "internalType": "address",
          "name": "account",
          "type": "address"
        }
      ],
      "name": "renounceRole",
      "outputs": [],
      "stateMutability": "nonpayable",
      "type": "function"
    },
    {
      "inputs": [],
      "name": "reservePrice",
      "outputs": [
        {
          "internalType": "uint256",
          "name": "",
          "type": "uint256"
        }
      ],
      "stateMutability": "view",
      "type": "function"
    },
    {
      "inputs": [
        {
          "internalType": "bytes32",
          "name": "role",
          "type": "bytes32"
        },
        {
          "internalType": "address",
          "name": "account",
          "type": "address"
        }
      ],
      "name": "revokeRole",
      "outputs": [],
      "stateMutability": "nonpayable",
      "type": "function"
    },
    {
      "inputs": [
        {
          "internalType": "address",
          "name": "from",
          "type": "address"
        },
        {
          "internalType": "address",
          "name": "to",
          "type": "address"
        },
        {
          "internalType": "uint256",
          "name": "tokenId",
          "type": "uint256"
        }
      ],
      "name": "safeTransferFrom",
      "outputs": [],
      "stateMutability": "nonpayable",
      "type": "function"
    },
    {
      "inputs": [
        {
          "internalType": "address",
          "name": "from",
          "type": "address"
        },
        {
          "internalType": "address",
          "name": "to",
          "type": "address"
        },
        {
          "internalType": "uint256",
          "name": "tokenId",
          "type": "uint256"
        },
        {
          "internalType": "bytes",
          "name": "data",
          "type": "bytes"
        }
      ],
      "name": "safeTransferFrom",
      "outputs": [],
      "stateMutability": "nonpayable",
      "type": "function"
    },
    {
      "inputs": [],
      "name": "seller",
      "outputs": [
        {
          "internalType": "address payable",
          "name": "",
          "type": "address"
        }
      ],
      "stateMutability": "view",
      "type": "function"
    },
    {
      "inputs": [
        {
          "internalType": "address",
          "name": "operator",
          "type": "address"
        },
        {
          "internalType": "bool",
          "name": "approved",
          "type": "bool"
        }
      ],
      "name": "setApprovalForAll",
      "outputs": [],
      "stateMutability": "nonpayable",
      "type": "function"
    },
    {
      "inputs": [
        {
          "internalType": "bytes4",
          "name": "interfaceId",
          "type": "bytes4"
        }
      ],
      "name": "supportsInterface",
      "outputs": [
        {
          "internalType": "bool",
          "name": "",
          "type": "bool"
        }
      ],
      "stateMutability": "view",
      "type": "function"
    },
    {
      "inputs": [],
      "name": "symbol",
      "outputs": [
        {
          "internalType": "string",
          "name": "",
          "type": "string"
        }
      ],
      "stateMutability": "view",
      "type": "function"
    },
    {
      "inputs": [],
      "name": "tokenAddress",
      "outputs": [
        {
          "internalType": "address",
          "name": "",
          "type": "address"
        }
      ],
      "stateMutability": "view",
      "type": "function"
    },
    {
      "inputs": [
        {
          "internalType": "uint256",
          "name": "index",
          "type": "uint256"
        }
      ],
      "name": "tokenByIndex",
      "outputs": [
        {
          "internalType": "uint256",
          "name": "",
          "type": "uint256"
        }
      ],
      "stateMutability": "view",
      "type": "function"
    },
    {
      "inputs": [
        {
          "internalType": "address",
          "name": "owner",
          "type": "address"
        },
        {
          "internalType": "uint256",
          "name": "index",
          "type": "uint256"
        }
      ],
      "name": "tokenOfOwnerByIndex",
      "outputs": [
        {
          "internalType": "uint256",
          "name": "",
          "type": "uint256"
        }
      ],
      "stateMutability": "view",
      "type": "function"
    },
    {
      "inputs": [
        {
          "internalType": "uint256",
          "name": "tokenId",
          "type": "uint256"
        }
      ],
      "name": "tokenURI",
      "outputs": [
        {
          "internalType": "string",
          "name": "",
          "type": "string"
        }
      ],
      "stateMutability": "view",
      "type": "function"
    },
    {
      "inputs": [],
      "name": "totalSupply",
      "outputs": [
        {
          "internalType": "uint256",
          "name": "",
          "type": "uint256"
        }
      ],
      "stateMutability": "view",
      "type": "function"
    },
    {
      "inputs": [
        {
          "internalType": "address",
          "name": "from",
          "type": "address"
        },
        {
          "internalType": "address",
          "name": "to",
          "type": "address"
        },
        {
          "internalType": "uint256",
          "name": "tokenId",
          "type": "uint256"
        }
      ],
      "name": "transferFrom",
      "outputs": [],
      "stateMutability": "nonpayable",
      "type": "function"
    },
    {
      "inputs": [],
      "name": "unpause",
      "outputs": [],
      "stateMutability": "nonpayable",
      "type": "function"
    }
  ],
  "bytecode": "0x60806040523480156200001157600080fd5b5060405162005e9f38038062005e9f833981810160405281019062000037919062000678565b6040518060400160405280600581526020017f4d794e46540000000000000000000000000000000000000000000000000000008152506040518060400160405280600481526020017f4d4e4654000000000000000000000000000000000000000000000000000000008152506040518060400160405280601c81526020017f68747470733a2f2f6e6f7274686561737465726e2e6564752f6e66740000000081525082828160029081620000ec919062000970565b508060039081620000fe919062000970565b5050506000600c60006101000a81548160ff02191690831515021790555080600e90816200012d919062000970565b50620001526000801b620001466200033d60201b60201c565b6200034560201b60201c565b620001937f9f2df0fed2c77648de5860a4cc508cd0818c85b8b8a1ab4ceeef8d981c8956a6620001876200033d60201b60201c565b6200034560201b60201c565b620001d47f65d7a28e3265b37a6474929f336521b332c1681b933f6cb9f3376673440d862a620001c86200033d60201b60201c565b6200034560201b60201c565b50505033600f60006101000a81548173ffffffffffffffffffffffffffffffffffffffff021916908373ffffffffffffffffffffffffffffffffffffffff1602179055508260108190555081601181905550806012819055506012546011546200023f919062000a86565b6010546200024e919062000ad1565b6013819055506011544362000264919062000ad1565b6014819055506000601560006101000a81548160ff0219169083151502179055506000601760006101000a81548160ff0219169083151502179055506000601560016101000a81548173ffffffffffffffffffffffffffffffffffffffff021916908373ffffffffffffffffffffffffffffffffffffffff160217905550600060168190555084601760016101000a81548173ffffffffffffffffffffffffffffffffffffffff021916908373ffffffffffffffffffffffffffffffffffffffff16021790555083601881905550505050505062000b0c565b600033905090565b6200035782826200035b60201b60201c565b5050565b620003728282620003a360201b62001b701760201c565b6200039e81600160008581526020019081526020016000206200049460201b62001c501790919060201c565b505050565b620003b58282620004cc60201b60201c565b6200049057600160008084815260200190815260200160002060000160008373ffffffffffffffffffffffffffffffffffffffff1673ffffffffffffffffffffffffffffffffffffffff16815260200190815260200160002060006101000a81548160ff021916908315150217905550620004356200033d60201b60201c565b73ffffffffffffffffffffffffffffffffffffffff168173ffffffffffffffffffffffffffffffffffffffff16837f2f8788117e7eff1d82e926ec794901d17c78024a50270940304540a733656f0d60405160405180910390a45b5050565b6000620004c4836000018373ffffffffffffffffffffffffffffffffffffffff1660001b6200053660201b60201c565b905092915050565b600080600084815260200190815260200160002060000160008373ffffffffffffffffffffffffffffffffffffffff1673ffffffffffffffffffffffffffffffffffffffff16815260200190815260200160002060009054906101000a900460ff16905092915050565b60006200054a8383620005b060201b60201c565b620005a5578260000182908060018154018082558091505060019003906000526020600020016000909190919091505582600001805490508360010160008481526020019081526020016000208190555060019050620005aa565b600090505b92915050565b600080836001016000848152602001908152602001600020541415905092915050565b600080fd5b600073ffffffffffffffffffffffffffffffffffffffff82169050919050565b60006200060582620005d8565b9050919050565b6200061781620005f8565b81146200062357600080fd5b50565b60008151905062000637816200060c565b92915050565b6000819050919050565b62000652816200063d565b81146200065e57600080fd5b50565b600081519050620006728162000647565b92915050565b600080600080600060a08688031215620006975762000696620005d3565b5b6000620006a78882890162000626565b9550506020620006ba8882890162000661565b9450506040620006cd8882890162000661565b9350506060620006e08882890162000661565b9250506080620006f38882890162000661565b9150509295509295909350565b600081519050919050565b7f4e487b7100000000000000000000000000000000000000000000000000000000600052604160045260246000fd5b7f4e487b7100000000000000000000000000000000000000000000000000000000600052602260045260246000fd5b600060028204905060018216806200078257607f821691505b6020821081036200079857620007976200073a565b5b50919050565b60008190508160005260206000209050919050565b60006020601f8301049050919050565b600082821b905092915050565b600060088302620008027fffffffffffffffffffffffffffffffffffffffffffffffffffffffffffffffff82620007c3565b6200080e8683620007c3565b95508019841693508086168417925050509392505050565b6000819050919050565b6000620008516200084b62000845846200063d565b62000826565b6200063d565b9050919050565b6000819050919050565b6200086d8362000830565b620008856200087c8262000858565b848454620007d0565b825550505050565b600090565b6200089c6200088d565b620008a981848462000862565b505050565b5b81811015620008d157620008c560008262000892565b600181019050620008af565b5050565b601f8211156200092057620008ea816200079e565b620008f584620007b3565b8101602085101562000905578190505b6200091d6200091485620007b3565b830182620008ae565b50505b505050565b600082821c905092915050565b6000620009456000198460080262000925565b1980831691505092915050565b600062000960838362000932565b9150826002028217905092915050565b6200097b8262000700565b67ffffffffffffffff8111156200099757620009966200070b565b5b620009a3825462000769565b620009b0828285620008d5565b600060209050601f831160018114620009e85760008415620009d3578287015190505b620009df858262000952565b86555062000a4f565b601f198416620009f8866200079e565b60005b8281101562000a2257848901518255600182019150602085019450602081019050620009fb565b8683101562000a42578489015162000a3e601f89168262000932565b8355505b6001600288020188555050505b505050505050565b7f4e487b7100000000000000000000000000000000000000000000000000000000600052601160045260246000fd5b600062000a93826200063d565b915062000aa0836200063d565b925082820262000ab0816200063d565b9150828204841483151762000aca5762000ac962000a57565b5b5092915050565b600062000ade826200063d565b915062000aeb836200063d565b925082820190508082111562000b065762000b0562000a57565b5b92915050565b6153838062000b1c6000396000f3fe6080604052600436106102935760003560e01c80636a6278421161015a578063b5545a3c116100c1578063d53913931161007a578063d539139314610a35578063d547741f14610a60578063db2e1eed14610a89578063e63ab1e914610ab4578063e985e9c514610adf578063eb91d37e14610b1c57610293565b8063b5545a3c14610925578063b88d4fde1461093c578063bdb3937314610965578063c87b56dd14610990578063ca15c873146109cd578063d3642a8814610a0a57610293565b806391d148541161011357806391d148541461080157806395d89b411461083e5780639b96eece146108695780639d76ea58146108a6578063a217fddf146108d1578063a22cb465146108fc57610293565b80636a627842146106f157806370a082311461071a5780637e830574146107575780638456cb591461078257806386433374146107995780639010d07c146107c457610293565b80632f2ff15d116101fe57806342966c68116101b757806342966c68146105bb5780634b449cba146105e45780634f6ccce71461060f5780635c975abb1461064c57806362ea82db146106775780636352211e146106b457610293565b80632f2ff15d146104c15780632f745c59146104ea5780633103ea621461052757806336568abe146105525780633f4ba83a1461057b57806342842e0e1461059257610293565b806318160ddd1161025057806318160ddd146103bc5780631998aeef146103e75780631d0806ae1461040557806323b872dd14610430578063248a9ca31461045957806328e2f6961461049657610293565b806301ffc9a71461029857806306fdde03146102d5578063081812fc1461030057806308551a531461033d578063095ea7b314610368578063100e455514610391575b600080fd5b3480156102a457600080fd5b506102bf60048036038101906102ba9190613b34565b610b47565b6040516102cc9190613b7c565b60405180910390f35b3480156102e157600080fd5b506102ea610b59565b6040516102f79190613c27565b60405180910390f35b34801561030c57600080fd5b5061032760048036038101906103229190613c7f565b610beb565b6040516103349190613ced565b60405180910390f35b34801561034957600080fd5b50610352610c31565b60405161035f9190613d29565b60405180910390f35b34801561037457600080fd5b5061038f600480360381019061038a9190613d70565b610c57565b005b34801561039d57600080fd5b506103a6610d6e565b6040516103b39190613b7c565b60405180910390f35b3480156103c857600080fd5b506103d1610d81565b6040516103de9190613dbf565b60405180910390f35b6103ef610d8e565b6040516103fc9190613b7c565b60405180910390f35b34801561041157600080fd5b5061041a611029565b6040516104279190613dbf565b60405180910390f35b34801561043c57600080fd5b5061045760048036038101906104529190613dda565b61102f565b005b34801561046557600080fd5b50610480600480360381019061047b9190613e63565b61108f565b60405161048d9190613e9f565b60405180910390f35b3480156104a257600080fd5b506104ab6110ae565b6040516104b89190613dbf565b60405180910390f35b3480156104cd57600080fd5b506104e860048036038101906104e39190613eba565b6110b4565b005b3480156104f657600080fd5b50610511600480360381019061050c9190613d70565b6110d5565b60405161051e9190613dbf565b60405180910390f35b34801561053357600080fd5b5061053c61117a565b6040516105499190613dbf565b60405180910390f35b34801561055e57600080fd5b5061057960048036038101906105749190613eba565b611180565b005b34801561058757600080fd5b50610590611203565b005b34801561059e57600080fd5b506105b960048036038101906105b49190613dda565b61127d565b005b3480156105c757600080fd5b506105e260048036038101906105dd9190613c7f565b61129d565b005b3480156105f057600080fd5b506105f96112f9565b6040516106069190613dbf565b60405180910390f35b34801561061b57600080fd5b5061063660048036038101906106319190613c7f565b6112ff565b6040516106439190613dbf565b60405180910390f35b34801561065857600080fd5b50610661611370565b60405161066e9190613b7c565b60405180910390f35b34801561068357600080fd5b5061069e60048036038101906106999190613efa565b611387565b6040516106ab9190613dbf565b60405180910390f35b3480156106c057600080fd5b506106db60048036038101906106d69190613c7f565b61139f565b6040516106e89190613ced565b60405180910390f35b3480156106fd57600080fd5b5061071860048036038101906107139190613efa565b611425565b005b34801561072657600080fd5b50610741600480360381019061073c9190613efa565b6114b5565b60405161074e9190613dbf565b60405180910390f35b34801561076357600080fd5b5061076c61156c565b6040516107799190613dbf565b60405180910390f35b34801561078e57600080fd5b50610797611572565b005b3480156107a557600080fd5b506107ae6115ec565b6040516107bb9190613b7c565b60405180910390f35b3480156107d057600080fd5b506107eb60048036038101906107e69190613f27565b6115ff565b6040516107f89190613ced565b60405180910390f35b34801561080d57600080fd5b5061082860048036038101906108239190613eba565b61162e565b6040516108359190613b7c565b60405180910390f35b34801561084a57600080fd5b50610853611698565b6040516108609190613c27565b60405180910390f35b34801561087557600080fd5b50610890600480360381019061088b9190613efa565b61172a565b60405161089d9190613dbf565b60405180910390f35b3480156108b257600080fd5b506108bb611773565b6040516108c89190613ced565b60405180910390f35b3480156108dd57600080fd5b506108e6611799565b6040516108f39190613e9f565b60405180910390f35b34801561090857600080fd5b50610923600480360381019061091e9190613f93565b6117a0565b005b34801561093157600080fd5b5061093a6117b6565b005b34801561094857600080fd5b50610963600480360381019061095e9190614108565b61190b565b005b34801561097157600080fd5b5061097a61196d565b6040516109879190613d29565b60405180910390f35b34801561099c57600080fd5b506109b760048036038101906109b29190613c7f565b611993565b6040516109c49190613c27565b60405180910390f35b3480156109d957600080fd5b506109f460048036038101906109ef9190613e63565b6119fb565b604051610a019190613dbf565b60405180910390f35b348015610a1657600080fd5b50610a1f611a1f565b604051610a2c9190613dbf565b60405180910390f35b348015610a4157600080fd5b50610a4a611a25565b604051610a579190613e9f565b60405180910390f35b348015610a6c57600080fd5b50610a876004803603810190610a829190613eba565b611a49565b005b348015610a9557600080fd5b50610a9e611a6a565b604051610aab9190613dbf565b60405180910390f35b348015610ac057600080fd5b50610ac9611a70565b604051610ad69190613e9f565b60405180910390f35b348015610aeb57600080fd5b50610b066004803603810190610b01919061418b565b611a94565b604051610b139190613b7c565b60405180910390f35b348015610b2857600080fd5b50610b31611b28565b604051610b3e9190613dbf565b60405180910390f35b6000610b5282611c80565b9050919050565b606060028054610b68906141fa565b80601f0160208091040260200160405190810160405280929190818152602001828054610b94906141fa565b8015610be15780601f10610bb657610100808354040283529160200191610be1565b820191906000526020600020905b815481529060010190602001808311610bc457829003601f168201915b5050505050905090565b6000610bf682611cfa565b6006600083815260200190815260200160002060009054906101000a900473ffffffffffffffffffffffffffffffffffffffff169050919050565b600f60009054906101000a900473ffffffffffffffffffffffffffffffffffffffff1681565b6000610c628261139f565b90508073ffffffffffffffffffffffffffffffffffffffff168373ffffffffffffffffffffffffffffffffffffffff1603610cd2576040517f08c379a0000000000000000000000000000000000000000000000000000000008152600401610cc99061429d565b60405180910390fd5b8073ffffffffffffffffffffffffffffffffffffffff16610cf1611d45565b73ffffffffffffffffffffffffffffffffffffffff161480610d205750610d1f81610d1a611d45565b611a94565b5b610d5f576040517f08c379a0000000000000000000000000000000000000000000000000000000008152600401610d569061432f565b60405180910390fd5b610d698383611d4d565b505050565b601760009054906101000a900460ff1681565b6000600a80549050905090565b600080610d99611b28565b905060008111610dde576040517f08c379a0000000000000000000000000000000000000000000000000000000008152600401610dd59061439b565b60405180910390fd5b60003411610e21576040517f08c379a0000000000000000000000000000000000000000000000000000000008152600401610e189061442d565b60405180910390fd5b80341015610e64576040517f08c379a0000000000000000000000000000000000000000000000000000000008152600401610e5b906144bf565b60405180910390fd5b601760009054906101000a900460ff16610fca5733601560016101000a81548173ffffffffffffffffffffffffffffffffffffffff021916908373ffffffffffffffffffffffffffffffffffffffff160217905550346016819055506001601760006101000a81548160ff02191690831515021790555060165460196000600f60009054906101000a900473ffffffffffffffffffffffffffffffffffffffff1673ffffffffffffffffffffffffffffffffffffffff1673ffffffffffffffffffffffffffffffffffffffff1681526020019081526020016000206000828254610f4e919061450e565b92505081905550600f60009054906101000a900473ffffffffffffffffffffffffffffffffffffffff1673ffffffffffffffffffffffffffffffffffffffff166108fc6016549081150290604051600060405180830381858888f19350505050158015610fbf573d6000803e3d6000fd5b506001915050611026565b34601960003373ffffffffffffffffffffffffffffffffffffffff1673ffffffffffffffffffffffffffffffffffffffff1681526020019081526020016000206000828254611019919061450e565b9250508190555060009150505b90565b60135481565b61104061103a611d45565b82611e06565b61107f576040517f08c379a0000000000000000000000000000000000000000000000000000000008152600401611076906145b4565b60405180910390fd5b61108a838383611e9b565b505050565b6000806000838152602001908152602001600020600101549050919050565b60165481565b6110bd8261108f565b6110c681612194565b6110d083836121a8565b505050565b60006110e0836114b5565b8210611121576040517f08c379a000000000000000000000000000000000000000000000000000000000815260040161111890614646565b60405180910390fd5b600860008473ffffffffffffffffffffffffffffffffffffffff1673ffffffffffffffffffffffffffffffffffffffff168152602001908152602001600020600083815260200190815260200160002054905092915050565b60115481565b611188611d45565b73ffffffffffffffffffffffffffffffffffffffff168173ffffffffffffffffffffffffffffffffffffffff16146111f5576040517f08c379a00000000000000000000000000000000000000000000000000000000081526004016111ec906146d8565b60405180910390fd5b6111ff82826121dc565b5050565b6112347f65d7a28e3265b37a6474929f336521b332c1681b933f6cb9f3376673440d862a61122f611d45565b61162e565b611273576040517f08c379a000000000000000000000000000000000000000000000000000000000815260040161126a9061476a565b60405180910390fd5b61127b612210565b565b6112988383836040518060200160405280600081525061190b565b505050565b6112ae6112a8611d45565b82611e06565b6112ed576040517f08c379a00000000000000000000000000000000000000000000000000000000081526004016112e4906145b4565b60405180910390fd5b6112f681612273565b50565b60145481565b6000611309610d81565b821061134a576040517f08c379a0000000000000000000000000000000000000000000000000000000008152600401611341906147fc565b60405180910390fd5b600a828154811061135e5761135d61481c565b5b90600052602060002001549050919050565b6000600c60009054906101000a900460ff16905090565b60196020528060005260406000206000915090505481565b6000806113ab836123c1565b9050600073ffffffffffffffffffffffffffffffffffffffff168173ffffffffffffffffffffffffffffffffffffffff160361141c576040517f08c379a000000000000000000000000000000000000000000000000000000000815260040161141390614897565b60405180910390fd5b80915050919050565b6114567f9f2df0fed2c77648de5860a4cc508cd0818c85b8b8a1ab4ceeef8d981c8956a6611451611d45565b61162e565b611495576040517f08c379a000000000000000000000000000000000000000000000000000000000815260040161148c90614929565b60405180910390fd5b6114a8816114a3600d6123fe565b61240c565b6114b2600d612629565b50565b60008073ffffffffffffffffffffffffffffffffffffffff168273ffffffffffffffffffffffffffffffffffffffff1603611525576040517f08c379a000000000000000000000000000000000000000000000000000000000815260040161151c906149bb565b60405180910390fd5b600560008373ffffffffffffffffffffffffffffffffffffffff1673ffffffffffffffffffffffffffffffffffffffff168152602001908152602001600020549050919050565b60185481565b6115a37f65d7a28e3265b37a6474929f336521b332c1681b933f6cb9f3376673440d862a61159e611d45565b61162e565b6115e2576040517f08c379a00000000000000000000000000000000000000000000000000000000081526004016115d990614a4d565b60405180910390fd5b6115ea61263f565b565b601560009054906101000a900460ff1681565b600061162682600160008681526020019081526020016000206126a290919063ffffffff16565b905092915050565b600080600084815260200190815260200160002060000160008373ffffffffffffffffffffffffffffffffffffffff1673ffffffffffffffffffffffffffffffffffffffff16815260200190815260200160002060009054906101000a900460ff16905092915050565b6060600380546116a7906141fa565b80601f01602080910402602001604051908101604052809291908181526020018280546116d3906141fa565b80156117205780601f106116f557610100808354040283529160200191611720565b820191906000526020600020905b81548152906001019060200180831161170357829003601f168201915b5050505050905090565b6000601960008373ffffffffffffffffffffffffffffffffffffffff1673ffffffffffffffffffffffffffffffffffffffff168152602001908152602001600020549050919050565b601760019054906101000a900473ffffffffffffffffffffffffffffffffffffffff1681565b6000801b81565b6117b26117ab611d45565b83836126bc565b5050565b6000601960003373ffffffffffffffffffffffffffffffffffffffff1673ffffffffffffffffffffffffffffffffffffffff1681526020019081526020016000205411611838576040517f08c379a000000000000000000000000000000000000000000000000000000000815260040161182f90614ab9565b60405180910390fd5b6000601960003373ffffffffffffffffffffffffffffffffffffffff1673ffffffffffffffffffffffffffffffffffffffff1681526020019081526020016000205490506000601960003373ffffffffffffffffffffffffffffffffffffffff1673ffffffffffffffffffffffffffffffffffffffff168152602001908152602001600020819055503373ffffffffffffffffffffffffffffffffffffffff166108fc829081150290604051600060405180830381858888f19350505050158015611907573d6000803e3d6000fd5b5050565b61191c611916611d45565b83611e06565b61195b576040517f08c379a0000000000000000000000000000000000000000000000000000000008152600401611952906145b4565b60405180910390fd5b61196784848484612828565b50505050565b601560019054906101000a900473ffffffffffffffffffffffffffffffffffffffff1681565b606061199e82611cfa565b60006119a8612884565b905060008151116119c857604051806020016040528060008152506119f3565b806119d284612916565b6040516020016119e3929190614b15565b6040516020818303038152906040525b915050919050565b6000611a18600160008481526020019081526020016000206129e4565b9050919050565b60125481565b7f9f2df0fed2c77648de5860a4cc508cd0818c85b8b8a1ab4ceeef8d981c8956a681565b611a528261108f565b611a5b81612194565b611a6583836121dc565b505050565b60105481565b7f65d7a28e3265b37a6474929f336521b332c1681b933f6cb9f3376673440d862a81565b6000600760008473ffffffffffffffffffffffffffffffffffffffff1673ffffffffffffffffffffffffffffffffffffffff16815260200190815260200160002060008373ffffffffffffffffffffffffffffffffffffffff1673ffffffffffffffffffffffffffffffffffffffff16815260200190815260200160002060009054906101000a900460ff16905092915050565b60006014544310611b3c5760009050611b6d565b600043601454611b4c9190614b39565b905060125481611b5c9190614b6d565b601354611b699190614b39565b9150505b90565b611b7a828261162e565b611c4c57600160008084815260200190815260200160002060000160008373ffffffffffffffffffffffffffffffffffffffff1673ffffffffffffffffffffffffffffffffffffffff16815260200190815260200160002060006101000a81548160ff021916908315150217905550611bf1611d45565b73ffffffffffffffffffffffffffffffffffffffff168173ffffffffffffffffffffffffffffffffffffffff16837f2f8788117e7eff1d82e926ec794901d17c78024a50270940304540a733656f0d60405160405180910390a45b5050565b6000611c78836000018373ffffffffffffffffffffffffffffffffffffffff1660001b6129f9565b905092915050565b60007f780e9d63000000000000000000000000000000000000000000000000000000007bffffffffffffffffffffffffffffffffffffffffffffffffffffffff1916827bffffffffffffffffffffffffffffffffffffffffffffffffffffffff19161480611cf35750611cf282612a69565b5b9050919050565b611d0381612b4b565b611d42576040517f08c379a0000000000000000000000000000000000000000000000000000000008152600401611d3990614897565b60405180910390fd5b50565b600033905090565b816006600083815260200190815260200160002060006101000a81548173ffffffffffffffffffffffffffffffffffffffff021916908373ffffffffffffffffffffffffffffffffffffffff160217905550808273ffffffffffffffffffffffffffffffffffffffff16611dc08361139f565b73ffffffffffffffffffffffffffffffffffffffff167f8c5be1e5ebec7d5bd14f71427d1e84f3dd0314c0f7b2291e5b200ac8c7c3b92560405160405180910390a45050565b600080611e128361139f565b90508073ffffffffffffffffffffffffffffffffffffffff168473ffffffffffffffffffffffffffffffffffffffff161480611e545750611e538185611a94565b5b80611e9257508373ffffffffffffffffffffffffffffffffffffffff16611e7a84610beb565b73ffffffffffffffffffffffffffffffffffffffff16145b91505092915050565b8273ffffffffffffffffffffffffffffffffffffffff16611ebb8261139f565b73ffffffffffffffffffffffffffffffffffffffff1614611f11576040517f08c379a0000000000000000000000000000000000000000000000000000000008152600401611f0890614c21565b60405180910390fd5b600073ffffffffffffffffffffffffffffffffffffffff168273ffffffffffffffffffffffffffffffffffffffff1603611f80576040517f08c379a0000000000000000000000000000000000000000000000000000000008152600401611f7790614cb3565b60405180910390fd5b611f8d8383836001612b8c565b8273ffffffffffffffffffffffffffffffffffffffff16611fad8261139f565b73ffffffffffffffffffffffffffffffffffffffff1614612003576040517f08c379a0000000000000000000000000000000000000000000000000000000008152600401611ffa90614c21565b60405180910390fd5b6006600082815260200190815260200160002060006101000a81549073ffffffffffffffffffffffffffffffffffffffff02191690556001600560008573ffffffffffffffffffffffffffffffffffffffff1673ffffffffffffffffffffffffffffffffffffffff168152602001908152602001600020600082825403925050819055506001600560008473ffffffffffffffffffffffffffffffffffffffff1673ffffffffffffffffffffffffffffffffffffffff16815260200190815260200160002060008282540192505081905550816004600083815260200190815260200160002060006101000a81548173ffffffffffffffffffffffffffffffffffffffff021916908373ffffffffffffffffffffffffffffffffffffffff160217905550808273ffffffffffffffffffffffffffffffffffffffff168473ffffffffffffffffffffffffffffffffffffffff167fddf252ad1be2c89b69c2b068fc378daa952ba7f163c4a11628f55a4df523b3ef60405160405180910390a461218f8383836001612b9e565b505050565b6121a5816121a0611d45565b612ba4565b50565b6121b28282611b70565b6121d78160016000858152602001908152602001600020611c5090919063ffffffff16565b505050565b6121e68282612c29565b61220b8160016000858152602001908152602001600020612d0a90919063ffffffff16565b505050565b612218612d3a565b6000600c60006101000a81548160ff0219169083151502179055507f5db9ee0a495bf2e6ff9c91a7834c1ba4fdd244a5e8aa4e537bd38aeae4b073aa61225c611d45565b6040516122699190613ced565b60405180910390a1565b600061227e8261139f565b905061228e816000846001612b8c565b6122978261139f565b90506006600083815260200190815260200160002060006101000a81549073ffffffffffffffffffffffffffffffffffffffff02191690556001600560008373ffffffffffffffffffffffffffffffffffffffff1673ffffffffffffffffffffffffffffffffffffffff168152602001908152602001600020600082825403925050819055506004600083815260200190815260200160002060006101000a81549073ffffffffffffffffffffffffffffffffffffffff021916905581600073ffffffffffffffffffffffffffffffffffffffff168273ffffffffffffffffffffffffffffffffffffffff167fddf252ad1be2c89b69c2b068fc378daa952ba7f163c4a11628f55a4df523b3ef60405160405180910390a46123bd816000846001612b9e565b5050565b60006004600083815260200190815260200160002060009054906101000a900473ffffffffffffffffffffffffffffffffffffffff169050919050565b600081600001549050919050565b600073ffffffffffffffffffffffffffffffffffffffff168273ffffffffffffffffffffffffffffffffffffffff160361247b576040517f08c379a000000000000000000000000000000000000000000000000000000000815260040161247290614d1f565b60405180910390fd5b61248481612b4b565b156124c4576040517f08c379a00000000000000000000000000000000000000000000000000000000081526004016124bb90614d8b565b60405180910390fd5b6124d2600083836001612b8c565b6124db81612b4b565b1561251b576040517f08c379a000000000000000000000000000000000000000000000000000000000815260040161251290614d8b565b60405180910390fd5b6001600560008473ffffffffffffffffffffffffffffffffffffffff1673ffffffffffffffffffffffffffffffffffffffff16815260200190815260200160002060008282540192505081905550816004600083815260200190815260200160002060006101000a81548173ffffffffffffffffffffffffffffffffffffffff021916908373ffffffffffffffffffffffffffffffffffffffff160217905550808273ffffffffffffffffffffffffffffffffffffffff16600073ffffffffffffffffffffffffffffffffffffffff167fddf252ad1be2c89b69c2b068fc378daa952ba7f163c4a11628f55a4df523b3ef60405160405180910390a4612625600083836001612b9e565b5050565b6001816000016000828254019250508190555050565b612647612d83565b6001600c60006101000a81548160ff0219169083151502179055507f62e78cea01bee320cd4e420270b5ea74000d11b0c9f74754ebdbfc544b05a25861268b611d45565b6040516126989190613ced565b60405180910390a1565b60006126b18360000183612dcd565b60001c905092915050565b8173ffffffffffffffffffffffffffffffffffffffff168373ffffffffffffffffffffffffffffffffffffffff160361272a576040517f08c379a000000000000000000000000000000000000000000000000000000000815260040161272190614df7565b60405180910390fd5b80600760008573ffffffffffffffffffffffffffffffffffffffff1673ffffffffffffffffffffffffffffffffffffffff16815260200190815260200160002060008473ffffffffffffffffffffffffffffffffffffffff1673ffffffffffffffffffffffffffffffffffffffff16815260200190815260200160002060006101000a81548160ff0219169083151502179055508173ffffffffffffffffffffffffffffffffffffffff168373ffffffffffffffffffffffffffffffffffffffff167f17307eab39ab6107e8899845ad3d59bd9653f200f220920489ca2b5937696c318360405161281b9190613b7c565b60405180910390a3505050565b612833848484611e9b565b61283f84848484612df8565b61287e576040517f08c379a000000000000000000000000000000000000000000000000000000000815260040161287590614e89565b60405180910390fd5b50505050565b6060600e8054612893906141fa565b80601f01602080910402602001604051908101604052809291908181526020018280546128bf906141fa565b801561290c5780601f106128e15761010080835404028352916020019161290c565b820191906000526020600020905b8154815290600101906020018083116128ef57829003601f168201915b5050505050905090565b60606000600161292584612f7f565b01905060008167ffffffffffffffff81111561294457612943613fdd565b5b6040519080825280601f01601f1916602001820160405280156129765781602001600182028036833780820191505090505b509050600082602001820190505b6001156129d9578080600190039150507f3031323334353637383961626364656600000000000000000000000000000000600a86061a8153600a85816129cd576129cc614ea9565b5b04945060008503612984575b819350505050919050565b60006129f2826000016130d2565b9050919050565b6000612a0583836130e3565b612a5e578260000182908060018154018082558091505060019003906000526020600020016000909190919091505582600001805490508360010160008481526020019081526020016000208190555060019050612a63565b600090505b92915050565b60007f80ac58cd000000000000000000000000000000000000000000000000000000007bffffffffffffffffffffffffffffffffffffffffffffffffffffffff1916827bffffffffffffffffffffffffffffffffffffffffffffffffffffffff19161480612b3457507f5b5e139f000000000000000000000000000000000000000000000000000000007bffffffffffffffffffffffffffffffffffffffffffffffffffffffff1916827bffffffffffffffffffffffffffffffffffffffffffffffffffffffff1916145b80612b445750612b4382613106565b5b9050919050565b60008073ffffffffffffffffffffffffffffffffffffffff16612b6d836123c1565b73ffffffffffffffffffffffffffffffffffffffff1614159050919050565b612b9884848484613180565b50505050565b50505050565b612bae828261162e565b612c2557612bbb816131da565b612bc98360001c6020613207565b604051602001612bda929190614f70565b6040516020818303038152906040526040517f08c379a0000000000000000000000000000000000000000000000000000000008152600401612c1c9190613c27565b60405180910390fd5b5050565b612c33828261162e565b15612d0657600080600084815260200190815260200160002060000160008373ffffffffffffffffffffffffffffffffffffffff1673ffffffffffffffffffffffffffffffffffffffff16815260200190815260200160002060006101000a81548160ff021916908315150217905550612cab611d45565b73ffffffffffffffffffffffffffffffffffffffff168173ffffffffffffffffffffffffffffffffffffffff16837ff6391f5c32d9c69d2a47ea670b442974b53935d1edc7fd64eb21e047a839171b60405160405180910390a45b5050565b6000612d32836000018373ffffffffffffffffffffffffffffffffffffffff1660001b613443565b905092915050565b612d42611370565b612d81576040517f08c379a0000000000000000000000000000000000000000000000000000000008152600401612d7890614ff6565b60405180910390fd5b565b612d8b611370565b15612dcb576040517f08c379a0000000000000000000000000000000000000000000000000000000008152600401612dc290615062565b60405180910390fd5b565b6000826000018281548110612de557612de461481c565b5b9060005260206000200154905092915050565b6000612e198473ffffffffffffffffffffffffffffffffffffffff16613557565b15612f72578373ffffffffffffffffffffffffffffffffffffffff1663150b7a02612e42611d45565b8786866040518563ffffffff1660e01b8152600401612e6494939291906150d7565b6020604051808303816000875af1925050508015612ea057506040513d601f19601f82011682018060405250810190612e9d9190615138565b60015b612f22573d8060008114612ed0576040519150601f19603f3d011682016040523d82523d6000602084013e612ed5565b606091505b506000815103612f1a576040517f08c379a0000000000000000000000000000000000000000000000000000000008152600401612f1190614e89565b60405180910390fd5b805181602001fd5b63150b7a0260e01b7bffffffffffffffffffffffffffffffffffffffffffffffffffffffff1916817bffffffffffffffffffffffffffffffffffffffffffffffffffffffff191614915050612f77565b600190505b949350505050565b600080600090507a184f03e93ff9f4daa797ed6e38ed64bf6a1f0100000000000000008310612fdd577a184f03e93ff9f4daa797ed6e38ed64bf6a1f0100000000000000008381612fd357612fd2614ea9565b5b0492506040810190505b6d04ee2d6d415b85acef8100000000831061301a576d04ee2d6d415b85acef810000000083816130105761300f614ea9565b5b0492506020810190505b662386f26fc10000831061304957662386f26fc10000838161303f5761303e614ea9565b5b0492506010810190505b6305f5e1008310613072576305f5e100838161306857613067614ea9565b5b0492506008810190505b612710831061309757612710838161308d5761308c614ea9565b5b0492506004810190505b606483106130ba57606483816130b0576130af614ea9565b5b0492506002810190505b600a83106130c9576001810190505b80915050919050565b600081600001805490509050919050565b600080836001016000848152602001908152602001600020541415905092915050565b60007f5a05180f000000000000000000000000000000000000000000000000000000007bffffffffffffffffffffffffffffffffffffffffffffffffffffffff1916827bffffffffffffffffffffffffffffffffffffffffffffffffffffffff1916148061317957506131788261357a565b5b9050919050565b61318c848484846135f4565b613194611370565b156131d4576040517f08c379a00000000000000000000000000000000000000000000000000000000081526004016131cb906151d7565b60405180910390fd5b50505050565b60606132008273ffffffffffffffffffffffffffffffffffffffff16601460ff16613207565b9050919050565b60606000600283600261321a9190614b6d565b613224919061450e565b67ffffffffffffffff81111561323d5761323c613fdd565b5b6040519080825280601f01601f19166020018201604052801561326f5781602001600182028036833780820191505090505b5090507f3000000000000000000000000000000000000000000000000000000000000000816000815181106132a7576132a661481c565b5b60200101907effffffffffffffffffffffffffffffffffffffffffffffffffffffffffffff1916908160001a9053507f78000000000000000000000000000000000000000000000000000000000000008160018151811061330b5761330a61481c565b5b60200101907effffffffffffffffffffffffffffffffffffffffffffffffffffffffffffff1916908160001a9053506000600184600261334b9190614b6d565b613355919061450e565b90505b60018111156133f5577f3031323334353637383961626364656600000000000000000000000000000000600f8616601081106133975761339661481c565b5b1a60f81b8282815181106133ae576133ad61481c565b5b60200101907effffffffffffffffffffffffffffffffffffffffffffffffffffffffffffff1916908160001a905350600485901c9450806133ee906151f7565b9050613358565b5060008414613439576040517f08c379a00000000000000000000000000000000000000000000000000000000081526004016134309061526c565b60405180910390fd5b8091505092915050565b6000808360010160008481526020019081526020016000205490506000811461354b5760006001826134759190614b39565b905060006001866000018054905061348d9190614b39565b90508181146134fc5760008660000182815481106134ae576134ad61481c565b5b90600052602060002001549050808760000184815481106134d2576134d161481c565b5b90600052602060002001819055508387600101600083815260200190815260200160002081905550505b856000018054806135105761350f61528c565b5b600190038181906000526020600020016000905590558560010160008681526020019081526020016000206000905560019350505050613551565b60009150505b92915050565b6000808273ffffffffffffffffffffffffffffffffffffffff163b119050919050565b60007f7965db0b000000000000000000000000000000000000000000000000000000007bffffffffffffffffffffffffffffffffffffffffffffffffffffffff1916827bffffffffffffffffffffffffffffffffffffffffffffffffffffffff191614806135ed57506135ec82613752565b5b9050919050565b613600848484846137bc565b6001811115613644576040517f08c379a000000000000000000000000000000000000000000000000000000000815260040161363b9061532d565b60405180910390fd5b6000829050600073ffffffffffffffffffffffffffffffffffffffff168573ffffffffffffffffffffffffffffffffffffffff160361368b57613686816137c2565b6136ca565b8373ffffffffffffffffffffffffffffffffffffffff168573ffffffffffffffffffffffffffffffffffffffff16146136c9576136c8858261380b565b5b5b600073ffffffffffffffffffffffffffffffffffffffff168473ffffffffffffffffffffffffffffffffffffffff160361370c5761370781613978565b61374b565b8473ffffffffffffffffffffffffffffffffffffffff168473ffffffffffffffffffffffffffffffffffffffff161461374a576137498482613a49565b5b5b5050505050565b60007f01ffc9a7000000000000000000000000000000000000000000000000000000007bffffffffffffffffffffffffffffffffffffffffffffffffffffffff1916827bffffffffffffffffffffffffffffffffffffffffffffffffffffffff1916149050919050565b50505050565b600a80549050600b600083815260200190815260200160002081905550600a81908060018154018082558091505060019003906000526020600020016000909190919091505550565b60006001613818846114b5565b6138229190614b39565b9050600060096000848152602001908152602001600020549050818114613907576000600860008673ffffffffffffffffffffffffffffffffffffffff1673ffffffffffffffffffffffffffffffffffffffff168152602001908152602001600020600084815260200190815260200160002054905080600860008773ffffffffffffffffffffffffffffffffffffffff1673ffffffffffffffffffffffffffffffffffffffff168152602001908152602001600020600084815260200190815260200160002081905550816009600083815260200190815260200160002081905550505b6009600084815260200190815260200160002060009055600860008573ffffffffffffffffffffffffffffffffffffffff1673ffffffffffffffffffffffffffffffffffffffff16815260200190815260200160002060008381526020019081526020016000206000905550505050565b60006001600a8054905061398c9190614b39565b90506000600b60008481526020019081526020016000205490506000600a83815481106139bc576139bb61481c565b5b9060005260206000200154905080600a83815481106139de576139dd61481c565b5b906000526020600020018190555081600b600083815260200190815260200160002081905550600b600085815260200190815260200160002060009055600a805480613a2d57613a2c61528c565b5b6001900381819060005260206000200160009055905550505050565b6000613a54836114b5565b905081600860008573ffffffffffffffffffffffffffffffffffffffff1673ffffffffffffffffffffffffffffffffffffffff168152602001908152602001600020600083815260200190815260200160002081905550806009600084815260200190815260200160002081905550505050565b6000604051905090565b600080fd5b600080fd5b60007fffffffff0000000000000000000000000000000000000000000000000000000082169050919050565b613b1181613adc565b8114613b1c57600080fd5b50565b600081359050613b2e81613b08565b92915050565b600060208284031215613b4a57613b49613ad2565b5b6000613b5884828501613b1f565b91505092915050565b60008115159050919050565b613b7681613b61565b82525050565b6000602082019050613b916000830184613b6d565b92915050565b600081519050919050565b600082825260208201905092915050565b60005b83811015613bd1578082015181840152602081019050613bb6565b60008484015250505050565b6000601f19601f8301169050919050565b6000613bf982613b97565b613c038185613ba2565b9350613c13818560208601613bb3565b613c1c81613bdd565b840191505092915050565b60006020820190508181036000830152613c418184613bee565b905092915050565b6000819050919050565b613c5c81613c49565b8114613c6757600080fd5b50565b600081359050613c7981613c53565b92915050565b600060208284031215613c9557613c94613ad2565b5b6000613ca384828501613c6a565b91505092915050565b600073ffffffffffffffffffffffffffffffffffffffff82169050919050565b6000613cd782613cac565b9050919050565b613ce781613ccc565b82525050565b6000602082019050613d026000830184613cde565b92915050565b6000613d1382613cac565b9050919050565b613d2381613d08565b82525050565b6000602082019050613d3e6000830184613d1a565b92915050565b613d4d81613ccc565b8114613d5857600080fd5b50565b600081359050613d6a81613d44565b92915050565b60008060408385031215613d8757613d86613ad2565b5b6000613d9585828601613d5b565b9250506020613da685828601613c6a565b9150509250929050565b613db981613c49565b82525050565b6000602082019050613dd46000830184613db0565b92915050565b600080600060608486031215613df357613df2613ad2565b5b6000613e0186828701613d5b565b9350506020613e1286828701613d5b565b9250506040613e2386828701613c6a565b9150509250925092565b6000819050919050565b613e4081613e2d565b8114613e4b57600080fd5b50565b600081359050613e5d81613e37565b92915050565b600060208284031215613e7957613e78613ad2565b5b6000613e8784828501613e4e565b91505092915050565b613e9981613e2d565b82525050565b6000602082019050613eb46000830184613e90565b92915050565b60008060408385031215613ed157613ed0613ad2565b5b6000613edf85828601613e4e565b9250506020613ef085828601613d5b565b9150509250929050565b600060208284031215613f1057613f0f613ad2565b5b6000613f1e84828501613d5b565b91505092915050565b60008060408385031215613f3e57613f3d613ad2565b5b6000613f4c85828601613e4e565b9250506020613f5d85828601613c6a565b9150509250929050565b613f7081613b61565b8114613f7b57600080fd5b50565b600081359050613f8d81613f67565b92915050565b60008060408385031215613faa57613fa9613ad2565b5b6000613fb885828601613d5b565b9250506020613fc985828601613f7e565b9150509250929050565b600080fd5b600080fd5b7f4e487b7100000000000000000000000000000000000000000000000000000000600052604160045260246000fd5b61401582613bdd565b810181811067ffffffffffffffff8211171561403457614033613fdd565b5b80604052505050565b6000614047613ac8565b9050614053828261400c565b919050565b600067ffffffffffffffff82111561407357614072613fdd565b5b61407c82613bdd565b9050602081019050919050565b82818337600083830152505050565b60006140ab6140a684614058565b61403d565b9050828152602081018484840111156140c7576140c6613fd8565b5b6140d2848285614089565b509392505050565b600082601f8301126140ef576140ee613fd3565b5b81356140ff848260208601614098565b91505092915050565b6000806000806080858703121561412257614121613ad2565b5b600061413087828801613d5b565b945050602061414187828801613d5b565b935050604061415287828801613c6a565b925050606085013567ffffffffffffffff81111561417357614172613ad7565b5b61417f878288016140da565b91505092959194509250565b600080604083850312156141a2576141a1613ad2565b5b60006141b085828601613d5b565b92505060206141c185828601613d5b565b9150509250929050565b7f4e487b7100000000000000000000000000000000000000000000000000000000600052602260045260246000fd5b6000600282049050600182168061421257607f821691505b602082108103614225576142246141cb565b5b50919050565b7f4552433732313a20617070726f76616c20746f2063757272656e74206f776e6560008201527f7200000000000000000000000000000000000000000000000000000000000000602082015250565b6000614287602183613ba2565b91506142928261422b565b604082019050919050565b600060208201905081810360008301526142b68161427a565b9050919050565b7f4552433732313a20617070726f76652063616c6c6572206973206e6f7420746f60008201527f6b656e206f776e6572206f7220617070726f76656420666f7220616c6c000000602082015250565b6000614319603d83613ba2565b9150614324826142bd565b604082019050919050565b600060208201905081810360008301526143488161430c565b9050919050565b7f41756374696f6e2068617320656e646564000000000000000000000000000000600082015250565b6000614385601183613ba2565b91506143908261434f565b602082019050919050565b600060208201905081810360008301526143b481614378565b9050919050565b7f42696420616d6f756e74206d7573742062652067726561746572207468616e2060008201527f3000000000000000000000000000000000000000000000000000000000000000602082015250565b6000614417602183613ba2565b9150614422826143bb565b604082019050919050565b600060208201905081810360008301526144468161440a565b9050919050565b7f42696420616d6f756e74206973206c6f776572207468616e2063757272656e7460008201527f2070726963650000000000000000000000000000000000000000000000000000602082015250565b60006144a9602683613ba2565b91506144b48261444d565b604082019050919050565b600060208201905081810360008301526144d88161449c565b9050919050565b7f4e487b7100000000000000000000000000000000000000000000000000000000600052601160045260246000fd5b600061451982613c49565b915061452483613c49565b925082820190508082111561453c5761453b6144df565b5b92915050565b7f4552433732313a2063616c6c6572206973206e6f7420746f6b656e206f776e6560008201527f72206f7220617070726f76656400000000000000000000000000000000000000602082015250565b600061459e602d83613ba2565b91506145a982614542565b604082019050919050565b600060208201905081810360008301526145cd81614591565b9050919050565b7f455243373231456e756d657261626c653a206f776e657220696e646578206f7560008201527f74206f6620626f756e6473000000000000000000000000000000000000000000602082015250565b6000614630602b83613ba2565b915061463b826145d4565b604082019050919050565b6000602082019050818103600083015261465f81614623565b9050919050565b7f416363657373436f6e74726f6c3a2063616e206f6e6c792072656e6f756e636560008201527f20726f6c657320666f722073656c660000000000000000000000000000000000602082015250565b60006146c2602f83613ba2565b91506146cd82614666565b604082019050919050565b600060208201905081810360008301526146f1816146b5565b9050919050565b7f4552433732315072657365744d696e7465725061757365724175746f49643a2060008201527f6d75737420686176652070617573657220726f6c6520746f20756e7061757365602082015250565b6000614754604083613ba2565b915061475f826146f8565b604082019050919050565b6000602082019050818103600083015261478381614747565b9050919050565b7f455243373231456e756d657261626c653a20676c6f62616c20696e646578206f60008201527f7574206f6620626f756e64730000000000000000000000000000000000000000602082015250565b60006147e6602c83613ba2565b91506147f18261478a565b604082019050919050565b60006020820190508181036000830152614815816147d9565b9050919050565b7f4e487b7100000000000000000000000000000000000000000000000000000000600052603260045260246000fd5b7f4552433732313a20696e76616c696420746f6b656e2049440000000000000000600082015250565b6000614881601883613ba2565b915061488c8261484b565b602082019050919050565b600060208201905081810360008301526148b081614874565b9050919050565b7f4552433732315072657365744d696e7465725061757365724175746f49643a2060008201527f6d7573742068617665206d696e74657220726f6c6520746f206d696e74000000602082015250565b6000614913603d83613ba2565b915061491e826148b7565b604082019050919050565b6000602082019050818103600083015261494281614906565b9050919050565b7f4552433732313a2061646472657373207a65726f206973206e6f74206120766160008201527f6c6964206f776e65720000000000000000000000000000000000000000000000602082015250565b60006149a5602983613ba2565b91506149b082614949565b604082019050919050565b600060208201905081810360008301526149d481614998565b9050919050565b7f4552433732315072657365744d696e7465725061757365724175746f49643a2060008201527f6d75737420686176652070617573657220726f6c6520746f2070617573650000602082015250565b6000614a37603e83613ba2565b9150614a42826149db565b604082019050919050565b60006020820190508181036000830152614a6681614a2a565b9050919050565b7f4e6f20726566756e6420617661696c61626c6500000000000000000000000000600082015250565b6000614aa3601383613ba2565b9150614aae82614a6d565b602082019050919050565b60006020820190508181036000830152614ad281614a96565b9050919050565b600081905092915050565b6000614aef82613b97565b614af98185614ad9565b9350614b09818560208601613bb3565b80840191505092915050565b6000614b218285614ae4565b9150614b2d8284614ae4565b91508190509392505050565b6000614b4482613c49565b9150614b4f83613c49565b9250828203905081811115614b6757614b666144df565b5b92915050565b6000614b7882613c49565b9150614b8383613c49565b9250828202614b9181613c49565b91508282048414831517614ba857614ba76144df565b5b5092915050565b7f4552433732313a207472616e736665722066726f6d20696e636f72726563742060008201527f6f776e6572000000000000000000000000000000000000000000000000000000602082015250565b6000614c0b602583613ba2565b9150614c1682614baf565b604082019050919050565b60006020820190508181036000830152614c3a81614bfe565b9050919050565b7f4552433732313a207472616e7366657220746f20746865207a65726f2061646460008201527f7265737300000000000000000000000000000000000000000000000000000000602082015250565b6000614c9d602483613ba2565b9150614ca882614c41565b604082019050919050565b60006020820190508181036000830152614ccc81614c90565b9050919050565b7f4552433732313a206d696e7420746f20746865207a65726f2061646472657373600082015250565b6000614d09602083613ba2565b9150614d1482614cd3565b602082019050919050565b60006020820190508181036000830152614d3881614cfc565b9050919050565b7f4552433732313a20746f6b656e20616c7265616479206d696e74656400000000600082015250565b6000614d75601c83613ba2565b9150614d8082614d3f565b602082019050919050565b60006020820190508181036000830152614da481614d68565b9050919050565b7f4552433732313a20617070726f766520746f2063616c6c657200000000000000600082015250565b6000614de1601983613ba2565b9150614dec82614dab565b602082019050919050565b60006020820190508181036000830152614e1081614dd4565b9050919050565b7f4552433732313a207472616e7366657220746f206e6f6e20455243373231526560008201527f63656976657220696d706c656d656e7465720000000000000000000000000000602082015250565b6000614e73603283613ba2565b9150614e7e82614e17565b604082019050919050565b60006020820190508181036000830152614ea281614e66565b9050919050565b7f4e487b7100000000000000000000000000000000000000000000000000000000600052601260045260246000fd5b7f416363657373436f6e74726f6c3a206163636f756e7420000000000000000000600082015250565b6000614f0e601783614ad9565b9150614f1982614ed8565b601782019050919050565b7f206973206d697373696e6720726f6c6520000000000000000000000000000000600082015250565b6000614f5a601183614ad9565b9150614f6582614f24565b601182019050919050565b6000614f7b82614f01565b9150614f878285614ae4565b9150614f9282614f4d565b9150614f9e8284614ae4565b91508190509392505050565b7f5061757361626c653a206e6f7420706175736564000000000000000000000000600082015250565b6000614fe0601483613ba2565b9150614feb82614faa565b602082019050919050565b6000602082019050818103600083015261500f81614fd3565b9050919050565b7f5061757361626c653a2070617573656400000000000000000000000000000000600082015250565b600061504c601083613ba2565b915061505782615016565b602082019050919050565b6000602082019050818103600083015261507b8161503f565b9050919050565b600081519050919050565b600082825260208201905092915050565b60006150a982615082565b6150b3818561508d565b93506150c3818560208601613bb3565b6150cc81613bdd565b840191505092915050565b60006080820190506150ec6000830187613cde565b6150f96020830186613cde565b6151066040830185613db0565b8181036060830152615118818461509e565b905095945050505050565b60008151905061513281613b08565b92915050565b60006020828403121561514e5761514d613ad2565b5b600061515c84828501615123565b91505092915050565b7f4552433732315061757361626c653a20746f6b656e207472616e73666572207760008201527f68696c6520706175736564000000000000000000000000000000000000000000602082015250565b60006151c1602b83613ba2565b91506151cc82615165565b604082019050919050565b600060208201905081810360008301526151f0816151b4565b9050919050565b600061520282613c49565b915060008203615215576152146144df565b5b600182039050919050565b7f537472696e67733a20686578206c656e67746820696e73756666696369656e74600082015250565b6000615256602083613ba2565b915061526182615220565b602082019050919050565b6000602082019050818103600083015261528581615249565b9050919050565b7f4e487b7100000000000000000000000000000000000000000000000000000000600052603160045260246000fd5b7f455243373231456e756d657261626c653a20636f6e736563757469766520747260008201527f616e7366657273206e6f7420737570706f727465640000000000000000000000602082015250565b6000615317603583613ba2565b9150615322826152bb565b604082019050919050565b600060208201905081810360008301526153468161530a565b905091905056fea264697066735822122099c12e020cd7d629464bf12b59ad29a3edd882fdabf4d6069fc8b8932503f58864736f6c63430008120033",
  "linkReferences": {},
  "deployedLinkReferences": {}
}