{
  "_format": "hh-sol-artifact-1",
  "contractName": "NFTDutchAuction_ERC20Bids",
  "sourceName": "contracts/NFTDutchAuction_ERC20Bids.sol",
  "abi": [
    {
      "anonymous": false,
      "inputs": [
        {
          "indexed": false,
          "internalType": "address",
          "name": "previousAdmin",
          "type": "address"
        },
        {
          "indexed": false,
          "internalType": "address",
          "name": "newAdmin",
          "type": "address"
        }
      ],
      "name": "AdminChanged",
      "type": "event"
    },
    {
      "anonymous": false,
      "inputs": [
        {
          "indexed": false,
          "internalType": "address",
          "name": "winner",
          "type": "address"
        },
        {
          "indexed": false,
          "internalType": "uint256",
          "name": "amount",
          "type": "uint256"
        }
      ],
      "name": "AuctionEnded",
      "type": "event"
    },
    {
      "anonymous": false,
      "inputs": [
        {
          "indexed": true,
          "internalType": "address",
          "name": "beacon",
          "type": "address"
        }
      ],
      "name": "BeaconUpgraded",
      "type": "event"
    },
    {
      "anonymous": false,
      "inputs": [
        {
          "indexed": false,
          "internalType": "uint8",
          "name": "version",
          "type": "uint8"
        }
      ],
      "name": "Initialized",
      "type": "event"
    },
    {
      "anonymous": false,
      "inputs": [
        {
          "indexed": true,
          "internalType": "address",
          "name": "previousOwner",
          "type": "address"
        },
        {
          "indexed": true,
          "internalType": "address",
          "name": "newOwner",
          "type": "address"
        }
      ],
      "name": "OwnershipTransferred",
      "type": "event"
    },
    {
      "anonymous": false,
      "inputs": [
        {
          "indexed": true,
          "internalType": "address",
          "name": "implementation",
          "type": "address"
        }
      ],
      "name": "Upgraded",
      "type": "event"
    },
    {
      "inputs": [],
      "name": "auctionEndTime",
      "outputs": [
        {
          "internalType": "uint256",
          "name": "",
          "type": "uint256"
        }
      ],
      "stateMutability": "view",
      "type": "function"
    },
    {
      "inputs": [],
      "name": "auctionEnded",
      "outputs": [
        {
          "internalType": "bool",
          "name": "",
          "type": "bool"
        }
      ],
      "stateMutability": "view",
      "type": "function"
    },
    {
      "inputs": [
        {
          "internalType": "uint256",
          "name": "amount",
          "type": "uint256"
        },
        {
          "internalType": "bool",
          "name": "isOffChain",
          "type": "bool"
        },
        {
          "internalType": "uint8",
          "name": "v",
          "type": "uint8"
        },
        {
          "internalType": "bytes32",
          "name": "r",
          "type": "bytes32"
        },
        {
          "internalType": "bytes32",
          "name": "s",
          "type": "bytes32"
        },
        {
          "internalType": "uint256",
          "name": "deadline",
          "type": "uint256"
        }
      ],
      "name": "bid",
      "outputs": [
        {
          "internalType": "bool",
          "name": "",
          "type": "bool"
        }
      ],
      "stateMutability": "nonpayable",
      "type": "function"
    },
    {
      "inputs": [
        {
          "internalType": "address",
          "name": "",
          "type": "address"
        }
      ],
      "name": "bids",
      "outputs": [
        {
          "internalType": "uint256",
          "name": "",
          "type": "uint256"
        }
      ],
      "stateMutability": "view",
      "type": "function"
    },
    {
      "inputs": [],
      "name": "claimRefund",
      "outputs": [],
      "stateMutability": "nonpayable",
      "type": "function"
    },
    {
      "inputs": [],
      "name": "erc20TokenAddress",
      "outputs": [
        {
          "internalType": "address",
          "name": "",
          "type": "address"
        }
      ],
      "stateMutability": "view",
      "type": "function"
    },
    {
      "inputs": [],
      "name": "firstBid",
      "outputs": [
        {
          "internalType": "uint256",
          "name": "",
          "type": "uint256"
        }
      ],
      "stateMutability": "view",
      "type": "function"
    },
    {
      "inputs": [],
      "name": "firstBidder",
      "outputs": [
        {
          "internalType": "address payable",
          "name": "",
          "type": "address"
        }
      ],
      "stateMutability": "view",
      "type": "function"
    },
    {
      "inputs": [
        {
          "internalType": "address",
          "name": "account",
          "type": "address"
        }
      ],
      "name": "getBalanceOf",
      "outputs": [
        {
          "internalType": "uint256",
          "name": "",
          "type": "uint256"
        }
      ],
      "stateMutability": "view",
      "type": "function"
    },
    {
      "inputs": [],
      "name": "getCurrentPrice",
      "outputs": [
        {
          "internalType": "uint256",
          "name": "",
          "type": "uint256"
        }
      ],
      "stateMutability": "view",
      "type": "function"
    },
    {
      "inputs": [],
      "name": "gotValidBid",
      "outputs": [
        {
          "internalType": "bool",
          "name": "",
          "type": "bool"
        }
      ],
      "stateMutability": "view",
      "type": "function"
    },
    {
      "inputs": [],
      "name": "initialPrice",
      "outputs": [
        {
          "internalType": "uint256",
          "name": "",
          "type": "uint256"
        }
      ],
      "stateMutability": "view",
      "type": "function"
    },
    {
      "inputs": [
        {
          "internalType": "address",
          "name": "_erc20TokenAddress",
          "type": "address"
        },
        {
          "internalType": "address",
          "name": "erc721TokenAddress",
          "type": "address"
        },
        {
          "internalType": "uint256",
          "name": "_nftTokenId",
          "type": "uint256"
        },
        {
          "internalType": "uint256",
          "name": "_reservePrice",
          "type": "uint256"
        },
        {
          "internalType": "uint256",
          "name": "_numBlocksAuctionOpen",
          "type": "uint256"
        },
        {
          "internalType": "uint256",
          "name": "_offerPriceDecrement",
          "type": "uint256"
        }
      ],
      "name": "initialize",
      "outputs": [],
      "stateMutability": "nonpayable",
      "type": "function"
    },
    {
      "inputs": [],
      "name": "nftTokenId",
      "outputs": [
        {
          "internalType": "uint256",
          "name": "",
          "type": "uint256"
        }
      ],
      "stateMutability": "view",
      "type": "function"
    },
    {
      "inputs": [],
      "name": "numBlocksAuctionOpen",
      "outputs": [
        {
          "internalType": "uint256",
          "name": "",
          "type": "uint256"
        }
      ],
      "stateMutability": "view",
      "type": "function"
    },
    {
      "inputs": [],
      "name": "offerPriceDecrement",
      "outputs": [
        {
          "internalType": "uint256",
          "name": "",
          "type": "uint256"
        }
      ],
      "stateMutability": "view",
      "type": "function"
    },
    {
      "inputs": [],
      "name": "owner",
      "outputs": [
        {
          "internalType": "address",
          "name": "",
          "type": "address"
        }
      ],
      "stateMutability": "view",
      "type": "function"
    },
    {
      "inputs": [],
      "name": "proxiableUUID",
      "outputs": [
        {
          "internalType": "bytes32",
          "name": "",
          "type": "bytes32"
        }
      ],
      "stateMutability": "view",
      "type": "function"
    },
    {
      "inputs": [],
      "name": "renounceOwnership",
      "outputs": [],
      "stateMutability": "nonpayable",
      "type": "function"
    },
    {
      "inputs": [],
      "name": "reservePrice",
      "outputs": [
        {
          "internalType": "uint256",
          "name": "",
          "type": "uint256"
        }
      ],
      "stateMutability": "view",
      "type": "function"
    },
    {
      "inputs": [],
      "name": "seller",
      "outputs": [
        {
          "internalType": "address payable",
          "name": "",
          "type": "address"
        }
      ],
      "stateMutability": "view",
      "type": "function"
    },
    {
      "inputs": [],
      "name": "tokenAddress",
      "outputs": [
        {
          "internalType": "address",
          "name": "",
          "type": "address"
        }
      ],
      "stateMutability": "view",
      "type": "function"
    },
    {
      "inputs": [],
      "name": "tokenContract",
      "outputs": [
        {
          "internalType": "contract ERC20Permit",
          "name": "",
          "type": "address"
        }
      ],
      "stateMutability": "view",
      "type": "function"
    },
    {
      "inputs": [
        {
          "internalType": "address",
          "name": "newOwner",
          "type": "address"
        }
      ],
      "name": "transferOwnership",
      "outputs": [],
      "stateMutability": "nonpayable",
      "type": "function"
    },
    {
      "inputs": [
        {
          "internalType": "address",
          "name": "newImplementation",
          "type": "address"
        }
      ],
      "name": "upgradeTo",
      "outputs": [],
      "stateMutability": "nonpayable",
      "type": "function"
    },
    {
      "inputs": [
        {
          "internalType": "address",
          "name": "newImplementation",
          "type": "address"
        },
        {
          "internalType": "bytes",
          "name": "data",
          "type": "bytes"
        }
      ],
      "name": "upgradeToAndCall",
      "outputs": [],
      "stateMutability": "payable",
      "type": "function"
    }
  ],
  "bytecode": "0x60a06040523073ffffffffffffffffffffffffffffffffffffffff1660809073ffffffffffffffffffffffffffffffffffffffff1681525034801561004357600080fd5b506080516131ea61007b6000396000818161062a015281816106b8015281816107b80152818161084601526108f601526131ea6000f3fe6080604052600436106101815760003560e01c806386433374116100d1578063bdb393731161008a578063db2e1eed11610064578063db2e1eed14610533578063eb91d37e1461055e578063f2fde38b14610589578063f835cd3c146105b257610181565b8063bdb39373146104a0578063d0a1dcf6146104cb578063d3642a881461050857610181565b806386433374146103a257806386489ba9146103cd5780638da5cb5b146103f65780639b96eece146104215780639d76ea581461045e578063b5545a3c1461048957610181565b80634b449cba1161013e57806355a373d61161011857806355a373d6146102f857806362ea82db14610323578063715018a6146103605780637e8305741461037757610181565b80634b449cba146102865780634f1ef286146102b157806352d1902d146102cd57610181565b806308551a5314610186578063100e4555146101b15780631d0806ae146101dc57806328e2f696146102075780633103ea62146102325780633659cfe61461025d575b600080fd5b34801561019257600080fd5b5061019b6105dd565b6040516101a89190612101565b60405180910390f35b3480156101bd57600080fd5b506101c6610603565b6040516101d39190612137565b60405180910390f35b3480156101e857600080fd5b506101f1610616565b6040516101fe919061216b565b60405180910390f35b34801561021357600080fd5b5061021c61061c565b604051610229919061216b565b60405180910390f35b34801561023e57600080fd5b50610247610622565b604051610254919061216b565b60405180910390f35b34801561026957600080fd5b50610284600480360381019061027f91906121d8565b610628565b005b34801561029257600080fd5b5061029b6107b0565b6040516102a8919061216b565b60405180910390f35b6102cb60048036038101906102c6919061234b565b6107b6565b005b3480156102d957600080fd5b506102e26108f2565b6040516102ef91906123c0565b60405180910390f35b34801561030457600080fd5b5061030d6109ab565b60405161031a919061243a565b60405180910390f35b34801561032f57600080fd5b5061034a600480360381019061034591906121d8565b6109d1565b604051610357919061216b565b60405180910390f35b34801561036c57600080fd5b506103756109e9565b005b34801561038357600080fd5b5061038c6109fd565b604051610399919061216b565b60405180910390f35b3480156103ae57600080fd5b506103b7610a03565b6040516103c49190612137565b60405180910390f35b3480156103d957600080fd5b506103f460048036038101906103ef9190612481565b610a16565b005b34801561040257600080fd5b5061040b610edd565b604051610418919061251d565b60405180910390f35b34801561042d57600080fd5b50610448600480360381019061044391906121d8565b610f07565b604051610455919061216b565b60405180910390f35b34801561046a57600080fd5b50610473610f8c565b604051610480919061251d565b60405180910390f35b34801561049557600080fd5b5061049e610fb2565b005b3480156104ac57600080fd5b506104b561124d565b6040516104c29190612101565b60405180910390f35b3480156104d757600080fd5b506104f260048036038101906104ed91906125c9565b611273565b6040516104ff9190612137565b60405180910390f35b34801561051457600080fd5b5061051d61179e565b60405161052a919061216b565b60405180910390f35b34801561053f57600080fd5b506105486117a4565b604051610555919061216b565b60405180910390f35b34801561056a57600080fd5b506105736117aa565b604051610580919061216b565b60405180910390f35b34801561059557600080fd5b506105b060048036038101906105ab91906121d8565b6118ce565b005b3480156105be57600080fd5b506105c7611951565b6040516105d4919061251d565b60405180910390f35b60c960009054906101000a900473ffffffffffffffffffffffffffffffffffffffff1681565b60d160009054906101000a900460ff1681565b60cd5481565b60d05481565b60cb5481565b7f000000000000000000000000000000000000000000000000000000000000000073ffffffffffffffffffffffffffffffffffffffff163073ffffffffffffffffffffffffffffffffffffffff16036106b6576040517f08c379a00000000000000000000000000000000000000000000000000000000081526004016106ad906126d9565b60405180910390fd5b7f000000000000000000000000000000000000000000000000000000000000000073ffffffffffffffffffffffffffffffffffffffff166106f5611977565b73ffffffffffffffffffffffffffffffffffffffff161461074b576040517f08c379a00000000000000000000000000000000000000000000000000000000081526004016107429061276b565b60405180910390fd5b610754816119ce565b6107ad81600067ffffffffffffffff81111561077357610772612220565b5b6040519080825280601f01601f1916602001820160405280156107a55781602001600182028036833780820191505090505b506000611a15565b50565b60ce5481565b7f000000000000000000000000000000000000000000000000000000000000000073ffffffffffffffffffffffffffffffffffffffff163073ffffffffffffffffffffffffffffffffffffffff1603610844576040517f08c379a000000000000000000000000000000000000000000000000000000000815260040161083b906126d9565b60405180910390fd5b7f000000000000000000000000000000000000000000000000000000000000000073ffffffffffffffffffffffffffffffffffffffff16610883611977565b73ffffffffffffffffffffffffffffffffffffffff16146108d9576040517f08c379a00000000000000000000000000000000000000000000000000000000081526004016108d09061276b565b60405180910390fd5b6108e2826119ce565b6108ee82826001611a15565b5050565b60007f000000000000000000000000000000000000000000000000000000000000000073ffffffffffffffffffffffffffffffffffffffff163073ffffffffffffffffffffffffffffffffffffffff1614610982576040517f08c379a0000000000000000000000000000000000000000000000000000000008152600401610979906127fd565b60405180910390fd5b7f360894a13ba1a3210667c828492db98dca3e2076cc3735a920a3ca505d382bbc60001b905090565b60d460009054906101000a900473ffffffffffffffffffffffffffffffffffffffff1681565b60d56020528060005260406000206000915090505481565b6109f1611b83565b6109fb6000611c01565b565b60d25481565b60cf60009054906101000a900460ff1681565b610a2a67c0c6b2ec7beef9dd60c01b611cc7565b60008060019054906101000a900460ff16159050808015610a5b5750600160008054906101000a900460ff1660ff16105b80610a885750610a6a30611cca565b158015610a875750600160008054906101000a900460ff1660ff16145b5b610ac7576040517f08c379a0000000000000000000000000000000000000000000000000000000008152600401610abe9061288f565b60405180910390fd5b60016000806101000a81548160ff021916908360ff1602179055508015610b04576001600060016101000a81548160ff0219169083151502179055505b610b1867e1bf418eeb59e30660c01b611cc7565b610b2c67a6a061c9486b0ed860c01b611cc7565b610b40679df984236e2da9ef60c01b611cc7565b610b54677b83931e43be411860c01b611cc7565b610b5c611ced565b610b7067d8b46d62b88dcd1460c01b611cc7565b610b8467f32d16be2b29bad760c01b611cc7565b610b8c611d46565b610ba0675cfdf26c9abcbebc60c01b611cc7565b3360c960006101000a81548173ffffffffffffffffffffffffffffffffffffffff021916908373ffffffffffffffffffffffffffffffffffffffff160217905550610bf5673f18ea7dc1629c7660c01b611cc7565b8360ca81905550610c1067707a46446cad1ad560c01b611cc7565b8260cb81905550610c2b67b2582d16d5153f3760c01b611cc7565b8160cc81905550610c4667d51ddc1245e9848c60c01b611cc7565b60cc5460cb54610c5691906128de565b60ca54610c639190612920565b60cd81905550610c7d67a7b8eb58c1338a9560c01b611cc7565b60cb5443610c8b9190612920565b60ce81905550610ca5676b30eb7d9b71d27f60c01b611cc7565b600060cf60006101000a81548160ff021916908315150217905550610cd4677ac2490e4d332c4a60c01b611cc7565b600060d160006101000a81548160ff021916908315150217905550610d0367db44758d0a16ec2b60c01b611cc7565b600060cf60016101000a81548173ffffffffffffffffffffffffffffffffffffffff021916908373ffffffffffffffffffffffffffffffffffffffff160217905550610d5967837e66081895d31160c01b611cc7565b600060d081905550610d756769f17b5c57155d1560c01b611cc7565b8560d160016101000a81548173ffffffffffffffffffffffffffffffffffffffff021916908373ffffffffffffffffffffffffffffffffffffffff160217905550610dca67e9b529440ce005e960c01b611cc7565b8460d281905550610de567f2f9a8fc5748a36060c01b611cc7565b8660d360006101000a81548173ffffffffffffffffffffffffffffffffffffffff021916908373ffffffffffffffffffffffffffffffffffffffff160217905550610e3a670d7cb30c039c027060c01b611cc7565b8660d460006101000a81548173ffffffffffffffffffffffffffffffffffffffff021916908373ffffffffffffffffffffffffffffffffffffffff1602179055508015610ed45760008060016101000a81548160ff0219169083151502179055507f7f26b83ff96e1f2b6a682f133852f6798a09c465da95921460cefb38474024986001604051610ecb919061298f565b60405180910390a15b50505050505050565b6000603360009054906101000a900473ffffffffffffffffffffffffffffffffffffffff16905090565b6000610f1d675237877d62e74fa560c01b611cc7565b610f3167e337df0f59cd4f9160c01b611cc7565b610f4567d4f078fcf5ade60f60c01b611cc7565b60d560008373ffffffffffffffffffffffffffffffffffffffff1673ffffffffffffffffffffffffffffffffffffffff168152602001908152602001600020549050919050565b60d160019054906101000a900473ffffffffffffffffffffffffffffffffffffffff1681565b610fc667cf93c24fc9f2fd8560c01b611cc7565b610fda67845e63f2553b259660c01b611cc7565b610fee670429895f4a14fd8860c01b611cc7565b61100267e94e95678aa933e060c01b611cc7565b600060d560003373ffffffffffffffffffffffffffffffffffffffff1673ffffffffffffffffffffffffffffffffffffffff1681526020019081526020016000205411611084576040517f08c379a000000000000000000000000000000000000000000000000000000000815260040161107b906129f6565b60405180910390fd5b6110986767a0351e10fd3d2460c01b611cc7565b6110ac6719bacca715e365a460c01b611cc7565b6110c0675361e45457697f1060c01b611cc7565b600060d560003373ffffffffffffffffffffffffffffffffffffffff1673ffffffffffffffffffffffffffffffffffffffff16815260200190815260200160002054905061111867eca91026c6462ae560c01b611cc7565b600060d560003373ffffffffffffffffffffffffffffffffffffffff1673ffffffffffffffffffffffffffffffffffffffff1681526020019081526020016000208190555061117167f34623a4249a3fbc60c01b611cc7565b611185674f0189097a40d96f60c01b611cc7565b60d360009054906101000a900473ffffffffffffffffffffffffffffffffffffffff1673ffffffffffffffffffffffffffffffffffffffff166323b872dd60c960009054906101000a900473ffffffffffffffffffffffffffffffffffffffff1633846040518463ffffffff1660e01b815260040161120693929190612a37565b6020604051808303816000875af1158015611225573d6000803e3d6000fd5b505050506040513d601f19601f820116820180604052508101906112499190612a83565b5050565b60cf60019054906101000a900473ffffffffffffffffffffffffffffffffffffffff1681565b600061128967c8da929b0b48274f60c01b611cc7565b61129d677613255e9873f39b60c01b611cc7565b6112b167550651bec45e8bb660c01b611cc7565b60006112bb6117aa565b90506112d1670b9deff3a3eefc2960c01b611cc7565b6112e567cb7a78ddcfd8b56460c01b611cc7565b6112f96799b118e73e1d20e560c01b611cc7565b6000811161133c576040517f08c379a000000000000000000000000000000000000000000000000000000000815260040161133390612afc565b60405180910390fd5b61135067822b23dfb7dee8a260c01b611cc7565b61136467154c1874627c7fa260c01b611cc7565b6113786738118807d988ce8860c01b611cc7565b61138c67a3842f55d545919a60c01b611cc7565b600088116113cf576040517f08c379a00000000000000000000000000000000000000000000000000000000081526004016113c690612b8e565b60405180910390fd5b6113e367f5323ade2b536b6960c01b611cc7565b6113f7678d5ae3674ffcf39660c01b611cc7565b61140b67930b695a2c5da3bd60c01b611cc7565b61141f670df328775263c78e60c01b611cc7565b80881015611462576040517f08c379a000000000000000000000000000000000000000000000000000000000815260040161145990612c20565b60405180910390fd5b61147667844046b3fcbb799960c01b611cc7565b61148a67bbf494b919afc9ae60c01b611cc7565b61149e674cd022efdcdea90560c01b611cc7565b60d160009054906101000a900460ff1661177e576114c667c503409bc8e6208360c01b611cc7565b6114da67849f5a8e9fd3604460c01b611cc7565b3360cf60016101000a81548173ffffffffffffffffffffffffffffffffffffffff021916908373ffffffffffffffffffffffffffffffffffffffff16021790555061152f67e1e783113e5ecd2460c01b611cc7565b8760d08190555061154a6730494ccf5922b15e60c01b611cc7565b600160d160006101000a81548160ff02191690831515021790555061157967ec4c0094bdf0dd6860c01b611cc7565b60d05460d5600060c960009054906101000a900473ffffffffffffffffffffffffffffffffffffffff1673ffffffffffffffffffffffffffffffffffffffff1673ffffffffffffffffffffffffffffffffffffffff16815260200190815260200160002060008282546115ec9190612920565b9250508190555061160767bc4ce9bbc07aeb4160c01b611cc7565b61161b67b5357fded32f849f60c01b611cc7565b60d360009054906101000a900473ffffffffffffffffffffffffffffffffffffffff1673ffffffffffffffffffffffffffffffffffffffff166323b872dd3360c960009054906101000a900473ffffffffffffffffffffffffffffffffffffffff1660d0546040518463ffffffff1660e01b815260040161169e93929190612c40565b6020604051808303816000875af11580156116bd573d6000803e3d6000fd5b505050506040513d601f19601f820116820180604052508101906116e19190612a83565b506116f66752f9ad228bdcb63c60c01b611cc7565b8760d560003373ffffffffffffffffffffffffffffffffffffffff1673ffffffffffffffffffffffffffffffffffffffff16815260200190815260200160002060008282546117459190612920565b92505081905550611760670679b6173a48e27860c01b611cc7565b61177467a928e4e77baeb86a60c01b611cc7565b6001915050611794565b61179267524e5f76d0553a9b60c01b611cc7565b505b9695505050505050565b60cc5481565b60ca5481565b60006117c067b6a22d07a1d73b5960c01b611cc7565b6117d467aa1bf5d02e18271c60c01b611cc7565b6117e86731b70f4722181ea160c01b611cc7565b60ce54431061183657611805671b362472a10bd64f60c01b611cc7565b61181967f55b3e0bd64ebee660c01b611cc7565b61182d67892caf548ac616a960c01b611cc7565b600090506118cb565b61184a67a99624bf05e83cd360c01b611cc7565b61185e67fa878d5baf812dc960c01b611cc7565b611872679228fa12ac7ecec260c01b611cc7565b60004360ce546118829190612c77565b9050611898673587a6fa72c52c6a60c01b611cc7565b6118ac6798bc0283611c4f6960c01b611cc7565b60cc54816118ba91906128de565b60cd546118c79190612c77565b9150505b90565b6118d6611b83565b600073ffffffffffffffffffffffffffffffffffffffff168173ffffffffffffffffffffffffffffffffffffffff1603611945576040517f08c379a000000000000000000000000000000000000000000000000000000000815260040161193c90612d1d565b60405180910390fd5b61194e81611c01565b50565b60d360009054906101000a900473ffffffffffffffffffffffffffffffffffffffff1681565b60006119a57f360894a13ba1a3210667c828492db98dca3e2076cc3735a920a3ca505d382bbc60001b611d97565b60000160009054906101000a900473ffffffffffffffffffffffffffffffffffffffff16905090565b6119e267720624b06d6b680560c01b611cc7565b6119ea611b83565b6119fe672242aa144dd28f8a60c01b611cc7565b611a12671314c1271fe5c41360c01b611cc7565b50565b611a417f4910fdfa16fed3260ed0e7147f7cc6da11a60208b5b9406d12a635614ffd914360001b611da1565b60000160009054906101000a900460ff1615611a6557611a6083611dab565b611b7e565b8273ffffffffffffffffffffffffffffffffffffffff166352d1902d6040518163ffffffff1660e01b8152600401602060405180830381865afa925050508015611acd57506040513d601f19601f82011682018060405250810190611aca9190612d52565b60015b611b0c576040517f08c379a0000000000000000000000000000000000000000000000000000000008152600401611b0390612df1565b60405180910390fd5b7f360894a13ba1a3210667c828492db98dca3e2076cc3735a920a3ca505d382bbc60001b8114611b71576040517f08c379a0000000000000000000000000000000000000000000000000000000008152600401611b6890612e83565b60405180910390fd5b50611b7d838383611e64565b5b505050565b611b8b611e90565b73ffffffffffffffffffffffffffffffffffffffff16611ba9610edd565b73ffffffffffffffffffffffffffffffffffffffff1614611bff576040517f08c379a0000000000000000000000000000000000000000000000000000000008152600401611bf690612eef565b60405180910390fd5b565b6000603360009054906101000a900473ffffffffffffffffffffffffffffffffffffffff16905081603360006101000a81548173ffffffffffffffffffffffffffffffffffffffff021916908373ffffffffffffffffffffffffffffffffffffffff1602179055508173ffffffffffffffffffffffffffffffffffffffff168173ffffffffffffffffffffffffffffffffffffffff167f8be0079c531659141344cd1fd0a4f28419497f9722a3daafe3b4186f6b6457e060405160405180910390a35050565b50565b6000808273ffffffffffffffffffffffffffffffffffffffff163b119050919050565b600060019054906101000a900460ff16611d3c576040517f08c379a0000000000000000000000000000000000000000000000000000000008152600401611d3390612f81565b60405180910390fd5b611d44611e98565b565b600060019054906101000a900460ff16611d95576040517f08c379a0000000000000000000000000000000000000000000000000000000008152600401611d8c90612f81565b60405180910390fd5b565b6000819050919050565b6000819050919050565b611db481611cca565b611df3576040517f08c379a0000000000000000000000000000000000000000000000000000000008152600401611dea90613013565b60405180910390fd5b80611e207f360894a13ba1a3210667c828492db98dca3e2076cc3735a920a3ca505d382bbc60001b611d97565b60000160006101000a81548173ffffffffffffffffffffffffffffffffffffffff021916908373ffffffffffffffffffffffffffffffffffffffff16021790555050565b611e6d83611ef9565b600082511180611e7a5750805b15611e8b57611e898383611f48565b505b505050565b600033905090565b600060019054906101000a900460ff16611ee7576040517f08c379a0000000000000000000000000000000000000000000000000000000008152600401611ede90612f81565b60405180910390fd5b611ef7611ef2611e90565b611c01565b565b611f0281611dab565b8073ffffffffffffffffffffffffffffffffffffffff167fbc7cd75a20ee27fd9adebab32041f755214dbc6bffa90cc0225b39da2e5c2d3b60405160405180910390a250565b6060611f6d838360405180606001604052806027815260200161318e60279139611f75565b905092915050565b60606000808573ffffffffffffffffffffffffffffffffffffffff1685604051611f9f91906130a4565b600060405180830381855af49150503d8060008114611fda576040519150601f19603f3d011682016040523d82523d6000602084013e611fdf565b606091505b5091509150611ff086838387611ffb565b925050509392505050565b6060831561205d5760008351036120555761201585611cca565b612054576040517f08c379a000000000000000000000000000000000000000000000000000000000815260040161204b90613107565b60405180910390fd5b5b829050612068565b6120678383612070565b5b949350505050565b6000825111156120835781518083602001fd5b806040517f08c379a00000000000000000000000000000000000000000000000000000000081526004016120b7919061316b565b60405180910390fd5b600073ffffffffffffffffffffffffffffffffffffffff82169050919050565b60006120eb826120c0565b9050919050565b6120fb816120e0565b82525050565b600060208201905061211660008301846120f2565b92915050565b60008115159050919050565b6121318161211c565b82525050565b600060208201905061214c6000830184612128565b92915050565b6000819050919050565b61216581612152565b82525050565b6000602082019050612180600083018461215c565b92915050565b6000604051905090565b600080fd5b600080fd5b60006121a5826120c0565b9050919050565b6121b58161219a565b81146121c057600080fd5b50565b6000813590506121d2816121ac565b92915050565b6000602082840312156121ee576121ed612190565b5b60006121fc848285016121c3565b91505092915050565b600080fd5b600080fd5b6000601f19601f8301169050919050565b7f4e487b7100000000000000000000000000000000000000000000000000000000600052604160045260246000fd5b6122588261220f565b810181811067ffffffffffffffff8211171561227757612276612220565b5b80604052505050565b600061228a612186565b9050612296828261224f565b919050565b600067ffffffffffffffff8211156122b6576122b5612220565b5b6122bf8261220f565b9050602081019050919050565b82818337600083830152505050565b60006122ee6122e98461229b565b612280565b90508281526020810184848401111561230a5761230961220a565b5b6123158482856122cc565b509392505050565b600082601f83011261233257612331612205565b5b81356123428482602086016122db565b91505092915050565b6000806040838503121561236257612361612190565b5b6000612370858286016121c3565b925050602083013567ffffffffffffffff81111561239157612390612195565b5b61239d8582860161231d565b9150509250929050565b6000819050919050565b6123ba816123a7565b82525050565b60006020820190506123d560008301846123b1565b92915050565b6000819050919050565b60006124006123fb6123f6846120c0565b6123db565b6120c0565b9050919050565b6000612412826123e5565b9050919050565b600061242482612407565b9050919050565b61243481612419565b82525050565b600060208201905061244f600083018461242b565b92915050565b61245e81612152565b811461246957600080fd5b50565b60008135905061247b81612455565b92915050565b60008060008060008060c0878903121561249e5761249d612190565b5b60006124ac89828a016121c3565b96505060206124bd89828a016121c3565b95505060406124ce89828a0161246c565b94505060606124df89828a0161246c565b93505060806124f089828a0161246c565b92505060a061250189828a0161246c565b9150509295509295509295565b6125178161219a565b82525050565b6000602082019050612532600083018461250e565b92915050565b6125418161211c565b811461254c57600080fd5b50565b60008135905061255e81612538565b92915050565b600060ff82169050919050565b61257a81612564565b811461258557600080fd5b50565b60008135905061259781612571565b92915050565b6125a6816123a7565b81146125b157600080fd5b50565b6000813590506125c38161259d565b92915050565b60008060008060008060c087890312156125e6576125e5612190565b5b60006125f489828a0161246c565b965050602061260589828a0161254f565b955050604061261689828a01612588565b945050606061262789828a016125b4565b935050608061263889828a016125b4565b92505060a061264989828a0161246c565b9150509295509295509295565b600082825260208201905092915050565b7f46756e6374696f6e206d7573742062652063616c6c6564207468726f7567682060008201527f64656c656761746563616c6c0000000000000000000000000000000000000000602082015250565b60006126c3602c83612656565b91506126ce82612667565b604082019050919050565b600060208201905081810360008301526126f2816126b6565b9050919050565b7f46756e6374696f6e206d7573742062652063616c6c6564207468726f7567682060008201527f6163746976652070726f78790000000000000000000000000000000000000000602082015250565b6000612755602c83612656565b9150612760826126f9565b604082019050919050565b6000602082019050818103600083015261278481612748565b9050919050565b7f555550535570677261646561626c653a206d757374206e6f742062652063616c60008201527f6c6564207468726f7567682064656c656761746563616c6c0000000000000000602082015250565b60006127e7603883612656565b91506127f28261278b565b604082019050919050565b60006020820190508181036000830152612816816127da565b9050919050565b7f496e697469616c697a61626c653a20636f6e747261637420697320616c72656160008201527f647920696e697469616c697a6564000000000000000000000000000000000000602082015250565b6000612879602e83612656565b91506128848261281d565b604082019050919050565b600060208201905081810360008301526128a88161286c565b9050919050565b7f4e487b7100000000000000000000000000000000000000000000000000000000600052601160045260246000fd5b60006128e982612152565b91506128f483612152565b925082820261290281612152565b91508282048414831517612919576129186128af565b5b5092915050565b600061292b82612152565b915061293683612152565b925082820190508082111561294e5761294d6128af565b5b92915050565b6000819050919050565b600061297961297461296f84612954565b6123db565b612564565b9050919050565b6129898161295e565b82525050565b60006020820190506129a46000830184612980565b92915050565b7f4e6f20726566756e6420617661696c61626c6500000000000000000000000000600082015250565b60006129e0601383612656565b91506129eb826129aa565b602082019050919050565b60006020820190508181036000830152612a0f816129d3565b9050919050565b6000612a2182612407565b9050919050565b612a3181612a16565b82525050565b6000606082019050612a4c6000830186612a28565b612a59602083018561250e565b612a66604083018461215c565b949350505050565b600081519050612a7d81612538565b92915050565b600060208284031215612a9957612a98612190565b5b6000612aa784828501612a6e565b91505092915050565b7f41756374696f6e2068617320656e646564000000000000000000000000000000600082015250565b6000612ae6601183612656565b9150612af182612ab0565b602082019050919050565b60006020820190508181036000830152612b1581612ad9565b9050919050565b7f42696420616d6f756e74206d7573742062652067726561746572207468616e2060008201527f3000000000000000000000000000000000000000000000000000000000000000602082015250565b6000612b78602183612656565b9150612b8382612b1c565b604082019050919050565b60006020820190508181036000830152612ba781612b6b565b9050919050565b7f42696420616d6f756e74206973206c6f776572207468616e2063757272656e7460008201527f2070726963650000000000000000000000000000000000000000000000000000602082015250565b6000612c0a602683612656565b9150612c1582612bae565b604082019050919050565b60006020820190508181036000830152612c3981612bfd565b9050919050565b6000606082019050612c55600083018661250e565b612c626020830185612a28565b612c6f604083018461215c565b949350505050565b6000612c8282612152565b9150612c8d83612152565b9250828203905081811115612ca557612ca46128af565b5b92915050565b7f4f776e61626c653a206e6577206f776e657220697320746865207a65726f206160008201527f6464726573730000000000000000000000000000000000000000000000000000602082015250565b6000612d07602683612656565b9150612d1282612cab565b604082019050919050565b60006020820190508181036000830152612d3681612cfa565b9050919050565b600081519050612d4c8161259d565b92915050565b600060208284031215612d6857612d67612190565b5b6000612d7684828501612d3d565b91505092915050565b7f45524331393637557067726164653a206e657720696d706c656d656e7461746960008201527f6f6e206973206e6f742055555053000000000000000000000000000000000000602082015250565b6000612ddb602e83612656565b9150612de682612d7f565b604082019050919050565b60006020820190508181036000830152612e0a81612dce565b9050919050565b7f45524331393637557067726164653a20756e737570706f727465642070726f7860008201527f6961626c65555549440000000000000000000000000000000000000000000000602082015250565b6000612e6d602983612656565b9150612e7882612e11565b604082019050919050565b60006020820190508181036000830152612e9c81612e60565b9050919050565b7f4f776e61626c653a2063616c6c6572206973206e6f7420746865206f776e6572600082015250565b6000612ed9602083612656565b9150612ee482612ea3565b602082019050919050565b60006020820190508181036000830152612f0881612ecc565b9050919050565b7f496e697469616c697a61626c653a20636f6e7472616374206973206e6f74206960008201527f6e697469616c697a696e67000000000000000000000000000000000000000000602082015250565b6000612f6b602b83612656565b9150612f7682612f0f565b604082019050919050565b60006020820190508181036000830152612f9a81612f5e565b9050919050565b7f455243313936373a206e657720696d706c656d656e746174696f6e206973206e60008201527f6f74206120636f6e747261637400000000000000000000000000000000000000602082015250565b6000612ffd602d83612656565b915061300882612fa1565b604082019050919050565b6000602082019050818103600083015261302c81612ff0565b9050919050565b600081519050919050565b600081905092915050565b60005b8381101561306757808201518184015260208101905061304c565b60008484015250505050565b600061307e82613033565b613088818561303e565b9350613098818560208601613049565b80840191505092915050565b60006130b08284613073565b915081905092915050565b7f416464726573733a2063616c6c20746f206e6f6e2d636f6e7472616374000000600082015250565b60006130f1601d83612656565b91506130fc826130bb565b602082019050919050565b60006020820190508181036000830152613120816130e4565b9050919050565b600081519050919050565b600061313d82613127565b6131478185612656565b9350613157818560208601613049565b6131608161220f565b840191505092915050565b600060208201905081810360008301526131858184613132565b90509291505056fe416464726573733a206c6f772d6c6576656c2064656c65676174652063616c6c206661696c6564a264697066735822122095c47e3a414538208f577fdb59752dc2bca353d3426ef361394e07bd6bb270ac64736f6c63430008120033",
  "linkReferences": {},
  "deployedLinkReferences": {}
}