{
  "_format": "hh-sol-artifact-1",
  "contractName": "NFTDutchAuction",
  "sourceName": "contracts/NFTDutchAuction.sol",
  "abi": [
    {
      "inputs": [
        {
          "internalType": "address",
          "name": "erc721TokenAddress",
          "type": "address"
        },
        {
          "internalType": "uint256",
          "name": "_nftTokenId",
          "type": "uint256"
        },
        {
          "internalType": "uint256",
          "name": "_reservePrice",
          "type": "uint256"
        },
        {
          "internalType": "uint256",
          "name": "_numBlocksAuctionOpen",
          "type": "uint256"
        },
        {
          "internalType": "uint256",
          "name": "_offerPriceDecrement",
          "type": "uint256"
        }
      ],
      "stateMutability": "nonpayable",
      "type": "constructor"
    },
    {
      "anonymous": false,
      "inputs": [
        {
          "indexed": true,
          "internalType": "address",
          "name": "owner",
          "type": "address"
        },
        {
          "indexed": true,
          "internalType": "address",
          "name": "approved",
          "type": "address"
        },
        {
          "indexed": true,
          "internalType": "uint256",
          "name": "tokenId",
          "type": "uint256"
        }
      ],
      "name": "Approval",
      "type": "event"
    },
    {
      "anonymous": false,
      "inputs": [
        {
          "indexed": true,
          "internalType": "address",
          "name": "owner",
          "type": "address"
        },
        {
          "indexed": true,
          "internalType": "address",
          "name": "operator",
          "type": "address"
        },
        {
          "indexed": false,
          "internalType": "bool",
          "name": "approved",
          "type": "bool"
        }
      ],
      "name": "ApprovalForAll",
      "type": "event"
    },
    {
      "anonymous": false,
      "inputs": [
        {
          "indexed": false,
          "internalType": "address",
          "name": "winner",
          "type": "address"
        },
        {
          "indexed": false,
          "internalType": "uint256",
          "name": "amount",
          "type": "uint256"
        }
      ],
      "name": "AuctionEnded",
      "type": "event"
    },
    {
      "anonymous": false,
      "inputs": [
        {
          "indexed": false,
          "internalType": "address",
          "name": "account",
          "type": "address"
        }
      ],
      "name": "Paused",
      "type": "event"
    },
    {
      "anonymous": false,
      "inputs": [
        {
          "indexed": true,
          "internalType": "bytes32",
          "name": "role",
          "type": "bytes32"
        },
        {
          "indexed": true,
          "internalType": "bytes32",
          "name": "previousAdminRole",
          "type": "bytes32"
        },
        {
          "indexed": true,
          "internalType": "bytes32",
          "name": "newAdminRole",
          "type": "bytes32"
        }
      ],
      "name": "RoleAdminChanged",
      "type": "event"
    },
    {
      "anonymous": false,
      "inputs": [
        {
          "indexed": true,
          "internalType": "bytes32",
          "name": "role",
          "type": "bytes32"
        },
        {
          "indexed": true,
          "internalType": "address",
          "name": "account",
          "type": "address"
        },
        {
          "indexed": true,
          "internalType": "address",
          "name": "sender",
          "type": "address"
        }
      ],
      "name": "RoleGranted",
      "type": "event"
    },
    {
      "anonymous": false,
      "inputs": [
        {
          "indexed": true,
          "internalType": "bytes32",
          "name": "role",
          "type": "bytes32"
        },
        {
          "indexed": true,
          "internalType": "address",
          "name": "account",
          "type": "address"
        },
        {
          "indexed": true,
          "internalType": "address",
          "name": "sender",
          "type": "address"
        }
      ],
      "name": "RoleRevoked",
      "type": "event"
    },
    {
      "anonymous": false,
      "inputs": [
        {
          "indexed": true,
          "internalType": "address",
          "name": "from",
          "type": "address"
        },
        {
          "indexed": true,
          "internalType": "address",
          "name": "to",
          "type": "address"
        },
        {
          "indexed": true,
          "internalType": "uint256",
          "name": "tokenId",
          "type": "uint256"
        }
      ],
      "name": "Transfer",
      "type": "event"
    },
    {
      "anonymous": false,
      "inputs": [
        {
          "indexed": false,
          "internalType": "address",
          "name": "account",
          "type": "address"
        }
      ],
      "name": "Unpaused",
      "type": "event"
    },
    {
      "inputs": [],
      "name": "DEFAULT_ADMIN_ROLE",
      "outputs": [
        {
          "internalType": "bytes32",
          "name": "",
          "type": "bytes32"
        }
      ],
      "stateMutability": "view",
      "type": "function"
    },
    {
      "inputs": [],
      "name": "MINTER_ROLE",
      "outputs": [
        {
          "internalType": "bytes32",
          "name": "",
          "type": "bytes32"
        }
      ],
      "stateMutability": "view",
      "type": "function"
    },
    {
      "inputs": [],
      "name": "PAUSER_ROLE",
      "outputs": [
        {
          "internalType": "bytes32",
          "name": "",
          "type": "bytes32"
        }
      ],
      "stateMutability": "view",
      "type": "function"
    },
    {
      "inputs": [
        {
          "internalType": "address",
          "name": "to",
          "type": "address"
        },
        {
          "internalType": "uint256",
          "name": "tokenId",
          "type": "uint256"
        }
      ],
      "name": "approve",
      "outputs": [],
      "stateMutability": "nonpayable",
      "type": "function"
    },
    {
      "inputs": [],
      "name": "auctionEndTime",
      "outputs": [
        {
          "internalType": "uint256",
          "name": "",
          "type": "uint256"
        }
      ],
      "stateMutability": "view",
      "type": "function"
    },
    {
      "inputs": [],
      "name": "auctionEnded",
      "outputs": [
        {
          "internalType": "bool",
          "name": "",
          "type": "bool"
        }
      ],
      "stateMutability": "view",
      "type": "function"
    },
    {
      "inputs": [
        {
          "internalType": "address",
          "name": "owner",
          "type": "address"
        }
      ],
      "name": "balanceOf",
      "outputs": [
        {
          "internalType": "uint256",
          "name": "",
          "type": "uint256"
        }
      ],
      "stateMutability": "view",
      "type": "function"
    },
    {
      "inputs": [],
      "name": "bid",
      "outputs": [
        {
          "internalType": "bool",
          "name": "",
          "type": "bool"
        }
      ],
      "stateMutability": "payable",
      "type": "function"
    },
    {
      "inputs": [
        {
          "internalType": "address",
          "name": "",
          "type": "address"
        }
      ],
      "name": "bids",
      "outputs": [
        {
          "internalType": "uint256",
          "name": "",
          "type": "uint256"
        }
      ],
      "stateMutability": "view",
      "type": "function"
    },
    {
      "inputs": [
        {
          "internalType": "uint256",
          "name": "tokenId",
          "type": "uint256"
        }
      ],
      "name": "burn",
      "outputs": [],
      "stateMutability": "nonpayable",
      "type": "function"
    },
    {
      "inputs": [],
      "name": "claimRefund",
      "outputs": [],
      "stateMutability": "nonpayable",
      "type": "function"
    },
    {
      "inputs": [],
      "name": "firstBid",
      "outputs": [
        {
          "internalType": "uint256",
          "name": "",
          "type": "uint256"
        }
      ],
      "stateMutability": "view",
      "type": "function"
    },
    {
      "inputs": [],
      "name": "firstBidder",
      "outputs": [
        {
          "internalType": "address payable",
          "name": "",
          "type": "address"
        }
      ],
      "stateMutability": "view",
      "type": "function"
    },
    {
      "inputs": [
        {
          "internalType": "uint256",
          "name": "tokenId",
          "type": "uint256"
        }
      ],
      "name": "getApproved",
      "outputs": [
        {
          "internalType": "address",
          "name": "",
          "type": "address"
        }
      ],
      "stateMutability": "view",
      "type": "function"
    },
    {
      "inputs": [
        {
          "internalType": "address",
          "name": "account",
          "type": "address"
        }
      ],
      "name": "getBalanceOf",
      "outputs": [
        {
          "internalType": "uint256",
          "name": "",
          "type": "uint256"
        }
      ],
      "stateMutability": "view",
      "type": "function"
    },
    {
      "inputs": [],
      "name": "getCurrentPrice",
      "outputs": [
        {
          "internalType": "uint256",
          "name": "",
          "type": "uint256"
        }
      ],
      "stateMutability": "view",
      "type": "function"
    },
    {
      "inputs": [
        {
          "internalType": "bytes32",
          "name": "role",
          "type": "bytes32"
        }
      ],
      "name": "getRoleAdmin",
      "outputs": [
        {
          "internalType": "bytes32",
          "name": "",
          "type": "bytes32"
        }
      ],
      "stateMutability": "view",
      "type": "function"
    },
    {
      "inputs": [
        {
          "internalType": "bytes32",
          "name": "role",
          "type": "bytes32"
        },
        {
          "internalType": "uint256",
          "name": "index",
          "type": "uint256"
        }
      ],
      "name": "getRoleMember",
      "outputs": [
        {
          "internalType": "address",
          "name": "",
          "type": "address"
        }
      ],
      "stateMutability": "view",
      "type": "function"
    },
    {
      "inputs": [
        {
          "internalType": "bytes32",
          "name": "role",
          "type": "bytes32"
        }
      ],
      "name": "getRoleMemberCount",
      "outputs": [
        {
          "internalType": "uint256",
          "name": "",
          "type": "uint256"
        }
      ],
      "stateMutability": "view",
      "type": "function"
    },
    {
      "inputs": [],
      "name": "gotValidBid",
      "outputs": [
        {
          "internalType": "bool",
          "name": "",
          "type": "bool"
        }
      ],
      "stateMutability": "view",
      "type": "function"
    },
    {
      "inputs": [
        {
          "internalType": "bytes32",
          "name": "role",
          "type": "bytes32"
        },
        {
          "internalType": "address",
          "name": "account",
          "type": "address"
        }
      ],
      "name": "grantRole",
      "outputs": [],
      "stateMutability": "nonpayable",
      "type": "function"
    },
    {
      "inputs": [
        {
          "internalType": "bytes32",
          "name": "role",
          "type": "bytes32"
        },
        {
          "internalType": "address",
          "name": "account",
          "type": "address"
        }
      ],
      "name": "hasRole",
      "outputs": [
        {
          "internalType": "bool",
          "name": "",
          "type": "bool"
        }
      ],
      "stateMutability": "view",
      "type": "function"
    },
    {
      "inputs": [],
      "name": "initialPrice",
      "outputs": [
        {
          "internalType": "uint256",
          "name": "",
          "type": "uint256"
        }
      ],
      "stateMutability": "view",
      "type": "function"
    },
    {
      "inputs": [
        {
          "internalType": "address",
          "name": "owner",
          "type": "address"
        },
        {
          "internalType": "address",
          "name": "operator",
          "type": "address"
        }
      ],
      "name": "isApprovedForAll",
      "outputs": [
        {
          "internalType": "bool",
          "name": "",
          "type": "bool"
        }
      ],
      "stateMutability": "view",
      "type": "function"
    },
    {
      "inputs": [
        {
          "internalType": "address",
          "name": "to",
          "type": "address"
        }
      ],
      "name": "mint",
      "outputs": [],
      "stateMutability": "nonpayable",
      "type": "function"
    },
    {
      "inputs": [],
      "name": "name",
      "outputs": [
        {
          "internalType": "string",
          "name": "",
          "type": "string"
        }
      ],
      "stateMutability": "view",
      "type": "function"
    },
    {
      "inputs": [],
      "name": "nftTokenId",
      "outputs": [
        {
          "internalType": "uint256",
          "name": "",
          "type": "uint256"
        }
      ],
      "stateMutability": "view",
      "type": "function"
    },
    {
      "inputs": [],
      "name": "numBlocksAuctionOpen",
      "outputs": [
        {
          "internalType": "uint256",
          "name": "",
          "type": "uint256"
        }
      ],
      "stateMutability": "view",
      "type": "function"
    },
    {
      "inputs": [],
      "name": "offerPriceDecrement",
      "outputs": [
        {
          "internalType": "uint256",
          "name": "",
          "type": "uint256"
        }
      ],
      "stateMutability": "view",
      "type": "function"
    },
    {
      "inputs": [
        {
          "internalType": "uint256",
          "name": "tokenId",
          "type": "uint256"
        }
      ],
      "name": "ownerOf",
      "outputs": [
        {
          "internalType": "address",
          "name": "",
          "type": "address"
        }
      ],
      "stateMutability": "view",
      "type": "function"
    },
    {
      "inputs": [],
      "name": "pause",
      "outputs": [],
      "stateMutability": "nonpayable",
      "type": "function"
    },
    {
      "inputs": [],
      "name": "paused",
      "outputs": [
        {
          "internalType": "bool",
          "name": "",
          "type": "bool"
        }
      ],
      "stateMutability": "view",
      "type": "function"
    },
    {
      "inputs": [
        {
          "internalType": "bytes32",
          "name": "role",
          "type": "bytes32"
        },
        {
          "internalType": "address",
          "name": "account",
          "type": "address"
        }
      ],
      "name": "renounceRole",
      "outputs": [],
      "stateMutability": "nonpayable",
      "type": "function"
    },
    {
      "inputs": [],
      "name": "reservePrice",
      "outputs": [
        {
          "internalType": "uint256",
          "name": "",
          "type": "uint256"
        }
      ],
      "stateMutability": "view",
      "type": "function"
    },
    {
      "inputs": [
        {
          "internalType": "bytes32",
          "name": "role",
          "type": "bytes32"
        },
        {
          "internalType": "address",
          "name": "account",
          "type": "address"
        }
      ],
      "name": "revokeRole",
      "outputs": [],
      "stateMutability": "nonpayable",
      "type": "function"
    },
    {
      "inputs": [
        {
          "internalType": "address",
          "name": "from",
          "type": "address"
        },
        {
          "internalType": "address",
          "name": "to",
          "type": "address"
        },
        {
          "internalType": "uint256",
          "name": "tokenId",
          "type": "uint256"
        }
      ],
      "name": "safeTransferFrom",
      "outputs": [],
      "stateMutability": "nonpayable",
      "type": "function"
    },
    {
      "inputs": [
        {
          "internalType": "address",
          "name": "from",
          "type": "address"
        },
        {
          "internalType": "address",
          "name": "to",
          "type": "address"
        },
        {
          "internalType": "uint256",
          "name": "tokenId",
          "type": "uint256"
        },
        {
          "internalType": "bytes",
          "name": "data",
          "type": "bytes"
        }
      ],
      "name": "safeTransferFrom",
      "outputs": [],
      "stateMutability": "nonpayable",
      "type": "function"
    },
    {
      "inputs": [],
      "name": "seller",
      "outputs": [
        {
          "internalType": "address payable",
          "name": "",
          "type": "address"
        }
      ],
      "stateMutability": "view",
      "type": "function"
    },
    {
      "inputs": [
        {
          "internalType": "address",
          "name": "operator",
          "type": "address"
        },
        {
          "internalType": "bool",
          "name": "approved",
          "type": "bool"
        }
      ],
      "name": "setApprovalForAll",
      "outputs": [],
      "stateMutability": "nonpayable",
      "type": "function"
    },
    {
      "inputs": [
        {
          "internalType": "bytes4",
          "name": "interfaceId",
          "type": "bytes4"
        }
      ],
      "name": "supportsInterface",
      "outputs": [
        {
          "internalType": "bool",
          "name": "",
          "type": "bool"
        }
      ],
      "stateMutability": "view",
      "type": "function"
    },
    {
      "inputs": [],
      "name": "symbol",
      "outputs": [
        {
          "internalType": "string",
          "name": "",
          "type": "string"
        }
      ],
      "stateMutability": "view",
      "type": "function"
    },
    {
      "inputs": [],
      "name": "tokenAddress",
      "outputs": [
        {
          "internalType": "address",
          "name": "",
          "type": "address"
        }
      ],
      "stateMutability": "view",
      "type": "function"
    },
    {
      "inputs": [
        {
          "internalType": "uint256",
          "name": "index",
          "type": "uint256"
        }
      ],
      "name": "tokenByIndex",
      "outputs": [
        {
          "internalType": "uint256",
          "name": "",
          "type": "uint256"
        }
      ],
      "stateMutability": "view",
      "type": "function"
    },
    {
      "inputs": [
        {
          "internalType": "address",
          "name": "owner",
          "type": "address"
        },
        {
          "internalType": "uint256",
          "name": "index",
          "type": "uint256"
        }
      ],
      "name": "tokenOfOwnerByIndex",
      "outputs": [
        {
          "internalType": "uint256",
          "name": "",
          "type": "uint256"
        }
      ],
      "stateMutability": "view",
      "type": "function"
    },
    {
      "inputs": [
        {
          "internalType": "uint256",
          "name": "tokenId",
          "type": "uint256"
        }
      ],
      "name": "tokenURI",
      "outputs": [
        {
          "internalType": "string",
          "name": "",
          "type": "string"
        }
      ],
      "stateMutability": "view",
      "type": "function"
    },
    {
      "inputs": [],
      "name": "totalSupply",
      "outputs": [
        {
          "internalType": "uint256",
          "name": "",
          "type": "uint256"
        }
      ],
      "stateMutability": "view",
      "type": "function"
    },
    {
      "inputs": [
        {
          "internalType": "address",
          "name": "from",
          "type": "address"
        },
        {
          "internalType": "address",
          "name": "to",
          "type": "address"
        },
        {
          "internalType": "uint256",
          "name": "tokenId",
          "type": "uint256"
        }
      ],
      "name": "transferFrom",
      "outputs": [],
      "stateMutability": "nonpayable",
      "type": "function"
    },
    {
      "inputs": [],
      "name": "unpause",
      "outputs": [],
      "stateMutability": "nonpayable",
      "type": "function"
    }
  ],
  "bytecode": "0x60806040523480156200001157600080fd5b506040516200644a3803806200644a8339818101604052810190620000379190620007e7565b6040518060400160405280600581526020017f4d794e46540000000000000000000000000000000000000000000000000000008152506040518060400160405280600481526020017f4d4e4654000000000000000000000000000000000000000000000000000000008152506040518060400160405280601c81526020017f68747470733a2f2f6e6f7274686561737465726e2e6564752f6e66740000000081525082828160029081620000ec919062000adf565b508060039081620000fe919062000adf565b5050506000600c60006101000a81548160ff02191690831515021790555080600e90816200012d919062000adf565b50620001526000801b62000146620004a960201b60201c565b620004b160201b60201c565b620001937f9f2df0fed2c77648de5860a4cc508cd0818c85b8b8a1ab4ceeef8d981c8956a662000187620004a960201b60201c565b620004b160201b60201c565b620001d47f65d7a28e3265b37a6474929f336521b332c1681b933f6cb9f3376673440d862a620001c8620004a960201b60201c565b620004b160201b60201c565b505050620001f36744c14e31c14c081160c01b620004c760201b60201c565b6200020f67aa8c62b942a66cf960c01b620004c760201b60201c565b33600f60006101000a81548173ffffffffffffffffffffffffffffffffffffffff021916908373ffffffffffffffffffffffffffffffffffffffff1602179055506200026c672b4ea43a9869a83d60c01b620004c760201b60201c565b826010819055506200028f672deae295cdbe84b560c01b620004c760201b60201c565b81601181905550620002b2673e93867ca1eb65d060c01b620004c760201b60201c565b80601281905550620002d56747524364af47e68860c01b620004c760201b60201c565b601254601154620002e7919062000bf5565b601054620002f6919062000c40565b60138190555062000318673fb8f2100910104860c01b620004c760201b60201c565b6011544362000328919062000c40565b6014819055506200034a673ac2d75cd581cf1c60c01b620004c760201b60201c565b6000601560006101000a81548160ff02191690831515021790555062000381676d00b4b88947c84660c01b620004c760201b60201c565b6000601760006101000a81548160ff021916908315150217905550620003b8673cc77af021d2d49760c01b620004c760201b60201c565b6000601560016101000a81548173ffffffffffffffffffffffffffffffffffffffff021916908373ffffffffffffffffffffffffffffffffffffffff1602179055506200041667602b05671f58416460c01b620004c760201b60201c565b60006016819055506200043a67ccc8b7b69ce59c5260c01b620004c760201b60201c565b84601760016101000a81548173ffffffffffffffffffffffffffffffffffffffff021916908373ffffffffffffffffffffffffffffffffffffffff1602179055506200049767f5019ed63d11dc1e60c01b620004c760201b60201c565b83601881905550505050505062000c7b565b600033905090565b620004c38282620004ca60201b60201c565b5050565b50565b620004e182826200051260201b62001fa91760201c565b6200050d81600160008581526020019081526020016000206200060360201b620020891790919060201c565b505050565b6200052482826200063b60201b60201c565b620005ff57600160008084815260200190815260200160002060000160008373ffffffffffffffffffffffffffffffffffffffff1673ffffffffffffffffffffffffffffffffffffffff16815260200190815260200160002060006101000a81548160ff021916908315150217905550620005a4620004a960201b60201c565b73ffffffffffffffffffffffffffffffffffffffff168173ffffffffffffffffffffffffffffffffffffffff16837f2f8788117e7eff1d82e926ec794901d17c78024a50270940304540a733656f0d60405160405180910390a45b5050565b600062000633836000018373ffffffffffffffffffffffffffffffffffffffff1660001b620006a560201b60201c565b905092915050565b600080600084815260200190815260200160002060000160008373ffffffffffffffffffffffffffffffffffffffff1673ffffffffffffffffffffffffffffffffffffffff16815260200190815260200160002060009054906101000a900460ff16905092915050565b6000620006b983836200071f60201b60201c565b6200071457826000018290806001815401808255809150506001900390600052602060002001600090919091909150558260000180549050836001016000848152602001908152602001600020819055506001905062000719565b600090505b92915050565b600080836001016000848152602001908152602001600020541415905092915050565b600080fd5b600073ffffffffffffffffffffffffffffffffffffffff82169050919050565b6000620007748262000747565b9050919050565b620007868162000767565b81146200079257600080fd5b50565b600081519050620007a6816200077b565b92915050565b6000819050919050565b620007c181620007ac565b8114620007cd57600080fd5b50565b600081519050620007e181620007b6565b92915050565b600080600080600060a0868803121562000806576200080562000742565b5b6000620008168882890162000795565b95505060206200082988828901620007d0565b94505060406200083c88828901620007d0565b93505060606200084f88828901620007d0565b92505060806200086288828901620007d0565b9150509295509295909350565b600081519050919050565b7f4e487b7100000000000000000000000000000000000000000000000000000000600052604160045260246000fd5b7f4e487b7100000000000000000000000000000000000000000000000000000000600052602260045260246000fd5b60006002820490506001821680620008f157607f821691505b602082108103620009075762000906620008a9565b5b50919050565b60008190508160005260206000209050919050565b60006020601f8301049050919050565b600082821b905092915050565b600060088302620009717fffffffffffffffffffffffffffffffffffffffffffffffffffffffffffffffff8262000932565b6200097d868362000932565b95508019841693508086168417925050509392505050565b6000819050919050565b6000620009c0620009ba620009b484620007ac565b62000995565b620007ac565b9050919050565b6000819050919050565b620009dc836200099f565b620009f4620009eb82620009c7565b8484546200093f565b825550505050565b600090565b62000a0b620009fc565b62000a18818484620009d1565b505050565b5b8181101562000a405762000a3460008262000a01565b60018101905062000a1e565b5050565b601f82111562000a8f5762000a59816200090d565b62000a648462000922565b8101602085101562000a74578190505b62000a8c62000a838562000922565b83018262000a1d565b50505b505050565b600082821c905092915050565b600062000ab46000198460080262000a94565b1980831691505092915050565b600062000acf838362000aa1565b9150826002028217905092915050565b62000aea826200086f565b67ffffffffffffffff81111562000b065762000b056200087a565b5b62000b128254620008d8565b62000b1f82828562000a44565b600060209050601f83116001811462000b57576000841562000b42578287015190505b62000b4e858262000ac1565b86555062000bbe565b601f19841662000b67866200090d565b60005b8281101562000b915784890151825560018201915060208501945060208101905062000b6a565b8683101562000bb1578489015162000bad601f89168262000aa1565b8355505b6001600288020188555050505b505050505050565b7f4e487b7100000000000000000000000000000000000000000000000000000000600052601160045260246000fd5b600062000c0282620007ac565b915062000c0f83620007ac565b925082820262000c1f81620007ac565b9150828204841483151762000c395762000c3862000bc6565b5b5092915050565b600062000c4d82620007ac565b915062000c5a83620007ac565b925082820190508082111562000c755762000c7462000bc6565b5b92915050565b6157bf8062000c8b6000396000f3fe6080604052600436106102935760003560e01c80636a6278421161015a578063b5545a3c116100c1578063d53913931161007a578063d539139314610a35578063d547741f14610a60578063db2e1eed14610a89578063e63ab1e914610ab4578063e985e9c514610adf578063eb91d37e14610b1c57610293565b8063b5545a3c14610925578063b88d4fde1461093c578063bdb3937314610965578063c87b56dd14610990578063ca15c873146109cd578063d3642a8814610a0a57610293565b806391d148541161011357806391d148541461080157806395d89b411461083e5780639b96eece146108695780639d76ea58146108a6578063a217fddf146108d1578063a22cb465146108fc57610293565b80636a627842146106f157806370a082311461071a5780637e830574146107575780638456cb591461078257806386433374146107995780639010d07c146107c457610293565b80632f2ff15d116101fe57806342966c68116101b757806342966c68146105bb5780634b449cba146105e45780634f6ccce71461060f5780635c975abb1461064c57806362ea82db146106775780636352211e146106b457610293565b80632f2ff15d146104c15780632f745c59146104ea5780633103ea621461052757806336568abe146105525780633f4ba83a1461057b57806342842e0e1461059257610293565b806318160ddd1161025057806318160ddd146103bc5780631998aeef146103e75780631d0806ae1461040557806323b872dd14610430578063248a9ca31461045957806328e2f6961461049657610293565b806301ffc9a71461029857806306fdde03146102d5578063081812fc1461030057806308551a531461033d578063095ea7b314610368578063100e455514610391575b600080fd5b3480156102a457600080fd5b506102bf60048036038101906102ba9190613f70565b610b47565b6040516102cc9190613fb8565b60405180910390f35b3480156102e157600080fd5b506102ea610b59565b6040516102f79190614063565b60405180910390f35b34801561030c57600080fd5b50610327600480360381019061032291906140bb565b610beb565b6040516103349190614129565b60405180910390f35b34801561034957600080fd5b50610352610c31565b60405161035f9190614165565b60405180910390f35b34801561037457600080fd5b5061038f600480360381019061038a91906141ac565b610c57565b005b34801561039d57600080fd5b506103a6610d6e565b6040516103b39190613fb8565b60405180910390f35b3480156103c857600080fd5b506103d1610d81565b6040516103de91906141fb565b60405180910390f35b6103ef610d8e565b6040516103fc9190613fb8565b60405180910390f35b34801561041157600080fd5b5061041a611282565b60405161042791906141fb565b60405180910390f35b34801561043c57600080fd5b5061045760048036038101906104529190614216565b611288565b005b34801561046557600080fd5b50610480600480360381019061047b919061429f565b6112e8565b60405161048d91906142db565b60405180910390f35b3480156104a257600080fd5b506104ab611307565b6040516104b891906141fb565b60405180910390f35b3480156104cd57600080fd5b506104e860048036038101906104e391906142f6565b61130d565b005b3480156104f657600080fd5b50610511600480360381019061050c91906141ac565b61132e565b60405161051e91906141fb565b60405180910390f35b34801561053357600080fd5b5061053c6113d3565b60405161054991906141fb565b60405180910390f35b34801561055e57600080fd5b50610579600480360381019061057491906142f6565b6113d9565b005b34801561058757600080fd5b5061059061145c565b005b34801561059e57600080fd5b506105b960048036038101906105b49190614216565b6114d6565b005b3480156105c757600080fd5b506105e260048036038101906105dd91906140bb565b6114f6565b005b3480156105f057600080fd5b506105f9611552565b60405161060691906141fb565b60405180910390f35b34801561061b57600080fd5b50610636600480360381019061063191906140bb565b611558565b60405161064391906141fb565b60405180910390f35b34801561065857600080fd5b506106616115c9565b60405161066e9190613fb8565b60405180910390f35b34801561068357600080fd5b5061069e60048036038101906106999190614336565b6115e0565b6040516106ab91906141fb565b60405180910390f35b3480156106c057600080fd5b506106db60048036038101906106d691906140bb565b6115f8565b6040516106e89190614129565b60405180910390f35b3480156106fd57600080fd5b5061071860048036038101906107139190614336565b61167e565b005b34801561072657600080fd5b50610741600480360381019061073c9190614336565b61170e565b60405161074e91906141fb565b60405180910390f35b34801561076357600080fd5b5061076c6117c5565b60405161077991906141fb565b60405180910390f35b34801561078e57600080fd5b506107976117cb565b005b3480156107a557600080fd5b506107ae611845565b6040516107bb9190613fb8565b60405180910390f35b3480156107d057600080fd5b506107eb60048036038101906107e69190614363565b611858565b6040516107f89190614129565b60405180910390f35b34801561080d57600080fd5b50610828600480360381019061082391906142f6565b611887565b6040516108359190613fb8565b60405180910390f35b34801561084a57600080fd5b506108536118f1565b6040516108609190614063565b60405180910390f35b34801561087557600080fd5b50610890600480360381019061088b9190614336565b611983565b60405161089d91906141fb565b60405180910390f35b3480156108b257600080fd5b506108bb611a08565b6040516108c89190614129565b60405180910390f35b3480156108dd57600080fd5b506108e6611a2e565b6040516108f391906142db565b60405180910390f35b34801561090857600080fd5b50610923600480360381019061091e91906143cf565b611a35565b005b34801561093157600080fd5b5061093a611a4b565b005b34801561094857600080fd5b50610963600480360381019061095e9190614544565b611c68565b005b34801561097157600080fd5b5061097a611cca565b6040516109879190614165565b60405180910390f35b34801561099c57600080fd5b506109b760048036038101906109b291906140bb565b611cf0565b6040516109c49190614063565b60405180910390f35b3480156109d957600080fd5b506109f460048036038101906109ef919061429f565b611d58565b604051610a0191906141fb565b60405180910390f35b348015610a1657600080fd5b50610a1f611d7c565b604051610a2c91906141fb565b60405180910390f35b348015610a4157600080fd5b50610a4a611d82565b604051610a5791906142db565b60405180910390f35b348015610a6c57600080fd5b50610a876004803603810190610a8291906142f6565b611da6565b005b348015610a9557600080fd5b50610a9e611dc7565b604051610aab91906141fb565b60405180910390f35b348015610ac057600080fd5b50610ac9611dcd565b604051610ad691906142db565b60405180910390f35b348015610aeb57600080fd5b50610b066004803603810190610b0191906145c7565b611df1565b604051610b139190613fb8565b60405180910390f35b348015610b2857600080fd5b50610b31611e85565b604051610b3e91906141fb565b60405180910390f35b6000610b52826120b9565b9050919050565b606060028054610b6890614636565b80601f0160208091040260200160405190810160405280929190818152602001828054610b9490614636565b8015610be15780601f10610bb657610100808354040283529160200191610be1565b820191906000526020600020905b815481529060010190602001808311610bc457829003601f168201915b5050505050905090565b6000610bf682612133565b6006600083815260200190815260200160002060009054906101000a900473ffffffffffffffffffffffffffffffffffffffff169050919050565b600f60009054906101000a900473ffffffffffffffffffffffffffffffffffffffff1681565b6000610c62826115f8565b90508073ffffffffffffffffffffffffffffffffffffffff168373ffffffffffffffffffffffffffffffffffffffff1603610cd2576040517f08c379a0000000000000000000000000000000000000000000000000000000008152600401610cc9906146d9565b60405180910390fd5b8073ffffffffffffffffffffffffffffffffffffffff16610cf161217e565b73ffffffffffffffffffffffffffffffffffffffff161480610d205750610d1f81610d1a61217e565b611df1565b5b610d5f576040517f08c379a0000000000000000000000000000000000000000000000000000000008152600401610d569061476b565b60405180910390fd5b610d698383612186565b505050565b601760009054906101000a900460ff1681565b6000600a80549050905090565b6000610da4674a24971e60002b2160c01b61223f565b610db8674dd9c2f570f269ea60c01b61223f565b610dcc67db8479d61c1fa1e360c01b61223f565b6000610dd6611e85565b9050610dec675810e1630f218d2160c01b61223f565b610e0067904857d08b6fe5fa60c01b61223f565b610e146777b5c21d5ac0deb360c01b61223f565b60008111610e57576040517f08c379a0000000000000000000000000000000000000000000000000000000008152600401610e4e906147d7565b60405180910390fd5b610e6b67837cac7e0bd670c660c01b61223f565b610e7f67e045884b4a338e3160c01b61223f565b610e93677c9530940a4b091460c01b61223f565b610ea767cf0c4a37965c50f660c01b61223f565b60003411610eea576040517f08c379a0000000000000000000000000000000000000000000000000000000008152600401610ee190614869565b60405180910390fd5b610efe67f721fc3cc6bf616560c01b61223f565b610f12673d20ce4bd8fef24260c01b61223f565b610f266741f1add661d7950360c01b61223f565b610f3a671bb881847dc9047660c01b61223f565b80341015610f7d576040517f08c379a0000000000000000000000000000000000000000000000000000000008152600401610f74906148fb565b60405180910390fd5b610f9167e8fae4c979eab6a460c01b61223f565b610fa5671fd9fdd8fd4ebfb560c01b61223f565b610fb9671c947a01f5aa3a1f60c01b61223f565b601760009054906101000a900460ff166111d357610fe1673c495cc3343f426b60c01b61223f565b610ff5678b4b57e74d17dbac60c01b61223f565b33601560016101000a81548173ffffffffffffffffffffffffffffffffffffffff021916908373ffffffffffffffffffffffffffffffffffffffff16021790555061104a67cf73a7579828e78160c01b61223f565b3460168190555061106567c61d94ecdb962bb660c01b61223f565b6001601760006101000a81548160ff021916908315150217905550611094673b523462809e658260c01b61223f565b60165460196000600f60009054906101000a900473ffffffffffffffffffffffffffffffffffffffff1673ffffffffffffffffffffffffffffffffffffffff1673ffffffffffffffffffffffffffffffffffffffff1681526020019081526020016000206000828254611107919061494a565b9250508190555061112267d821d9ce51c65ce760c01b61223f565b6111366774732a1d29c7d57860c01b61223f565b600f60009054906101000a900473ffffffffffffffffffffffffffffffffffffffff1673ffffffffffffffffffffffffffffffffffffffff166108fc6016549081150290604051600060405180830381858888f193505050501580156111a0573d6000803e3d6000fd5b506111b567604eb2bfdc122cb560c01b61223f565b6111c967873a882a9dee2e2d60c01b61223f565b600191505061127f565b6111e767e67a1a31c479151260c01b61223f565b6111fb67f6b97718b5a42fc360c01b61223f565b34601960003373ffffffffffffffffffffffffffffffffffffffff1673ffffffffffffffffffffffffffffffffffffffff168152602001908152602001600020600082825461124a919061494a565b9250508190555061126567ab22695d21fd1a0d60c01b61223f565b611279677a393d075f40813a60c01b61223f565b60009150505b90565b60135481565b61129961129361217e565b82612242565b6112d8576040517f08c379a00000000000000000000000000000000000000000000000000000000081526004016112cf906149f0565b60405180910390fd5b6112e38383836122d7565b505050565b6000806000838152602001908152602001600020600101549050919050565b60165481565b611316826112e8565b61131f816125d0565b61132983836125e4565b505050565b60006113398361170e565b821061137a576040517f08c379a000000000000000000000000000000000000000000000000000000000815260040161137190614a82565b60405180910390fd5b600860008473ffffffffffffffffffffffffffffffffffffffff1673ffffffffffffffffffffffffffffffffffffffff168152602001908152602001600020600083815260200190815260200160002054905092915050565b60115481565b6113e161217e565b73ffffffffffffffffffffffffffffffffffffffff168173ffffffffffffffffffffffffffffffffffffffff161461144e576040517f08c379a000000000000000000000000000000000000000000000000000000000815260040161144590614b14565b60405180910390fd5b6114588282612618565b5050565b61148d7f65d7a28e3265b37a6474929f336521b332c1681b933f6cb9f3376673440d862a61148861217e565b611887565b6114cc576040517f08c379a00000000000000000000000000000000000000000000000000000000081526004016114c390614ba6565b60405180910390fd5b6114d461264c565b565b6114f183838360405180602001604052806000815250611c68565b505050565b61150761150161217e565b82612242565b611546576040517f08c379a000000000000000000000000000000000000000000000000000000000815260040161153d906149f0565b60405180910390fd5b61154f816126af565b50565b60145481565b6000611562610d81565b82106115a3576040517f08c379a000000000000000000000000000000000000000000000000000000000815260040161159a90614c38565b60405180910390fd5b600a82815481106115b7576115b6614c58565b5b90600052602060002001549050919050565b6000600c60009054906101000a900460ff16905090565b60196020528060005260406000206000915090505481565b600080611604836127fd565b9050600073ffffffffffffffffffffffffffffffffffffffff168173ffffffffffffffffffffffffffffffffffffffff1603611675576040517f08c379a000000000000000000000000000000000000000000000000000000000815260040161166c90614cd3565b60405180910390fd5b80915050919050565b6116af7f9f2df0fed2c77648de5860a4cc508cd0818c85b8b8a1ab4ceeef8d981c8956a66116aa61217e565b611887565b6116ee576040517f08c379a00000000000000000000000000000000000000000000000000000000081526004016116e590614d65565b60405180910390fd5b611701816116fc600d61283a565b612848565b61170b600d612a65565b50565b60008073ffffffffffffffffffffffffffffffffffffffff168273ffffffffffffffffffffffffffffffffffffffff160361177e576040517f08c379a000000000000000000000000000000000000000000000000000000000815260040161177590614df7565b60405180910390fd5b600560008373ffffffffffffffffffffffffffffffffffffffff1673ffffffffffffffffffffffffffffffffffffffff168152602001908152602001600020549050919050565b60185481565b6117fc7f65d7a28e3265b37a6474929f336521b332c1681b933f6cb9f3376673440d862a6117f761217e565b611887565b61183b576040517f08c379a000000000000000000000000000000000000000000000000000000000815260040161183290614e89565b60405180910390fd5b611843612a7b565b565b601560009054906101000a900460ff1681565b600061187f8260016000868152602001908152602001600020612ade90919063ffffffff16565b905092915050565b600080600084815260200190815260200160002060000160008373ffffffffffffffffffffffffffffffffffffffff1673ffffffffffffffffffffffffffffffffffffffff16815260200190815260200160002060009054906101000a900460ff16905092915050565b60606003805461190090614636565b80601f016020809104026020016040519081016040528092919081815260200182805461192c90614636565b80156119795780601f1061194e57610100808354040283529160200191611979565b820191906000526020600020905b81548152906001019060200180831161195c57829003601f168201915b5050505050905090565b6000611999671982314448eb3c2d60c01b61223f565b6119ad67312b491634335f2e60c01b61223f565b6119c167c0d967f4abf8c1ec60c01b61223f565b601960008373ffffffffffffffffffffffffffffffffffffffff1673ffffffffffffffffffffffffffffffffffffffff168152602001908152602001600020549050919050565b601760019054906101000a900473ffffffffffffffffffffffffffffffffffffffff1681565b6000801b81565b611a47611a4061217e565b8383612af8565b5050565b611a5f67b24cce3623da59c260c01b61223f565b611a73679551a292a632658460c01b61223f565b611a8767ad4c4517968ef0ec60c01b61223f565b611a9b676c2be5b583fff50060c01b61223f565b6000601960003373ffffffffffffffffffffffffffffffffffffffff1673ffffffffffffffffffffffffffffffffffffffff1681526020019081526020016000205411611b1d576040517f08c379a0000000000000000000000000000000000000000000000000000000008152600401611b1490614ef5565b60405180910390fd5b611b3167d6466e209679863f60c01b61223f565b611b4567b6a41fa0a8ad3c0660c01b61223f565b611b5967efe5ccb6f8ecb24e60c01b61223f565b6000601960003373ffffffffffffffffffffffffffffffffffffffff1673ffffffffffffffffffffffffffffffffffffffff168152602001908152602001600020549050611bb1673dd1a30a210e8b5a60c01b61223f565b6000601960003373ffffffffffffffffffffffffffffffffffffffff1673ffffffffffffffffffffffffffffffffffffffff16815260200190815260200160002081905550611c0a67a399fcd50edc268560c01b61223f565b611c1e674f1d37b0a9a84a2c60c01b61223f565b3373ffffffffffffffffffffffffffffffffffffffff166108fc829081150290604051600060405180830381858888f19350505050158015611c64573d6000803e3d6000fd5b5050565b611c79611c7361217e565b83612242565b611cb8576040517f08c379a0000000000000000000000000000000000000000000000000000000008152600401611caf906149f0565b60405180910390fd5b611cc484848484612c64565b50505050565b601560019054906101000a900473ffffffffffffffffffffffffffffffffffffffff1681565b6060611cfb82612133565b6000611d05612cc0565b90506000815111611d255760405180602001604052806000815250611d50565b80611d2f84612d52565b604051602001611d40929190614f51565b6040516020818303038152906040525b915050919050565b6000611d7560016000848152602001908152602001600020612e20565b9050919050565b60125481565b7f9f2df0fed2c77648de5860a4cc508cd0818c85b8b8a1ab4ceeef8d981c8956a681565b611daf826112e8565b611db8816125d0565b611dc28383612618565b505050565b60105481565b7f65d7a28e3265b37a6474929f336521b332c1681b933f6cb9f3376673440d862a81565b6000600760008473ffffffffffffffffffffffffffffffffffffffff1673ffffffffffffffffffffffffffffffffffffffff16815260200190815260200160002060008373ffffffffffffffffffffffffffffffffffffffff1673ffffffffffffffffffffffffffffffffffffffff16815260200190815260200160002060009054906101000a900460ff16905092915050565b6000611e9b67fd97e215cab1d91660c01b61223f565b611eaf67cd6391d7a7746bb060c01b61223f565b611ec367d99929eed3f4354360c01b61223f565b6014544310611f1157611ee0677e3b3c58b3c94b1260c01b61223f565b611ef4672531d185370b4a4160c01b61223f565b611f086765172a4e226288ab60c01b61223f565b60009050611fa6565b611f2567e04a6afae7f0072960c01b61223f565b611f3967c4b4a5a4a54845e160c01b61223f565b611f4d679a836268f925757960c01b61223f565b600043601454611f5d9190614f75565b9050611f73672c79433abb0ad74e60c01b61223f565b611f8767550956dde97f378f60c01b61223f565b60125481611f959190614fa9565b601354611fa29190614f75565b9150505b90565b611fb38282611887565b61208557600160008084815260200190815260200160002060000160008373ffffffffffffffffffffffffffffffffffffffff1673ffffffffffffffffffffffffffffffffffffffff16815260200190815260200160002060006101000a81548160ff02191690831515021790555061202a61217e565b73ffffffffffffffffffffffffffffffffffffffff168173ffffffffffffffffffffffffffffffffffffffff16837f2f8788117e7eff1d82e926ec794901d17c78024a50270940304540a733656f0d60405160405180910390a45b5050565b60006120b1836000018373ffffffffffffffffffffffffffffffffffffffff1660001b612e35565b905092915050565b60007f780e9d63000000000000000000000000000000000000000000000000000000007bffffffffffffffffffffffffffffffffffffffffffffffffffffffff1916827bffffffffffffffffffffffffffffffffffffffffffffffffffffffff1916148061212c575061212b82612ea5565b5b9050919050565b61213c81612f87565b61217b576040517f08c379a000000000000000000000000000000000000000000000000000000000815260040161217290614cd3565b60405180910390fd5b50565b600033905090565b816006600083815260200190815260200160002060006101000a81548173ffffffffffffffffffffffffffffffffffffffff021916908373ffffffffffffffffffffffffffffffffffffffff160217905550808273ffffffffffffffffffffffffffffffffffffffff166121f9836115f8565b73ffffffffffffffffffffffffffffffffffffffff167f8c5be1e5ebec7d5bd14f71427d1e84f3dd0314c0f7b2291e5b200ac8c7c3b92560405160405180910390a45050565b50565b60008061224e836115f8565b90508073ffffffffffffffffffffffffffffffffffffffff168473ffffffffffffffffffffffffffffffffffffffff161480612290575061228f8185611df1565b5b806122ce57508373ffffffffffffffffffffffffffffffffffffffff166122b684610beb565b73ffffffffffffffffffffffffffffffffffffffff16145b91505092915050565b8273ffffffffffffffffffffffffffffffffffffffff166122f7826115f8565b73ffffffffffffffffffffffffffffffffffffffff161461234d576040517f08c379a00000000000000000000000000000000000000000000000000000000081526004016123449061505d565b60405180910390fd5b600073ffffffffffffffffffffffffffffffffffffffff168273ffffffffffffffffffffffffffffffffffffffff16036123bc576040517f08c379a00000000000000000000000000000000000000000000000000000000081526004016123b3906150ef565b60405180910390fd5b6123c98383836001612fc8565b8273ffffffffffffffffffffffffffffffffffffffff166123e9826115f8565b73ffffffffffffffffffffffffffffffffffffffff161461243f576040517f08c379a00000000000000000000000000000000000000000000000000000000081526004016124369061505d565b60405180910390fd5b6006600082815260200190815260200160002060006101000a81549073ffffffffffffffffffffffffffffffffffffffff02191690556001600560008573ffffffffffffffffffffffffffffffffffffffff1673ffffffffffffffffffffffffffffffffffffffff168152602001908152602001600020600082825403925050819055506001600560008473ffffffffffffffffffffffffffffffffffffffff1673ffffffffffffffffffffffffffffffffffffffff16815260200190815260200160002060008282540192505081905550816004600083815260200190815260200160002060006101000a81548173ffffffffffffffffffffffffffffffffffffffff021916908373ffffffffffffffffffffffffffffffffffffffff160217905550808273ffffffffffffffffffffffffffffffffffffffff168473ffffffffffffffffffffffffffffffffffffffff167fddf252ad1be2c89b69c2b068fc378daa952ba7f163c4a11628f55a4df523b3ef60405160405180910390a46125cb8383836001612fda565b505050565b6125e1816125dc61217e565b612fe0565b50565b6125ee8282611fa9565b612613816001600085815260200190815260200160002061208990919063ffffffff16565b505050565b6126228282613065565b612647816001600085815260200190815260200160002061314690919063ffffffff16565b505050565b612654613176565b6000600c60006101000a81548160ff0219169083151502179055507f5db9ee0a495bf2e6ff9c91a7834c1ba4fdd244a5e8aa4e537bd38aeae4b073aa61269861217e565b6040516126a59190614129565b60405180910390a1565b60006126ba826115f8565b90506126ca816000846001612fc8565b6126d3826115f8565b90506006600083815260200190815260200160002060006101000a81549073ffffffffffffffffffffffffffffffffffffffff02191690556001600560008373ffffffffffffffffffffffffffffffffffffffff1673ffffffffffffffffffffffffffffffffffffffff168152602001908152602001600020600082825403925050819055506004600083815260200190815260200160002060006101000a81549073ffffffffffffffffffffffffffffffffffffffff021916905581600073ffffffffffffffffffffffffffffffffffffffff168273ffffffffffffffffffffffffffffffffffffffff167fddf252ad1be2c89b69c2b068fc378daa952ba7f163c4a11628f55a4df523b3ef60405160405180910390a46127f9816000846001612fda565b5050565b60006004600083815260200190815260200160002060009054906101000a900473ffffffffffffffffffffffffffffffffffffffff169050919050565b600081600001549050919050565b600073ffffffffffffffffffffffffffffffffffffffff168273ffffffffffffffffffffffffffffffffffffffff16036128b7576040517f08c379a00000000000000000000000000000000000000000000000000000000081526004016128ae9061515b565b60405180910390fd5b6128c081612f87565b15612900576040517f08c379a00000000000000000000000000000000000000000000000000000000081526004016128f7906151c7565b60405180910390fd5b61290e600083836001612fc8565b61291781612f87565b15612957576040517f08c379a000000000000000000000000000000000000000000000000000000000815260040161294e906151c7565b60405180910390fd5b6001600560008473ffffffffffffffffffffffffffffffffffffffff1673ffffffffffffffffffffffffffffffffffffffff16815260200190815260200160002060008282540192505081905550816004600083815260200190815260200160002060006101000a81548173ffffffffffffffffffffffffffffffffffffffff021916908373ffffffffffffffffffffffffffffffffffffffff160217905550808273ffffffffffffffffffffffffffffffffffffffff16600073ffffffffffffffffffffffffffffffffffffffff167fddf252ad1be2c89b69c2b068fc378daa952ba7f163c4a11628f55a4df523b3ef60405160405180910390a4612a61600083836001612fda565b5050565b6001816000016000828254019250508190555050565b612a836131bf565b6001600c60006101000a81548160ff0219169083151502179055507f62e78cea01bee320cd4e420270b5ea74000d11b0c9f74754ebdbfc544b05a258612ac761217e565b604051612ad49190614129565b60405180910390a1565b6000612aed8360000183613209565b60001c905092915050565b8173ffffffffffffffffffffffffffffffffffffffff168373ffffffffffffffffffffffffffffffffffffffff1603612b66576040517f08c379a0000000000000000000000000000000000000000000000000000000008152600401612b5d90615233565b60405180910390fd5b80600760008573ffffffffffffffffffffffffffffffffffffffff1673ffffffffffffffffffffffffffffffffffffffff16815260200190815260200160002060008473ffffffffffffffffffffffffffffffffffffffff1673ffffffffffffffffffffffffffffffffffffffff16815260200190815260200160002060006101000a81548160ff0219169083151502179055508173ffffffffffffffffffffffffffffffffffffffff168373ffffffffffffffffffffffffffffffffffffffff167f17307eab39ab6107e8899845ad3d59bd9653f200f220920489ca2b5937696c3183604051612c579190613fb8565b60405180910390a3505050565b612c6f8484846122d7565b612c7b84848484613234565b612cba576040517f08c379a0000000000000000000000000000000000000000000000000000000008152600401612cb1906152c5565b60405180910390fd5b50505050565b6060600e8054612ccf90614636565b80601f0160208091040260200160405190810160405280929190818152602001828054612cfb90614636565b8015612d485780601f10612d1d57610100808354040283529160200191612d48565b820191906000526020600020905b815481529060010190602001808311612d2b57829003601f168201915b5050505050905090565b606060006001612d61846133bb565b01905060008167ffffffffffffffff811115612d8057612d7f614419565b5b6040519080825280601f01601f191660200182016040528015612db25781602001600182028036833780820191505090505b509050600082602001820190505b600115612e15578080600190039150507f3031323334353637383961626364656600000000000000000000000000000000600a86061a8153600a8581612e0957612e086152e5565b5b04945060008503612dc0575b819350505050919050565b6000612e2e8260000161350e565b9050919050565b6000612e41838361351f565b612e9a578260000182908060018154018082558091505060019003906000526020600020016000909190919091505582600001805490508360010160008481526020019081526020016000208190555060019050612e9f565b600090505b92915050565b60007f80ac58cd000000000000000000000000000000000000000000000000000000007bffffffffffffffffffffffffffffffffffffffffffffffffffffffff1916827bffffffffffffffffffffffffffffffffffffffffffffffffffffffff19161480612f7057507f5b5e139f000000000000000000000000000000000000000000000000000000007bffffffffffffffffffffffffffffffffffffffffffffffffffffffff1916827bffffffffffffffffffffffffffffffffffffffffffffffffffffffff1916145b80612f805750612f7f82613542565b5b9050919050565b60008073ffffffffffffffffffffffffffffffffffffffff16612fa9836127fd565b73ffffffffffffffffffffffffffffffffffffffff1614159050919050565b612fd4848484846135bc565b50505050565b50505050565b612fea8282611887565b61306157612ff781613616565b6130058360001c6020613643565b6040516020016130169291906153ac565b6040516020818303038152906040526040517f08c379a00000000000000000000000000000000000000000000000000000000081526004016130589190614063565b60405180910390fd5b5050565b61306f8282611887565b1561314257600080600084815260200190815260200160002060000160008373ffffffffffffffffffffffffffffffffffffffff1673ffffffffffffffffffffffffffffffffffffffff16815260200190815260200160002060006101000a81548160ff0219169083151502179055506130e761217e565b73ffffffffffffffffffffffffffffffffffffffff168173ffffffffffffffffffffffffffffffffffffffff16837ff6391f5c32d9c69d2a47ea670b442974b53935d1edc7fd64eb21e047a839171b60405160405180910390a45b5050565b600061316e836000018373ffffffffffffffffffffffffffffffffffffffff1660001b61387f565b905092915050565b61317e6115c9565b6131bd576040517f08c379a00000000000000000000000000000000000000000000000000000000081526004016131b490615432565b60405180910390fd5b565b6131c76115c9565b15613207576040517f08c379a00000000000000000000000000000000000000000000000000000000081526004016131fe9061549e565b60405180910390fd5b565b600082600001828154811061322157613220614c58565b5b9060005260206000200154905092915050565b60006132558473ffffffffffffffffffffffffffffffffffffffff16613993565b156133ae578373ffffffffffffffffffffffffffffffffffffffff1663150b7a0261327e61217e565b8786866040518563ffffffff1660e01b81526004016132a09493929190615513565b6020604051808303816000875af19250505080156132dc57506040513d601f19601f820116820180604052508101906132d99190615574565b60015b61335e573d806000811461330c576040519150601f19603f3d011682016040523d82523d6000602084013e613311565b606091505b506000815103613356576040517f08c379a000000000000000000000000000000000000000000000000000000000815260040161334d906152c5565b60405180910390fd5b805181602001fd5b63150b7a0260e01b7bffffffffffffffffffffffffffffffffffffffffffffffffffffffff1916817bffffffffffffffffffffffffffffffffffffffffffffffffffffffff1916149150506133b3565b600190505b949350505050565b600080600090507a184f03e93ff9f4daa797ed6e38ed64bf6a1f0100000000000000008310613419577a184f03e93ff9f4daa797ed6e38ed64bf6a1f010000000000000000838161340f5761340e6152e5565b5b0492506040810190505b6d04ee2d6d415b85acef81000000008310613456576d04ee2d6d415b85acef8100000000838161344c5761344b6152e5565b5b0492506020810190505b662386f26fc10000831061348557662386f26fc10000838161347b5761347a6152e5565b5b0492506010810190505b6305f5e10083106134ae576305f5e10083816134a4576134a36152e5565b5b0492506008810190505b61271083106134d35761271083816134c9576134c86152e5565b5b0492506004810190505b606483106134f657606483816134ec576134eb6152e5565b5b0492506002810190505b600a8310613505576001810190505b80915050919050565b600081600001805490509050919050565b600080836001016000848152602001908152602001600020541415905092915050565b60007f5a05180f000000000000000000000000000000000000000000000000000000007bffffffffffffffffffffffffffffffffffffffffffffffffffffffff1916827bffffffffffffffffffffffffffffffffffffffffffffffffffffffff191614806135b557506135b4826139b6565b5b9050919050565b6135c884848484613a30565b6135d06115c9565b15613610576040517f08c379a000000000000000000000000000000000000000000000000000000000815260040161360790615613565b60405180910390fd5b50505050565b606061363c8273ffffffffffffffffffffffffffffffffffffffff16601460ff16613643565b9050919050565b6060600060028360026136569190614fa9565b613660919061494a565b67ffffffffffffffff81111561367957613678614419565b5b6040519080825280601f01601f1916602001820160405280156136ab5781602001600182028036833780820191505090505b5090507f3000000000000000000000000000000000000000000000000000000000000000816000815181106136e3576136e2614c58565b5b60200101907effffffffffffffffffffffffffffffffffffffffffffffffffffffffffffff1916908160001a9053507f78000000000000000000000000000000000000000000000000000000000000008160018151811061374757613746614c58565b5b60200101907effffffffffffffffffffffffffffffffffffffffffffffffffffffffffffff1916908160001a905350600060018460026137879190614fa9565b613791919061494a565b90505b6001811115613831577f3031323334353637383961626364656600000000000000000000000000000000600f8616601081106137d3576137d2614c58565b5b1a60f81b8282815181106137ea576137e9614c58565b5b60200101907effffffffffffffffffffffffffffffffffffffffffffffffffffffffffffff1916908160001a905350600485901c94508061382a90615633565b9050613794565b5060008414613875576040517f08c379a000000000000000000000000000000000000000000000000000000000815260040161386c906156a8565b60405180910390fd5b8091505092915050565b600080836001016000848152602001908152602001600020549050600081146139875760006001826138b19190614f75565b90506000600186600001805490506138c99190614f75565b90508181146139385760008660000182815481106138ea576138e9614c58565b5b906000526020600020015490508087600001848154811061390e5761390d614c58565b5b90600052602060002001819055508387600101600083815260200190815260200160002081905550505b8560000180548061394c5761394b6156c8565b5b60019003818190600052602060002001600090559055856001016000868152602001908152602001600020600090556001935050505061398d565b60009150505b92915050565b6000808273ffffffffffffffffffffffffffffffffffffffff163b119050919050565b60007f7965db0b000000000000000000000000000000000000000000000000000000007bffffffffffffffffffffffffffffffffffffffffffffffffffffffff1916827bffffffffffffffffffffffffffffffffffffffffffffffffffffffff19161480613a295750613a2882613b8e565b5b9050919050565b613a3c84848484613bf8565b6001811115613a80576040517f08c379a0000000000000000000000000000000000000000000000000000000008152600401613a7790615769565b60405180910390fd5b6000829050600073ffffffffffffffffffffffffffffffffffffffff168573ffffffffffffffffffffffffffffffffffffffff1603613ac757613ac281613bfe565b613b06565b8373ffffffffffffffffffffffffffffffffffffffff168573ffffffffffffffffffffffffffffffffffffffff1614613b0557613b048582613c47565b5b5b600073ffffffffffffffffffffffffffffffffffffffff168473ffffffffffffffffffffffffffffffffffffffff1603613b4857613b4381613db4565b613b87565b8473ffffffffffffffffffffffffffffffffffffffff168473ffffffffffffffffffffffffffffffffffffffff1614613b8657613b858482613e85565b5b5b5050505050565b60007f01ffc9a7000000000000000000000000000000000000000000000000000000007bffffffffffffffffffffffffffffffffffffffffffffffffffffffff1916827bffffffffffffffffffffffffffffffffffffffffffffffffffffffff1916149050919050565b50505050565b600a80549050600b600083815260200190815260200160002081905550600a81908060018154018082558091505060019003906000526020600020016000909190919091505550565b60006001613c548461170e565b613c5e9190614f75565b9050600060096000848152602001908152602001600020549050818114613d43576000600860008673ffffffffffffffffffffffffffffffffffffffff1673ffffffffffffffffffffffffffffffffffffffff168152602001908152602001600020600084815260200190815260200160002054905080600860008773ffffffffffffffffffffffffffffffffffffffff1673ffffffffffffffffffffffffffffffffffffffff168152602001908152602001600020600084815260200190815260200160002081905550816009600083815260200190815260200160002081905550505b6009600084815260200190815260200160002060009055600860008573ffffffffffffffffffffffffffffffffffffffff1673ffffffffffffffffffffffffffffffffffffffff16815260200190815260200160002060008381526020019081526020016000206000905550505050565b60006001600a80549050613dc89190614f75565b90506000600b60008481526020019081526020016000205490506000600a8381548110613df857613df7614c58565b5b9060005260206000200154905080600a8381548110613e1a57613e19614c58565b5b906000526020600020018190555081600b600083815260200190815260200160002081905550600b600085815260200190815260200160002060009055600a805480613e6957613e686156c8565b5b6001900381819060005260206000200160009055905550505050565b6000613e908361170e565b905081600860008573ffffffffffffffffffffffffffffffffffffffff1673ffffffffffffffffffffffffffffffffffffffff168152602001908152602001600020600083815260200190815260200160002081905550806009600084815260200190815260200160002081905550505050565b6000604051905090565b600080fd5b600080fd5b60007fffffffff0000000000000000000000000000000000000000000000000000000082169050919050565b613f4d81613f18565b8114613f5857600080fd5b50565b600081359050613f6a81613f44565b92915050565b600060208284031215613f8657613f85613f0e565b5b6000613f9484828501613f5b565b91505092915050565b60008115159050919050565b613fb281613f9d565b82525050565b6000602082019050613fcd6000830184613fa9565b92915050565b600081519050919050565b600082825260208201905092915050565b60005b8381101561400d578082015181840152602081019050613ff2565b60008484015250505050565b6000601f19601f8301169050919050565b600061403582613fd3565b61403f8185613fde565b935061404f818560208601613fef565b61405881614019565b840191505092915050565b6000602082019050818103600083015261407d818461402a565b905092915050565b6000819050919050565b61409881614085565b81146140a357600080fd5b50565b6000813590506140b58161408f565b92915050565b6000602082840312156140d1576140d0613f0e565b5b60006140df848285016140a6565b91505092915050565b600073ffffffffffffffffffffffffffffffffffffffff82169050919050565b6000614113826140e8565b9050919050565b61412381614108565b82525050565b600060208201905061413e600083018461411a565b92915050565b600061414f826140e8565b9050919050565b61415f81614144565b82525050565b600060208201905061417a6000830184614156565b92915050565b61418981614108565b811461419457600080fd5b50565b6000813590506141a681614180565b92915050565b600080604083850312156141c3576141c2613f0e565b5b60006141d185828601614197565b92505060206141e2858286016140a6565b9150509250929050565b6141f581614085565b82525050565b600060208201905061421060008301846141ec565b92915050565b60008060006060848603121561422f5761422e613f0e565b5b600061423d86828701614197565b935050602061424e86828701614197565b925050604061425f868287016140a6565b9150509250925092565b6000819050919050565b61427c81614269565b811461428757600080fd5b50565b60008135905061429981614273565b92915050565b6000602082840312156142b5576142b4613f0e565b5b60006142c38482850161428a565b91505092915050565b6142d581614269565b82525050565b60006020820190506142f060008301846142cc565b92915050565b6000806040838503121561430d5761430c613f0e565b5b600061431b8582860161428a565b925050602061432c85828601614197565b9150509250929050565b60006020828403121561434c5761434b613f0e565b5b600061435a84828501614197565b91505092915050565b6000806040838503121561437a57614379613f0e565b5b60006143888582860161428a565b9250506020614399858286016140a6565b9150509250929050565b6143ac81613f9d565b81146143b757600080fd5b50565b6000813590506143c9816143a3565b92915050565b600080604083850312156143e6576143e5613f0e565b5b60006143f485828601614197565b9250506020614405858286016143ba565b9150509250929050565b600080fd5b600080fd5b7f4e487b7100000000000000000000000000000000000000000000000000000000600052604160045260246000fd5b61445182614019565b810181811067ffffffffffffffff821117156144705761446f614419565b5b80604052505050565b6000614483613f04565b905061448f8282614448565b919050565b600067ffffffffffffffff8211156144af576144ae614419565b5b6144b882614019565b9050602081019050919050565b82818337600083830152505050565b60006144e76144e284614494565b614479565b90508281526020810184848401111561450357614502614414565b5b61450e8482856144c5565b509392505050565b600082601f83011261452b5761452a61440f565b5b813561453b8482602086016144d4565b91505092915050565b6000806000806080858703121561455e5761455d613f0e565b5b600061456c87828801614197565b945050602061457d87828801614197565b935050604061458e878288016140a6565b925050606085013567ffffffffffffffff8111156145af576145ae613f13565b5b6145bb87828801614516565b91505092959194509250565b600080604083850312156145de576145dd613f0e565b5b60006145ec85828601614197565b92505060206145fd85828601614197565b9150509250929050565b7f4e487b7100000000000000000000000000000000000000000000000000000000600052602260045260246000fd5b6000600282049050600182168061464e57607f821691505b60208210810361466157614660614607565b5b50919050565b7f4552433732313a20617070726f76616c20746f2063757272656e74206f776e6560008201527f7200000000000000000000000000000000000000000000000000000000000000602082015250565b60006146c3602183613fde565b91506146ce82614667565b604082019050919050565b600060208201905081810360008301526146f2816146b6565b9050919050565b7f4552433732313a20617070726f76652063616c6c6572206973206e6f7420746f60008201527f6b656e206f776e6572206f7220617070726f76656420666f7220616c6c000000602082015250565b6000614755603d83613fde565b9150614760826146f9565b604082019050919050565b6000602082019050818103600083015261478481614748565b9050919050565b7f41756374696f6e2068617320656e646564000000000000000000000000000000600082015250565b60006147c1601183613fde565b91506147cc8261478b565b602082019050919050565b600060208201905081810360008301526147f0816147b4565b9050919050565b7f42696420616d6f756e74206d7573742062652067726561746572207468616e2060008201527f3000000000000000000000000000000000000000000000000000000000000000602082015250565b6000614853602183613fde565b915061485e826147f7565b604082019050919050565b6000602082019050818103600083015261488281614846565b9050919050565b7f42696420616d6f756e74206973206c6f776572207468616e2063757272656e7460008201527f2070726963650000000000000000000000000000000000000000000000000000602082015250565b60006148e5602683613fde565b91506148f082614889565b604082019050919050565b60006020820190508181036000830152614914816148d8565b9050919050565b7f4e487b7100000000000000000000000000000000000000000000000000000000600052601160045260246000fd5b600061495582614085565b915061496083614085565b92508282019050808211156149785761497761491b565b5b92915050565b7f4552433732313a2063616c6c6572206973206e6f7420746f6b656e206f776e6560008201527f72206f7220617070726f76656400000000000000000000000000000000000000602082015250565b60006149da602d83613fde565b91506149e58261497e565b604082019050919050565b60006020820190508181036000830152614a09816149cd565b9050919050565b7f455243373231456e756d657261626c653a206f776e657220696e646578206f7560008201527f74206f6620626f756e6473000000000000000000000000000000000000000000602082015250565b6000614a6c602b83613fde565b9150614a7782614a10565b604082019050919050565b60006020820190508181036000830152614a9b81614a5f565b9050919050565b7f416363657373436f6e74726f6c3a2063616e206f6e6c792072656e6f756e636560008201527f20726f6c657320666f722073656c660000000000000000000000000000000000602082015250565b6000614afe602f83613fde565b9150614b0982614aa2565b604082019050919050565b60006020820190508181036000830152614b2d81614af1565b9050919050565b7f4552433732315072657365744d696e7465725061757365724175746f49643a2060008201527f6d75737420686176652070617573657220726f6c6520746f20756e7061757365602082015250565b6000614b90604083613fde565b9150614b9b82614b34565b604082019050919050565b60006020820190508181036000830152614bbf81614b83565b9050919050565b7f455243373231456e756d657261626c653a20676c6f62616c20696e646578206f60008201527f7574206f6620626f756e64730000000000000000000000000000000000000000602082015250565b6000614c22602c83613fde565b9150614c2d82614bc6565b604082019050919050565b60006020820190508181036000830152614c5181614c15565b9050919050565b7f4e487b7100000000000000000000000000000000000000000000000000000000600052603260045260246000fd5b7f4552433732313a20696e76616c696420746f6b656e2049440000000000000000600082015250565b6000614cbd601883613fde565b9150614cc882614c87565b602082019050919050565b60006020820190508181036000830152614cec81614cb0565b9050919050565b7f4552433732315072657365744d696e7465725061757365724175746f49643a2060008201527f6d7573742068617665206d696e74657220726f6c6520746f206d696e74000000602082015250565b6000614d4f603d83613fde565b9150614d5a82614cf3565b604082019050919050565b60006020820190508181036000830152614d7e81614d42565b9050919050565b7f4552433732313a2061646472657373207a65726f206973206e6f74206120766160008201527f6c6964206f776e65720000000000000000000000000000000000000000000000602082015250565b6000614de1602983613fde565b9150614dec82614d85565b604082019050919050565b60006020820190508181036000830152614e1081614dd4565b9050919050565b7f4552433732315072657365744d696e7465725061757365724175746f49643a2060008201527f6d75737420686176652070617573657220726f6c6520746f2070617573650000602082015250565b6000614e73603e83613fde565b9150614e7e82614e17565b604082019050919050565b60006020820190508181036000830152614ea281614e66565b9050919050565b7f4e6f20726566756e6420617661696c61626c6500000000000000000000000000600082015250565b6000614edf601383613fde565b9150614eea82614ea9565b602082019050919050565b60006020820190508181036000830152614f0e81614ed2565b9050919050565b600081905092915050565b6000614f2b82613fd3565b614f358185614f15565b9350614f45818560208601613fef565b80840191505092915050565b6000614f5d8285614f20565b9150614f698284614f20565b91508190509392505050565b6000614f8082614085565b9150614f8b83614085565b9250828203905081811115614fa357614fa261491b565b5b92915050565b6000614fb482614085565b9150614fbf83614085565b9250828202614fcd81614085565b91508282048414831517614fe457614fe361491b565b5b5092915050565b7f4552433732313a207472616e736665722066726f6d20696e636f72726563742060008201527f6f776e6572000000000000000000000000000000000000000000000000000000602082015250565b6000615047602583613fde565b915061505282614feb565b604082019050919050565b600060208201905081810360008301526150768161503a565b9050919050565b7f4552433732313a207472616e7366657220746f20746865207a65726f2061646460008201527f7265737300000000000000000000000000000000000000000000000000000000602082015250565b60006150d9602483613fde565b91506150e48261507d565b604082019050919050565b60006020820190508181036000830152615108816150cc565b9050919050565b7f4552433732313a206d696e7420746f20746865207a65726f2061646472657373600082015250565b6000615145602083613fde565b91506151508261510f565b602082019050919050565b6000602082019050818103600083015261517481615138565b9050919050565b7f4552433732313a20746f6b656e20616c7265616479206d696e74656400000000600082015250565b60006151b1601c83613fde565b91506151bc8261517b565b602082019050919050565b600060208201905081810360008301526151e0816151a4565b9050919050565b7f4552433732313a20617070726f766520746f2063616c6c657200000000000000600082015250565b600061521d601983613fde565b9150615228826151e7565b602082019050919050565b6000602082019050818103600083015261524c81615210565b9050919050565b7f4552433732313a207472616e7366657220746f206e6f6e20455243373231526560008201527f63656976657220696d706c656d656e7465720000000000000000000000000000602082015250565b60006152af603283613fde565b91506152ba82615253565b604082019050919050565b600060208201905081810360008301526152de816152a2565b9050919050565b7f4e487b7100000000000000000000000000000000000000000000000000000000600052601260045260246000fd5b7f416363657373436f6e74726f6c3a206163636f756e7420000000000000000000600082015250565b600061534a601783614f15565b915061535582615314565b601782019050919050565b7f206973206d697373696e6720726f6c6520000000000000000000000000000000600082015250565b6000615396601183614f15565b91506153a182615360565b601182019050919050565b60006153b78261533d565b91506153c38285614f20565b91506153ce82615389565b91506153da8284614f20565b91508190509392505050565b7f5061757361626c653a206e6f7420706175736564000000000000000000000000600082015250565b600061541c601483613fde565b9150615427826153e6565b602082019050919050565b6000602082019050818103600083015261544b8161540f565b9050919050565b7f5061757361626c653a2070617573656400000000000000000000000000000000600082015250565b6000615488601083613fde565b915061549382615452565b602082019050919050565b600060208201905081810360008301526154b78161547b565b9050919050565b600081519050919050565b600082825260208201905092915050565b60006154e5826154be565b6154ef81856154c9565b93506154ff818560208601613fef565b61550881614019565b840191505092915050565b6000608082019050615528600083018761411a565b615535602083018661411a565b61554260408301856141ec565b818103606083015261555481846154da565b905095945050505050565b60008151905061556e81613f44565b92915050565b60006020828403121561558a57615589613f0e565b5b60006155988482850161555f565b91505092915050565b7f4552433732315061757361626c653a20746f6b656e207472616e73666572207760008201527f68696c6520706175736564000000000000000000000000000000000000000000602082015250565b60006155fd602b83613fde565b9150615608826155a1565b604082019050919050565b6000602082019050818103600083015261562c816155f0565b9050919050565b600061563e82614085565b9150600082036156515761565061491b565b5b600182039050919050565b7f537472696e67733a20686578206c656e67746820696e73756666696369656e74600082015250565b6000615692602083613fde565b915061569d8261565c565b602082019050919050565b600060208201905081810360008301526156c181615685565b9050919050565b7f4e487b7100000000000000000000000000000000000000000000000000000000600052603160045260246000fd5b7f455243373231456e756d657261626c653a20636f6e736563757469766520747260008201527f616e7366657273206e6f7420737570706f727465640000000000000000000000602082015250565b6000615753603583613fde565b915061575e826156f7565b604082019050919050565b6000602082019050818103600083015261578281615746565b905091905056fea2646970667358221220b47467e30a96db83d65bf914d735f518ce19f7d6a40ee6297f14df67bd1c655764736f6c63430008120033",
  "linkReferences": {},
  "deployedLinkReferences": {}
}