{
  "_format": "hh-sol-artifact-1",
  "contractName": "BasicDutchAuction",
  "sourceName": "contracts/BasicDutchAuction.sol",
  "abi": [
    {
      "inputs": [
        {
          "internalType": "uint256",
          "name": "_reservePrice",
          "type": "uint256"
        },
        {
          "internalType": "uint256",
          "name": "_numBlocksAuctionOpen",
          "type": "uint256"
        },
        {
          "internalType": "uint256",
          "name": "_offerPriceDecrement",
          "type": "uint256"
        }
      ],
      "stateMutability": "nonpayable",
      "type": "constructor"
    },
    {
      "anonymous": false,
      "inputs": [
        {
          "indexed": false,
          "internalType": "address",
          "name": "winner",
          "type": "address"
        },
        {
          "indexed": false,
          "internalType": "uint256",
          "name": "amount",
          "type": "uint256"
        }
      ],
      "name": "AuctionEnded",
      "type": "event"
    },
    {
      "inputs": [],
      "name": "auctionEndTime",
      "outputs": [
        {
          "internalType": "uint256",
          "name": "",
          "type": "uint256"
        }
      ],
      "stateMutability": "view",
      "type": "function"
    },
    {
      "inputs": [],
      "name": "auctionEnded",
      "outputs": [
        {
          "internalType": "bool",
          "name": "",
          "type": "bool"
        }
      ],
      "stateMutability": "view",
      "type": "function"
    },
    {
      "inputs": [
        {
          "internalType": "address",
          "name": "account",
          "type": "address"
        }
      ],
      "name": "balanceOf",
      "outputs": [
        {
          "internalType": "uint256",
          "name": "",
          "type": "uint256"
        }
      ],
      "stateMutability": "view",
      "type": "function"
    },
    {
      "inputs": [],
      "name": "bid",
      "outputs": [
        {
          "internalType": "bool",
          "name": "",
          "type": "bool"
        }
      ],
      "stateMutability": "payable",
      "type": "function"
    },
    {
      "inputs": [
        {
          "internalType": "address",
          "name": "",
          "type": "address"
        }
      ],
      "name": "bids",
      "outputs": [
        {
          "internalType": "uint256",
          "name": "",
          "type": "uint256"
        }
      ],
      "stateMutability": "view",
      "type": "function"
    },
    {
      "inputs": [],
      "name": "claimRefund",
      "outputs": [],
      "stateMutability": "nonpayable",
      "type": "function"
    },
    {
      "inputs": [],
      "name": "firstBid",
      "outputs": [
        {
          "internalType": "uint256",
          "name": "",
          "type": "uint256"
        }
      ],
      "stateMutability": "view",
      "type": "function"
    },
    {
      "inputs": [],
      "name": "firstBidder",
      "outputs": [
        {
          "internalType": "address payable",
          "name": "",
          "type": "address"
        }
      ],
      "stateMutability": "view",
      "type": "function"
    },
    {
      "inputs": [],
      "name": "getCurrentPrice",
      "outputs": [
        {
          "internalType": "uint256",
          "name": "",
          "type": "uint256"
        }
      ],
      "stateMutability": "view",
      "type": "function"
    },
    {
      "inputs": [],
      "name": "gotValidBid",
      "outputs": [
        {
          "internalType": "bool",
          "name": "",
          "type": "bool"
        }
      ],
      "stateMutability": "view",
      "type": "function"
    },
    {
      "inputs": [],
      "name": "initialPrice",
      "outputs": [
        {
          "internalType": "uint256",
          "name": "",
          "type": "uint256"
        }
      ],
      "stateMutability": "view",
      "type": "function"
    },
    {
      "inputs": [],
      "name": "numBlocksAuctionOpen",
      "outputs": [
        {
          "internalType": "uint256",
          "name": "",
          "type": "uint256"
        }
      ],
      "stateMutability": "view",
      "type": "function"
    },
    {
      "inputs": [],
      "name": "offerPriceDecrement",
      "outputs": [
        {
          "internalType": "uint256",
          "name": "",
          "type": "uint256"
        }
      ],
      "stateMutability": "view",
      "type": "function"
    },
    {
      "inputs": [],
      "name": "reservePrice",
      "outputs": [
        {
          "internalType": "uint256",
          "name": "",
          "type": "uint256"
        }
      ],
      "stateMutability": "view",
      "type": "function"
    },
    {
      "inputs": [],
      "name": "seller",
      "outputs": [
        {
          "internalType": "address payable",
          "name": "",
          "type": "address"
        }
      ],
      "stateMutability": "view",
      "type": "function"
    }
  ],
  "bytecode": "0x60806040523480156200001157600080fd5b506040516200160a3803806200160a8339818101604052810190620000379190620002c9565b6200005367069cb7a5a05f921860c01b6200028660201b60201c565b6200006f67a42344ba478ef43c60c01b6200028660201b60201c565b336000806101000a81548173ffffffffffffffffffffffffffffffffffffffff021916908373ffffffffffffffffffffffffffffffffffffffff160217905550620000cb67eaffab10148b565760c01b6200028660201b60201c565b82600181905550620000ee67e1de6b143bb626cf60c01b6200028660201b60201c565b816002819055506200011167079f2c62d97002f160c01b6200028660201b60201c565b806003819055506200013467b6c62f507e68496260c01b6200028660201b60201c565b60035460025462000146919062000354565b6001546200015591906200039f565b6004819055506200017767604806dc5efcbce560c01b6200028660201b60201c565b600254436200018791906200039f565b600581905550620001a967c38fd9656955b27a60c01b6200028660201b60201c565b6000600660006101000a81548160ff021916908315150217905550620001e067e3ffb6924ad0d09560c01b6200028660201b60201c565b6000600860006101000a81548160ff02191690831515021790555062000217673c33aa8adb8e7cb160c01b6200028660201b60201c565b6000600660016101000a81548173ffffffffffffffffffffffffffffffffffffffff021916908373ffffffffffffffffffffffffffffffffffffffff16021790555062000275675db38216230bc4e560c01b6200028660201b60201c565b6000600781905550505050620003da565b50565b600080fd5b6000819050919050565b620002a3816200028e565b8114620002af57600080fd5b50565b600081519050620002c38162000298565b92915050565b600080600060608486031215620002e557620002e462000289565b5b6000620002f586828701620002b2565b93505060206200030886828701620002b2565b92505060406200031b86828701620002b2565b9150509250925092565b7f4e487b7100000000000000000000000000000000000000000000000000000000600052601160045260246000fd5b600062000361826200028e565b91506200036e836200028e565b92508282026200037e816200028e565b9150828204841483151762000398576200039762000325565b5b5092915050565b6000620003ac826200028e565b9150620003b9836200028e565b9250828201905080821115620003d457620003d362000325565b5b92915050565b61122080620003ea6000396000f3fe6080604052600436106100e85760003560e01c806362ea82db1161008a578063bdb3937311610059578063bdb39373146102c9578063d3642a88146102f4578063db2e1eed1461031f578063eb91d37e1461034a576100e8565b806362ea82db1461020d57806370a082311461024a5780638643337414610287578063b5545a3c146102b2576100e8565b80631d0806ae116100c65780631d0806ae1461016157806328e2f6961461018c5780633103ea62146101b75780634b449cba146101e2576100e8565b806308551a53146100ed578063100e4555146101185780631998aeef14610143575b600080fd5b3480156100f957600080fd5b50610102610375565b60405161010f9190610e0f565b60405180910390f35b34801561012457600080fd5b5061012d610399565b60405161013a9190610e45565b60405180910390f35b61014b6103ac565b6040516101589190610e45565b60405180910390f35b34801561016d57600080fd5b506101766108ce565b6040516101839190610e79565b60405180910390f35b34801561019857600080fd5b506101a16108d4565b6040516101ae9190610e79565b60405180910390f35b3480156101c357600080fd5b506101cc6108da565b6040516101d99190610e79565b60405180910390f35b3480156101ee57600080fd5b506101f76108e0565b6040516102049190610e79565b60405180910390f35b34801561021957600080fd5b50610234600480360381019061022f9190610ed7565b6108e6565b6040516102419190610e79565b60405180910390f35b34801561025657600080fd5b50610271600480360381019061026c9190610ed7565b6108fe565b60405161027e9190610e79565b60405180910390f35b34801561029357600080fd5b5061029c610983565b6040516102a99190610e45565b60405180910390f35b3480156102be57600080fd5b506102c7610996565b005b3480156102d557600080fd5b506102de610bb3565b6040516102eb9190610e0f565b60405180910390f35b34801561030057600080fd5b50610309610bd9565b6040516103169190610e79565b60405180910390f35b34801561032b57600080fd5b50610334610bdf565b6040516103419190610e79565b60405180910390f35b34801561035657600080fd5b5061035f610be5565b60405161036c9190610e79565b60405180910390f35b60008054906101000a900473ffffffffffffffffffffffffffffffffffffffff1681565b600860009054906101000a900460ff1681565b60006103c2677a1b4e49786b501e60c01b610d09565b6103d667e10a8830678b81f960c01b610d09565b6103ea6759c5258548b17ff560c01b610d09565b60006103f4610be5565b905061040a67b731f54bfecb0cda60c01b610d09565b61041e67ee0f4235035900ab60c01b610d09565b610432675730cd6ea262fadf60c01b610d09565b60008111610475576040517f08c379a000000000000000000000000000000000000000000000000000000000815260040161046c90610f61565b60405180910390fd5b610489673edecc1498c5bc8d60c01b610d09565b61049d6775de84763838f7b360c01b610d09565b6104b167e4359f1e43af43ee60c01b610d09565b6104c5670b170ceb628e16e760c01b610d09565b60003411610508576040517f08c379a00000000000000000000000000000000000000000000000000000000081526004016104ff90610ff3565b60405180910390fd5b61051c67354b978e166c4d8f60c01b610d09565b6105306727c9e7fb31b43c0360c01b610d09565b61054467d5d3e242175f710e60c01b610d09565b61055867f9bc390264aa87e360c01b610d09565b8034101561059b576040517f08c379a000000000000000000000000000000000000000000000000000000000815260040161059290611085565b60405180910390fd5b6105af675b400aa0df33efd360c01b610d09565b6105c367815b1ff516b115aa60c01b610d09565b6105d7678319bc815088964f60c01b610d09565b600860009054906101000a900460ff166107ee576105ff67f1f90a13826b2a7d60c01b610d09565b610613676d17549aa370a7c060c01b610d09565b33600660016101000a81548173ffffffffffffffffffffffffffffffffffffffff021916908373ffffffffffffffffffffffffffffffffffffffff1602179055506106686784bb0a627b6c94bd60c01b610d09565b3460078190555061068367ccc6a8e4cdd4f4b960c01b610d09565b6001600860006101000a81548160ff0219169083151502179055506106b26703714eb9b5c4f25360c01b610d09565b600754600960008060009054906101000a900473ffffffffffffffffffffffffffffffffffffffff1673ffffffffffffffffffffffffffffffffffffffff1673ffffffffffffffffffffffffffffffffffffffff168152602001908152602001600020600082825461072491906110d4565b9250508190555061073f67fdf85dbb2594d35760c01b610d09565b610753675f69820ca83a01b760c01b610d09565b60008054906101000a900473ffffffffffffffffffffffffffffffffffffffff1673ffffffffffffffffffffffffffffffffffffffff166108fc6007549081150290604051600060405180830381858888f193505050501580156107bb573d6000803e3d6000fd5b506107d067f4ef04060f626b6860c01b610d09565b6107e4675a672369dfb4f1e060c01b610d09565b60019150506108cb565b610802673cee6b8b55fb124160c01b610d09565b61081667e6077b45be8792a160c01b610d09565b61082a675e040bacf741173360c01b610d09565b61083343610d0c565b6108476762d8afb4ad80721c60c01b610d09565b34600960003373ffffffffffffffffffffffffffffffffffffffff1673ffffffffffffffffffffffffffffffffffffffff168152602001908152602001600020600082825461089691906110d4565b925050819055506108b1671ec4c30b40980a6560c01b610d09565b6108c5672a5d11356ae52de760c01b610d09565b60009150505b90565b60045481565b60075481565b60025481565b60055481565b60096020528060005260406000206000915090505481565b600061091467d7d47aebfba906ae60c01b610d09565b61092867234e96ba48e425e360c01b610d09565b61093c672e022e7dbec37df260c01b610d09565b600960008373ffffffffffffffffffffffffffffffffffffffff1673ffffffffffffffffffffffffffffffffffffffff168152602001908152602001600020549050919050565b600660009054906101000a900460ff1681565b6109aa6729036973cc59a78660c01b610d09565b6109be67494db716027ac4b160c01b610d09565b6109d26739c3527a0f7f489c60c01b610d09565b6109e6677b7170c1438df80960c01b610d09565b6000600960003373ffffffffffffffffffffffffffffffffffffffff1673ffffffffffffffffffffffffffffffffffffffff1681526020019081526020016000205411610a68576040517f08c379a0000000000000000000000000000000000000000000000000000000008152600401610a5f90611154565b60405180910390fd5b610a7c67fb03d548bcc068cc60c01b610d09565b610a90675e467107027c1e5f60c01b610d09565b610aa467b4e5dc91fa61eac660c01b610d09565b6000600960003373ffffffffffffffffffffffffffffffffffffffff1673ffffffffffffffffffffffffffffffffffffffff168152602001908152602001600020549050610afc67666f41707f9f516360c01b610d09565b6000600960003373ffffffffffffffffffffffffffffffffffffffff1673ffffffffffffffffffffffffffffffffffffffff16815260200190815260200160002081905550610b55670f865aa36e3b78f960c01b610d09565b610b69676d267115a1a6a2ab60c01b610d09565b3373ffffffffffffffffffffffffffffffffffffffff166108fc829081150290604051600060405180830381858888f19350505050158015610baf573d6000803e3d6000fd5b5050565b600660019054906101000a900473ffffffffffffffffffffffffffffffffffffffff1681565b60035481565b60015481565b6000610bfb6777763b4b56986d0660c01b610d09565b610c0f67c54e0f75614a867660c01b610d09565b610c236787950364dc5a4cb160c01b610d09565b6005544310610c7157610c4067dedf3a806806a56860c01b610d09565b610c546753ebeeed34fc106a60c01b610d09565b610c6867953792c1b7298c3b60c01b610d09565b60009050610d06565b610c85674bbade36e749aabc60c01b610d09565b610c9967c634cd65d2455ba460c01b610d09565b610cad6707288627b8a3c1fb60c01b610d09565b600043600554610cbd9190611174565b9050610cd367a3f86e64f9ef93df60c01b610d09565b610ce767fbde358329891e4e60c01b610d09565b60035481610cf591906111a8565b600454610d029190611174565b9150505b90565b50565b610da281604051602401610d209190610e79565b6040516020818303038152906040527ff82c50f1000000000000000000000000000000000000000000000000000000007bffffffffffffffffffffffffffffffffffffffffffffffffffffffff19166020820180517bffffffffffffffffffffffffffffffffffffffffffffffffffffffff8381831617835250505050610da5565b50565b60008151905060006a636f6e736f6c652e6c6f679050602083016000808483855afa5050505050565b600073ffffffffffffffffffffffffffffffffffffffff82169050919050565b6000610df982610dce565b9050919050565b610e0981610dee565b82525050565b6000602082019050610e246000830184610e00565b92915050565b60008115159050919050565b610e3f81610e2a565b82525050565b6000602082019050610e5a6000830184610e36565b92915050565b6000819050919050565b610e7381610e60565b82525050565b6000602082019050610e8e6000830184610e6a565b92915050565b600080fd5b6000610ea482610dce565b9050919050565b610eb481610e99565b8114610ebf57600080fd5b50565b600081359050610ed181610eab565b92915050565b600060208284031215610eed57610eec610e94565b5b6000610efb84828501610ec2565b91505092915050565b600082825260208201905092915050565b7f41756374696f6e2068617320656e646564000000000000000000000000000000600082015250565b6000610f4b601183610f04565b9150610f5682610f15565b602082019050919050565b60006020820190508181036000830152610f7a81610f3e565b9050919050565b7f42696420616d6f756e74206d7573742062652067726561746572207468616e2060008201527f3000000000000000000000000000000000000000000000000000000000000000602082015250565b6000610fdd602183610f04565b9150610fe882610f81565b604082019050919050565b6000602082019050818103600083015261100c81610fd0565b9050919050565b7f42696420616d6f756e74206973206c6f776572207468616e2063757272656e7460008201527f2070726963650000000000000000000000000000000000000000000000000000602082015250565b600061106f602683610f04565b915061107a82611013565b604082019050919050565b6000602082019050818103600083015261109e81611062565b9050919050565b7f4e487b7100000000000000000000000000000000000000000000000000000000600052601160045260246000fd5b60006110df82610e60565b91506110ea83610e60565b9250828201905080821115611102576111016110a5565b5b92915050565b7f4e6f20726566756e6420617661696c61626c6500000000000000000000000000600082015250565b600061113e601383610f04565b915061114982611108565b602082019050919050565b6000602082019050818103600083015261116d81611131565b9050919050565b600061117f82610e60565b915061118a83610e60565b92508282039050818111156111a2576111a16110a5565b5b92915050565b60006111b382610e60565b91506111be83610e60565b92508282026111cc81610e60565b915082820484148315176111e3576111e26110a5565b5b509291505056fea2646970667358221220f62b5be20e6c8d43ffac577c22f598d9d66885fcc1533e27e24062460b3331a364736f6c63430008120033",
  "linkReferences": {},
  "deployedLinkReferences": {}
}