{
  "_format": "hh-sol-artifact-1",
  "contractName": "BasicDutchAuction",
  "sourceName": "contracts/BasicDutchAuction.sol",
  "abi": [
    {
      "inputs": [
        {
          "internalType": "uint256",
          "name": "_reservePrice",
          "type": "uint256"
        },
        {
          "internalType": "uint256",
          "name": "_numBlocksAuctionOpen",
          "type": "uint256"
        },
        {
          "internalType": "uint256",
          "name": "_offerPriceDecrement",
          "type": "uint256"
        }
      ],
      "stateMutability": "nonpayable",
      "type": "constructor"
    },
    {
      "anonymous": false,
      "inputs": [
        {
          "indexed": false,
          "internalType": "address",
          "name": "winner",
          "type": "address"
        },
        {
          "indexed": false,
          "internalType": "uint256",
          "name": "amount",
          "type": "uint256"
        }
      ],
      "name": "AuctionEnded",
      "type": "event"
    },
    {
      "inputs": [],
      "name": "auctionEndTime",
      "outputs": [
        {
          "internalType": "uint256",
          "name": "",
          "type": "uint256"
        }
      ],
      "stateMutability": "view",
      "type": "function"
    },
    {
      "inputs": [],
      "name": "auctionEnded",
      "outputs": [
        {
          "internalType": "bool",
          "name": "",
          "type": "bool"
        }
      ],
      "stateMutability": "view",
      "type": "function"
    },
    {
      "inputs": [],
      "name": "bid",
      "outputs": [
        {
          "internalType": "bool",
          "name": "",
          "type": "bool"
        }
      ],
      "stateMutability": "payable",
      "type": "function"
    },
    {
      "inputs": [
        {
          "internalType": "address",
          "name": "",
          "type": "address"
        }
      ],
      "name": "bids",
      "outputs": [
        {
          "internalType": "uint256",
          "name": "",
          "type": "uint256"
        }
      ],
      "stateMutability": "view",
      "type": "function"
    },
    {
      "inputs": [],
      "name": "claimRefund",
      "outputs": [
        {
          "internalType": "uint256",
          "name": "refundAmount",
          "type": "uint256"
        }
      ],
      "stateMutability": "nonpayable",
      "type": "function"
    },
    {
      "inputs": [],
      "name": "firstBid",
      "outputs": [
        {
          "internalType": "uint256",
          "name": "",
          "type": "uint256"
        }
      ],
      "stateMutability": "view",
      "type": "function"
    },
    {
      "inputs": [],
      "name": "firstBidder",
      "outputs": [
        {
          "internalType": "address payable",
          "name": "",
          "type": "address"
        }
      ],
      "stateMutability": "view",
      "type": "function"
    },
    {
      "inputs": [],
      "name": "getCurrentPrice",
      "outputs": [
        {
          "internalType": "uint256",
          "name": "",
          "type": "uint256"
        }
      ],
      "stateMutability": "view",
      "type": "function"
    },
    {
      "inputs": [],
      "name": "gotValidBid",
      "outputs": [
        {
          "internalType": "bool",
          "name": "",
          "type": "bool"
        }
      ],
      "stateMutability": "view",
      "type": "function"
    },
    {
      "inputs": [],
      "name": "initialPrice",
      "outputs": [
        {
          "internalType": "uint256",
          "name": "",
          "type": "uint256"
        }
      ],
      "stateMutability": "view",
      "type": "function"
    },
    {
      "inputs": [],
      "name": "numBlocksAuctionOpen",
      "outputs": [
        {
          "internalType": "uint256",
          "name": "",
          "type": "uint256"
        }
      ],
      "stateMutability": "view",
      "type": "function"
    },
    {
      "inputs": [],
      "name": "offerPriceDecrement",
      "outputs": [
        {
          "internalType": "uint256",
          "name": "",
          "type": "uint256"
        }
      ],
      "stateMutability": "view",
      "type": "function"
    },
    {
      "inputs": [],
      "name": "reservePrice",
      "outputs": [
        {
          "internalType": "uint256",
          "name": "",
          "type": "uint256"
        }
      ],
      "stateMutability": "view",
      "type": "function"
    },
    {
      "inputs": [],
      "name": "seller",
      "outputs": [
        {
          "internalType": "address payable",
          "name": "",
          "type": "address"
        }
      ],
      "stateMutability": "view",
      "type": "function"
    }
  ],
  "bytecode": "0x60806040523480156200001157600080fd5b506040516200115938038062001159833981810160405281019062000037919062000192565b336000806101000a81548173ffffffffffffffffffffffffffffffffffffffff021916908373ffffffffffffffffffffffffffffffffffffffff1602179055508260018190555081600281905550806003819055506003546002546200009e91906200021d565b600154620000ad919062000268565b60048190555060025443620000c3919062000268565b6005819055506000600660006101000a81548160ff0219169083151502179055506000600860006101000a81548160ff0219169083151502179055506000600660016101000a81548173ffffffffffffffffffffffffffffffffffffffff021916908373ffffffffffffffffffffffffffffffffffffffff1602179055506000600781905550505050620002a3565b600080fd5b6000819050919050565b6200016c8162000157565b81146200017857600080fd5b50565b6000815190506200018c8162000161565b92915050565b600080600060608486031215620001ae57620001ad62000152565b5b6000620001be868287016200017b565b9350506020620001d1868287016200017b565b9250506040620001e4868287016200017b565b9150509250925092565b7f4e487b7100000000000000000000000000000000000000000000000000000000600052601160045260246000fd5b60006200022a8262000157565b9150620002378362000157565b9250828202620002478162000157565b91508282048414831517620002615762000260620001ee565b5b5092915050565b6000620002758262000157565b9150620002828362000157565b92508282019050808211156200029d576200029c620001ee565b5b92915050565b610ea680620002b36000396000f3fe6080604052600436106100dd5760003560e01c806362ea82db1161007f578063bdb3937311610059578063bdb3937314610295578063d3642a88146102c0578063db2e1eed146102eb578063eb91d37e14610316576100dd565b806362ea82db14610202578063864333741461023f578063b5545a3c1461026a576100dd565b80631d0806ae116100bb5780631d0806ae1461015657806328e2f696146101815780633103ea62146101ac5780634b449cba146101d7576100dd565b806308551a53146100e2578063100e45551461010d5780631998aeef14610138575b600080fd5b3480156100ee57600080fd5b506100f7610341565b60405161010491906109c4565b60405180910390f35b34801561011957600080fd5b50610122610365565b60405161012f91906109fa565b60405180910390f35b610140610378565b60405161014d91906109fa565b60405180910390f35b34801561016257600080fd5b5061016b6105d5565b6040516101789190610a2e565b60405180910390f35b34801561018d57600080fd5b506101966105db565b6040516101a39190610a2e565b60405180910390f35b3480156101b857600080fd5b506101c16105e1565b6040516101ce9190610a2e565b60405180910390f35b3480156101e357600080fd5b506101ec6105e7565b6040516101f99190610a2e565b60405180910390f35b34801561020e57600080fd5b5061022960048036038101906102249190610a8c565b6105ed565b6040516102369190610a2e565b60405180910390f35b34801561024b57600080fd5b50610254610605565b60405161026191906109fa565b60405180910390f35b34801561027657600080fd5b5061027f610618565b60405161028c9190610a2e565b60405180910390f35b3480156102a157600080fd5b506102aa61076c565b6040516102b791906109c4565b60405180910390f35b3480156102cc57600080fd5b506102d5610792565b6040516102e29190610a2e565b60405180910390f35b3480156102f757600080fd5b50610300610798565b60405161030d9190610a2e565b60405180910390f35b34801561032257600080fd5b5061032b61079e565b6040516103389190610a2e565b60405180910390f35b60008054906101000a900473ffffffffffffffffffffffffffffffffffffffff1681565b600860009054906101000a900460ff1681565b60008061038361079e565b9050600081116103c8576040517f08c379a00000000000000000000000000000000000000000000000000000000081526004016103bf90610b16565b60405180910390fd5b6000341161040b576040517f08c379a000000000000000000000000000000000000000000000000000000000815260040161040290610ba8565b60405180910390fd5b8034101561044e576040517f08c379a000000000000000000000000000000000000000000000000000000000815260040161044590610c3a565b60405180910390fd5b600860009054906101000a900460ff166105765733600660016101000a81548173ffffffffffffffffffffffffffffffffffffffff021916908373ffffffffffffffffffffffffffffffffffffffff160217905550346007819055506001600860006101000a81548160ff02191690831515021790555060008054906101000a900473ffffffffffffffffffffffffffffffffffffffff1673ffffffffffffffffffffffffffffffffffffffff166108fc6007549081150290604051600060405180830381858888f1935050505015801561052d573d6000803e3d6000fd5b5061056c6040518060400160405280600f81526020017f666972737442696420676f742069740000000000000000000000000000000000815250610825565b60019150506105d2565b34600960003373ffffffffffffffffffffffffffffffffffffffff1673ffffffffffffffffffffffffffffffffffffffff16815260200190815260200160002060008282546105c59190610c89565b9250508190555060009150505b90565b60045481565b60075481565b60025481565b60055481565b60096020528060005260406000206000915090505481565b600660009054906101000a900460ff1681565b600080600960003373ffffffffffffffffffffffffffffffffffffffff1673ffffffffffffffffffffffffffffffffffffffff168152602001908152602001600020541161069b576040517f08c379a000000000000000000000000000000000000000000000000000000000815260040161069290610d09565b60405180910390fd5b600960003373ffffffffffffffffffffffffffffffffffffffff1673ffffffffffffffffffffffffffffffffffffffff1681526020019081526020016000205490506000600960003373ffffffffffffffffffffffffffffffffffffffff1673ffffffffffffffffffffffffffffffffffffffff168152602001908152602001600020819055503373ffffffffffffffffffffffffffffffffffffffff166108fc829081150290604051600060405180830381858888f19350505050158015610768573d6000803e3d6000fd5b5090565b600660019054906101000a900473ffffffffffffffffffffffffffffffffffffffff1681565b60035481565b60015481565b60006107df6040518060400160405280601181526020017f43757272656e7420626c6f636b3a202573000000000000000000000000000000815250436108be565b60055443106107f15760009050610822565b6000436005546108019190610d29565b9050600354816108119190610d5d565b60045461081e9190610d29565b9150505b90565b6108bb816040516024016108399190610e1e565b6040516020818303038152906040527f41304fac000000000000000000000000000000000000000000000000000000007bffffffffffffffffffffffffffffffffffffffffffffffffffffffff19166020820180517bffffffffffffffffffffffffffffffffffffffffffffffffffffffff838183161783525050505061095a565b50565b61095682826040516024016108d4929190610e40565b6040516020818303038152906040527fb60e72cc000000000000000000000000000000000000000000000000000000007bffffffffffffffffffffffffffffffffffffffffffffffffffffffff19166020820180517bffffffffffffffffffffffffffffffffffffffffffffffffffffffff838183161783525050505061095a565b5050565b60008151905060006a636f6e736f6c652e6c6f679050602083016000808483855afa5050505050565b600073ffffffffffffffffffffffffffffffffffffffff82169050919050565b60006109ae82610983565b9050919050565b6109be816109a3565b82525050565b60006020820190506109d960008301846109b5565b92915050565b60008115159050919050565b6109f4816109df565b82525050565b6000602082019050610a0f60008301846109eb565b92915050565b6000819050919050565b610a2881610a15565b82525050565b6000602082019050610a436000830184610a1f565b92915050565b600080fd5b6000610a5982610983565b9050919050565b610a6981610a4e565b8114610a7457600080fd5b50565b600081359050610a8681610a60565b92915050565b600060208284031215610aa257610aa1610a49565b5b6000610ab084828501610a77565b91505092915050565b600082825260208201905092915050565b7f41756374696f6e2068617320656e646564000000000000000000000000000000600082015250565b6000610b00601183610ab9565b9150610b0b82610aca565b602082019050919050565b60006020820190508181036000830152610b2f81610af3565b9050919050565b7f42696420616d6f756e74206d7573742062652067726561746572207468616e2060008201527f3000000000000000000000000000000000000000000000000000000000000000602082015250565b6000610b92602183610ab9565b9150610b9d82610b36565b604082019050919050565b60006020820190508181036000830152610bc181610b85565b9050919050565b7f42696420616d6f756e74206973206c6f776572207468616e2063757272656e7460008201527f2070726963650000000000000000000000000000000000000000000000000000602082015250565b6000610c24602683610ab9565b9150610c2f82610bc8565b604082019050919050565b60006020820190508181036000830152610c5381610c17565b9050919050565b7f4e487b7100000000000000000000000000000000000000000000000000000000600052601160045260246000fd5b6000610c9482610a15565b9150610c9f83610a15565b9250828201905080821115610cb757610cb6610c5a565b5b92915050565b7f4e6f20726566756e6420617661696c61626c6500000000000000000000000000600082015250565b6000610cf3601383610ab9565b9150610cfe82610cbd565b602082019050919050565b60006020820190508181036000830152610d2281610ce6565b9050919050565b6000610d3482610a15565b9150610d3f83610a15565b9250828203905081811115610d5757610d56610c5a565b5b92915050565b6000610d6882610a15565b9150610d7383610a15565b9250828202610d8181610a15565b91508282048414831517610d9857610d97610c5a565b5b5092915050565b600081519050919050565b60005b83811015610dc8578082015181840152602081019050610dad565b60008484015250505050565b6000601f19601f8301169050919050565b6000610df082610d9f565b610dfa8185610ab9565b9350610e0a818560208601610daa565b610e1381610dd4565b840191505092915050565b60006020820190508181036000830152610e388184610de5565b905092915050565b60006040820190508181036000830152610e5a8185610de5565b9050610e696020830184610a1f565b939250505056fea26469706673582212207daa8632dac023287511175c63113aa84025686d1eb22689dac9bbeaf7c6901864736f6c63430008120033",
  "linkReferences": {},
  "deployedLinkReferences": {}
}